{
	"data": {
		"bytecode": {
			"linkReferences": {},
			"object": "6080604052670de0b6b3a7640000600a553480156200001d57600080fd5b5060405162002fc238038062002fc28339818101604052810190620000439190620003d4565b62000063620000576200011760201b60201c565b6200011f60201b60201c565b6001808190555080600460006101000a81548173ffffffffffffffffffffffffffffffffffffffff021916908373ffffffffffffffffffffffffffffffffffffffff160217905550620000cf6000801b620000c36200011760201b60201c565b620001e360201b60201c565b620001107f899bd46557473cb80307a9dabc297131ced39608330a2d29b2d52b660c03923e620001046200011760201b60201c565b620001e360201b60201c565b5062000406565b600033905090565b60008060009054906101000a900473ffffffffffffffffffffffffffffffffffffffff169050816000806101000a81548173ffffffffffffffffffffffffffffffffffffffff021916908373ffffffffffffffffffffffffffffffffffffffff1602179055508173ffffffffffffffffffffffffffffffffffffffff168173ffffffffffffffffffffffffffffffffffffffff167f8be0079c531659141344cd1fd0a4f28419497f9722a3daafe3b4186f6b6457e060405160405180910390a35050565b620001f58282620001f960201b60201c565b5050565b6200020b8282620002eb60201b60201c565b620002e75760016002600084815260200190815260200160002060000160008373ffffffffffffffffffffffffffffffffffffffff1673ffffffffffffffffffffffffffffffffffffffff16815260200190815260200160002060006101000a81548160ff0219169083151502179055506200028c6200011760201b60201c565b73ffffffffffffffffffffffffffffffffffffffff168173ffffffffffffffffffffffffffffffffffffffff16837f2f8788117e7eff1d82e926ec794901d17c78024a50270940304540a733656f0d60405160405180910390a45b5050565b60006002600084815260200190815260200160002060000160008373ffffffffffffffffffffffffffffffffffffffff1673ffffffffffffffffffffffffffffffffffffffff16815260200190815260200160002060009054906101000a900460ff16905092915050565b600080fd5b600073ffffffffffffffffffffffffffffffffffffffff82169050919050565b600062000388826200035b565b9050919050565b60006200039c826200037b565b9050919050565b620003ae816200038f565b8114620003ba57600080fd5b50565b600081519050620003ce81620003a3565b92915050565b600060208284031215620003ed57620003ec62000356565b5b6000620003fd84828501620003bd565b91505092915050565b612bac80620004166000396000f3fe608060405234801561001057600080fd5b50600436106101c45760003560e01c8063669004f9116100f95780639588e61411610097578063d547741f11610071578063d547741f146104ae578063e0e9349b146104ca578063eceab5c5146104e6578063f2fde38b14610504576101c4565b80639588e6141461043f578063a217fddf1461045d578063a6ef79b41461047b576101c4565b806381613f25116100d357806381613f25146103dd5780638a6e0169146103e75780638da5cb5b146103f157806391d148541461040f576101c4565b8063669004f914610385578063715018a6146103b55780637f862785146103bf576101c4565b80632e1a7d4d1161016657806336568abe1161014057806336568abe1461031157806338b7f4461461032d578063527a52c81461034b5780635e6a4fb014610367576101c4565b80632e1a7d4d146102bb5780632f2ff15d146102d75780632f41ffd0146102f3576101c4565b806320346961116101a25780632034696114610235578063248a9ca31461025157806326ba7898146102815780632dc471531461029d576101c4565b806301ffc9a7146101c957806316317c21146101f957806319cb170c14610217575b600080fd5b6101e360048036038101906101de9190611cb9565b610520565b6040516101f09190611d01565b60405180910390f35b61020161059a565b60405161020e9190611d35565b60405180910390f35b61021f6105a0565b60405161022c9190611d35565b60405180910390f35b61024f600480360381019061024a9190611d7c565b6105a6565b005b61026b60048036038101906102669190611ddf565b610620565b6040516102789190611e1b565b60405180910390f35b61029b60048036038101906102969190611e94565b610640565b005b6102a5610757565b6040516102b29190611ed0565b60405180910390f35b6102d560048036038101906102d09190611d7c565b61077d565b005b6102f160048036038101906102ec9190611eeb565b6108da565b005b6102fb6108fb565b6040516103089190611d35565b60405180910390f35b61032b60048036038101906103269190611eeb565b610901565b005b610335610984565b6040516103429190611e1b565b60405180910390f35b61036560048036038101906103609190611e94565b6109a8565b005b61036f610a6c565b60405161037c9190611d35565b60405180910390f35b61039f600480360381019061039a9190611d7c565b610a72565b6040516103ac9190611f8a565b60405180910390f35b6103bd610ab0565b005b6103c7610ac4565b6040516103d49190611d35565b60405180910390f35b6103e5610aca565b005b6103ef610c0a565b005b6103f9610ff4565b6040516104069190611ed0565b60405180910390f35b61042960048036038101906104249190611eeb565b61101d565b6040516104369190611d01565b60405180910390f35b610447611088565b6040516104549190611d35565b60405180910390f35b61046561108e565b6040516104729190611e1b565b60405180910390f35b61049560048036038101906104909190611d7c565b611095565b6040516104a59493929190612035565b60405180910390f35b6104c860048036038101906104c39190611eeb565b61114d565b005b6104e460048036038101906104df91906120bf565b61116e565b005b6104ee611260565b6040516104fb9190611d35565b60405180910390f35b61051e60048036038101906105199190611e94565b611266565b005b60007f7965db0b000000000000000000000000000000000000000000000000000000007bffffffffffffffffffffffffffffffffffffffffffffffffffffffff1916827bffffffffffffffffffffffffffffffffffffffffffffffffffffffff191614806105935750610592826112e9565b5b9050919050565b600e5481565b600a5481565b6105d77f899bd46557473cb80307a9dabc297131ced39608330a2d29b2d52b660c03923e6105d2611353565b61101d565b610616576040517f08c379a000000000000000000000000000000000000000000000000000000000815260040161060d90612138565b60405180910390fd5b8060078190555050565b600060026000838152602001908152602001600020600101549050919050565b6106717f899bd46557473cb80307a9dabc297131ced39608330a2d29b2d52b660c03923e61066c611353565b61101d565b6106b0576040517f08c379a00000000000000000000000000000000000000000000000000000000081526004016106a790612138565b60405180910390fd5b80600860006101000a81548173ffffffffffffffffffffffffffffffffffffffff021916908373ffffffffffffffffffffffffffffffffffffffff160217905550600860009054906101000a900473ffffffffffffffffffffffffffffffffffffffff16600560006101000a81548173ffffffffffffffffffffffffffffffffffffffff021916908373ffffffffffffffffffffffffffffffffffffffff16021790555050565b600860009054906101000a900473ffffffffffffffffffffffffffffffffffffffff1681565b61078561135b565b6107b67f899bd46557473cb80307a9dabc297131ced39608330a2d29b2d52b660c03923e6107b1611353565b61101d565b6107f5576040517f08c379a00000000000000000000000000000000000000000000000000000000081526004016107ec90612138565b60405180910390fd5b600460009054906101000a900473ffffffffffffffffffffffffffffffffffffffff1673ffffffffffffffffffffffffffffffffffffffff1663a9059cbb33836040518363ffffffff1660e01b8152600401610852929190612158565b6020604051808303816000875af1158015610871573d6000803e3d6000fd5b505050506040513d601f19601f8201168201806040525081019061089591906121ad565b507f56ca301a9219608c91e7bcee90e083c19671d2cdcc96752c7af291cee5f9c8c842826040516108c79291906121da565b60405180910390a16108d76113aa565b50565b6108e382610620565b6108ec816113b3565b6108f683836113c7565b505050565b60095481565b610909611353565b73ffffffffffffffffffffffffffffffffffffffff168173ffffffffffffffffffffffffffffffffffffffff1614610976576040517f08c379a000000000000000000000000000000000000000000000000000000000815260040161096d90612275565b60405180910390fd5b61098082826114a8565b5050565b7f899bd46557473cb80307a9dabc297131ced39608330a2d29b2d52b660c03923e81565b6109b061135b565b6109e17f899bd46557473cb80307a9dabc297131ced39608330a2d29b2d52b660c03923e6109dc611353565b61101d565b610a20576040517f08c379a0000000000000000000000000000000000000000000000000000000008152600401610a1790612138565b60405180910390fd5b80600660006101000a81548173ffffffffffffffffffffffffffffffffffffffff021916908373ffffffffffffffffffffffffffffffffffffffff160217905550610a696113aa565b50565b600d5481565b60036020528060005260406000206000915090508060000160009054906101000a900473ffffffffffffffffffffffffffffffffffffffff16905081565b610ab861158a565b610ac26000611608565b565b60075481565b610ad261135b565b610b037f899bd46557473cb80307a9dabc297131ced39608330a2d29b2d52b660c03923e610afe611353565b61101d565b610b42576040517f08c379a0000000000000000000000000000000000000000000000000000000008152600401610b3990612138565b60405180910390fd5b6000600560009054906101000a900473ffffffffffffffffffffffffffffffffffffffff1673ffffffffffffffffffffffffffffffffffffffff1663feaf968c6040518163ffffffff1660e01b815260040160a060405180830381865afa158015610bb1573d6000803e3d6000fd5b505050506040513d601f19601f82011682018060405250810190610bd591906122ec565b5050509150506000610bf56402540be400836116cc90919063ffffffff16565b905080600d819055505050610c086113aa565b565b610c1261135b565b610c437f899bd46557473cb80307a9dabc297131ced39608330a2d29b2d52b660c03923e610c3e611353565b61101d565b610c82576040517f08c379a0000000000000000000000000000000000000000000000000000000008152600401610c7990612138565b60405180910390fd5b6000610c8c6116e2565b9050600190508015610fe9576000610cdf610cb4600d54600c546116cc90919063ffffffff16565b610cd1670de0b6b3a7640000600b546116cc90919063ffffffff16565b61192c90919063ffffffff16565b90506000610cfe670de0b6b3a76400008361194290919063ffffffff16565b9050600754811015610e2a576000610d218260075461195890919063ffffffff16565b9050600460009054906101000a900473ffffffffffffffffffffffffffffffffffffffff1673ffffffffffffffffffffffffffffffffffffffff166342966c68826040518263ffffffff1660e01b8152600401610d7e9190611d35565b600060405180830381600087803b158015610d9857600080fd5b505af1158015610dac573d6000803e3d6000fd5b505050506040518060400160405280600481526020017f4275726e00000000000000000000000000000000000000000000000000000000815250600f600060095481526020019081526020016000206000019081610e0a9190612598565b5080600f6000600954815260200190815260200160002060010181905550505b600754811115610f54576000610e4b6007548361195890919063ffffffff16565b9050600460009054906101000a900473ffffffffffffffffffffffffffffffffffffffff1673ffffffffffffffffffffffffffffffffffffffff1663a0712d68826040518263ffffffff1660e01b8152600401610ea89190611d35565b600060405180830381600087803b158015610ec257600080fd5b505af1158015610ed6573d6000803e3d6000fd5b505050506040518060400160405280600481526020017f4d696e7400000000000000000000000000000000000000000000000000000000815250600f600060095481526020019081526020016000206000019081610f349190612598565b5080600f6000600954815260200190815260200160002060010181905550505b8060078190555043600f600060095481526020019081526020016000206003018190555042600f600060095481526020019081526020016000206002018190555060096000815480929190610fa890612699565b91905055507f2a6a493f767ec856dcac2f52ecc7e244b432c2d615092ef532c22a94568ed9954282604051610fde9291906121da565b60405180910390a150505b50610ff26113aa565b565b60008060009054906101000a900473ffffffffffffffffffffffffffffffffffffffff16905090565b60006002600084815260200190815260200160002060000160008373ffffffffffffffffffffffffffffffffffffffff1673ffffffffffffffffffffffffffffffffffffffff16815260200190815260200160002060009054906101000a900460ff16905092915050565b600b5481565b6000801b81565b600f6020528060005260406000206000915090508060000180546110b8906123c5565b80601f01602080910402602001604051908101604052809291908181526020018280546110e4906123c5565b80156111315780601f1061110657610100808354040283529160200191611131565b820191906000526020600020905b81548152906001019060200180831161111457829003601f168201915b5050505050908060010154908060020154908060030154905084565b61115682610620565b61115f816113b3565b61116983836114a8565b505050565b61117661135b565b6111a77f899bd46557473cb80307a9dabc297131ced39608330a2d29b2d52b660c03923e6111a2611353565b61101d565b6111e6576040517f08c379a00000000000000000000000000000000000000000000000000000000081526004016111dd90612138565b60405180910390fd5b8060036000600e54815260200190815260200160002060000160006101000a81548173ffffffffffffffffffffffffffffffffffffffff021916908373ffffffffffffffffffffffffffffffffffffffff160217905550600e600081548092919061125090612699565b919050555061125d6113aa565b50565b600c5481565b61126e61158a565b600073ffffffffffffffffffffffffffffffffffffffff168173ffffffffffffffffffffffffffffffffffffffff16036112dd576040517f08c379a00000000000000000000000000000000000000000000000000000000081526004016112d490612753565b60405180910390fd5b6112e681611608565b50565b60007f01ffc9a7000000000000000000000000000000000000000000000000000000007bffffffffffffffffffffffffffffffffffffffffffffffffffffffff1916827bffffffffffffffffffffffffffffffffffffffffffffffffffffffff1916149050919050565b600033905090565b6002600154036113a0576040517f08c379a0000000000000000000000000000000000000000000000000000000008152600401611397906127bf565b60405180910390fd5b6002600181905550565b60018081905550565b6113c4816113bf611353565b61196e565b50565b6113d1828261101d565b6114a45760016002600084815260200190815260200160002060000160008373ffffffffffffffffffffffffffffffffffffffff1673ffffffffffffffffffffffffffffffffffffffff16815260200190815260200160002060006101000a81548160ff021916908315150217905550611449611353565b73ffffffffffffffffffffffffffffffffffffffff168173ffffffffffffffffffffffffffffffffffffffff16837f2f8788117e7eff1d82e926ec794901d17c78024a50270940304540a733656f0d60405160405180910390a45b5050565b6114b2828261101d565b156115865760006002600084815260200190815260200160002060000160008373ffffffffffffffffffffffffffffffffffffffff1673ffffffffffffffffffffffffffffffffffffffff16815260200190815260200160002060006101000a81548160ff02191690831515021790555061152b611353565b73ffffffffffffffffffffffffffffffffffffffff168173ffffffffffffffffffffffffffffffffffffffff16837ff6391f5c32d9c69d2a47ea670b442974b53935d1edc7fd64eb21e047a839171b60405160405180910390a45b5050565b611592611353565b73ffffffffffffffffffffffffffffffffffffffff166115b0610ff4565b73ffffffffffffffffffffffffffffffffffffffff1614611606576040517f08c379a00000000000000000000000000000000000000000000000000000000081526004016115fd9061282b565b60405180910390fd5b565b60008060009054906101000a900473ffffffffffffffffffffffffffffffffffffffff169050816000806101000a81548173ffffffffffffffffffffffffffffffffffffffff021916908373ffffffffffffffffffffffffffffffffffffffff1602179055508173ffffffffffffffffffffffffffffffffffffffff168173ffffffffffffffffffffffffffffffffffffffff167f8be0079c531659141344cd1fd0a4f28419497f9722a3daafe3b4186f6b6457e060405160405180910390a35050565b600081836116da919061284b565b905092915050565b60006117157f899bd46557473cb80307a9dabc297131ced39608330a2d29b2d52b660c03923e611710611353565b61101d565b611754576040517f08c379a000000000000000000000000000000000000000000000000000000000815260040161174b90612138565b60405180910390fd5b60006003600080815260200190815260200160002060000160009054906101000a900473ffffffffffffffffffffffffffffffffffffffff1673ffffffffffffffffffffffffffffffffffffffff166370a08231600660009054906101000a900473ffffffffffffffffffffffffffffffffffffffff166040518263ffffffff1660e01b81526004016117e79190611ed0565b602060405180830381865afa158015611804573d6000803e3d6000fd5b505050506040513d601f19601f82011682018060405250810190611828919061288d565b90506000600360006001815260200190815260200160002060000160009054906101000a900473ffffffffffffffffffffffffffffffffffffffff1673ffffffffffffffffffffffffffffffffffffffff166370a08231600660009054906101000a900473ffffffffffffffffffffffffffffffffffffffff166040518263ffffffff1660e01b81526004016118be9190611ed0565b602060405180830381865afa1580156118db573d6000803e3d6000fd5b505050506040513d601f19601f820116820180604052508101906118ff919061288d565b9050600b5482146119125781600b819055505b600b5481146119235780600c819055505b60019250505090565b6000818361193a91906128ba565b905092915050565b60008183611950919061291d565b905092915050565b60008183611966919061294e565b905092915050565b611978828261101d565b6119ef57611985816119f3565b6119938360001c6020611a20565b6040516020016119a4929190612a56565b6040516020818303038152906040526040517f08c379a00000000000000000000000000000000000000000000000000000000081526004016119e69190612a90565b60405180910390fd5b5050565b6060611a198273ffffffffffffffffffffffffffffffffffffffff16601460ff16611a20565b9050919050565b606060006002836002611a33919061284b565b611a3d91906128ba565b67ffffffffffffffff811115611a5657611a55612367565b5b6040519080825280601f01601f191660200182016040528015611a885781602001600182028036833780820191505090505b5090507f300000000000000000000000000000000000000000000000000000000000000081600081518110611ac057611abf612ab2565b5b60200101907effffffffffffffffffffffffffffffffffffffffffffffffffffffffffffff1916908160001a9053507f780000000000000000000000000000000000000000000000000000000000000081600181518110611b2457611b23612ab2565b5b60200101907effffffffffffffffffffffffffffffffffffffffffffffffffffffffffffff1916908160001a90535060006001846002611b64919061284b565b611b6e91906128ba565b90505b6001811115611c0e577f3031323334353637383961626364656600000000000000000000000000000000600f861660108110611bb057611baf612ab2565b5b1a60f81b828281518110611bc757611bc6612ab2565b5b60200101907effffffffffffffffffffffffffffffffffffffffffffffffffffffffffffff1916908160001a905350600485901c945080611c0790612ae1565b9050611b71565b5060008414611c52576040517f08c379a0000000000000000000000000000000000000000000000000000000008152600401611c4990612b56565b60405180910390fd5b8091505092915050565b600080fd5b60007fffffffff0000000000000000000000000000000000000000000000000000000082169050919050565b611c9681611c61565b8114611ca157600080fd5b50565b600081359050611cb381611c8d565b92915050565b600060208284031215611ccf57611cce611c5c565b5b6000611cdd84828501611ca4565b91505092915050565b60008115159050919050565b611cfb81611ce6565b82525050565b6000602082019050611d166000830184611cf2565b92915050565b6000819050919050565b611d2f81611d1c565b82525050565b6000602082019050611d4a6000830184611d26565b92915050565b611d5981611d1c565b8114611d6457600080fd5b50565b600081359050611d7681611d50565b92915050565b600060208284031215611d9257611d91611c5c565b5b6000611da084828501611d67565b91505092915050565b6000819050919050565b611dbc81611da9565b8114611dc757600080fd5b50565b600081359050611dd981611db3565b92915050565b600060208284031215611df557611df4611c5c565b5b6000611e0384828501611dca565b91505092915050565b611e1581611da9565b82525050565b6000602082019050611e306000830184611e0c565b92915050565b600073ffffffffffffffffffffffffffffffffffffffff82169050919050565b6000611e6182611e36565b9050919050565b611e7181611e56565b8114611e7c57600080fd5b50565b600081359050611e8e81611e68565b92915050565b600060208284031215611eaa57611ea9611c5c565b5b6000611eb884828501611e7f565b91505092915050565b611eca81611e56565b82525050565b6000602082019050611ee56000830184611ec1565b92915050565b60008060408385031215611f0257611f01611c5c565b5b6000611f1085828601611dca565b9250506020611f2185828601611e7f565b9150509250929050565b6000819050919050565b6000611f50611f4b611f4684611e36565b611f2b565b611e36565b9050919050565b6000611f6282611f35565b9050919050565b6000611f7482611f57565b9050919050565b611f8481611f69565b82525050565b6000602082019050611f9f6000830184611f7b565b92915050565b600081519050919050565b600082825260208201905092915050565b60005b83811015611fdf578082015181840152602081019050611fc4565b60008484015250505050565b6000601f19601f8301169050919050565b600061200782611fa5565b6120118185611fb0565b9350612021818560208601611fc1565b61202a81611feb565b840191505092915050565b6000608082019050818103600083015261204f8187611ffc565b905061205e6020830186611d26565b61206b6040830185611d26565b6120786060830184611d26565b95945050505050565b600061208c82611e56565b9050919050565b61209c81612081565b81146120a757600080fd5b50565b6000813590506120b981612093565b92915050565b6000602082840312156120d5576120d4611c5c565b5b60006120e3848285016120aa565b91505092915050565b7f4e6f7420616c6c6f776564000000000000000000000000000000000000000000600082015250565b6000612122600b83611fb0565b915061212d826120ec565b602082019050919050565b6000602082019050818103600083015261215181612115565b9050919050565b600060408201905061216d6000830185611ec1565b61217a6020830184611d26565b9392505050565b61218a81611ce6565b811461219557600080fd5b50565b6000815190506121a781612181565b92915050565b6000602082840312156121c3576121c2611c5c565b5b60006121d184828501612198565b91505092915050565b60006040820190506121ef6000830185611d26565b6121fc6020830184611d26565b9392505050565b7f416363657373436f6e74726f6c3a2063616e206f6e6c792072656e6f756e636560008201527f20726f6c657320666f722073656c660000000000000000000000000000000000602082015250565b600061225f602f83611fb0565b915061226a82612203565b604082019050919050565b6000602082019050818103600083015261228e81612252565b9050919050565b600069ffffffffffffffffffff82169050919050565b6122b481612295565b81146122bf57600080fd5b50565b6000815190506122d1816122ab565b92915050565b6000815190506122e681611d50565b92915050565b600080600080600060a0868803121561230857612307611c5c565b5b6000612316888289016122c2565b9550506020612327888289016122d7565b9450506040612338888289016122d7565b9350506060612349888289016122d7565b925050608061235a888289016122c2565b9150509295509295909350565b7f4e487b7100000000000000000000000000000000000000000000000000000000600052604160045260246000fd5b7f4e487b7100000000000000000000000000000000000000000000000000000000600052602260045260246000fd5b600060028204905060018216806123dd57607f821691505b6020821081036123f0576123ef612396565b5b50919050565b60008190508160005260206000209050919050565b60006020601f8301049050919050565b600082821b905092915050565b6000600883026124587fffffffffffffffffffffffffffffffffffffffffffffffffffffffffffffffff8261241b565b612462868361241b565b95508019841693508086168417925050509392505050565b600061249561249061248b84611d1c565b611f2b565b611d1c565b9050919050565b6000819050919050565b6124af8361247a565b6124c36124bb8261249c565b848454612428565b825550505050565b600090565b6124d86124cb565b6124e38184846124a6565b505050565b5b81811015612507576124fc6000826124d0565b6001810190506124e9565b5050565b601f82111561254c5761251d816123f6565b6125268461240b565b81016020851015612535578190505b6125496125418561240b565b8301826124e8565b50505b505050565b600082821c905092915050565b600061256f60001984600802612551565b1980831691505092915050565b6000612588838361255e565b9150826002028217905092915050565b6125a182611fa5565b67ffffffffffffffff8111156125ba576125b9612367565b5b6125c482546123c5565b6125cf82828561250b565b600060209050601f83116001811461260257600084156125f0578287015190505b6125fa858261257c565b865550612662565b601f198416612610866123f6565b60005b8281101561263857848901518255600182019150602085019450602081019050612613565b868310156126555784890151612651601f89168261255e565b8355505b6001600288020188555050505b505050505050565b7f4e487b7100000000000000000000000000000000000000000000000000000000600052601160045260246000fd5b60006126a482611d1c565b91507fffffffffffffffffffffffffffffffffffffffffffffffffffffffffffffffff82036126d6576126d561266a565b5b600182019050919050565b7f4f776e61626c653a206e6577206f776e657220697320746865207a65726f206160008201527f6464726573730000000000000000000000000000000000000000000000000000602082015250565b600061273d602683611fb0565b9150612748826126e1565b604082019050919050565b6000602082019050818103600083015261276c81612730565b9050919050565b7f5265656e7472616e637947756172643a207265656e7472616e742063616c6c00600082015250565b60006127a9601f83611fb0565b91506127b482612773565b602082019050919050565b600060208201905081810360008301526127d88161279c565b9050919050565b7f4f776e61626c653a2063616c6c6572206973206e6f7420746865206f776e6572600082015250565b6000612815602083611fb0565b9150612820826127df565b602082019050919050565b6000602082019050818103600083015261284481612808565b9050919050565b600061285682611d1c565b915061286183611d1c565b925082820261286f81611d1c565b915082820484148315176128865761288561266a565b5b5092915050565b6000602082840312156128a3576128a2611c5c565b5b60006128b1848285016122d7565b91505092915050565b60006128c582611d1c565b91506128d083611d1c565b92508282019050808211156128e8576128e761266a565b5b92915050565b7f4e487b7100000000000000000000000000000000000000000000000000000000600052601260045260246000fd5b600061292882611d1c565b915061293383611d1c565b925082612943576129426128ee565b5b828204905092915050565b600061295982611d1c565b915061296483611d1c565b925082820390508181111561297c5761297b61266a565b5b92915050565b600081905092915050565b7f416363657373436f6e74726f6c3a206163636f756e7420000000000000000000600082015250565b60006129c3601783612982565b91506129ce8261298d565b601782019050919050565b60006129e482611fa5565b6129ee8185612982565b93506129fe818560208601611fc1565b80840191505092915050565b7f206973206d697373696e6720726f6c6520000000000000000000000000000000600082015250565b6000612a40601183612982565b9150612a4b82612a0a565b601182019050919050565b6000612a61826129b6565b9150612a6d82856129d9565b9150612a7882612a33565b9150612a8482846129d9565b91508190509392505050565b60006020820190508181036000830152612aaa8184611ffc565b905092915050565b7f4e487b7100000000000000000000000000000000000000000000000000000000600052603260045260246000fd5b6000612aec82611d1c565b915060008203612aff57612afe61266a565b5b600182039050919050565b7f537472696e67733a20686578206c656e67746820696e73756666696369656e74600082015250565b6000612b40602083611fb0565b9150612b4b82612b0a565b602082019050919050565b60006020820190508181036000830152612b6f81612b33565b905091905056fea2646970667358221220022f7f95383f730622b9c44214a5655d238f807b9bf76cb8ad82b7726aca6d6264736f6c63430008110033",
			"opcodes": "PUSH1 0x80 PUSH1 0x40 MSTORE PUSH8 0xDE0B6B3A7640000 PUSH1 0xA SSTORE CALLVALUE DUP1 ISZERO PUSH3 0x1D JUMPI PUSH1 0x0 DUP1 REVERT JUMPDEST POP PUSH1 0x40 MLOAD PUSH3 0x2FC2 CODESIZE SUB DUP1 PUSH3 0x2FC2 DUP4 CODECOPY DUP2 DUP2 ADD PUSH1 0x40 MSTORE DUP2 ADD SWAP1 PUSH3 0x43 SWAP2 SWAP1 PUSH3 0x3D4 JUMP JUMPDEST PUSH3 0x63 PUSH3 0x57 PUSH3 0x117 PUSH1 0x20 SHL PUSH1 0x20 SHR JUMP JUMPDEST PUSH3 0x11F PUSH1 0x20 SHL PUSH1 0x20 SHR JUMP JUMPDEST PUSH1 0x1 DUP1 DUP2 SWAP1 SSTORE POP DUP1 PUSH1 0x4 PUSH1 0x0 PUSH2 0x100 EXP DUP2 SLOAD DUP2 PUSH20 0xFFFFFFFFFFFFFFFFFFFFFFFFFFFFFFFFFFFFFFFF MUL NOT AND SWAP1 DUP4 PUSH20 0xFFFFFFFFFFFFFFFFFFFFFFFFFFFFFFFFFFFFFFFF AND MUL OR SWAP1 SSTORE POP PUSH3 0xCF PUSH1 0x0 DUP1 SHL PUSH3 0xC3 PUSH3 0x117 PUSH1 0x20 SHL PUSH1 0x20 SHR JUMP JUMPDEST PUSH3 0x1E3 PUSH1 0x20 SHL PUSH1 0x20 SHR JUMP JUMPDEST PUSH3 0x110 PUSH32 0x899BD46557473CB80307A9DABC297131CED39608330A2D29B2D52B660C03923E PUSH3 0x104 PUSH3 0x117 PUSH1 0x20 SHL PUSH1 0x20 SHR JUMP JUMPDEST PUSH3 0x1E3 PUSH1 0x20 SHL PUSH1 0x20 SHR JUMP JUMPDEST POP PUSH3 0x406 JUMP JUMPDEST PUSH1 0x0 CALLER SWAP1 POP SWAP1 JUMP JUMPDEST PUSH1 0x0 DUP1 PUSH1 0x0 SWAP1 SLOAD SWAP1 PUSH2 0x100 EXP SWAP1 DIV PUSH20 0xFFFFFFFFFFFFFFFFFFFFFFFFFFFFFFFFFFFFFFFF AND SWAP1 POP DUP2 PUSH1 0x0 DUP1 PUSH2 0x100 EXP DUP2 SLOAD DUP2 PUSH20 0xFFFFFFFFFFFFFFFFFFFFFFFFFFFFFFFFFFFFFFFF MUL NOT AND SWAP1 DUP4 PUSH20 0xFFFFFFFFFFFFFFFFFFFFFFFFFFFFFFFFFFFFFFFF AND MUL OR SWAP1 SSTORE POP DUP2 PUSH20 0xFFFFFFFFFFFFFFFFFFFFFFFFFFFFFFFFFFFFFFFF AND DUP2 PUSH20 0xFFFFFFFFFFFFFFFFFFFFFFFFFFFFFFFFFFFFFFFF AND PUSH32 0x8BE0079C531659141344CD1FD0A4F28419497F9722A3DAAFE3B4186F6B6457E0 PUSH1 0x40 MLOAD PUSH1 0x40 MLOAD DUP1 SWAP2 SUB SWAP1 LOG3 POP POP JUMP JUMPDEST PUSH3 0x1F5 DUP3 DUP3 PUSH3 0x1F9 PUSH1 0x20 SHL PUSH1 0x20 SHR JUMP JUMPDEST POP POP JUMP JUMPDEST PUSH3 0x20B DUP3 DUP3 PUSH3 0x2EB PUSH1 0x20 SHL PUSH1 0x20 SHR JUMP JUMPDEST PUSH3 0x2E7 JUMPI PUSH1 0x1 PUSH1 0x2 PUSH1 0x0 DUP5 DUP2 MSTORE PUSH1 0x20 ADD SWAP1 DUP2 MSTORE PUSH1 0x20 ADD PUSH1 0x0 KECCAK256 PUSH1 0x0 ADD PUSH1 0x0 DUP4 PUSH20 0xFFFFFFFFFFFFFFFFFFFFFFFFFFFFFFFFFFFFFFFF AND PUSH20 0xFFFFFFFFFFFFFFFFFFFFFFFFFFFFFFFFFFFFFFFF AND DUP2 MSTORE PUSH1 0x20 ADD SWAP1 DUP2 MSTORE PUSH1 0x20 ADD PUSH1 0x0 KECCAK256 PUSH1 0x0 PUSH2 0x100 EXP DUP2 SLOAD DUP2 PUSH1 0xFF MUL NOT AND SWAP1 DUP4 ISZERO ISZERO MUL OR SWAP1 SSTORE POP PUSH3 0x28C PUSH3 0x117 PUSH1 0x20 SHL PUSH1 0x20 SHR JUMP JUMPDEST PUSH20 0xFFFFFFFFFFFFFFFFFFFFFFFFFFFFFFFFFFFFFFFF AND DUP2 PUSH20 0xFFFFFFFFFFFFFFFFFFFFFFFFFFFFFFFFFFFFFFFF AND DUP4 PUSH32 0x2F8788117E7EFF1D82E926EC794901D17C78024A50270940304540A733656F0D PUSH1 0x40 MLOAD PUSH1 0x40 MLOAD DUP1 SWAP2 SUB SWAP1 LOG4 JUMPDEST POP POP JUMP JUMPDEST PUSH1 0x0 PUSH1 0x2 PUSH1 0x0 DUP5 DUP2 MSTORE PUSH1 0x20 ADD SWAP1 DUP2 MSTORE PUSH1 0x20 ADD PUSH1 0x0 KECCAK256 PUSH1 0x0 ADD PUSH1 0x0 DUP4 PUSH20 0xFFFFFFFFFFFFFFFFFFFFFFFFFFFFFFFFFFFFFFFF AND PUSH20 0xFFFFFFFFFFFFFFFFFFFFFFFFFFFFFFFFFFFFFFFF AND DUP2 MSTORE PUSH1 0x20 ADD SWAP1 DUP2 MSTORE PUSH1 0x20 ADD PUSH1 0x0 KECCAK256 PUSH1 0x0 SWAP1 SLOAD SWAP1 PUSH2 0x100 EXP SWAP1 DIV PUSH1 0xFF AND SWAP1 POP SWAP3 SWAP2 POP POP JUMP JUMPDEST PUSH1 0x0 DUP1 REVERT JUMPDEST PUSH1 0x0 PUSH20 0xFFFFFFFFFFFFFFFFFFFFFFFFFFFFFFFFFFFFFFFF DUP3 AND SWAP1 POP SWAP2 SWAP1 POP JUMP JUMPDEST PUSH1 0x0 PUSH3 0x388 DUP3 PUSH3 0x35B JUMP JUMPDEST SWAP1 POP SWAP2 SWAP1 POP JUMP JUMPDEST PUSH1 0x0 PUSH3 0x39C DUP3 PUSH3 0x37B JUMP JUMPDEST SWAP1 POP SWAP2 SWAP1 POP JUMP JUMPDEST PUSH3 0x3AE DUP2 PUSH3 0x38F JUMP JUMPDEST DUP2 EQ PUSH3 0x3BA JUMPI PUSH1 0x0 DUP1 REVERT JUMPDEST POP JUMP JUMPDEST PUSH1 0x0 DUP2 MLOAD SWAP1 POP PUSH3 0x3CE DUP2 PUSH3 0x3A3 JUMP JUMPDEST SWAP3 SWAP2 POP POP JUMP JUMPDEST PUSH1 0x0 PUSH1 0x20 DUP3 DUP5 SUB SLT ISZERO PUSH3 0x3ED JUMPI PUSH3 0x3EC PUSH3 0x356 JUMP JUMPDEST JUMPDEST PUSH1 0x0 PUSH3 0x3FD DUP5 DUP3 DUP6 ADD PUSH3 0x3BD JUMP JUMPDEST SWAP2 POP POP SWAP3 SWAP2 POP POP JUMP JUMPDEST PUSH2 0x2BAC DUP1 PUSH3 0x416 PUSH1 0x0 CODECOPY PUSH1 0x0 RETURN INVALID PUSH1 0x80 PUSH1 0x40 MSTORE CALLVALUE DUP1 ISZERO PUSH2 0x10 JUMPI PUSH1 0x0 DUP1 REVERT JUMPDEST POP PUSH1 0x4 CALLDATASIZE LT PUSH2 0x1C4 JUMPI PUSH1 0x0 CALLDATALOAD PUSH1 0xE0 SHR DUP1 PUSH4 0x669004F9 GT PUSH2 0xF9 JUMPI DUP1 PUSH4 0x9588E614 GT PUSH2 0x97 JUMPI DUP1 PUSH4 0xD547741F GT PUSH2 0x71 JUMPI DUP1 PUSH4 0xD547741F EQ PUSH2 0x4AE JUMPI DUP1 PUSH4 0xE0E9349B EQ PUSH2 0x4CA JUMPI DUP1 PUSH4 0xECEAB5C5 EQ PUSH2 0x4E6 JUMPI DUP1 PUSH4 0xF2FDE38B EQ PUSH2 0x504 JUMPI PUSH2 0x1C4 JUMP JUMPDEST DUP1 PUSH4 0x9588E614 EQ PUSH2 0x43F JUMPI DUP1 PUSH4 0xA217FDDF EQ PUSH2 0x45D JUMPI DUP1 PUSH4 0xA6EF79B4 EQ PUSH2 0x47B JUMPI PUSH2 0x1C4 JUMP JUMPDEST DUP1 PUSH4 0x81613F25 GT PUSH2 0xD3 JUMPI DUP1 PUSH4 0x81613F25 EQ PUSH2 0x3DD JUMPI DUP1 PUSH4 0x8A6E0169 EQ PUSH2 0x3E7 JUMPI DUP1 PUSH4 0x8DA5CB5B EQ PUSH2 0x3F1 JUMPI DUP1 PUSH4 0x91D14854 EQ PUSH2 0x40F JUMPI PUSH2 0x1C4 JUMP JUMPDEST DUP1 PUSH4 0x669004F9 EQ PUSH2 0x385 JUMPI DUP1 PUSH4 0x715018A6 EQ PUSH2 0x3B5 JUMPI DUP1 PUSH4 0x7F862785 EQ PUSH2 0x3BF JUMPI PUSH2 0x1C4 JUMP JUMPDEST DUP1 PUSH4 0x2E1A7D4D GT PUSH2 0x166 JUMPI DUP1 PUSH4 0x36568ABE GT PUSH2 0x140 JUMPI DUP1 PUSH4 0x36568ABE EQ PUSH2 0x311 JUMPI DUP1 PUSH4 0x38B7F446 EQ PUSH2 0x32D JUMPI DUP1 PUSH4 0x527A52C8 EQ PUSH2 0x34B JUMPI DUP1 PUSH4 0x5E6A4FB0 EQ PUSH2 0x367 JUMPI PUSH2 0x1C4 JUMP JUMPDEST DUP1 PUSH4 0x2E1A7D4D EQ PUSH2 0x2BB JUMPI DUP1 PUSH4 0x2F2FF15D EQ PUSH2 0x2D7 JUMPI DUP1 PUSH4 0x2F41FFD0 EQ PUSH2 0x2F3 JUMPI PUSH2 0x1C4 JUMP JUMPDEST DUP1 PUSH4 0x20346961 GT PUSH2 0x1A2 JUMPI DUP1 PUSH4 0x20346961 EQ PUSH2 0x235 JUMPI DUP1 PUSH4 0x248A9CA3 EQ PUSH2 0x251 JUMPI DUP1 PUSH4 0x26BA7898 EQ PUSH2 0x281 JUMPI DUP1 PUSH4 0x2DC47153 EQ PUSH2 0x29D JUMPI PUSH2 0x1C4 JUMP JUMPDEST DUP1 PUSH4 0x1FFC9A7 EQ PUSH2 0x1C9 JUMPI DUP1 PUSH4 0x16317C21 EQ PUSH2 0x1F9 JUMPI DUP1 PUSH4 0x19CB170C EQ PUSH2 0x217 JUMPI JUMPDEST PUSH1 0x0 DUP1 REVERT JUMPDEST PUSH2 0x1E3 PUSH1 0x4 DUP1 CALLDATASIZE SUB DUP2 ADD SWAP1 PUSH2 0x1DE SWAP2 SWAP1 PUSH2 0x1CB9 JUMP JUMPDEST PUSH2 0x520 JUMP JUMPDEST PUSH1 0x40 MLOAD PUSH2 0x1F0 SWAP2 SWAP1 PUSH2 0x1D01 JUMP JUMPDEST PUSH1 0x40 MLOAD DUP1 SWAP2 SUB SWAP1 RETURN JUMPDEST PUSH2 0x201 PUSH2 0x59A JUMP JUMPDEST PUSH1 0x40 MLOAD PUSH2 0x20E SWAP2 SWAP1 PUSH2 0x1D35 JUMP JUMPDEST PUSH1 0x40 MLOAD DUP1 SWAP2 SUB SWAP1 RETURN JUMPDEST PUSH2 0x21F PUSH2 0x5A0 JUMP JUMPDEST PUSH1 0x40 MLOAD PUSH2 0x22C SWAP2 SWAP1 PUSH2 0x1D35 JUMP JUMPDEST PUSH1 0x40 MLOAD DUP1 SWAP2 SUB SWAP1 RETURN JUMPDEST PUSH2 0x24F PUSH1 0x4 DUP1 CALLDATASIZE SUB DUP2 ADD SWAP1 PUSH2 0x24A SWAP2 SWAP1 PUSH2 0x1D7C JUMP JUMPDEST PUSH2 0x5A6 JUMP JUMPDEST STOP JUMPDEST PUSH2 0x26B PUSH1 0x4 DUP1 CALLDATASIZE SUB DUP2 ADD SWAP1 PUSH2 0x266 SWAP2 SWAP1 PUSH2 0x1DDF JUMP JUMPDEST PUSH2 0x620 JUMP JUMPDEST PUSH1 0x40 MLOAD PUSH2 0x278 SWAP2 SWAP1 PUSH2 0x1E1B JUMP JUMPDEST PUSH1 0x40 MLOAD DUP1 SWAP2 SUB SWAP1 RETURN JUMPDEST PUSH2 0x29B PUSH1 0x4 DUP1 CALLDATASIZE SUB DUP2 ADD SWAP1 PUSH2 0x296 SWAP2 SWAP1 PUSH2 0x1E94 JUMP JUMPDEST PUSH2 0x640 JUMP JUMPDEST STOP JUMPDEST PUSH2 0x2A5 PUSH2 0x757 JUMP JUMPDEST PUSH1 0x40 MLOAD PUSH2 0x2B2 SWAP2 SWAP1 PUSH2 0x1ED0 JUMP JUMPDEST PUSH1 0x40 MLOAD DUP1 SWAP2 SUB SWAP1 RETURN JUMPDEST PUSH2 0x2D5 PUSH1 0x4 DUP1 CALLDATASIZE SUB DUP2 ADD SWAP1 PUSH2 0x2D0 SWAP2 SWAP1 PUSH2 0x1D7C JUMP JUMPDEST PUSH2 0x77D JUMP JUMPDEST STOP JUMPDEST PUSH2 0x2F1 PUSH1 0x4 DUP1 CALLDATASIZE SUB DUP2 ADD SWAP1 PUSH2 0x2EC SWAP2 SWAP1 PUSH2 0x1EEB JUMP JUMPDEST PUSH2 0x8DA JUMP JUMPDEST STOP JUMPDEST PUSH2 0x2FB PUSH2 0x8FB JUMP JUMPDEST PUSH1 0x40 MLOAD PUSH2 0x308 SWAP2 SWAP1 PUSH2 0x1D35 JUMP JUMPDEST PUSH1 0x40 MLOAD DUP1 SWAP2 SUB SWAP1 RETURN JUMPDEST PUSH2 0x32B PUSH1 0x4 DUP1 CALLDATASIZE SUB DUP2 ADD SWAP1 PUSH2 0x326 SWAP2 SWAP1 PUSH2 0x1EEB JUMP JUMPDEST PUSH2 0x901 JUMP JUMPDEST STOP JUMPDEST PUSH2 0x335 PUSH2 0x984 JUMP JUMPDEST PUSH1 0x40 MLOAD PUSH2 0x342 SWAP2 SWAP1 PUSH2 0x1E1B JUMP JUMPDEST PUSH1 0x40 MLOAD DUP1 SWAP2 SUB SWAP1 RETURN JUMPDEST PUSH2 0x365 PUSH1 0x4 DUP1 CALLDATASIZE SUB DUP2 ADD SWAP1 PUSH2 0x360 SWAP2 SWAP1 PUSH2 0x1E94 JUMP JUMPDEST PUSH2 0x9A8 JUMP JUMPDEST STOP JUMPDEST PUSH2 0x36F PUSH2 0xA6C JUMP JUMPDEST PUSH1 0x40 MLOAD PUSH2 0x37C SWAP2 SWAP1 PUSH2 0x1D35 JUMP JUMPDEST PUSH1 0x40 MLOAD DUP1 SWAP2 SUB SWAP1 RETURN JUMPDEST PUSH2 0x39F PUSH1 0x4 DUP1 CALLDATASIZE SUB DUP2 ADD SWAP1 PUSH2 0x39A SWAP2 SWAP1 PUSH2 0x1D7C JUMP JUMPDEST PUSH2 0xA72 JUMP JUMPDEST PUSH1 0x40 MLOAD PUSH2 0x3AC SWAP2 SWAP1 PUSH2 0x1F8A JUMP JUMPDEST PUSH1 0x40 MLOAD DUP1 SWAP2 SUB SWAP1 RETURN JUMPDEST PUSH2 0x3BD PUSH2 0xAB0 JUMP JUMPDEST STOP JUMPDEST PUSH2 0x3C7 PUSH2 0xAC4 JUMP JUMPDEST PUSH1 0x40 MLOAD PUSH2 0x3D4 SWAP2 SWAP1 PUSH2 0x1D35 JUMP JUMPDEST PUSH1 0x40 MLOAD DUP1 SWAP2 SUB SWAP1 RETURN JUMPDEST PUSH2 0x3E5 PUSH2 0xACA JUMP JUMPDEST STOP JUMPDEST PUSH2 0x3EF PUSH2 0xC0A JUMP JUMPDEST STOP JUMPDEST PUSH2 0x3F9 PUSH2 0xFF4 JUMP JUMPDEST PUSH1 0x40 MLOAD PUSH2 0x406 SWAP2 SWAP1 PUSH2 0x1ED0 JUMP JUMPDEST PUSH1 0x40 MLOAD DUP1 SWAP2 SUB SWAP1 RETURN JUMPDEST PUSH2 0x429 PUSH1 0x4 DUP1 CALLDATASIZE SUB DUP2 ADD SWAP1 PUSH2 0x424 SWAP2 SWAP1 PUSH2 0x1EEB JUMP JUMPDEST PUSH2 0x101D JUMP JUMPDEST PUSH1 0x40 MLOAD PUSH2 0x436 SWAP2 SWAP1 PUSH2 0x1D01 JUMP JUMPDEST PUSH1 0x40 MLOAD DUP1 SWAP2 SUB SWAP1 RETURN JUMPDEST PUSH2 0x447 PUSH2 0x1088 JUMP JUMPDEST PUSH1 0x40 MLOAD PUSH2 0x454 SWAP2 SWAP1 PUSH2 0x1D35 JUMP JUMPDEST PUSH1 0x40 MLOAD DUP1 SWAP2 SUB SWAP1 RETURN JUMPDEST PUSH2 0x465 PUSH2 0x108E JUMP JUMPDEST PUSH1 0x40 MLOAD PUSH2 0x472 SWAP2 SWAP1 PUSH2 0x1E1B JUMP JUMPDEST PUSH1 0x40 MLOAD DUP1 SWAP2 SUB SWAP1 RETURN JUMPDEST PUSH2 0x495 PUSH1 0x4 DUP1 CALLDATASIZE SUB DUP2 ADD SWAP1 PUSH2 0x490 SWAP2 SWAP1 PUSH2 0x1D7C JUMP JUMPDEST PUSH2 0x1095 JUMP JUMPDEST PUSH1 0x40 MLOAD PUSH2 0x4A5 SWAP5 SWAP4 SWAP3 SWAP2 SWAP1 PUSH2 0x2035 JUMP JUMPDEST PUSH1 0x40 MLOAD DUP1 SWAP2 SUB SWAP1 RETURN JUMPDEST PUSH2 0x4C8 PUSH1 0x4 DUP1 CALLDATASIZE SUB DUP2 ADD SWAP1 PUSH2 0x4C3 SWAP2 SWAP1 PUSH2 0x1EEB JUMP JUMPDEST PUSH2 0x114D JUMP JUMPDEST STOP JUMPDEST PUSH2 0x4E4 PUSH1 0x4 DUP1 CALLDATASIZE SUB DUP2 ADD SWAP1 PUSH2 0x4DF SWAP2 SWAP1 PUSH2 0x20BF JUMP JUMPDEST PUSH2 0x116E JUMP JUMPDEST STOP JUMPDEST PUSH2 0x4EE PUSH2 0x1260 JUMP JUMPDEST PUSH1 0x40 MLOAD PUSH2 0x4FB SWAP2 SWAP1 PUSH2 0x1D35 JUMP JUMPDEST PUSH1 0x40 MLOAD DUP1 SWAP2 SUB SWAP1 RETURN JUMPDEST PUSH2 0x51E PUSH1 0x4 DUP1 CALLDATASIZE SUB DUP2 ADD SWAP1 PUSH2 0x519 SWAP2 SWAP1 PUSH2 0x1E94 JUMP JUMPDEST PUSH2 0x1266 JUMP JUMPDEST STOP JUMPDEST PUSH1 0x0 PUSH32 0x7965DB0B00000000000000000000000000000000000000000000000000000000 PUSH28 0xFFFFFFFFFFFFFFFFFFFFFFFFFFFFFFFFFFFFFFFFFFFFFFFFFFFFFFFF NOT AND DUP3 PUSH28 0xFFFFFFFFFFFFFFFFFFFFFFFFFFFFFFFFFFFFFFFFFFFFFFFFFFFFFFFF NOT AND EQ DUP1 PUSH2 0x593 JUMPI POP PUSH2 0x592 DUP3 PUSH2 0x12E9 JUMP JUMPDEST JUMPDEST SWAP1 POP SWAP2 SWAP1 POP JUMP JUMPDEST PUSH1 0xE SLOAD DUP2 JUMP JUMPDEST PUSH1 0xA SLOAD DUP2 JUMP JUMPDEST PUSH2 0x5D7 PUSH32 0x899BD46557473CB80307A9DABC297131CED39608330A2D29B2D52B660C03923E PUSH2 0x5D2 PUSH2 0x1353 JUMP JUMPDEST PUSH2 0x101D JUMP JUMPDEST PUSH2 0x616 JUMPI PUSH1 0x40 MLOAD PUSH32 0x8C379A000000000000000000000000000000000000000000000000000000000 DUP2 MSTORE PUSH1 0x4 ADD PUSH2 0x60D SWAP1 PUSH2 0x2138 JUMP JUMPDEST PUSH1 0x40 MLOAD DUP1 SWAP2 SUB SWAP1 REVERT JUMPDEST DUP1 PUSH1 0x7 DUP2 SWAP1 SSTORE POP POP JUMP JUMPDEST PUSH1 0x0 PUSH1 0x2 PUSH1 0x0 DUP4 DUP2 MSTORE PUSH1 0x20 ADD SWAP1 DUP2 MSTORE PUSH1 0x20 ADD PUSH1 0x0 KECCAK256 PUSH1 0x1 ADD SLOAD SWAP1 POP SWAP2 SWAP1 POP JUMP JUMPDEST PUSH2 0x671 PUSH32 0x899BD46557473CB80307A9DABC297131CED39608330A2D29B2D52B660C03923E PUSH2 0x66C PUSH2 0x1353 JUMP JUMPDEST PUSH2 0x101D JUMP JUMPDEST PUSH2 0x6B0 JUMPI PUSH1 0x40 MLOAD PUSH32 0x8C379A000000000000000000000000000000000000000000000000000000000 DUP2 MSTORE PUSH1 0x4 ADD PUSH2 0x6A7 SWAP1 PUSH2 0x2138 JUMP JUMPDEST PUSH1 0x40 MLOAD DUP1 SWAP2 SUB SWAP1 REVERT JUMPDEST DUP1 PUSH1 0x8 PUSH1 0x0 PUSH2 0x100 EXP DUP2 SLOAD DUP2 PUSH20 0xFFFFFFFFFFFFFFFFFFFFFFFFFFFFFFFFFFFFFFFF MUL NOT AND SWAP1 DUP4 PUSH20 0xFFFFFFFFFFFFFFFFFFFFFFFFFFFFFFFFFFFFFFFF AND MUL OR SWAP1 SSTORE POP PUSH1 0x8 PUSH1 0x0 SWAP1 SLOAD SWAP1 PUSH2 0x100 EXP SWAP1 DIV PUSH20 0xFFFFFFFFFFFFFFFFFFFFFFFFFFFFFFFFFFFFFFFF AND PUSH1 0x5 PUSH1 0x0 PUSH2 0x100 EXP DUP2 SLOAD DUP2 PUSH20 0xFFFFFFFFFFFFFFFFFFFFFFFFFFFFFFFFFFFFFFFF MUL NOT AND SWAP1 DUP4 PUSH20 0xFFFFFFFFFFFFFFFFFFFFFFFFFFFFFFFFFFFFFFFF AND MUL OR SWAP1 SSTORE POP POP JUMP JUMPDEST PUSH1 0x8 PUSH1 0x0 SWAP1 SLOAD SWAP1 PUSH2 0x100 EXP SWAP1 DIV PUSH20 0xFFFFFFFFFFFFFFFFFFFFFFFFFFFFFFFFFFFFFFFF AND DUP2 JUMP JUMPDEST PUSH2 0x785 PUSH2 0x135B JUMP JUMPDEST PUSH2 0x7B6 PUSH32 0x899BD46557473CB80307A9DABC297131CED39608330A2D29B2D52B660C03923E PUSH2 0x7B1 PUSH2 0x1353 JUMP JUMPDEST PUSH2 0x101D JUMP JUMPDEST PUSH2 0x7F5 JUMPI PUSH1 0x40 MLOAD PUSH32 0x8C379A000000000000000000000000000000000000000000000000000000000 DUP2 MSTORE PUSH1 0x4 ADD PUSH2 0x7EC SWAP1 PUSH2 0x2138 JUMP JUMPDEST PUSH1 0x40 MLOAD DUP1 SWAP2 SUB SWAP1 REVERT JUMPDEST PUSH1 0x4 PUSH1 0x0 SWAP1 SLOAD SWAP1 PUSH2 0x100 EXP SWAP1 DIV PUSH20 0xFFFFFFFFFFFFFFFFFFFFFFFFFFFFFFFFFFFFFFFF AND PUSH20 0xFFFFFFFFFFFFFFFFFFFFFFFFFFFFFFFFFFFFFFFF AND PUSH4 0xA9059CBB CALLER DUP4 PUSH1 0x40 MLOAD DUP4 PUSH4 0xFFFFFFFF AND PUSH1 0xE0 SHL DUP2 MSTORE PUSH1 0x4 ADD PUSH2 0x852 SWAP3 SWAP2 SWAP1 PUSH2 0x2158 JUMP JUMPDEST PUSH1 0x20 PUSH1 0x40 MLOAD DUP1 DUP4 SUB DUP2 PUSH1 0x0 DUP8 GAS CALL ISZERO DUP1 ISZERO PUSH2 0x871 JUMPI RETURNDATASIZE PUSH1 0x0 DUP1 RETURNDATACOPY RETURNDATASIZE PUSH1 0x0 REVERT JUMPDEST POP POP POP POP PUSH1 0x40 MLOAD RETURNDATASIZE PUSH1 0x1F NOT PUSH1 0x1F DUP3 ADD AND DUP3 ADD DUP1 PUSH1 0x40 MSTORE POP DUP2 ADD SWAP1 PUSH2 0x895 SWAP2 SWAP1 PUSH2 0x21AD JUMP JUMPDEST POP PUSH32 0x56CA301A9219608C91E7BCEE90E083C19671D2CDCC96752C7AF291CEE5F9C8C8 TIMESTAMP DUP3 PUSH1 0x40 MLOAD PUSH2 0x8C7 SWAP3 SWAP2 SWAP1 PUSH2 0x21DA JUMP JUMPDEST PUSH1 0x40 MLOAD DUP1 SWAP2 SUB SWAP1 LOG1 PUSH2 0x8D7 PUSH2 0x13AA JUMP JUMPDEST POP JUMP JUMPDEST PUSH2 0x8E3 DUP3 PUSH2 0x620 JUMP JUMPDEST PUSH2 0x8EC DUP2 PUSH2 0x13B3 JUMP JUMPDEST PUSH2 0x8F6 DUP4 DUP4 PUSH2 0x13C7 JUMP JUMPDEST POP POP POP JUMP JUMPDEST PUSH1 0x9 SLOAD DUP2 JUMP JUMPDEST PUSH2 0x909 PUSH2 0x1353 JUMP JUMPDEST PUSH20 0xFFFFFFFFFFFFFFFFFFFFFFFFFFFFFFFFFFFFFFFF AND DUP2 PUSH20 0xFFFFFFFFFFFFFFFFFFFFFFFFFFFFFFFFFFFFFFFF AND EQ PUSH2 0x976 JUMPI PUSH1 0x40 MLOAD PUSH32 0x8C379A000000000000000000000000000000000000000000000000000000000 DUP2 MSTORE PUSH1 0x4 ADD PUSH2 0x96D SWAP1 PUSH2 0x2275 JUMP JUMPDEST PUSH1 0x40 MLOAD DUP1 SWAP2 SUB SWAP1 REVERT JUMPDEST PUSH2 0x980 DUP3 DUP3 PUSH2 0x14A8 JUMP JUMPDEST POP POP JUMP JUMPDEST PUSH32 0x899BD46557473CB80307A9DABC297131CED39608330A2D29B2D52B660C03923E DUP2 JUMP JUMPDEST PUSH2 0x9B0 PUSH2 0x135B JUMP JUMPDEST PUSH2 0x9E1 PUSH32 0x899BD46557473CB80307A9DABC297131CED39608330A2D29B2D52B660C03923E PUSH2 0x9DC PUSH2 0x1353 JUMP JUMPDEST PUSH2 0x101D JUMP JUMPDEST PUSH2 0xA20 JUMPI PUSH1 0x40 MLOAD PUSH32 0x8C379A000000000000000000000000000000000000000000000000000000000 DUP2 MSTORE PUSH1 0x4 ADD PUSH2 0xA17 SWAP1 PUSH2 0x2138 JUMP JUMPDEST PUSH1 0x40 MLOAD DUP1 SWAP2 SUB SWAP1 REVERT JUMPDEST DUP1 PUSH1 0x6 PUSH1 0x0 PUSH2 0x100 EXP DUP2 SLOAD DUP2 PUSH20 0xFFFFFFFFFFFFFFFFFFFFFFFFFFFFFFFFFFFFFFFF MUL NOT AND SWAP1 DUP4 PUSH20 0xFFFFFFFFFFFFFFFFFFFFFFFFFFFFFFFFFFFFFFFF AND MUL OR SWAP1 SSTORE POP PUSH2 0xA69 PUSH2 0x13AA JUMP JUMPDEST POP JUMP JUMPDEST PUSH1 0xD SLOAD DUP2 JUMP JUMPDEST PUSH1 0x3 PUSH1 0x20 MSTORE DUP1 PUSH1 0x0 MSTORE PUSH1 0x40 PUSH1 0x0 KECCAK256 PUSH1 0x0 SWAP2 POP SWAP1 POP DUP1 PUSH1 0x0 ADD PUSH1 0x0 SWAP1 SLOAD SWAP1 PUSH2 0x100 EXP SWAP1 DIV PUSH20 0xFFFFFFFFFFFFFFFFFFFFFFFFFFFFFFFFFFFFFFFF AND SWAP1 POP DUP2 JUMP JUMPDEST PUSH2 0xAB8 PUSH2 0x158A JUMP JUMPDEST PUSH2 0xAC2 PUSH1 0x0 PUSH2 0x1608 JUMP JUMPDEST JUMP JUMPDEST PUSH1 0x7 SLOAD DUP2 JUMP JUMPDEST PUSH2 0xAD2 PUSH2 0x135B JUMP JUMPDEST PUSH2 0xB03 PUSH32 0x899BD46557473CB80307A9DABC297131CED39608330A2D29B2D52B660C03923E PUSH2 0xAFE PUSH2 0x1353 JUMP JUMPDEST PUSH2 0x101D JUMP JUMPDEST PUSH2 0xB42 JUMPI PUSH1 0x40 MLOAD PUSH32 0x8C379A000000000000000000000000000000000000000000000000000000000 DUP2 MSTORE PUSH1 0x4 ADD PUSH2 0xB39 SWAP1 PUSH2 0x2138 JUMP JUMPDEST PUSH1 0x40 MLOAD DUP1 SWAP2 SUB SWAP1 REVERT JUMPDEST PUSH1 0x0 PUSH1 0x5 PUSH1 0x0 SWAP1 SLOAD SWAP1 PUSH2 0x100 EXP SWAP1 DIV PUSH20 0xFFFFFFFFFFFFFFFFFFFFFFFFFFFFFFFFFFFFFFFF AND PUSH20 0xFFFFFFFFFFFFFFFFFFFFFFFFFFFFFFFFFFFFFFFF AND PUSH4 0xFEAF968C PUSH1 0x40 MLOAD DUP2 PUSH4 0xFFFFFFFF AND PUSH1 0xE0 SHL DUP2 MSTORE PUSH1 0x4 ADD PUSH1 0xA0 PUSH1 0x40 MLOAD DUP1 DUP4 SUB DUP2 DUP7 GAS STATICCALL ISZERO DUP1 ISZERO PUSH2 0xBB1 JUMPI RETURNDATASIZE PUSH1 0x0 DUP1 RETURNDATACOPY RETURNDATASIZE PUSH1 0x0 REVERT JUMPDEST POP POP POP POP PUSH1 0x40 MLOAD RETURNDATASIZE PUSH1 0x1F NOT PUSH1 0x1F DUP3 ADD AND DUP3 ADD DUP1 PUSH1 0x40 MSTORE POP DUP2 ADD SWAP1 PUSH2 0xBD5 SWAP2 SWAP1 PUSH2 0x22EC JUMP JUMPDEST POP POP POP SWAP2 POP POP PUSH1 0x0 PUSH2 0xBF5 PUSH5 0x2540BE400 DUP4 PUSH2 0x16CC SWAP1 SWAP2 SWAP1 PUSH4 0xFFFFFFFF AND JUMP JUMPDEST SWAP1 POP DUP1 PUSH1 0xD DUP2 SWAP1 SSTORE POP POP POP PUSH2 0xC08 PUSH2 0x13AA JUMP JUMPDEST JUMP JUMPDEST PUSH2 0xC12 PUSH2 0x135B JUMP JUMPDEST PUSH2 0xC43 PUSH32 0x899BD46557473CB80307A9DABC297131CED39608330A2D29B2D52B660C03923E PUSH2 0xC3E PUSH2 0x1353 JUMP JUMPDEST PUSH2 0x101D JUMP JUMPDEST PUSH2 0xC82 JUMPI PUSH1 0x40 MLOAD PUSH32 0x8C379A000000000000000000000000000000000000000000000000000000000 DUP2 MSTORE PUSH1 0x4 ADD PUSH2 0xC79 SWAP1 PUSH2 0x2138 JUMP JUMPDEST PUSH1 0x40 MLOAD DUP1 SWAP2 SUB SWAP1 REVERT JUMPDEST PUSH1 0x0 PUSH2 0xC8C PUSH2 0x16E2 JUMP JUMPDEST SWAP1 POP PUSH1 0x1 SWAP1 POP DUP1 ISZERO PUSH2 0xFE9 JUMPI PUSH1 0x0 PUSH2 0xCDF PUSH2 0xCB4 PUSH1 0xD SLOAD PUSH1 0xC SLOAD PUSH2 0x16CC SWAP1 SWAP2 SWAP1 PUSH4 0xFFFFFFFF AND JUMP JUMPDEST PUSH2 0xCD1 PUSH8 0xDE0B6B3A7640000 PUSH1 0xB SLOAD PUSH2 0x16CC SWAP1 SWAP2 SWAP1 PUSH4 0xFFFFFFFF AND JUMP JUMPDEST PUSH2 0x192C SWAP1 SWAP2 SWAP1 PUSH4 0xFFFFFFFF AND JUMP JUMPDEST SWAP1 POP PUSH1 0x0 PUSH2 0xCFE PUSH8 0xDE0B6B3A7640000 DUP4 PUSH2 0x1942 SWAP1 SWAP2 SWAP1 PUSH4 0xFFFFFFFF AND JUMP JUMPDEST SWAP1 POP PUSH1 0x7 SLOAD DUP2 LT ISZERO PUSH2 0xE2A JUMPI PUSH1 0x0 PUSH2 0xD21 DUP3 PUSH1 0x7 SLOAD PUSH2 0x1958 SWAP1 SWAP2 SWAP1 PUSH4 0xFFFFFFFF AND JUMP JUMPDEST SWAP1 POP PUSH1 0x4 PUSH1 0x0 SWAP1 SLOAD SWAP1 PUSH2 0x100 EXP SWAP1 DIV PUSH20 0xFFFFFFFFFFFFFFFFFFFFFFFFFFFFFFFFFFFFFFFF AND PUSH20 0xFFFFFFFFFFFFFFFFFFFFFFFFFFFFFFFFFFFFFFFF AND PUSH4 0x42966C68 DUP3 PUSH1 0x40 MLOAD DUP3 PUSH4 0xFFFFFFFF AND PUSH1 0xE0 SHL DUP2 MSTORE PUSH1 0x4 ADD PUSH2 0xD7E SWAP2 SWAP1 PUSH2 0x1D35 JUMP JUMPDEST PUSH1 0x0 PUSH1 0x40 MLOAD DUP1 DUP4 SUB DUP2 PUSH1 0x0 DUP8 DUP1 EXTCODESIZE ISZERO DUP1 ISZERO PUSH2 0xD98 JUMPI PUSH1 0x0 DUP1 REVERT JUMPDEST POP GAS CALL ISZERO DUP1 ISZERO PUSH2 0xDAC JUMPI RETURNDATASIZE PUSH1 0x0 DUP1 RETURNDATACOPY RETURNDATASIZE PUSH1 0x0 REVERT JUMPDEST POP POP POP POP PUSH1 0x40 MLOAD DUP1 PUSH1 0x40 ADD PUSH1 0x40 MSTORE DUP1 PUSH1 0x4 DUP2 MSTORE PUSH1 0x20 ADD PUSH32 0x4275726E00000000000000000000000000000000000000000000000000000000 DUP2 MSTORE POP PUSH1 0xF PUSH1 0x0 PUSH1 0x9 SLOAD DUP2 MSTORE PUSH1 0x20 ADD SWAP1 DUP2 MSTORE PUSH1 0x20 ADD PUSH1 0x0 KECCAK256 PUSH1 0x0 ADD SWAP1 DUP2 PUSH2 0xE0A SWAP2 SWAP1 PUSH2 0x2598 JUMP JUMPDEST POP DUP1 PUSH1 0xF PUSH1 0x0 PUSH1 0x9 SLOAD DUP2 MSTORE PUSH1 0x20 ADD SWAP1 DUP2 MSTORE PUSH1 0x20 ADD PUSH1 0x0 KECCAK256 PUSH1 0x1 ADD DUP2 SWAP1 SSTORE POP POP JUMPDEST PUSH1 0x7 SLOAD DUP2 GT ISZERO PUSH2 0xF54 JUMPI PUSH1 0x0 PUSH2 0xE4B PUSH1 0x7 SLOAD DUP4 PUSH2 0x1958 SWAP1 SWAP2 SWAP1 PUSH4 0xFFFFFFFF AND JUMP JUMPDEST SWAP1 POP PUSH1 0x4 PUSH1 0x0 SWAP1 SLOAD SWAP1 PUSH2 0x100 EXP SWAP1 DIV PUSH20 0xFFFFFFFFFFFFFFFFFFFFFFFFFFFFFFFFFFFFFFFF AND PUSH20 0xFFFFFFFFFFFFFFFFFFFFFFFFFFFFFFFFFFFFFFFF AND PUSH4 0xA0712D68 DUP3 PUSH1 0x40 MLOAD DUP3 PUSH4 0xFFFFFFFF AND PUSH1 0xE0 SHL DUP2 MSTORE PUSH1 0x4 ADD PUSH2 0xEA8 SWAP2 SWAP1 PUSH2 0x1D35 JUMP JUMPDEST PUSH1 0x0 PUSH1 0x40 MLOAD DUP1 DUP4 SUB DUP2 PUSH1 0x0 DUP8 DUP1 EXTCODESIZE ISZERO DUP1 ISZERO PUSH2 0xEC2 JUMPI PUSH1 0x0 DUP1 REVERT JUMPDEST POP GAS CALL ISZERO DUP1 ISZERO PUSH2 0xED6 JUMPI RETURNDATASIZE PUSH1 0x0 DUP1 RETURNDATACOPY RETURNDATASIZE PUSH1 0x0 REVERT JUMPDEST POP POP POP POP PUSH1 0x40 MLOAD DUP1 PUSH1 0x40 ADD PUSH1 0x40 MSTORE DUP1 PUSH1 0x4 DUP2 MSTORE PUSH1 0x20 ADD PUSH32 0x4D696E7400000000000000000000000000000000000000000000000000000000 DUP2 MSTORE POP PUSH1 0xF PUSH1 0x0 PUSH1 0x9 SLOAD DUP2 MSTORE PUSH1 0x20 ADD SWAP1 DUP2 MSTORE PUSH1 0x20 ADD PUSH1 0x0 KECCAK256 PUSH1 0x0 ADD SWAP1 DUP2 PUSH2 0xF34 SWAP2 SWAP1 PUSH2 0x2598 JUMP JUMPDEST POP DUP1 PUSH1 0xF PUSH1 0x0 PUSH1 0x9 SLOAD DUP2 MSTORE PUSH1 0x20 ADD SWAP1 DUP2 MSTORE PUSH1 0x20 ADD PUSH1 0x0 KECCAK256 PUSH1 0x1 ADD DUP2 SWAP1 SSTORE POP POP JUMPDEST DUP1 PUSH1 0x7 DUP2 SWAP1 SSTORE POP NUMBER PUSH1 0xF PUSH1 0x0 PUSH1 0x9 SLOAD DUP2 MSTORE PUSH1 0x20 ADD SWAP1 DUP2 MSTORE PUSH1 0x20 ADD PUSH1 0x0 KECCAK256 PUSH1 0x3 ADD DUP2 SWAP1 SSTORE POP TIMESTAMP PUSH1 0xF PUSH1 0x0 PUSH1 0x9 SLOAD DUP2 MSTORE PUSH1 0x20 ADD SWAP1 DUP2 MSTORE PUSH1 0x20 ADD PUSH1 0x0 KECCAK256 PUSH1 0x2 ADD DUP2 SWAP1 SSTORE POP PUSH1 0x9 PUSH1 0x0 DUP2 SLOAD DUP1 SWAP3 SWAP2 SWAP1 PUSH2 0xFA8 SWAP1 PUSH2 0x2699 JUMP JUMPDEST SWAP2 SWAP1 POP SSTORE POP PUSH32 0x2A6A493F767EC856DCAC2F52ECC7E244B432C2D615092EF532C22A94568ED995 TIMESTAMP DUP3 PUSH1 0x40 MLOAD PUSH2 0xFDE SWAP3 SWAP2 SWAP1 PUSH2 0x21DA JUMP JUMPDEST PUSH1 0x40 MLOAD DUP1 SWAP2 SUB SWAP1 LOG1 POP POP JUMPDEST POP PUSH2 0xFF2 PUSH2 0x13AA JUMP JUMPDEST JUMP JUMPDEST PUSH1 0x0 DUP1 PUSH1 0x0 SWAP1 SLOAD SWAP1 PUSH2 0x100 EXP SWAP1 DIV PUSH20 0xFFFFFFFFFFFFFFFFFFFFFFFFFFFFFFFFFFFFFFFF AND SWAP1 POP SWAP1 JUMP JUMPDEST PUSH1 0x0 PUSH1 0x2 PUSH1 0x0 DUP5 DUP2 MSTORE PUSH1 0x20 ADD SWAP1 DUP2 MSTORE PUSH1 0x20 ADD PUSH1 0x0 KECCAK256 PUSH1 0x0 ADD PUSH1 0x0 DUP4 PUSH20 0xFFFFFFFFFFFFFFFFFFFFFFFFFFFFFFFFFFFFFFFF AND PUSH20 0xFFFFFFFFFFFFFFFFFFFFFFFFFFFFFFFFFFFFFFFF AND DUP2 MSTORE PUSH1 0x20 ADD SWAP1 DUP2 MSTORE PUSH1 0x20 ADD PUSH1 0x0 KECCAK256 PUSH1 0x0 SWAP1 SLOAD SWAP1 PUSH2 0x100 EXP SWAP1 DIV PUSH1 0xFF AND SWAP1 POP SWAP3 SWAP2 POP POP JUMP JUMPDEST PUSH1 0xB SLOAD DUP2 JUMP JUMPDEST PUSH1 0x0 DUP1 SHL DUP2 JUMP JUMPDEST PUSH1 0xF PUSH1 0x20 MSTORE DUP1 PUSH1 0x0 MSTORE PUSH1 0x40 PUSH1 0x0 KECCAK256 PUSH1 0x0 SWAP2 POP SWAP1 POP DUP1 PUSH1 0x0 ADD DUP1 SLOAD PUSH2 0x10B8 SWAP1 PUSH2 0x23C5 JUMP JUMPDEST DUP1 PUSH1 0x1F ADD PUSH1 0x20 DUP1 SWAP2 DIV MUL PUSH1 0x20 ADD PUSH1 0x40 MLOAD SWAP1 DUP2 ADD PUSH1 0x40 MSTORE DUP1 SWAP3 SWAP2 SWAP1 DUP2 DUP2 MSTORE PUSH1 0x20 ADD DUP3 DUP1 SLOAD PUSH2 0x10E4 SWAP1 PUSH2 0x23C5 JUMP JUMPDEST DUP1 ISZERO PUSH2 0x1131 JUMPI DUP1 PUSH1 0x1F LT PUSH2 0x1106 JUMPI PUSH2 0x100 DUP1 DUP4 SLOAD DIV MUL DUP4 MSTORE SWAP2 PUSH1 0x20 ADD SWAP2 PUSH2 0x1131 JUMP JUMPDEST DUP3 ADD SWAP2 SWAP1 PUSH1 0x0 MSTORE PUSH1 0x20 PUSH1 0x0 KECCAK256 SWAP1 JUMPDEST DUP2 SLOAD DUP2 MSTORE SWAP1 PUSH1 0x1 ADD SWAP1 PUSH1 0x20 ADD DUP1 DUP4 GT PUSH2 0x1114 JUMPI DUP3 SWAP1 SUB PUSH1 0x1F AND DUP3 ADD SWAP2 JUMPDEST POP POP POP POP POP SWAP1 DUP1 PUSH1 0x1 ADD SLOAD SWAP1 DUP1 PUSH1 0x2 ADD SLOAD SWAP1 DUP1 PUSH1 0x3 ADD SLOAD SWAP1 POP DUP5 JUMP JUMPDEST PUSH2 0x1156 DUP3 PUSH2 0x620 JUMP JUMPDEST PUSH2 0x115F DUP2 PUSH2 0x13B3 JUMP JUMPDEST PUSH2 0x1169 DUP4 DUP4 PUSH2 0x14A8 JUMP JUMPDEST POP POP POP JUMP JUMPDEST PUSH2 0x1176 PUSH2 0x135B JUMP JUMPDEST PUSH2 0x11A7 PUSH32 0x899BD46557473CB80307A9DABC297131CED39608330A2D29B2D52B660C03923E PUSH2 0x11A2 PUSH2 0x1353 JUMP JUMPDEST PUSH2 0x101D JUMP JUMPDEST PUSH2 0x11E6 JUMPI PUSH1 0x40 MLOAD PUSH32 0x8C379A000000000000000000000000000000000000000000000000000000000 DUP2 MSTORE PUSH1 0x4 ADD PUSH2 0x11DD SWAP1 PUSH2 0x2138 JUMP JUMPDEST PUSH1 0x40 MLOAD DUP1 SWAP2 SUB SWAP1 REVERT JUMPDEST DUP1 PUSH1 0x3 PUSH1 0x0 PUSH1 0xE SLOAD DUP2 MSTORE PUSH1 0x20 ADD SWAP1 DUP2 MSTORE PUSH1 0x20 ADD PUSH1 0x0 KECCAK256 PUSH1 0x0 ADD PUSH1 0x0 PUSH2 0x100 EXP DUP2 SLOAD DUP2 PUSH20 0xFFFFFFFFFFFFFFFFFFFFFFFFFFFFFFFFFFFFFFFF MUL NOT AND SWAP1 DUP4 PUSH20 0xFFFFFFFFFFFFFFFFFFFFFFFFFFFFFFFFFFFFFFFF AND MUL OR SWAP1 SSTORE POP PUSH1 0xE PUSH1 0x0 DUP2 SLOAD DUP1 SWAP3 SWAP2 SWAP1 PUSH2 0x1250 SWAP1 PUSH2 0x2699 JUMP JUMPDEST SWAP2 SWAP1 POP SSTORE POP PUSH2 0x125D PUSH2 0x13AA JUMP JUMPDEST POP JUMP JUMPDEST PUSH1 0xC SLOAD DUP2 JUMP JUMPDEST PUSH2 0x126E PUSH2 0x158A JUMP JUMPDEST PUSH1 0x0 PUSH20 0xFFFFFFFFFFFFFFFFFFFFFFFFFFFFFFFFFFFFFFFF AND DUP2 PUSH20 0xFFFFFFFFFFFFFFFFFFFFFFFFFFFFFFFFFFFFFFFF AND SUB PUSH2 0x12DD JUMPI PUSH1 0x40 MLOAD PUSH32 0x8C379A000000000000000000000000000000000000000000000000000000000 DUP2 MSTORE PUSH1 0x4 ADD PUSH2 0x12D4 SWAP1 PUSH2 0x2753 JUMP JUMPDEST PUSH1 0x40 MLOAD DUP1 SWAP2 SUB SWAP1 REVERT JUMPDEST PUSH2 0x12E6 DUP2 PUSH2 0x1608 JUMP JUMPDEST POP JUMP JUMPDEST PUSH1 0x0 PUSH32 0x1FFC9A700000000000000000000000000000000000000000000000000000000 PUSH28 0xFFFFFFFFFFFFFFFFFFFFFFFFFFFFFFFFFFFFFFFFFFFFFFFFFFFFFFFF NOT AND DUP3 PUSH28 0xFFFFFFFFFFFFFFFFFFFFFFFFFFFFFFFFFFFFFFFFFFFFFFFFFFFFFFFF NOT AND EQ SWAP1 POP SWAP2 SWAP1 POP JUMP JUMPDEST PUSH1 0x0 CALLER SWAP1 POP SWAP1 JUMP JUMPDEST PUSH1 0x2 PUSH1 0x1 SLOAD SUB PUSH2 0x13A0 JUMPI PUSH1 0x40 MLOAD PUSH32 0x8C379A000000000000000000000000000000000000000000000000000000000 DUP2 MSTORE PUSH1 0x4 ADD PUSH2 0x1397 SWAP1 PUSH2 0x27BF JUMP JUMPDEST PUSH1 0x40 MLOAD DUP1 SWAP2 SUB SWAP1 REVERT JUMPDEST PUSH1 0x2 PUSH1 0x1 DUP2 SWAP1 SSTORE POP JUMP JUMPDEST PUSH1 0x1 DUP1 DUP2 SWAP1 SSTORE POP JUMP JUMPDEST PUSH2 0x13C4 DUP2 PUSH2 0x13BF PUSH2 0x1353 JUMP JUMPDEST PUSH2 0x196E JUMP JUMPDEST POP JUMP JUMPDEST PUSH2 0x13D1 DUP3 DUP3 PUSH2 0x101D JUMP JUMPDEST PUSH2 0x14A4 JUMPI PUSH1 0x1 PUSH1 0x2 PUSH1 0x0 DUP5 DUP2 MSTORE PUSH1 0x20 ADD SWAP1 DUP2 MSTORE PUSH1 0x20 ADD PUSH1 0x0 KECCAK256 PUSH1 0x0 ADD PUSH1 0x0 DUP4 PUSH20 0xFFFFFFFFFFFFFFFFFFFFFFFFFFFFFFFFFFFFFFFF AND PUSH20 0xFFFFFFFFFFFFFFFFFFFFFFFFFFFFFFFFFFFFFFFF AND DUP2 MSTORE PUSH1 0x20 ADD SWAP1 DUP2 MSTORE PUSH1 0x20 ADD PUSH1 0x0 KECCAK256 PUSH1 0x0 PUSH2 0x100 EXP DUP2 SLOAD DUP2 PUSH1 0xFF MUL NOT AND SWAP1 DUP4 ISZERO ISZERO MUL OR SWAP1 SSTORE POP PUSH2 0x1449 PUSH2 0x1353 JUMP JUMPDEST PUSH20 0xFFFFFFFFFFFFFFFFFFFFFFFFFFFFFFFFFFFFFFFF AND DUP2 PUSH20 0xFFFFFFFFFFFFFFFFFFFFFFFFFFFFFFFFFFFFFFFF AND DUP4 PUSH32 0x2F8788117E7EFF1D82E926EC794901D17C78024A50270940304540A733656F0D PUSH1 0x40 MLOAD PUSH1 0x40 MLOAD DUP1 SWAP2 SUB SWAP1 LOG4 JUMPDEST POP POP JUMP JUMPDEST PUSH2 0x14B2 DUP3 DUP3 PUSH2 0x101D JUMP JUMPDEST ISZERO PUSH2 0x1586 JUMPI PUSH1 0x0 PUSH1 0x2 PUSH1 0x0 DUP5 DUP2 MSTORE PUSH1 0x20 ADD SWAP1 DUP2 MSTORE PUSH1 0x20 ADD PUSH1 0x0 KECCAK256 PUSH1 0x0 ADD PUSH1 0x0 DUP4 PUSH20 0xFFFFFFFFFFFFFFFFFFFFFFFFFFFFFFFFFFFFFFFF AND PUSH20 0xFFFFFFFFFFFFFFFFFFFFFFFFFFFFFFFFFFFFFFFF AND DUP2 MSTORE PUSH1 0x20 ADD SWAP1 DUP2 MSTORE PUSH1 0x20 ADD PUSH1 0x0 KECCAK256 PUSH1 0x0 PUSH2 0x100 EXP DUP2 SLOAD DUP2 PUSH1 0xFF MUL NOT AND SWAP1 DUP4 ISZERO ISZERO MUL OR SWAP1 SSTORE POP PUSH2 0x152B PUSH2 0x1353 JUMP JUMPDEST PUSH20 0xFFFFFFFFFFFFFFFFFFFFFFFFFFFFFFFFFFFFFFFF AND DUP2 PUSH20 0xFFFFFFFFFFFFFFFFFFFFFFFFFFFFFFFFFFFFFFFF AND DUP4 PUSH32 0xF6391F5C32D9C69D2A47EA670B442974B53935D1EDC7FD64EB21E047A839171B PUSH1 0x40 MLOAD PUSH1 0x40 MLOAD DUP1 SWAP2 SUB SWAP1 LOG4 JUMPDEST POP POP JUMP JUMPDEST PUSH2 0x1592 PUSH2 0x1353 JUMP JUMPDEST PUSH20 0xFFFFFFFFFFFFFFFFFFFFFFFFFFFFFFFFFFFFFFFF AND PUSH2 0x15B0 PUSH2 0xFF4 JUMP JUMPDEST PUSH20 0xFFFFFFFFFFFFFFFFFFFFFFFFFFFFFFFFFFFFFFFF AND EQ PUSH2 0x1606 JUMPI PUSH1 0x40 MLOAD PUSH32 0x8C379A000000000000000000000000000000000000000000000000000000000 DUP2 MSTORE PUSH1 0x4 ADD PUSH2 0x15FD SWAP1 PUSH2 0x282B JUMP JUMPDEST PUSH1 0x40 MLOAD DUP1 SWAP2 SUB SWAP1 REVERT JUMPDEST JUMP JUMPDEST PUSH1 0x0 DUP1 PUSH1 0x0 SWAP1 SLOAD SWAP1 PUSH2 0x100 EXP SWAP1 DIV PUSH20 0xFFFFFFFFFFFFFFFFFFFFFFFFFFFFFFFFFFFFFFFF AND SWAP1 POP DUP2 PUSH1 0x0 DUP1 PUSH2 0x100 EXP DUP2 SLOAD DUP2 PUSH20 0xFFFFFFFFFFFFFFFFFFFFFFFFFFFFFFFFFFFFFFFF MUL NOT AND SWAP1 DUP4 PUSH20 0xFFFFFFFFFFFFFFFFFFFFFFFFFFFFFFFFFFFFFFFF AND MUL OR SWAP1 SSTORE POP DUP2 PUSH20 0xFFFFFFFFFFFFFFFFFFFFFFFFFFFFFFFFFFFFFFFF AND DUP2 PUSH20 0xFFFFFFFFFFFFFFFFFFFFFFFFFFFFFFFFFFFFFFFF AND PUSH32 0x8BE0079C531659141344CD1FD0A4F28419497F9722A3DAAFE3B4186F6B6457E0 PUSH1 0x40 MLOAD PUSH1 0x40 MLOAD DUP1 SWAP2 SUB SWAP1 LOG3 POP POP JUMP JUMPDEST PUSH1 0x0 DUP2 DUP4 PUSH2 0x16DA SWAP2 SWAP1 PUSH2 0x284B JUMP JUMPDEST SWAP1 POP SWAP3 SWAP2 POP POP JUMP JUMPDEST PUSH1 0x0 PUSH2 0x1715 PUSH32 0x899BD46557473CB80307A9DABC297131CED39608330A2D29B2D52B660C03923E PUSH2 0x1710 PUSH2 0x1353 JUMP JUMPDEST PUSH2 0x101D JUMP JUMPDEST PUSH2 0x1754 JUMPI PUSH1 0x40 MLOAD PUSH32 0x8C379A000000000000000000000000000000000000000000000000000000000 DUP2 MSTORE PUSH1 0x4 ADD PUSH2 0x174B SWAP1 PUSH2 0x2138 JUMP JUMPDEST PUSH1 0x40 MLOAD DUP1 SWAP2 SUB SWAP1 REVERT JUMPDEST PUSH1 0x0 PUSH1 0x3 PUSH1 0x0 DUP1 DUP2 MSTORE PUSH1 0x20 ADD SWAP1 DUP2 MSTORE PUSH1 0x20 ADD PUSH1 0x0 KECCAK256 PUSH1 0x0 ADD PUSH1 0x0 SWAP1 SLOAD SWAP1 PUSH2 0x100 EXP SWAP1 DIV PUSH20 0xFFFFFFFFFFFFFFFFFFFFFFFFFFFFFFFFFFFFFFFF AND PUSH20 0xFFFFFFFFFFFFFFFFFFFFFFFFFFFFFFFFFFFFFFFF AND PUSH4 0x70A08231 PUSH1 0x6 PUSH1 0x0 SWAP1 SLOAD SWAP1 PUSH2 0x100 EXP SWAP1 DIV PUSH20 0xFFFFFFFFFFFFFFFFFFFFFFFFFFFFFFFFFFFFFFFF AND PUSH1 0x40 MLOAD DUP3 PUSH4 0xFFFFFFFF AND PUSH1 0xE0 SHL DUP2 MSTORE PUSH1 0x4 ADD PUSH2 0x17E7 SWAP2 SWAP1 PUSH2 0x1ED0 JUMP JUMPDEST PUSH1 0x20 PUSH1 0x40 MLOAD DUP1 DUP4 SUB DUP2 DUP7 GAS STATICCALL ISZERO DUP1 ISZERO PUSH2 0x1804 JUMPI RETURNDATASIZE PUSH1 0x0 DUP1 RETURNDATACOPY RETURNDATASIZE PUSH1 0x0 REVERT JUMPDEST POP POP POP POP PUSH1 0x40 MLOAD RETURNDATASIZE PUSH1 0x1F NOT PUSH1 0x1F DUP3 ADD AND DUP3 ADD DUP1 PUSH1 0x40 MSTORE POP DUP2 ADD SWAP1 PUSH2 0x1828 SWAP2 SWAP1 PUSH2 0x288D JUMP JUMPDEST SWAP1 POP PUSH1 0x0 PUSH1 0x3 PUSH1 0x0 PUSH1 0x1 DUP2 MSTORE PUSH1 0x20 ADD SWAP1 DUP2 MSTORE PUSH1 0x20 ADD PUSH1 0x0 KECCAK256 PUSH1 0x0 ADD PUSH1 0x0 SWAP1 SLOAD SWAP1 PUSH2 0x100 EXP SWAP1 DIV PUSH20 0xFFFFFFFFFFFFFFFFFFFFFFFFFFFFFFFFFFFFFFFF AND PUSH20 0xFFFFFFFFFFFFFFFFFFFFFFFFFFFFFFFFFFFFFFFF AND PUSH4 0x70A08231 PUSH1 0x6 PUSH1 0x0 SWAP1 SLOAD SWAP1 PUSH2 0x100 EXP SWAP1 DIV PUSH20 0xFFFFFFFFFFFFFFFFFFFFFFFFFFFFFFFFFFFFFFFF AND PUSH1 0x40 MLOAD DUP3 PUSH4 0xFFFFFFFF AND PUSH1 0xE0 SHL DUP2 MSTORE PUSH1 0x4 ADD PUSH2 0x18BE SWAP2 SWAP1 PUSH2 0x1ED0 JUMP JUMPDEST PUSH1 0x20 PUSH1 0x40 MLOAD DUP1 DUP4 SUB DUP2 DUP7 GAS STATICCALL ISZERO DUP1 ISZERO PUSH2 0x18DB JUMPI RETURNDATASIZE PUSH1 0x0 DUP1 RETURNDATACOPY RETURNDATASIZE PUSH1 0x0 REVERT JUMPDEST POP POP POP POP PUSH1 0x40 MLOAD RETURNDATASIZE PUSH1 0x1F NOT PUSH1 0x1F DUP3 ADD AND DUP3 ADD DUP1 PUSH1 0x40 MSTORE POP DUP2 ADD SWAP1 PUSH2 0x18FF SWAP2 SWAP1 PUSH2 0x288D JUMP JUMPDEST SWAP1 POP PUSH1 0xB SLOAD DUP3 EQ PUSH2 0x1912 JUMPI DUP2 PUSH1 0xB DUP2 SWAP1 SSTORE POP JUMPDEST PUSH1 0xB SLOAD DUP2 EQ PUSH2 0x1923 JUMPI DUP1 PUSH1 0xC DUP2 SWAP1 SSTORE POP JUMPDEST PUSH1 0x1 SWAP3 POP POP POP SWAP1 JUMP JUMPDEST PUSH1 0x0 DUP2 DUP4 PUSH2 0x193A SWAP2 SWAP1 PUSH2 0x28BA JUMP JUMPDEST SWAP1 POP SWAP3 SWAP2 POP POP JUMP JUMPDEST PUSH1 0x0 DUP2 DUP4 PUSH2 0x1950 SWAP2 SWAP1 PUSH2 0x291D JUMP JUMPDEST SWAP1 POP SWAP3 SWAP2 POP POP JUMP JUMPDEST PUSH1 0x0 DUP2 DUP4 PUSH2 0x1966 SWAP2 SWAP1 PUSH2 0x294E JUMP JUMPDEST SWAP1 POP SWAP3 SWAP2 POP POP JUMP JUMPDEST PUSH2 0x1978 DUP3 DUP3 PUSH2 0x101D JUMP JUMPDEST PUSH2 0x19EF JUMPI PUSH2 0x1985 DUP2 PUSH2 0x19F3 JUMP JUMPDEST PUSH2 0x1993 DUP4 PUSH1 0x0 SHR PUSH1 0x20 PUSH2 0x1A20 JUMP JUMPDEST PUSH1 0x40 MLOAD PUSH1 0x20 ADD PUSH2 0x19A4 SWAP3 SWAP2 SWAP1 PUSH2 0x2A56 JUMP JUMPDEST PUSH1 0x40 MLOAD PUSH1 0x20 DUP2 DUP4 SUB SUB DUP2 MSTORE SWAP1 PUSH1 0x40 MSTORE PUSH1 0x40 MLOAD PUSH32 0x8C379A000000000000000000000000000000000000000000000000000000000 DUP2 MSTORE PUSH1 0x4 ADD PUSH2 0x19E6 SWAP2 SWAP1 PUSH2 0x2A90 JUMP JUMPDEST PUSH1 0x40 MLOAD DUP1 SWAP2 SUB SWAP1 REVERT JUMPDEST POP POP JUMP JUMPDEST PUSH1 0x60 PUSH2 0x1A19 DUP3 PUSH20 0xFFFFFFFFFFFFFFFFFFFFFFFFFFFFFFFFFFFFFFFF AND PUSH1 0x14 PUSH1 0xFF AND PUSH2 0x1A20 JUMP JUMPDEST SWAP1 POP SWAP2 SWAP1 POP JUMP JUMPDEST PUSH1 0x60 PUSH1 0x0 PUSH1 0x2 DUP4 PUSH1 0x2 PUSH2 0x1A33 SWAP2 SWAP1 PUSH2 0x284B JUMP JUMPDEST PUSH2 0x1A3D SWAP2 SWAP1 PUSH2 0x28BA JUMP JUMPDEST PUSH8 0xFFFFFFFFFFFFFFFF DUP2 GT ISZERO PUSH2 0x1A56 JUMPI PUSH2 0x1A55 PUSH2 0x2367 JUMP JUMPDEST JUMPDEST PUSH1 0x40 MLOAD SWAP1 DUP1 DUP3 MSTORE DUP1 PUSH1 0x1F ADD PUSH1 0x1F NOT AND PUSH1 0x20 ADD DUP3 ADD PUSH1 0x40 MSTORE DUP1 ISZERO PUSH2 0x1A88 JUMPI DUP2 PUSH1 0x20 ADD PUSH1 0x1 DUP3 MUL DUP1 CALLDATASIZE DUP4 CALLDATACOPY DUP1 DUP3 ADD SWAP2 POP POP SWAP1 POP JUMPDEST POP SWAP1 POP PUSH32 0x3000000000000000000000000000000000000000000000000000000000000000 DUP2 PUSH1 0x0 DUP2 MLOAD DUP2 LT PUSH2 0x1AC0 JUMPI PUSH2 0x1ABF PUSH2 0x2AB2 JUMP JUMPDEST JUMPDEST PUSH1 0x20 ADD ADD SWAP1 PUSH31 0xFFFFFFFFFFFFFFFFFFFFFFFFFFFFFFFFFFFFFFFFFFFFFFFFFFFFFFFFFFFFFF NOT AND SWAP1 DUP2 PUSH1 0x0 BYTE SWAP1 MSTORE8 POP PUSH32 0x7800000000000000000000000000000000000000000000000000000000000000 DUP2 PUSH1 0x1 DUP2 MLOAD DUP2 LT PUSH2 0x1B24 JUMPI PUSH2 0x1B23 PUSH2 0x2AB2 JUMP JUMPDEST JUMPDEST PUSH1 0x20 ADD ADD SWAP1 PUSH31 0xFFFFFFFFFFFFFFFFFFFFFFFFFFFFFFFFFFFFFFFFFFFFFFFFFFFFFFFFFFFFFF NOT AND SWAP1 DUP2 PUSH1 0x0 BYTE SWAP1 MSTORE8 POP PUSH1 0x0 PUSH1 0x1 DUP5 PUSH1 0x2 PUSH2 0x1B64 SWAP2 SWAP1 PUSH2 0x284B JUMP JUMPDEST PUSH2 0x1B6E SWAP2 SWAP1 PUSH2 0x28BA JUMP JUMPDEST SWAP1 POP JUMPDEST PUSH1 0x1 DUP2 GT ISZERO PUSH2 0x1C0E JUMPI PUSH32 0x3031323334353637383961626364656600000000000000000000000000000000 PUSH1 0xF DUP7 AND PUSH1 0x10 DUP2 LT PUSH2 0x1BB0 JUMPI PUSH2 0x1BAF PUSH2 0x2AB2 JUMP JUMPDEST JUMPDEST BYTE PUSH1 0xF8 SHL DUP3 DUP3 DUP2 MLOAD DUP2 LT PUSH2 0x1BC7 JUMPI PUSH2 0x1BC6 PUSH2 0x2AB2 JUMP JUMPDEST JUMPDEST PUSH1 0x20 ADD ADD SWAP1 PUSH31 0xFFFFFFFFFFFFFFFFFFFFFFFFFFFFFFFFFFFFFFFFFFFFFFFFFFFFFFFFFFFFFF NOT AND SWAP1 DUP2 PUSH1 0x0 BYTE SWAP1 MSTORE8 POP PUSH1 0x4 DUP6 SWAP1 SHR SWAP5 POP DUP1 PUSH2 0x1C07 SWAP1 PUSH2 0x2AE1 JUMP JUMPDEST SWAP1 POP PUSH2 0x1B71 JUMP JUMPDEST POP PUSH1 0x0 DUP5 EQ PUSH2 0x1C52 JUMPI PUSH1 0x40 MLOAD PUSH32 0x8C379A000000000000000000000000000000000000000000000000000000000 DUP2 MSTORE PUSH1 0x4 ADD PUSH2 0x1C49 SWAP1 PUSH2 0x2B56 JUMP JUMPDEST PUSH1 0x40 MLOAD DUP1 SWAP2 SUB SWAP1 REVERT JUMPDEST DUP1 SWAP2 POP POP SWAP3 SWAP2 POP POP JUMP JUMPDEST PUSH1 0x0 DUP1 REVERT JUMPDEST PUSH1 0x0 PUSH32 0xFFFFFFFF00000000000000000000000000000000000000000000000000000000 DUP3 AND SWAP1 POP SWAP2 SWAP1 POP JUMP JUMPDEST PUSH2 0x1C96 DUP2 PUSH2 0x1C61 JUMP JUMPDEST DUP2 EQ PUSH2 0x1CA1 JUMPI PUSH1 0x0 DUP1 REVERT JUMPDEST POP JUMP JUMPDEST PUSH1 0x0 DUP2 CALLDATALOAD SWAP1 POP PUSH2 0x1CB3 DUP2 PUSH2 0x1C8D JUMP JUMPDEST SWAP3 SWAP2 POP POP JUMP JUMPDEST PUSH1 0x0 PUSH1 0x20 DUP3 DUP5 SUB SLT ISZERO PUSH2 0x1CCF JUMPI PUSH2 0x1CCE PUSH2 0x1C5C JUMP JUMPDEST JUMPDEST PUSH1 0x0 PUSH2 0x1CDD DUP5 DUP3 DUP6 ADD PUSH2 0x1CA4 JUMP JUMPDEST SWAP2 POP POP SWAP3 SWAP2 POP POP JUMP JUMPDEST PUSH1 0x0 DUP2 ISZERO ISZERO SWAP1 POP SWAP2 SWAP1 POP JUMP JUMPDEST PUSH2 0x1CFB DUP2 PUSH2 0x1CE6 JUMP JUMPDEST DUP3 MSTORE POP POP JUMP JUMPDEST PUSH1 0x0 PUSH1 0x20 DUP3 ADD SWAP1 POP PUSH2 0x1D16 PUSH1 0x0 DUP4 ADD DUP5 PUSH2 0x1CF2 JUMP JUMPDEST SWAP3 SWAP2 POP POP JUMP JUMPDEST PUSH1 0x0 DUP2 SWAP1 POP SWAP2 SWAP1 POP JUMP JUMPDEST PUSH2 0x1D2F DUP2 PUSH2 0x1D1C JUMP JUMPDEST DUP3 MSTORE POP POP JUMP JUMPDEST PUSH1 0x0 PUSH1 0x20 DUP3 ADD SWAP1 POP PUSH2 0x1D4A PUSH1 0x0 DUP4 ADD DUP5 PUSH2 0x1D26 JUMP JUMPDEST SWAP3 SWAP2 POP POP JUMP JUMPDEST PUSH2 0x1D59 DUP2 PUSH2 0x1D1C JUMP JUMPDEST DUP2 EQ PUSH2 0x1D64 JUMPI PUSH1 0x0 DUP1 REVERT JUMPDEST POP JUMP JUMPDEST PUSH1 0x0 DUP2 CALLDATALOAD SWAP1 POP PUSH2 0x1D76 DUP2 PUSH2 0x1D50 JUMP JUMPDEST SWAP3 SWAP2 POP POP JUMP JUMPDEST PUSH1 0x0 PUSH1 0x20 DUP3 DUP5 SUB SLT ISZERO PUSH2 0x1D92 JUMPI PUSH2 0x1D91 PUSH2 0x1C5C JUMP JUMPDEST JUMPDEST PUSH1 0x0 PUSH2 0x1DA0 DUP5 DUP3 DUP6 ADD PUSH2 0x1D67 JUMP JUMPDEST SWAP2 POP POP SWAP3 SWAP2 POP POP JUMP JUMPDEST PUSH1 0x0 DUP2 SWAP1 POP SWAP2 SWAP1 POP JUMP JUMPDEST PUSH2 0x1DBC DUP2 PUSH2 0x1DA9 JUMP JUMPDEST DUP2 EQ PUSH2 0x1DC7 JUMPI PUSH1 0x0 DUP1 REVERT JUMPDEST POP JUMP JUMPDEST PUSH1 0x0 DUP2 CALLDATALOAD SWAP1 POP PUSH2 0x1DD9 DUP2 PUSH2 0x1DB3 JUMP JUMPDEST SWAP3 SWAP2 POP POP JUMP JUMPDEST PUSH1 0x0 PUSH1 0x20 DUP3 DUP5 SUB SLT ISZERO PUSH2 0x1DF5 JUMPI PUSH2 0x1DF4 PUSH2 0x1C5C JUMP JUMPDEST JUMPDEST PUSH1 0x0 PUSH2 0x1E03 DUP5 DUP3 DUP6 ADD PUSH2 0x1DCA JUMP JUMPDEST SWAP2 POP POP SWAP3 SWAP2 POP POP JUMP JUMPDEST PUSH2 0x1E15 DUP2 PUSH2 0x1DA9 JUMP JUMPDEST DUP3 MSTORE POP POP JUMP JUMPDEST PUSH1 0x0 PUSH1 0x20 DUP3 ADD SWAP1 POP PUSH2 0x1E30 PUSH1 0x0 DUP4 ADD DUP5 PUSH2 0x1E0C JUMP JUMPDEST SWAP3 SWAP2 POP POP JUMP JUMPDEST PUSH1 0x0 PUSH20 0xFFFFFFFFFFFFFFFFFFFFFFFFFFFFFFFFFFFFFFFF DUP3 AND SWAP1 POP SWAP2 SWAP1 POP JUMP JUMPDEST PUSH1 0x0 PUSH2 0x1E61 DUP3 PUSH2 0x1E36 JUMP JUMPDEST SWAP1 POP SWAP2 SWAP1 POP JUMP JUMPDEST PUSH2 0x1E71 DUP2 PUSH2 0x1E56 JUMP JUMPDEST DUP2 EQ PUSH2 0x1E7C JUMPI PUSH1 0x0 DUP1 REVERT JUMPDEST POP JUMP JUMPDEST PUSH1 0x0 DUP2 CALLDATALOAD SWAP1 POP PUSH2 0x1E8E DUP2 PUSH2 0x1E68 JUMP JUMPDEST SWAP3 SWAP2 POP POP JUMP JUMPDEST PUSH1 0x0 PUSH1 0x20 DUP3 DUP5 SUB SLT ISZERO PUSH2 0x1EAA JUMPI PUSH2 0x1EA9 PUSH2 0x1C5C JUMP JUMPDEST JUMPDEST PUSH1 0x0 PUSH2 0x1EB8 DUP5 DUP3 DUP6 ADD PUSH2 0x1E7F JUMP JUMPDEST SWAP2 POP POP SWAP3 SWAP2 POP POP JUMP JUMPDEST PUSH2 0x1ECA DUP2 PUSH2 0x1E56 JUMP JUMPDEST DUP3 MSTORE POP POP JUMP JUMPDEST PUSH1 0x0 PUSH1 0x20 DUP3 ADD SWAP1 POP PUSH2 0x1EE5 PUSH1 0x0 DUP4 ADD DUP5 PUSH2 0x1EC1 JUMP JUMPDEST SWAP3 SWAP2 POP POP JUMP JUMPDEST PUSH1 0x0 DUP1 PUSH1 0x40 DUP4 DUP6 SUB SLT ISZERO PUSH2 0x1F02 JUMPI PUSH2 0x1F01 PUSH2 0x1C5C JUMP JUMPDEST JUMPDEST PUSH1 0x0 PUSH2 0x1F10 DUP6 DUP3 DUP7 ADD PUSH2 0x1DCA JUMP JUMPDEST SWAP3 POP POP PUSH1 0x20 PUSH2 0x1F21 DUP6 DUP3 DUP7 ADD PUSH2 0x1E7F JUMP JUMPDEST SWAP2 POP POP SWAP3 POP SWAP3 SWAP1 POP JUMP JUMPDEST PUSH1 0x0 DUP2 SWAP1 POP SWAP2 SWAP1 POP JUMP JUMPDEST PUSH1 0x0 PUSH2 0x1F50 PUSH2 0x1F4B PUSH2 0x1F46 DUP5 PUSH2 0x1E36 JUMP JUMPDEST PUSH2 0x1F2B JUMP JUMPDEST PUSH2 0x1E36 JUMP JUMPDEST SWAP1 POP SWAP2 SWAP1 POP JUMP JUMPDEST PUSH1 0x0 PUSH2 0x1F62 DUP3 PUSH2 0x1F35 JUMP JUMPDEST SWAP1 POP SWAP2 SWAP1 POP JUMP JUMPDEST PUSH1 0x0 PUSH2 0x1F74 DUP3 PUSH2 0x1F57 JUMP JUMPDEST SWAP1 POP SWAP2 SWAP1 POP JUMP JUMPDEST PUSH2 0x1F84 DUP2 PUSH2 0x1F69 JUMP JUMPDEST DUP3 MSTORE POP POP JUMP JUMPDEST PUSH1 0x0 PUSH1 0x20 DUP3 ADD SWAP1 POP PUSH2 0x1F9F PUSH1 0x0 DUP4 ADD DUP5 PUSH2 0x1F7B JUMP JUMPDEST SWAP3 SWAP2 POP POP JUMP JUMPDEST PUSH1 0x0 DUP2 MLOAD SWAP1 POP SWAP2 SWAP1 POP JUMP JUMPDEST PUSH1 0x0 DUP3 DUP3 MSTORE PUSH1 0x20 DUP3 ADD SWAP1 POP SWAP3 SWAP2 POP POP JUMP JUMPDEST PUSH1 0x0 JUMPDEST DUP4 DUP2 LT ISZERO PUSH2 0x1FDF JUMPI DUP1 DUP3 ADD MLOAD DUP2 DUP5 ADD MSTORE PUSH1 0x20 DUP2 ADD SWAP1 POP PUSH2 0x1FC4 JUMP JUMPDEST PUSH1 0x0 DUP5 DUP5 ADD MSTORE POP POP POP POP JUMP JUMPDEST PUSH1 0x0 PUSH1 0x1F NOT PUSH1 0x1F DUP4 ADD AND SWAP1 POP SWAP2 SWAP1 POP JUMP JUMPDEST PUSH1 0x0 PUSH2 0x2007 DUP3 PUSH2 0x1FA5 JUMP JUMPDEST PUSH2 0x2011 DUP2 DUP6 PUSH2 0x1FB0 JUMP JUMPDEST SWAP4 POP PUSH2 0x2021 DUP2 DUP6 PUSH1 0x20 DUP7 ADD PUSH2 0x1FC1 JUMP JUMPDEST PUSH2 0x202A DUP2 PUSH2 0x1FEB JUMP JUMPDEST DUP5 ADD SWAP2 POP POP SWAP3 SWAP2 POP POP JUMP JUMPDEST PUSH1 0x0 PUSH1 0x80 DUP3 ADD SWAP1 POP DUP2 DUP2 SUB PUSH1 0x0 DUP4 ADD MSTORE PUSH2 0x204F DUP2 DUP8 PUSH2 0x1FFC JUMP JUMPDEST SWAP1 POP PUSH2 0x205E PUSH1 0x20 DUP4 ADD DUP7 PUSH2 0x1D26 JUMP JUMPDEST PUSH2 0x206B PUSH1 0x40 DUP4 ADD DUP6 PUSH2 0x1D26 JUMP JUMPDEST PUSH2 0x2078 PUSH1 0x60 DUP4 ADD DUP5 PUSH2 0x1D26 JUMP JUMPDEST SWAP6 SWAP5 POP POP POP POP POP JUMP JUMPDEST PUSH1 0x0 PUSH2 0x208C DUP3 PUSH2 0x1E56 JUMP JUMPDEST SWAP1 POP SWAP2 SWAP1 POP JUMP JUMPDEST PUSH2 0x209C DUP2 PUSH2 0x2081 JUMP JUMPDEST DUP2 EQ PUSH2 0x20A7 JUMPI PUSH1 0x0 DUP1 REVERT JUMPDEST POP JUMP JUMPDEST PUSH1 0x0 DUP2 CALLDATALOAD SWAP1 POP PUSH2 0x20B9 DUP2 PUSH2 0x2093 JUMP JUMPDEST SWAP3 SWAP2 POP POP JUMP JUMPDEST PUSH1 0x0 PUSH1 0x20 DUP3 DUP5 SUB SLT ISZERO PUSH2 0x20D5 JUMPI PUSH2 0x20D4 PUSH2 0x1C5C JUMP JUMPDEST JUMPDEST PUSH1 0x0 PUSH2 0x20E3 DUP5 DUP3 DUP6 ADD PUSH2 0x20AA JUMP JUMPDEST SWAP2 POP POP SWAP3 SWAP2 POP POP JUMP JUMPDEST PUSH32 0x4E6F7420616C6C6F776564000000000000000000000000000000000000000000 PUSH1 0x0 DUP3 ADD MSTORE POP JUMP JUMPDEST PUSH1 0x0 PUSH2 0x2122 PUSH1 0xB DUP4 PUSH2 0x1FB0 JUMP JUMPDEST SWAP2 POP PUSH2 0x212D DUP3 PUSH2 0x20EC JUMP JUMPDEST PUSH1 0x20 DUP3 ADD SWAP1 POP SWAP2 SWAP1 POP JUMP JUMPDEST PUSH1 0x0 PUSH1 0x20 DUP3 ADD SWAP1 POP DUP2 DUP2 SUB PUSH1 0x0 DUP4 ADD MSTORE PUSH2 0x2151 DUP2 PUSH2 0x2115 JUMP JUMPDEST SWAP1 POP SWAP2 SWAP1 POP JUMP JUMPDEST PUSH1 0x0 PUSH1 0x40 DUP3 ADD SWAP1 POP PUSH2 0x216D PUSH1 0x0 DUP4 ADD DUP6 PUSH2 0x1EC1 JUMP JUMPDEST PUSH2 0x217A PUSH1 0x20 DUP4 ADD DUP5 PUSH2 0x1D26 JUMP JUMPDEST SWAP4 SWAP3 POP POP POP JUMP JUMPDEST PUSH2 0x218A DUP2 PUSH2 0x1CE6 JUMP JUMPDEST DUP2 EQ PUSH2 0x2195 JUMPI PUSH1 0x0 DUP1 REVERT JUMPDEST POP JUMP JUMPDEST PUSH1 0x0 DUP2 MLOAD SWAP1 POP PUSH2 0x21A7 DUP2 PUSH2 0x2181 JUMP JUMPDEST SWAP3 SWAP2 POP POP JUMP JUMPDEST PUSH1 0x0 PUSH1 0x20 DUP3 DUP5 SUB SLT ISZERO PUSH2 0x21C3 JUMPI PUSH2 0x21C2 PUSH2 0x1C5C JUMP JUMPDEST JUMPDEST PUSH1 0x0 PUSH2 0x21D1 DUP5 DUP3 DUP6 ADD PUSH2 0x2198 JUMP JUMPDEST SWAP2 POP POP SWAP3 SWAP2 POP POP JUMP JUMPDEST PUSH1 0x0 PUSH1 0x40 DUP3 ADD SWAP1 POP PUSH2 0x21EF PUSH1 0x0 DUP4 ADD DUP6 PUSH2 0x1D26 JUMP JUMPDEST PUSH2 0x21FC PUSH1 0x20 DUP4 ADD DUP5 PUSH2 0x1D26 JUMP JUMPDEST SWAP4 SWAP3 POP POP POP JUMP JUMPDEST PUSH32 0x416363657373436F6E74726F6C3A2063616E206F6E6C792072656E6F756E6365 PUSH1 0x0 DUP3 ADD MSTORE PUSH32 0x20726F6C657320666F722073656C660000000000000000000000000000000000 PUSH1 0x20 DUP3 ADD MSTORE POP JUMP JUMPDEST PUSH1 0x0 PUSH2 0x225F PUSH1 0x2F DUP4 PUSH2 0x1FB0 JUMP JUMPDEST SWAP2 POP PUSH2 0x226A DUP3 PUSH2 0x2203 JUMP JUMPDEST PUSH1 0x40 DUP3 ADD SWAP1 POP SWAP2 SWAP1 POP JUMP JUMPDEST PUSH1 0x0 PUSH1 0x20 DUP3 ADD SWAP1 POP DUP2 DUP2 SUB PUSH1 0x0 DUP4 ADD MSTORE PUSH2 0x228E DUP2 PUSH2 0x2252 JUMP JUMPDEST SWAP1 POP SWAP2 SWAP1 POP JUMP JUMPDEST PUSH1 0x0 PUSH10 0xFFFFFFFFFFFFFFFFFFFF DUP3 AND SWAP1 POP SWAP2 SWAP1 POP JUMP JUMPDEST PUSH2 0x22B4 DUP2 PUSH2 0x2295 JUMP JUMPDEST DUP2 EQ PUSH2 0x22BF JUMPI PUSH1 0x0 DUP1 REVERT JUMPDEST POP JUMP JUMPDEST PUSH1 0x0 DUP2 MLOAD SWAP1 POP PUSH2 0x22D1 DUP2 PUSH2 0x22AB JUMP JUMPDEST SWAP3 SWAP2 POP POP JUMP JUMPDEST PUSH1 0x0 DUP2 MLOAD SWAP1 POP PUSH2 0x22E6 DUP2 PUSH2 0x1D50 JUMP JUMPDEST SWAP3 SWAP2 POP POP JUMP JUMPDEST PUSH1 0x0 DUP1 PUSH1 0x0 DUP1 PUSH1 0x0 PUSH1 0xA0 DUP7 DUP9 SUB SLT ISZERO PUSH2 0x2308 JUMPI PUSH2 0x2307 PUSH2 0x1C5C JUMP JUMPDEST JUMPDEST PUSH1 0x0 PUSH2 0x2316 DUP9 DUP3 DUP10 ADD PUSH2 0x22C2 JUMP JUMPDEST SWAP6 POP POP PUSH1 0x20 PUSH2 0x2327 DUP9 DUP3 DUP10 ADD PUSH2 0x22D7 JUMP JUMPDEST SWAP5 POP POP PUSH1 0x40 PUSH2 0x2338 DUP9 DUP3 DUP10 ADD PUSH2 0x22D7 JUMP JUMPDEST SWAP4 POP POP PUSH1 0x60 PUSH2 0x2349 DUP9 DUP3 DUP10 ADD PUSH2 0x22D7 JUMP JUMPDEST SWAP3 POP POP PUSH1 0x80 PUSH2 0x235A DUP9 DUP3 DUP10 ADD PUSH2 0x22C2 JUMP JUMPDEST SWAP2 POP POP SWAP3 SWAP6 POP SWAP3 SWAP6 SWAP1 SWAP4 POP JUMP JUMPDEST PUSH32 0x4E487B7100000000000000000000000000000000000000000000000000000000 PUSH1 0x0 MSTORE PUSH1 0x41 PUSH1 0x4 MSTORE PUSH1 0x24 PUSH1 0x0 REVERT JUMPDEST PUSH32 0x4E487B7100000000000000000000000000000000000000000000000000000000 PUSH1 0x0 MSTORE PUSH1 0x22 PUSH1 0x4 MSTORE PUSH1 0x24 PUSH1 0x0 REVERT JUMPDEST PUSH1 0x0 PUSH1 0x2 DUP3 DIV SWAP1 POP PUSH1 0x1 DUP3 AND DUP1 PUSH2 0x23DD JUMPI PUSH1 0x7F DUP3 AND SWAP2 POP JUMPDEST PUSH1 0x20 DUP3 LT DUP2 SUB PUSH2 0x23F0 JUMPI PUSH2 0x23EF PUSH2 0x2396 JUMP JUMPDEST JUMPDEST POP SWAP2 SWAP1 POP JUMP JUMPDEST PUSH1 0x0 DUP2 SWAP1 POP DUP2 PUSH1 0x0 MSTORE PUSH1 0x20 PUSH1 0x0 KECCAK256 SWAP1 POP SWAP2 SWAP1 POP JUMP JUMPDEST PUSH1 0x0 PUSH1 0x20 PUSH1 0x1F DUP4 ADD DIV SWAP1 POP SWAP2 SWAP1 POP JUMP JUMPDEST PUSH1 0x0 DUP3 DUP3 SHL SWAP1 POP SWAP3 SWAP2 POP POP JUMP JUMPDEST PUSH1 0x0 PUSH1 0x8 DUP4 MUL PUSH2 0x2458 PUSH32 0xFFFFFFFFFFFFFFFFFFFFFFFFFFFFFFFFFFFFFFFFFFFFFFFFFFFFFFFFFFFFFFFF DUP3 PUSH2 0x241B JUMP JUMPDEST PUSH2 0x2462 DUP7 DUP4 PUSH2 0x241B JUMP JUMPDEST SWAP6 POP DUP1 NOT DUP5 AND SWAP4 POP DUP1 DUP7 AND DUP5 OR SWAP3 POP POP POP SWAP4 SWAP3 POP POP POP JUMP JUMPDEST PUSH1 0x0 PUSH2 0x2495 PUSH2 0x2490 PUSH2 0x248B DUP5 PUSH2 0x1D1C JUMP JUMPDEST PUSH2 0x1F2B JUMP JUMPDEST PUSH2 0x1D1C JUMP JUMPDEST SWAP1 POP SWAP2 SWAP1 POP JUMP JUMPDEST PUSH1 0x0 DUP2 SWAP1 POP SWAP2 SWAP1 POP JUMP JUMPDEST PUSH2 0x24AF DUP4 PUSH2 0x247A JUMP JUMPDEST PUSH2 0x24C3 PUSH2 0x24BB DUP3 PUSH2 0x249C JUMP JUMPDEST DUP5 DUP5 SLOAD PUSH2 0x2428 JUMP JUMPDEST DUP3 SSTORE POP POP POP POP JUMP JUMPDEST PUSH1 0x0 SWAP1 JUMP JUMPDEST PUSH2 0x24D8 PUSH2 0x24CB JUMP JUMPDEST PUSH2 0x24E3 DUP2 DUP5 DUP5 PUSH2 0x24A6 JUMP JUMPDEST POP POP POP JUMP JUMPDEST JUMPDEST DUP2 DUP2 LT ISZERO PUSH2 0x2507 JUMPI PUSH2 0x24FC PUSH1 0x0 DUP3 PUSH2 0x24D0 JUMP JUMPDEST PUSH1 0x1 DUP2 ADD SWAP1 POP PUSH2 0x24E9 JUMP JUMPDEST POP POP JUMP JUMPDEST PUSH1 0x1F DUP3 GT ISZERO PUSH2 0x254C JUMPI PUSH2 0x251D DUP2 PUSH2 0x23F6 JUMP JUMPDEST PUSH2 0x2526 DUP5 PUSH2 0x240B JUMP JUMPDEST DUP2 ADD PUSH1 0x20 DUP6 LT ISZERO PUSH2 0x2535 JUMPI DUP2 SWAP1 POP JUMPDEST PUSH2 0x2549 PUSH2 0x2541 DUP6 PUSH2 0x240B JUMP JUMPDEST DUP4 ADD DUP3 PUSH2 0x24E8 JUMP JUMPDEST POP POP JUMPDEST POP POP POP JUMP JUMPDEST PUSH1 0x0 DUP3 DUP3 SHR SWAP1 POP SWAP3 SWAP2 POP POP JUMP JUMPDEST PUSH1 0x0 PUSH2 0x256F PUSH1 0x0 NOT DUP5 PUSH1 0x8 MUL PUSH2 0x2551 JUMP JUMPDEST NOT DUP1 DUP4 AND SWAP2 POP POP SWAP3 SWAP2 POP POP JUMP JUMPDEST PUSH1 0x0 PUSH2 0x2588 DUP4 DUP4 PUSH2 0x255E JUMP JUMPDEST SWAP2 POP DUP3 PUSH1 0x2 MUL DUP3 OR SWAP1 POP SWAP3 SWAP2 POP POP JUMP JUMPDEST PUSH2 0x25A1 DUP3 PUSH2 0x1FA5 JUMP JUMPDEST PUSH8 0xFFFFFFFFFFFFFFFF DUP2 GT ISZERO PUSH2 0x25BA JUMPI PUSH2 0x25B9 PUSH2 0x2367 JUMP JUMPDEST JUMPDEST PUSH2 0x25C4 DUP3 SLOAD PUSH2 0x23C5 JUMP JUMPDEST PUSH2 0x25CF DUP3 DUP3 DUP6 PUSH2 0x250B JUMP JUMPDEST PUSH1 0x0 PUSH1 0x20 SWAP1 POP PUSH1 0x1F DUP4 GT PUSH1 0x1 DUP2 EQ PUSH2 0x2602 JUMPI PUSH1 0x0 DUP5 ISZERO PUSH2 0x25F0 JUMPI DUP3 DUP8 ADD MLOAD SWAP1 POP JUMPDEST PUSH2 0x25FA DUP6 DUP3 PUSH2 0x257C JUMP JUMPDEST DUP7 SSTORE POP PUSH2 0x2662 JUMP JUMPDEST PUSH1 0x1F NOT DUP5 AND PUSH2 0x2610 DUP7 PUSH2 0x23F6 JUMP JUMPDEST PUSH1 0x0 JUMPDEST DUP3 DUP2 LT ISZERO PUSH2 0x2638 JUMPI DUP5 DUP10 ADD MLOAD DUP3 SSTORE PUSH1 0x1 DUP3 ADD SWAP2 POP PUSH1 0x20 DUP6 ADD SWAP5 POP PUSH1 0x20 DUP2 ADD SWAP1 POP PUSH2 0x2613 JUMP JUMPDEST DUP7 DUP4 LT ISZERO PUSH2 0x2655 JUMPI DUP5 DUP10 ADD MLOAD PUSH2 0x2651 PUSH1 0x1F DUP10 AND DUP3 PUSH2 0x255E JUMP JUMPDEST DUP4 SSTORE POP JUMPDEST PUSH1 0x1 PUSH1 0x2 DUP9 MUL ADD DUP9 SSTORE POP POP POP JUMPDEST POP POP POP POP POP POP JUMP JUMPDEST PUSH32 0x4E487B7100000000000000000000000000000000000000000000000000000000 PUSH1 0x0 MSTORE PUSH1 0x11 PUSH1 0x4 MSTORE PUSH1 0x24 PUSH1 0x0 REVERT JUMPDEST PUSH1 0x0 PUSH2 0x26A4 DUP3 PUSH2 0x1D1C JUMP JUMPDEST SWAP2 POP PUSH32 0xFFFFFFFFFFFFFFFFFFFFFFFFFFFFFFFFFFFFFFFFFFFFFFFFFFFFFFFFFFFFFFFF DUP3 SUB PUSH2 0x26D6 JUMPI PUSH2 0x26D5 PUSH2 0x266A JUMP JUMPDEST JUMPDEST PUSH1 0x1 DUP3 ADD SWAP1 POP SWAP2 SWAP1 POP JUMP JUMPDEST PUSH32 0x4F776E61626C653A206E6577206F776E657220697320746865207A65726F2061 PUSH1 0x0 DUP3 ADD MSTORE PUSH32 0x6464726573730000000000000000000000000000000000000000000000000000 PUSH1 0x20 DUP3 ADD MSTORE POP JUMP JUMPDEST PUSH1 0x0 PUSH2 0x273D PUSH1 0x26 DUP4 PUSH2 0x1FB0 JUMP JUMPDEST SWAP2 POP PUSH2 0x2748 DUP3 PUSH2 0x26E1 JUMP JUMPDEST PUSH1 0x40 DUP3 ADD SWAP1 POP SWAP2 SWAP1 POP JUMP JUMPDEST PUSH1 0x0 PUSH1 0x20 DUP3 ADD SWAP1 POP DUP2 DUP2 SUB PUSH1 0x0 DUP4 ADD MSTORE PUSH2 0x276C DUP2 PUSH2 0x2730 JUMP JUMPDEST SWAP1 POP SWAP2 SWAP1 POP JUMP JUMPDEST PUSH32 0x5265656E7472616E637947756172643A207265656E7472616E742063616C6C00 PUSH1 0x0 DUP3 ADD MSTORE POP JUMP JUMPDEST PUSH1 0x0 PUSH2 0x27A9 PUSH1 0x1F DUP4 PUSH2 0x1FB0 JUMP JUMPDEST SWAP2 POP PUSH2 0x27B4 DUP3 PUSH2 0x2773 JUMP JUMPDEST PUSH1 0x20 DUP3 ADD SWAP1 POP SWAP2 SWAP1 POP JUMP JUMPDEST PUSH1 0x0 PUSH1 0x20 DUP3 ADD SWAP1 POP DUP2 DUP2 SUB PUSH1 0x0 DUP4 ADD MSTORE PUSH2 0x27D8 DUP2 PUSH2 0x279C JUMP JUMPDEST SWAP1 POP SWAP2 SWAP1 POP JUMP JUMPDEST PUSH32 0x4F776E61626C653A2063616C6C6572206973206E6F7420746865206F776E6572 PUSH1 0x0 DUP3 ADD MSTORE POP JUMP JUMPDEST PUSH1 0x0 PUSH2 0x2815 PUSH1 0x20 DUP4 PUSH2 0x1FB0 JUMP JUMPDEST SWAP2 POP PUSH2 0x2820 DUP3 PUSH2 0x27DF JUMP JUMPDEST PUSH1 0x20 DUP3 ADD SWAP1 POP SWAP2 SWAP1 POP JUMP JUMPDEST PUSH1 0x0 PUSH1 0x20 DUP3 ADD SWAP1 POP DUP2 DUP2 SUB PUSH1 0x0 DUP4 ADD MSTORE PUSH2 0x2844 DUP2 PUSH2 0x2808 JUMP JUMPDEST SWAP1 POP SWAP2 SWAP1 POP JUMP JUMPDEST PUSH1 0x0 PUSH2 0x2856 DUP3 PUSH2 0x1D1C JUMP JUMPDEST SWAP2 POP PUSH2 0x2861 DUP4 PUSH2 0x1D1C JUMP JUMPDEST SWAP3 POP DUP3 DUP3 MUL PUSH2 0x286F DUP2 PUSH2 0x1D1C JUMP JUMPDEST SWAP2 POP DUP3 DUP3 DIV DUP5 EQ DUP4 ISZERO OR PUSH2 0x2886 JUMPI PUSH2 0x2885 PUSH2 0x266A JUMP JUMPDEST JUMPDEST POP SWAP3 SWAP2 POP POP JUMP JUMPDEST PUSH1 0x0 PUSH1 0x20 DUP3 DUP5 SUB SLT ISZERO PUSH2 0x28A3 JUMPI PUSH2 0x28A2 PUSH2 0x1C5C JUMP JUMPDEST JUMPDEST PUSH1 0x0 PUSH2 0x28B1 DUP5 DUP3 DUP6 ADD PUSH2 0x22D7 JUMP JUMPDEST SWAP2 POP POP SWAP3 SWAP2 POP POP JUMP JUMPDEST PUSH1 0x0 PUSH2 0x28C5 DUP3 PUSH2 0x1D1C JUMP JUMPDEST SWAP2 POP PUSH2 0x28D0 DUP4 PUSH2 0x1D1C JUMP JUMPDEST SWAP3 POP DUP3 DUP3 ADD SWAP1 POP DUP1 DUP3 GT ISZERO PUSH2 0x28E8 JUMPI PUSH2 0x28E7 PUSH2 0x266A JUMP JUMPDEST JUMPDEST SWAP3 SWAP2 POP POP JUMP JUMPDEST PUSH32 0x4E487B7100000000000000000000000000000000000000000000000000000000 PUSH1 0x0 MSTORE PUSH1 0x12 PUSH1 0x4 MSTORE PUSH1 0x24 PUSH1 0x0 REVERT JUMPDEST PUSH1 0x0 PUSH2 0x2928 DUP3 PUSH2 0x1D1C JUMP JUMPDEST SWAP2 POP PUSH2 0x2933 DUP4 PUSH2 0x1D1C JUMP JUMPDEST SWAP3 POP DUP3 PUSH2 0x2943 JUMPI PUSH2 0x2942 PUSH2 0x28EE JUMP JUMPDEST JUMPDEST DUP3 DUP3 DIV SWAP1 POP SWAP3 SWAP2 POP POP JUMP JUMPDEST PUSH1 0x0 PUSH2 0x2959 DUP3 PUSH2 0x1D1C JUMP JUMPDEST SWAP2 POP PUSH2 0x2964 DUP4 PUSH2 0x1D1C JUMP JUMPDEST SWAP3 POP DUP3 DUP3 SUB SWAP1 POP DUP2 DUP2 GT ISZERO PUSH2 0x297C JUMPI PUSH2 0x297B PUSH2 0x266A JUMP JUMPDEST JUMPDEST SWAP3 SWAP2 POP POP JUMP JUMPDEST PUSH1 0x0 DUP2 SWAP1 POP SWAP3 SWAP2 POP POP JUMP JUMPDEST PUSH32 0x416363657373436F6E74726F6C3A206163636F756E7420000000000000000000 PUSH1 0x0 DUP3 ADD MSTORE POP JUMP JUMPDEST PUSH1 0x0 PUSH2 0x29C3 PUSH1 0x17 DUP4 PUSH2 0x2982 JUMP JUMPDEST SWAP2 POP PUSH2 0x29CE DUP3 PUSH2 0x298D JUMP JUMPDEST PUSH1 0x17 DUP3 ADD SWAP1 POP SWAP2 SWAP1 POP JUMP JUMPDEST PUSH1 0x0 PUSH2 0x29E4 DUP3 PUSH2 0x1FA5 JUMP JUMPDEST PUSH2 0x29EE DUP2 DUP6 PUSH2 0x2982 JUMP JUMPDEST SWAP4 POP PUSH2 0x29FE DUP2 DUP6 PUSH1 0x20 DUP7 ADD PUSH2 0x1FC1 JUMP JUMPDEST DUP1 DUP5 ADD SWAP2 POP POP SWAP3 SWAP2 POP POP JUMP JUMPDEST PUSH32 0x206973206D697373696E6720726F6C6520000000000000000000000000000000 PUSH1 0x0 DUP3 ADD MSTORE POP JUMP JUMPDEST PUSH1 0x0 PUSH2 0x2A40 PUSH1 0x11 DUP4 PUSH2 0x2982 JUMP JUMPDEST SWAP2 POP PUSH2 0x2A4B DUP3 PUSH2 0x2A0A JUMP JUMPDEST PUSH1 0x11 DUP3 ADD SWAP1 POP SWAP2 SWAP1 POP JUMP JUMPDEST PUSH1 0x0 PUSH2 0x2A61 DUP3 PUSH2 0x29B6 JUMP JUMPDEST SWAP2 POP PUSH2 0x2A6D DUP3 DUP6 PUSH2 0x29D9 JUMP JUMPDEST SWAP2 POP PUSH2 0x2A78 DUP3 PUSH2 0x2A33 JUMP JUMPDEST SWAP2 POP PUSH2 0x2A84 DUP3 DUP5 PUSH2 0x29D9 JUMP JUMPDEST SWAP2 POP DUP2 SWAP1 POP SWAP4 SWAP3 POP POP POP JUMP JUMPDEST PUSH1 0x0 PUSH1 0x20 DUP3 ADD SWAP1 POP DUP2 DUP2 SUB PUSH1 0x0 DUP4 ADD MSTORE PUSH2 0x2AAA DUP2 DUP5 PUSH2 0x1FFC JUMP JUMPDEST SWAP1 POP SWAP3 SWAP2 POP POP JUMP JUMPDEST PUSH32 0x4E487B7100000000000000000000000000000000000000000000000000000000 PUSH1 0x0 MSTORE PUSH1 0x32 PUSH1 0x4 MSTORE PUSH1 0x24 PUSH1 0x0 REVERT JUMPDEST PUSH1 0x0 PUSH2 0x2AEC DUP3 PUSH2 0x1D1C JUMP JUMPDEST SWAP2 POP PUSH1 0x0 DUP3 SUB PUSH2 0x2AFF JUMPI PUSH2 0x2AFE PUSH2 0x266A JUMP JUMPDEST JUMPDEST PUSH1 0x1 DUP3 SUB SWAP1 POP SWAP2 SWAP1 POP JUMP JUMPDEST PUSH32 0x537472696E67733A20686578206C656E67746820696E73756666696369656E74 PUSH1 0x0 DUP3 ADD MSTORE POP JUMP JUMPDEST PUSH1 0x0 PUSH2 0x2B40 PUSH1 0x20 DUP4 PUSH2 0x1FB0 JUMP JUMPDEST SWAP2 POP PUSH2 0x2B4B DUP3 PUSH2 0x2B0A JUMP JUMPDEST PUSH1 0x20 DUP3 ADD SWAP1 POP SWAP2 SWAP1 POP JUMP JUMPDEST PUSH1 0x0 PUSH1 0x20 DUP3 ADD SWAP1 POP DUP2 DUP2 SUB PUSH1 0x0 DUP4 ADD MSTORE PUSH2 0x2B6F DUP2 PUSH2 0x2B33 JUMP JUMPDEST SWAP1 POP SWAP2 SWAP1 POP JUMP INVALID LOG2 PUSH5 0x6970667358 0x22 SLT KECCAK256 MUL 0x2F PUSH32 0x95383F730622B9C44214A5655D238F807B9BF76CB8AD82B7726ACA6D6264736F PUSH13 0x63430008110033000000000000 "
		},
		"gasEstimates": {
			"creation": {
				"codeDepositCost": "2236000",
				"executionCost": "infinite",
				"totalCost": "infinite"
			},
			"external": {
				"DEFAULT_ADMIN_ROLE()": "402",
				"GOVERN_ROLE()": "396",
				"_supplyChanges(uint256)": "infinite",
				"addColateralToken(address)": "100180",
				"datafeed()": "2626",
				"fetchColPrice()": "infinite",
				"getRoleAdmin(bytes32)": "infinite",
				"grantRole(bytes32,address)": "infinite",
				"hasRole(bytes32,address)": "3251",
				"n2dusdsupply()": "2519",
				"owner()": "2611",
				"renounceOwnership()": "30466",
				"renounceRole(bytes32,address)": "infinite",
				"reserveCount()": "2498",
				"revokeRole(bytes32,address)": "infinite",
				"rsvList(uint256)": "infinite",
				"setDataFeedAddress(address)": "53624",
				"setN2USDSupply(uint256)": "24975",
				"setReserveContract(address)": "56519",
				"stableColatAmount()": "2474",
				"stableColatPrice()": "2520",
				"supplyChangeCount()": "2519",
				"supportsInterface(bytes4)": "774",
				"transferOwnership(address)": "30854",
				"unstableColPrice()": "2540",
				"unstableColatAmount()": "2517",
				"validatePeg()": "infinite",
				"withdraw(uint256)": "infinite"
			},
			"internal": {
				"colateralReBalancing()": "infinite"
			}
		},
		"methodIdentifiers": {
			"DEFAULT_ADMIN_ROLE()": "a217fddf",
			"GOVERN_ROLE()": "38b7f446",
			"_supplyChanges(uint256)": "a6ef79b4",
			"addColateralToken(address)": "e0e9349b",
			"datafeed()": "2dc47153",
			"fetchColPrice()": "81613f25",
			"getRoleAdmin(bytes32)": "248a9ca3",
			"grantRole(bytes32,address)": "2f2ff15d",
			"hasRole(bytes32,address)": "91d14854",
			"n2dusdsupply()": "7f862785",
			"owner()": "8da5cb5b",
			"renounceOwnership()": "715018a6",
			"renounceRole(bytes32,address)": "36568abe",
			"reserveCount()": "16317c21",
			"revokeRole(bytes32,address)": "d547741f",
			"rsvList(uint256)": "669004f9",
			"setDataFeedAddress(address)": "26ba7898",
			"setN2USDSupply(uint256)": "20346961",
			"setReserveContract(address)": "527a52c8",
			"stableColatAmount()": "9588e614",
			"stableColatPrice()": "19cb170c",
			"supplyChangeCount()": "2f41ffd0",
			"supportsInterface(bytes4)": "01ffc9a7",
			"transferOwnership(address)": "f2fde38b",
			"unstableColPrice()": "5e6a4fb0",
			"unstableColatAmount()": "eceab5c5",
			"validatePeg()": "8a6e0169",
			"withdraw(uint256)": "2e1a7d4d"
		}
	},
	"abi": [
		{
			"inputs": [
				{
					"internalType": "contract USDSP",
					"name": "_usdsp",
					"type": "address"
				}
			],
			"stateMutability": "nonpayable",
			"type": "constructor"
		},
		{
			"anonymous": false,
			"inputs": [
				{
					"indexed": true,
					"internalType": "address",
					"name": "previousOwner",
					"type": "address"
				},
				{
					"indexed": true,
					"internalType": "address",
					"name": "newOwner",
					"type": "address"
				}
			],
			"name": "OwnershipTransferred",
			"type": "event"
		},
		{
			"anonymous": false,
			"inputs": [
				{
					"indexed": false,
					"internalType": "uint256",
					"name": "time",
					"type": "uint256"
				},
				{
					"indexed": false,
					"internalType": "uint256",
					"name": "amount",
					"type": "uint256"
				}
			],
			"name": "RepegAction",
			"type": "event"
		},
		{
			"anonymous": false,
			"inputs": [
				{
					"indexed": true,
					"internalType": "bytes32",
					"name": "role",
					"type": "bytes32"
				},
				{
					"indexed": true,
					"internalType": "bytes32",
					"name": "previousAdminRole",
					"type": "bytes32"
				},
				{
					"indexed": true,
					"internalType": "bytes32",
					"name": "newAdminRole",
					"type": "bytes32"
				}
			],
			"name": "RoleAdminChanged",
			"type": "event"
		},
		{
			"anonymous": false,
			"inputs": [
				{
					"indexed": true,
					"internalType": "bytes32",
					"name": "role",
					"type": "bytes32"
				},
				{
					"indexed": true,
					"internalType": "address",
					"name": "account",
					"type": "address"
				},
				{
					"indexed": true,
					"internalType": "address",
					"name": "sender",
					"type": "address"
				}
			],
			"name": "RoleGranted",
			"type": "event"
		},
		{
			"anonymous": false,
			"inputs": [
				{
					"indexed": true,
					"internalType": "bytes32",
					"name": "role",
					"type": "bytes32"
				},
				{
					"indexed": true,
					"internalType": "address",
					"name": "account",
					"type": "address"
				},
				{
					"indexed": true,
					"internalType": "address",
					"name": "sender",
					"type": "address"
				}
			],
			"name": "RoleRevoked",
			"type": "event"
		},
		{
			"anonymous": false,
			"inputs": [
				{
					"indexed": false,
					"internalType": "uint256",
					"name": "time",
					"type": "uint256"
				},
				{
					"indexed": false,
					"internalType": "uint256",
					"name": "amount",
					"type": "uint256"
				}
			],
			"name": "Withdraw",
			"type": "event"
		},
		{
			"inputs": [],
			"name": "DEFAULT_ADMIN_ROLE",
			"outputs": [
				{
					"internalType": "bytes32",
					"name": "",
					"type": "bytes32"
				}
			],
			"stateMutability": "view",
			"type": "function"
		},
		{
			"inputs": [],
			"name": "GOVERN_ROLE",
			"outputs": [
				{
					"internalType": "bytes32",
					"name": "",
					"type": "bytes32"
				}
			],
			"stateMutability": "view",
			"type": "function"
		},
		{
			"inputs": [
				{
					"internalType": "uint256",
					"name": "",
					"type": "uint256"
				}
			],
			"name": "_supplyChanges",
			"outputs": [
				{
					"internalType": "string",
					"name": "method",
					"type": "string"
				},
				{
					"internalType": "uint256",
					"name": "amount",
					"type": "uint256"
				},
				{
					"internalType": "uint256",
					"name": "timestamp",
					"type": "uint256"
				},
				{
					"internalType": "uint256",
					"name": "blocknum",
					"type": "uint256"
				}
			],
			"stateMutability": "view",
			"type": "function"
		},
		{
			"inputs": [
				{
					"internalType": "contract IERC20",
					"name": "colcontract",
					"type": "address"
				}
			],
			"name": "addColateralToken",
			"outputs": [],
			"stateMutability": "nonpayable",
			"type": "function"
		},
		{
			"inputs": [],
			"name": "datafeed",
			"outputs": [
				{
					"internalType": "address",
					"name": "",
					"type": "address"
				}
			],
			"stateMutability": "view",
			"type": "function"
		},
		{
			"inputs": [],
			"name": "fetchColPrice",
			"outputs": [],
			"stateMutability": "nonpayable",
			"type": "function"
		},
		{
			"inputs": [
				{
					"internalType": "bytes32",
					"name": "role",
					"type": "bytes32"
				}
			],
			"name": "getRoleAdmin",
			"outputs": [
				{
					"internalType": "bytes32",
					"name": "",
					"type": "bytes32"
				}
			],
			"stateMutability": "view",
			"type": "function"
		},
		{
			"inputs": [
				{
					"internalType": "bytes32",
					"name": "role",
					"type": "bytes32"
				},
				{
					"internalType": "address",
					"name": "account",
					"type": "address"
				}
			],
			"name": "grantRole",
			"outputs": [],
			"stateMutability": "nonpayable",
			"type": "function"
		},
		{
			"inputs": [
				{
					"internalType": "bytes32",
					"name": "role",
					"type": "bytes32"
				},
				{
					"internalType": "address",
					"name": "account",
					"type": "address"
				}
			],
			"name": "hasRole",
			"outputs": [
				{
					"internalType": "bool",
					"name": "",
					"type": "bool"
				}
			],
			"stateMutability": "view",
			"type": "function"
		},
		{
			"inputs": [],
			"name": "n2dusdsupply",
			"outputs": [
				{
					"internalType": "uint256",
					"name": "",
					"type": "uint256"
				}
			],
			"stateMutability": "view",
			"type": "function"
		},
		{
			"inputs": [],
			"name": "owner",
			"outputs": [
				{
					"internalType": "address",
					"name": "",
					"type": "address"
				}
			],
			"stateMutability": "view",
			"type": "function"
		},
		{
			"inputs": [],
			"name": "renounceOwnership",
			"outputs": [],
			"stateMutability": "nonpayable",
			"type": "function"
		},
		{
			"inputs": [
				{
					"internalType": "bytes32",
					"name": "role",
					"type": "bytes32"
				},
				{
					"internalType": "address",
					"name": "account",
					"type": "address"
				}
			],
			"name": "renounceRole",
			"outputs": [],
			"stateMutability": "nonpayable",
			"type": "function"
		},
		{
			"inputs": [],
			"name": "reserveCount",
			"outputs": [
				{
					"internalType": "uint256",
					"name": "",
					"type": "uint256"
				}
			],
			"stateMutability": "view",
			"type": "function"
		},
		{
			"inputs": [
				{
					"internalType": "bytes32",
					"name": "role",
					"type": "bytes32"
				},
				{
					"internalType": "address",
					"name": "account",
					"type": "address"
				}
			],
			"name": "revokeRole",
			"outputs": [],
			"stateMutability": "nonpayable",
			"type": "function"
		},
		{
			"inputs": [
				{
					"internalType": "uint256",
					"name": "",
					"type": "uint256"
				}
			],
			"name": "rsvList",
			"outputs": [
				{
					"internalType": "contract IERC20",
					"name": "colToken",
					"type": "address"
				}
			],
			"stateMutability": "view",
			"type": "function"
		},
		{
			"inputs": [
				{
					"internalType": "address",
					"name": "contractaddress",
					"type": "address"
				}
			],
			"name": "setDataFeedAddress",
			"outputs": [],
			"stateMutability": "nonpayable",
			"type": "function"
		},
		{
			"inputs": [
				{
					"internalType": "uint256",
					"name": "totalSupply",
					"type": "uint256"
				}
			],
			"name": "setN2USDSupply",
			"outputs": [],
			"stateMutability": "nonpayable",
			"type": "function"
		},
		{
			"inputs": [
				{
					"internalType": "address",
					"name": "reserve",
					"type": "address"
				}
			],
			"name": "setReserveContract",
			"outputs": [],
			"stateMutability": "nonpayable",
			"type": "function"
		},
		{
			"inputs": [],
			"name": "stableColatAmount",
			"outputs": [
				{
					"internalType": "uint256",
					"name": "",
					"type": "uint256"
				}
			],
			"stateMutability": "view",
			"type": "function"
		},
		{
			"inputs": [],
			"name": "stableColatPrice",
			"outputs": [
				{
					"internalType": "uint256",
					"name": "",
					"type": "uint256"
				}
			],
			"stateMutability": "view",
			"type": "function"
		},
		{
			"inputs": [],
			"name": "supplyChangeCount",
			"outputs": [
				{
					"internalType": "uint256",
					"name": "",
					"type": "uint256"
				}
			],
			"stateMutability": "view",
			"type": "function"
		},
		{
			"inputs": [
				{
					"internalType": "bytes4",
					"name": "interfaceId",
					"type": "bytes4"
				}
			],
			"name": "supportsInterface",
			"outputs": [
				{
					"internalType": "bool",
					"name": "",
					"type": "bool"
				}
			],
			"stateMutability": "view",
			"type": "function"
		},
		{
			"inputs": [
				{
					"internalType": "address",
					"name": "newOwner",
					"type": "address"
				}
			],
			"name": "transferOwnership",
			"outputs": [],
			"stateMutability": "nonpayable",
			"type": "function"
		},
		{
			"inputs": [],
			"name": "unstableColPrice",
			"outputs": [
				{
					"internalType": "uint256",
					"name": "",
					"type": "uint256"
				}
			],
			"stateMutability": "view",
			"type": "function"
		},
		{
			"inputs": [],
			"name": "unstableColatAmount",
			"outputs": [
				{
					"internalType": "uint256",
					"name": "",
					"type": "uint256"
				}
			],
			"stateMutability": "view",
			"type": "function"
		},
		{
			"inputs": [],
			"name": "validatePeg",
			"outputs": [],
			"stateMutability": "nonpayable",
			"type": "function"
		},
		{
			"inputs": [
				{
					"internalType": "uint256",
					"name": "_amount",
					"type": "uint256"
				}
			],
			"name": "withdraw",
			"outputs": [],
			"stateMutability": "nonpayable",
			"type": "function"
		}
	]
}