{
	"data": {
		"bytecode": {
			"linkReferences": {},
			"object": "6080604052670de0b6b3a7640000600b553480156200001d57600080fd5b50604051620030643803806200306483398181016040528101906200004391906200045b565b62000063620000576200015960201b60201c565b6200016160201b60201c565b6001808190555081600460006101000a81548173ffffffffffffffffffffffffffffffffffffffff021916908373ffffffffffffffffffffffffffffffffffffffff16021790555080600560006101000a81548173ffffffffffffffffffffffffffffffffffffffff021916908373ffffffffffffffffffffffffffffffffffffffff160217905550620001106000801b620001046200015960201b60201c565b6200022560201b60201c565b620001517f899bd46557473cb80307a9dabc297131ced39608330a2d29b2d52b660c03923e620001456200015960201b60201c565b6200022560201b60201c565b5050620004a2565b600033905090565b60008060009054906101000a900473ffffffffffffffffffffffffffffffffffffffff169050816000806101000a81548173ffffffffffffffffffffffffffffffffffffffff021916908373ffffffffffffffffffffffffffffffffffffffff1602179055508173ffffffffffffffffffffffffffffffffffffffff168173ffffffffffffffffffffffffffffffffffffffff167f8be0079c531659141344cd1fd0a4f28419497f9722a3daafe3b4186f6b6457e060405160405180910390a35050565b6200023782826200023b60201b60201c565b5050565b6200024d82826200032d60201b60201c565b620003295760016002600084815260200190815260200160002060000160008373ffffffffffffffffffffffffffffffffffffffff1673ffffffffffffffffffffffffffffffffffffffff16815260200190815260200160002060006101000a81548160ff021916908315150217905550620002ce6200015960201b60201c565b73ffffffffffffffffffffffffffffffffffffffff168173ffffffffffffffffffffffffffffffffffffffff16837f2f8788117e7eff1d82e926ec794901d17c78024a50270940304540a733656f0d60405160405180910390a45b5050565b60006002600084815260200190815260200160002060000160008373ffffffffffffffffffffffffffffffffffffffff1673ffffffffffffffffffffffffffffffffffffffff16815260200190815260200160002060009054906101000a900460ff16905092915050565b600080fd5b600073ffffffffffffffffffffffffffffffffffffffff82169050919050565b6000620003ca826200039d565b9050919050565b6000620003de82620003bd565b9050919050565b620003f081620003d1565b8114620003fc57600080fd5b50565b6000815190506200041081620003e5565b92915050565b60006200042382620003bd565b9050919050565b620004358162000416565b81146200044157600080fd5b50565b60008151905062000455816200042a565b92915050565b6000806040838503121562000475576200047462000398565b5b60006200048585828601620003ff565b9250506020620004988582860162000444565b9150509250929050565b612bb280620004b26000396000f3fe608060405234801561001057600080fd5b50600436106101cf5760003560e01c8063669004f911610104578063a217fddf116100a2578063db764eb311610071578063db764eb3146104e9578063e0e9349b14610505578063eceab5c514610521578063f2fde38b1461053f576101cf565b8063a217fddf1461045e578063a6ef79b41461047c578063c19bde3c146104af578063d547741f146104cd576101cf565b80638da5cb5b116100de5780638da5cb5b146103d657806391d14854146103f457806392b59758146104245780639588e61414610440576101cf565b8063669004f914610392578063715018a6146103c25780638a6e0169146103cc576101cf565b80632f41ffd011610171578063527a52c81161014b578063527a52c81461031e578063552769d01461033a57806358643550146103565780635e6a4fb014610374576101cf565b80632f41ffd0146102c657806336568abe146102e457806338b7f44614610300576101cf565b8063248a9ca3116101ad578063248a9ca3146102405780632dc47153146102705780632e1a7d4d1461028e5780632f2ff15d146102aa576101cf565b806301ffc9a7146101d457806316317c211461020457806319cb170c14610222575b600080fd5b6101ee60048036038101906101e99190611d7c565b61055b565b6040516101fb9190611dc4565b60405180910390f35b61020c6105d5565b6040516102199190611df8565b60405180910390f35b61022a6105db565b6040516102379190611df8565b60405180910390f35b61025a60048036038101906102559190611e49565b6105e1565b6040516102679190611e85565b60405180910390f35b610278610601565b6040516102859190611ee1565b60405180910390f35b6102a860048036038101906102a39190611f28565b610627565b005b6102c460048036038101906102bf9190611f81565b610784565b005b6102ce6107a5565b6040516102db9190611df8565b60405180910390f35b6102fe60048036038101906102f99190611f81565b6107ab565b005b61030861082e565b6040516103159190611e85565b60405180910390f35b61033860048036038101906103339190611fc1565b610852565b005b610354600480360381019061034f9190611f28565b610916565b005b61035e610a73565b60405161036b9190611df8565b60405180910390f35b61037c610a79565b6040516103899190611df8565b60405180910390f35b6103ac60048036038101906103a79190611f28565b610a7f565b6040516103b9919061204d565b60405180910390f35b6103ca610abd565b005b6103d4610ad1565b005b6103de610ee8565b6040516103eb9190611ee1565b60405180910390f35b61040e60048036038101906104099190611f81565b610f11565b60405161041b9190611dc4565b60405180910390f35b61043e60048036038101906104399190611f28565b610f7c565b005b6104486110cb565b6040516104559190611df8565b60405180910390f35b6104666110d1565b6040516104739190611e85565b60405180910390f35b61049660048036038101906104919190611f28565b6110d8565b6040516104a694939291906120f8565b60405180910390f35b6104b7611190565b6040516104c49190611df8565b60405180910390f35b6104e760048036038101906104e29190611f81565b611196565b005b61050360048036038101906104fe9190611f28565b6111b7565b005b61051f600480360381019061051a9190612182565b611231565b005b610529611323565b6040516105369190611df8565b60405180910390f35b61055960048036038101906105549190611fc1565b611329565b005b60007f7965db0b000000000000000000000000000000000000000000000000000000007bffffffffffffffffffffffffffffffffffffffffffffffffffffffff1916827bffffffffffffffffffffffffffffffffffffffffffffffffffffffff191614806105ce57506105cd826113ac565b5b9050919050565b600f5481565b600b5481565b600060026000838152602001908152602001600020600101549050919050565b600960009054906101000a900473ffffffffffffffffffffffffffffffffffffffff1681565b61062f611416565b6106607f899bd46557473cb80307a9dabc297131ced39608330a2d29b2d52b660c03923e61065b611465565b610f11565b61069f576040517f08c379a0000000000000000000000000000000000000000000000000000000008152600401610696906121fb565b60405180910390fd5b600460009054906101000a900473ffffffffffffffffffffffffffffffffffffffff1673ffffffffffffffffffffffffffffffffffffffff1663a9059cbb33836040518363ffffffff1660e01b81526004016106fc92919061221b565b6020604051808303816000875af115801561071b573d6000803e3d6000fd5b505050506040513d601f19601f8201168201806040525081019061073f9190612270565b507f56ca301a9219608c91e7bcee90e083c19671d2cdcc96752c7af291cee5f9c8c8428260405161077192919061229d565b60405180910390a161078161146d565b50565b61078d826105e1565b61079681611476565b6107a0838361148a565b505050565b600a5481565b6107b3611465565b73ffffffffffffffffffffffffffffffffffffffff168173ffffffffffffffffffffffffffffffffffffffff1614610820576040517f08c379a000000000000000000000000000000000000000000000000000000000815260040161081790612338565b60405180910390fd5b61082a828261156b565b5050565b7f899bd46557473cb80307a9dabc297131ced39608330a2d29b2d52b660c03923e81565b61085a611416565b61088b7f899bd46557473cb80307a9dabc297131ced39608330a2d29b2d52b660c03923e610886611465565b610f11565b6108ca576040517f08c379a00000000000000000000000000000000000000000000000000000000081526004016108c1906121fb565b60405180910390fd5b80600660006101000a81548173ffffffffffffffffffffffffffffffffffffffff021916908373ffffffffffffffffffffffffffffffffffffffff16021790555061091361146d565b50565b61091e611416565b61094f7f899bd46557473cb80307a9dabc297131ced39608330a2d29b2d52b660c03923e61094a611465565b610f11565b61098e576040517f08c379a0000000000000000000000000000000000000000000000000000000008152600401610985906121fb565b60405180910390fd5b600560009054906101000a900473ffffffffffffffffffffffffffffffffffffffff1673ffffffffffffffffffffffffffffffffffffffff1663a9059cbb33836040518363ffffffff1660e01b81526004016109eb92919061221b565b6020604051808303816000875af1158015610a0a573d6000803e3d6000fd5b505050506040513d601f19601f82011682018060405250810190610a2e9190612270565b507f56ca301a9219608c91e7bcee90e083c19671d2cdcc96752c7af291cee5f9c8c84282604051610a6092919061229d565b60405180910390a1610a7061146d565b50565b60075481565b600e5481565b60036020528060005260406000206000915090508060000160009054906101000a900473ffffffffffffffffffffffffffffffffffffffff16905081565b610ac561164d565b610acf60006116cb565b565b610ad9611416565b610b0a7f899bd46557473cb80307a9dabc297131ced39608330a2d29b2d52b660c03923e610b05611465565b610f11565b610b49576040517f08c379a0000000000000000000000000000000000000000000000000000000008152600401610b40906121fb565b60405180910390fd5b6000610b5361178f565b9050600190508015610edd576000610ba6610b7b600e54600d546119d990919063ffffffff16565b610b98670de0b6b3a7640000600c546119d990919063ffffffff16565b6119ef90919063ffffffff16565b90506000610bc5670de0b6b3a764000083611a0590919063ffffffff16565b9050600754811015610d25576000610be882600754611a1b90919063ffffffff16565b90506000610c1b670de0b6b3a7640000610c0d600e5485611a0590919063ffffffff16565b6119d990919063ffffffff16565b9050600560009054906101000a900473ffffffffffffffffffffffffffffffffffffffff1673ffffffffffffffffffffffffffffffffffffffff166342966c68826040518263ffffffff1660e01b8152600401610c789190611df8565b600060405180830381600087803b158015610c9257600080fd5b505af1158015610ca6573d6000803e3d6000fd5b505050506040518060400160405280600481526020017f4275726e0000000000000000000000000000000000000000000000000000000081525060106000600a5481526020019081526020016000206000019081610d049190612589565b508160106000600a5481526020019081526020016000206001018190555050505b600754811115610e4f576000610d4660075483611a1b90919063ffffffff16565b9050600460009054906101000a900473ffffffffffffffffffffffffffffffffffffffff1673ffffffffffffffffffffffffffffffffffffffff1663a0712d68826040518263ffffffff1660e01b8152600401610da39190611df8565b600060405180830381600087803b158015610dbd57600080fd5b505af1158015610dd1573d6000803e3d6000fd5b505050506040518060400160405280600481526020017f4d696e740000000000000000000000000000000000000000000000000000000081525060106000600a5481526020019081526020016000206000019081610e2f9190612589565b508060106000600a54815260200190815260200160002060010181905550505b4360106000600a548152602001908152602001600020600301819055504260106000600a54815260200190815260200160002060020181905550600a6000815480929190610e9c9061268a565b91905055507f2a6a493f767ec856dcac2f52ecc7e244b432c2d615092ef532c22a94568ed9954282604051610ed292919061229d565b60405180910390a150505b50610ee661146d565b565b60008060009054906101000a900473ffffffffffffffffffffffffffffffffffffffff16905090565b60006002600084815260200190815260200160002060000160008373ffffffffffffffffffffffffffffffffffffffff1673ffffffffffffffffffffffffffffffffffffffff16815260200190815260200160002060009054906101000a900460ff16905092915050565b610f84611416565b610fb57f899bd46557473cb80307a9dabc297131ced39608330a2d29b2d52b660c03923e610fb0611465565b610f11565b610ff4576040517f08c379a0000000000000000000000000000000000000000000000000000000008152600401610feb906121fb565b60405180910390fd5b600560009054906101000a900473ffffffffffffffffffffffffffffffffffffffff1673ffffffffffffffffffffffffffffffffffffffff166318160ddd6040518163ffffffff1660e01b8152600401602060405180830381865afa158015611061573d6000803e3d6000fd5b505050506040513d601f19601f8201168201806040525081019061108591906126e7565b6008819055506110ba670de0b6b3a76400006110ac600854846119d990919063ffffffff16565b611a0590919063ffffffff16565b600e819055506110c861146d565b50565b600c5481565b6000801b81565b60106020528060005260406000206000915090508060000180546110fb906123b6565b80601f0160208091040260200160405190810160405280929190818152602001828054611127906123b6565b80156111745780601f1061114957610100808354040283529160200191611174565b820191906000526020600020905b81548152906001019060200180831161115757829003601f168201915b5050505050908060010154908060020154908060030154905084565b60085481565b61119f826105e1565b6111a881611476565b6111b2838361156b565b505050565b6111e87f899bd46557473cb80307a9dabc297131ced39608330a2d29b2d52b660c03923e6111e3611465565b610f11565b611227576040517f08c379a000000000000000000000000000000000000000000000000000000000815260040161121e906121fb565b60405180910390fd5b8060078190555050565b611239611416565b61126a7f899bd46557473cb80307a9dabc297131ced39608330a2d29b2d52b660c03923e611265611465565b610f11565b6112a9576040517f08c379a00000000000000000000000000000000000000000000000000000000081526004016112a0906121fb565b60405180910390fd5b8060036000600f54815260200190815260200160002060000160006101000a81548173ffffffffffffffffffffffffffffffffffffffff021916908373ffffffffffffffffffffffffffffffffffffffff160217905550600f60008154809291906113139061268a565b919050555061132061146d565b50565b600d5481565b61133161164d565b600073ffffffffffffffffffffffffffffffffffffffff168173ffffffffffffffffffffffffffffffffffffffff16036113a0576040517f08c379a000000000000000000000000000000000000000000000000000000000815260040161139790612786565b60405180910390fd5b6113a9816116cb565b50565b60007f01ffc9a7000000000000000000000000000000000000000000000000000000007bffffffffffffffffffffffffffffffffffffffffffffffffffffffff1916827bffffffffffffffffffffffffffffffffffffffffffffffffffffffff1916149050919050565b60026001540361145b576040517f08c379a0000000000000000000000000000000000000000000000000000000008152600401611452906127f2565b60405180910390fd5b6002600181905550565b600033905090565b60018081905550565b61148781611482611465565b611a31565b50565b6114948282610f11565b6115675760016002600084815260200190815260200160002060000160008373ffffffffffffffffffffffffffffffffffffffff1673ffffffffffffffffffffffffffffffffffffffff16815260200190815260200160002060006101000a81548160ff02191690831515021790555061150c611465565b73ffffffffffffffffffffffffffffffffffffffff168173ffffffffffffffffffffffffffffffffffffffff16837f2f8788117e7eff1d82e926ec794901d17c78024a50270940304540a733656f0d60405160405180910390a45b5050565b6115758282610f11565b156116495760006002600084815260200190815260200160002060000160008373ffffffffffffffffffffffffffffffffffffffff1673ffffffffffffffffffffffffffffffffffffffff16815260200190815260200160002060006101000a81548160ff0219169083151502179055506115ee611465565b73ffffffffffffffffffffffffffffffffffffffff168173ffffffffffffffffffffffffffffffffffffffff16837ff6391f5c32d9c69d2a47ea670b442974b53935d1edc7fd64eb21e047a839171b60405160405180910390a45b5050565b611655611465565b73ffffffffffffffffffffffffffffffffffffffff16611673610ee8565b73ffffffffffffffffffffffffffffffffffffffff16146116c9576040517f08c379a00000000000000000000000000000000000000000000000000000000081526004016116c09061285e565b60405180910390fd5b565b60008060009054906101000a900473ffffffffffffffffffffffffffffffffffffffff169050816000806101000a81548173ffffffffffffffffffffffffffffffffffffffff021916908373ffffffffffffffffffffffffffffffffffffffff1602179055508173ffffffffffffffffffffffffffffffffffffffff168173ffffffffffffffffffffffffffffffffffffffff167f8be0079c531659141344cd1fd0a4f28419497f9722a3daafe3b4186f6b6457e060405160405180910390a35050565b60006117c27f899bd46557473cb80307a9dabc297131ced39608330a2d29b2d52b660c03923e6117bd611465565b610f11565b611801576040517f08c379a00000000000000000000000000000000000000000000000000000000081526004016117f8906121fb565b60405180910390fd5b60006003600080815260200190815260200160002060000160009054906101000a900473ffffffffffffffffffffffffffffffffffffffff1673ffffffffffffffffffffffffffffffffffffffff166370a08231600660009054906101000a900473ffffffffffffffffffffffffffffffffffffffff166040518263ffffffff1660e01b81526004016118949190611ee1565b602060405180830381865afa1580156118b1573d6000803e3d6000fd5b505050506040513d601f19601f820116820180604052508101906118d591906126e7565b90506000600360006001815260200190815260200160002060000160009054906101000a900473ffffffffffffffffffffffffffffffffffffffff1673ffffffffffffffffffffffffffffffffffffffff166370a08231600660009054906101000a900473ffffffffffffffffffffffffffffffffffffffff166040518263ffffffff1660e01b815260040161196b9190611ee1565b602060405180830381865afa158015611988573d6000803e3d6000fd5b505050506040513d601f19601f820116820180604052508101906119ac91906126e7565b9050600c5482146119bf5781600c819055505b600c5481146119d05780600d819055505b60019250505090565b600081836119e7919061287e565b905092915050565b600081836119fd91906128c0565b905092915050565b60008183611a139190612923565b905092915050565b60008183611a299190612954565b905092915050565b611a3b8282610f11565b611ab257611a4881611ab6565b611a568360001c6020611ae3565b604051602001611a67929190612a5c565b6040516020818303038152906040526040517f08c379a0000000000000000000000000000000000000000000000000000000008152600401611aa99190612a96565b60405180910390fd5b5050565b6060611adc8273ffffffffffffffffffffffffffffffffffffffff16601460ff16611ae3565b9050919050565b606060006002836002611af6919061287e565b611b0091906128c0565b67ffffffffffffffff811115611b1957611b18612358565b5b6040519080825280601f01601f191660200182016040528015611b4b5781602001600182028036833780820191505090505b5090507f300000000000000000000000000000000000000000000000000000000000000081600081518110611b8357611b82612ab8565b5b60200101907effffffffffffffffffffffffffffffffffffffffffffffffffffffffffffff1916908160001a9053507f780000000000000000000000000000000000000000000000000000000000000081600181518110611be757611be6612ab8565b5b60200101907effffffffffffffffffffffffffffffffffffffffffffffffffffffffffffff1916908160001a90535060006001846002611c27919061287e565b611c3191906128c0565b90505b6001811115611cd1577f3031323334353637383961626364656600000000000000000000000000000000600f861660108110611c7357611c72612ab8565b5b1a60f81b828281518110611c8a57611c89612ab8565b5b60200101907effffffffffffffffffffffffffffffffffffffffffffffffffffffffffffff1916908160001a905350600485901c945080611cca90612ae7565b9050611c34565b5060008414611d15576040517f08c379a0000000000000000000000000000000000000000000000000000000008152600401611d0c90612b5c565b60405180910390fd5b8091505092915050565b600080fd5b60007fffffffff0000000000000000000000000000000000000000000000000000000082169050919050565b611d5981611d24565b8114611d6457600080fd5b50565b600081359050611d7681611d50565b92915050565b600060208284031215611d9257611d91611d1f565b5b6000611da084828501611d67565b91505092915050565b60008115159050919050565b611dbe81611da9565b82525050565b6000602082019050611dd96000830184611db5565b92915050565b6000819050919050565b611df281611ddf565b82525050565b6000602082019050611e0d6000830184611de9565b92915050565b6000819050919050565b611e2681611e13565b8114611e3157600080fd5b50565b600081359050611e4381611e1d565b92915050565b600060208284031215611e5f57611e5e611d1f565b5b6000611e6d84828501611e34565b91505092915050565b611e7f81611e13565b82525050565b6000602082019050611e9a6000830184611e76565b92915050565b600073ffffffffffffffffffffffffffffffffffffffff82169050919050565b6000611ecb82611ea0565b9050919050565b611edb81611ec0565b82525050565b6000602082019050611ef66000830184611ed2565b92915050565b611f0581611ddf565b8114611f1057600080fd5b50565b600081359050611f2281611efc565b92915050565b600060208284031215611f3e57611f3d611d1f565b5b6000611f4c84828501611f13565b91505092915050565b611f5e81611ec0565b8114611f6957600080fd5b50565b600081359050611f7b81611f55565b92915050565b60008060408385031215611f9857611f97611d1f565b5b6000611fa685828601611e34565b9250506020611fb785828601611f6c565b9150509250929050565b600060208284031215611fd757611fd6611d1f565b5b6000611fe584828501611f6c565b91505092915050565b6000819050919050565b600061201361200e61200984611ea0565b611fee565b611ea0565b9050919050565b600061202582611ff8565b9050919050565b60006120378261201a565b9050919050565b6120478161202c565b82525050565b6000602082019050612062600083018461203e565b92915050565b600081519050919050565b600082825260208201905092915050565b60005b838110156120a2578082015181840152602081019050612087565b60008484015250505050565b6000601f19601f8301169050919050565b60006120ca82612068565b6120d48185612073565b93506120e4818560208601612084565b6120ed816120ae565b840191505092915050565b6000608082019050818103600083015261211281876120bf565b90506121216020830186611de9565b61212e6040830185611de9565b61213b6060830184611de9565b95945050505050565b600061214f82611ec0565b9050919050565b61215f81612144565b811461216a57600080fd5b50565b60008135905061217c81612156565b92915050565b60006020828403121561219857612197611d1f565b5b60006121a68482850161216d565b91505092915050565b7f4e6f7420616c6c6f776564000000000000000000000000000000000000000000600082015250565b60006121e5600b83612073565b91506121f0826121af565b602082019050919050565b60006020820190508181036000830152612214816121d8565b9050919050565b60006040820190506122306000830185611ed2565b61223d6020830184611de9565b9392505050565b61224d81611da9565b811461225857600080fd5b50565b60008151905061226a81612244565b92915050565b60006020828403121561228657612285611d1f565b5b60006122948482850161225b565b91505092915050565b60006040820190506122b26000830185611de9565b6122bf6020830184611de9565b9392505050565b7f416363657373436f6e74726f6c3a2063616e206f6e6c792072656e6f756e636560008201527f20726f6c657320666f722073656c660000000000000000000000000000000000602082015250565b6000612322602f83612073565b915061232d826122c6565b604082019050919050565b6000602082019050818103600083015261235181612315565b9050919050565b7f4e487b7100000000000000000000000000000000000000000000000000000000600052604160045260246000fd5b7f4e487b7100000000000000000000000000000000000000000000000000000000600052602260045260246000fd5b600060028204905060018216806123ce57607f821691505b6020821081036123e1576123e0612387565b5b50919050565b60008190508160005260206000209050919050565b60006020601f8301049050919050565b600082821b905092915050565b6000600883026124497fffffffffffffffffffffffffffffffffffffffffffffffffffffffffffffffff8261240c565b612453868361240c565b95508019841693508086168417925050509392505050565b600061248661248161247c84611ddf565b611fee565b611ddf565b9050919050565b6000819050919050565b6124a08361246b565b6124b46124ac8261248d565b848454612419565b825550505050565b600090565b6124c96124bc565b6124d4818484612497565b505050565b5b818110156124f8576124ed6000826124c1565b6001810190506124da565b5050565b601f82111561253d5761250e816123e7565b612517846123fc565b81016020851015612526578190505b61253a612532856123fc565b8301826124d9565b50505b505050565b600082821c905092915050565b600061256060001984600802612542565b1980831691505092915050565b6000612579838361254f565b9150826002028217905092915050565b61259282612068565b67ffffffffffffffff8111156125ab576125aa612358565b5b6125b582546123b6565b6125c08282856124fc565b600060209050601f8311600181146125f357600084156125e1578287015190505b6125eb858261256d565b865550612653565b601f198416612601866123e7565b60005b8281101561262957848901518255600182019150602085019450602081019050612604565b868310156126465784890151612642601f89168261254f565b8355505b6001600288020188555050505b505050505050565b7f4e487b7100000000000000000000000000000000000000000000000000000000600052601160045260246000fd5b600061269582611ddf565b91507fffffffffffffffffffffffffffffffffffffffffffffffffffffffffffffffff82036126c7576126c661265b565b5b600182019050919050565b6000815190506126e181611efc565b92915050565b6000602082840312156126fd576126fc611d1f565b5b600061270b848285016126d2565b91505092915050565b7f4f776e61626c653a206e6577206f776e657220697320746865207a65726f206160008201527f6464726573730000000000000000000000000000000000000000000000000000602082015250565b6000612770602683612073565b915061277b82612714565b604082019050919050565b6000602082019050818103600083015261279f81612763565b9050919050565b7f5265656e7472616e637947756172643a207265656e7472616e742063616c6c00600082015250565b60006127dc601f83612073565b91506127e7826127a6565b602082019050919050565b6000602082019050818103600083015261280b816127cf565b9050919050565b7f4f776e61626c653a2063616c6c6572206973206e6f7420746865206f776e6572600082015250565b6000612848602083612073565b915061285382612812565b602082019050919050565b600060208201905081810360008301526128778161283b565b9050919050565b600061288982611ddf565b915061289483611ddf565b92508282026128a281611ddf565b915082820484148315176128b9576128b861265b565b5b5092915050565b60006128cb82611ddf565b91506128d683611ddf565b92508282019050808211156128ee576128ed61265b565b5b92915050565b7f4e487b7100000000000000000000000000000000000000000000000000000000600052601260045260246000fd5b600061292e82611ddf565b915061293983611ddf565b925082612949576129486128f4565b5b828204905092915050565b600061295f82611ddf565b915061296a83611ddf565b92508282039050818111156129825761298161265b565b5b92915050565b600081905092915050565b7f416363657373436f6e74726f6c3a206163636f756e7420000000000000000000600082015250565b60006129c9601783612988565b91506129d482612993565b601782019050919050565b60006129ea82612068565b6129f48185612988565b9350612a04818560208601612084565b80840191505092915050565b7f206973206d697373696e6720726f6c6520000000000000000000000000000000600082015250565b6000612a46601183612988565b9150612a5182612a10565b601182019050919050565b6000612a67826129bc565b9150612a7382856129df565b9150612a7e82612a39565b9150612a8a82846129df565b91508190509392505050565b60006020820190508181036000830152612ab081846120bf565b905092915050565b7f4e487b7100000000000000000000000000000000000000000000000000000000600052603260045260246000fd5b6000612af282611ddf565b915060008203612b0557612b0461265b565b5b600182039050919050565b7f537472696e67733a20686578206c656e67746820696e73756666696369656e74600082015250565b6000612b46602083612073565b9150612b5182612b10565b602082019050919050565b60006020820190508181036000830152612b7581612b39565b905091905056fea2646970667358221220c93c5aeca55df7253800f4694768a9ac1ee821212839795a083ac42f56e1b2f264736f6c63430008120033",
			"opcodes": "PUSH1 0x80 PUSH1 0x40 MSTORE PUSH8 0xDE0B6B3A7640000 PUSH1 0xB SSTORE CALLVALUE DUP1 ISZERO PUSH3 0x1D JUMPI PUSH1 0x0 DUP1 REVERT JUMPDEST POP PUSH1 0x40 MLOAD PUSH3 0x3064 CODESIZE SUB DUP1 PUSH3 0x3064 DUP4 CODECOPY DUP2 DUP2 ADD PUSH1 0x40 MSTORE DUP2 ADD SWAP1 PUSH3 0x43 SWAP2 SWAP1 PUSH3 0x45B JUMP JUMPDEST PUSH3 0x63 PUSH3 0x57 PUSH3 0x159 PUSH1 0x20 SHL PUSH1 0x20 SHR JUMP JUMPDEST PUSH3 0x161 PUSH1 0x20 SHL PUSH1 0x20 SHR JUMP JUMPDEST PUSH1 0x1 DUP1 DUP2 SWAP1 SSTORE POP DUP2 PUSH1 0x4 PUSH1 0x0 PUSH2 0x100 EXP DUP2 SLOAD DUP2 PUSH20 0xFFFFFFFFFFFFFFFFFFFFFFFFFFFFFFFFFFFFFFFF MUL NOT AND SWAP1 DUP4 PUSH20 0xFFFFFFFFFFFFFFFFFFFFFFFFFFFFFFFFFFFFFFFF AND MUL OR SWAP1 SSTORE POP DUP1 PUSH1 0x5 PUSH1 0x0 PUSH2 0x100 EXP DUP2 SLOAD DUP2 PUSH20 0xFFFFFFFFFFFFFFFFFFFFFFFFFFFFFFFFFFFFFFFF MUL NOT AND SWAP1 DUP4 PUSH20 0xFFFFFFFFFFFFFFFFFFFFFFFFFFFFFFFFFFFFFFFF AND MUL OR SWAP1 SSTORE POP PUSH3 0x110 PUSH1 0x0 DUP1 SHL PUSH3 0x104 PUSH3 0x159 PUSH1 0x20 SHL PUSH1 0x20 SHR JUMP JUMPDEST PUSH3 0x225 PUSH1 0x20 SHL PUSH1 0x20 SHR JUMP JUMPDEST PUSH3 0x151 PUSH32 0x899BD46557473CB80307A9DABC297131CED39608330A2D29B2D52B660C03923E PUSH3 0x145 PUSH3 0x159 PUSH1 0x20 SHL PUSH1 0x20 SHR JUMP JUMPDEST PUSH3 0x225 PUSH1 0x20 SHL PUSH1 0x20 SHR JUMP JUMPDEST POP POP PUSH3 0x4A2 JUMP JUMPDEST PUSH1 0x0 CALLER SWAP1 POP SWAP1 JUMP JUMPDEST PUSH1 0x0 DUP1 PUSH1 0x0 SWAP1 SLOAD SWAP1 PUSH2 0x100 EXP SWAP1 DIV PUSH20 0xFFFFFFFFFFFFFFFFFFFFFFFFFFFFFFFFFFFFFFFF AND SWAP1 POP DUP2 PUSH1 0x0 DUP1 PUSH2 0x100 EXP DUP2 SLOAD DUP2 PUSH20 0xFFFFFFFFFFFFFFFFFFFFFFFFFFFFFFFFFFFFFFFF MUL NOT AND SWAP1 DUP4 PUSH20 0xFFFFFFFFFFFFFFFFFFFFFFFFFFFFFFFFFFFFFFFF AND MUL OR SWAP1 SSTORE POP DUP2 PUSH20 0xFFFFFFFFFFFFFFFFFFFFFFFFFFFFFFFFFFFFFFFF AND DUP2 PUSH20 0xFFFFFFFFFFFFFFFFFFFFFFFFFFFFFFFFFFFFFFFF AND PUSH32 0x8BE0079C531659141344CD1FD0A4F28419497F9722A3DAAFE3B4186F6B6457E0 PUSH1 0x40 MLOAD PUSH1 0x40 MLOAD DUP1 SWAP2 SUB SWAP1 LOG3 POP POP JUMP JUMPDEST PUSH3 0x237 DUP3 DUP3 PUSH3 0x23B PUSH1 0x20 SHL PUSH1 0x20 SHR JUMP JUMPDEST POP POP JUMP JUMPDEST PUSH3 0x24D DUP3 DUP3 PUSH3 0x32D PUSH1 0x20 SHL PUSH1 0x20 SHR JUMP JUMPDEST PUSH3 0x329 JUMPI PUSH1 0x1 PUSH1 0x2 PUSH1 0x0 DUP5 DUP2 MSTORE PUSH1 0x20 ADD SWAP1 DUP2 MSTORE PUSH1 0x20 ADD PUSH1 0x0 KECCAK256 PUSH1 0x0 ADD PUSH1 0x0 DUP4 PUSH20 0xFFFFFFFFFFFFFFFFFFFFFFFFFFFFFFFFFFFFFFFF AND PUSH20 0xFFFFFFFFFFFFFFFFFFFFFFFFFFFFFFFFFFFFFFFF AND DUP2 MSTORE PUSH1 0x20 ADD SWAP1 DUP2 MSTORE PUSH1 0x20 ADD PUSH1 0x0 KECCAK256 PUSH1 0x0 PUSH2 0x100 EXP DUP2 SLOAD DUP2 PUSH1 0xFF MUL NOT AND SWAP1 DUP4 ISZERO ISZERO MUL OR SWAP1 SSTORE POP PUSH3 0x2CE PUSH3 0x159 PUSH1 0x20 SHL PUSH1 0x20 SHR JUMP JUMPDEST PUSH20 0xFFFFFFFFFFFFFFFFFFFFFFFFFFFFFFFFFFFFFFFF AND DUP2 PUSH20 0xFFFFFFFFFFFFFFFFFFFFFFFFFFFFFFFFFFFFFFFF AND DUP4 PUSH32 0x2F8788117E7EFF1D82E926EC794901D17C78024A50270940304540A733656F0D PUSH1 0x40 MLOAD PUSH1 0x40 MLOAD DUP1 SWAP2 SUB SWAP1 LOG4 JUMPDEST POP POP JUMP JUMPDEST PUSH1 0x0 PUSH1 0x2 PUSH1 0x0 DUP5 DUP2 MSTORE PUSH1 0x20 ADD SWAP1 DUP2 MSTORE PUSH1 0x20 ADD PUSH1 0x0 KECCAK256 PUSH1 0x0 ADD PUSH1 0x0 DUP4 PUSH20 0xFFFFFFFFFFFFFFFFFFFFFFFFFFFFFFFFFFFFFFFF AND PUSH20 0xFFFFFFFFFFFFFFFFFFFFFFFFFFFFFFFFFFFFFFFF AND DUP2 MSTORE PUSH1 0x20 ADD SWAP1 DUP2 MSTORE PUSH1 0x20 ADD PUSH1 0x0 KECCAK256 PUSH1 0x0 SWAP1 SLOAD SWAP1 PUSH2 0x100 EXP SWAP1 DIV PUSH1 0xFF AND SWAP1 POP SWAP3 SWAP2 POP POP JUMP JUMPDEST PUSH1 0x0 DUP1 REVERT JUMPDEST PUSH1 0x0 PUSH20 0xFFFFFFFFFFFFFFFFFFFFFFFFFFFFFFFFFFFFFFFF DUP3 AND SWAP1 POP SWAP2 SWAP1 POP JUMP JUMPDEST PUSH1 0x0 PUSH3 0x3CA DUP3 PUSH3 0x39D JUMP JUMPDEST SWAP1 POP SWAP2 SWAP1 POP JUMP JUMPDEST PUSH1 0x0 PUSH3 0x3DE DUP3 PUSH3 0x3BD JUMP JUMPDEST SWAP1 POP SWAP2 SWAP1 POP JUMP JUMPDEST PUSH3 0x3F0 DUP2 PUSH3 0x3D1 JUMP JUMPDEST DUP2 EQ PUSH3 0x3FC JUMPI PUSH1 0x0 DUP1 REVERT JUMPDEST POP JUMP JUMPDEST PUSH1 0x0 DUP2 MLOAD SWAP1 POP PUSH3 0x410 DUP2 PUSH3 0x3E5 JUMP JUMPDEST SWAP3 SWAP2 POP POP JUMP JUMPDEST PUSH1 0x0 PUSH3 0x423 DUP3 PUSH3 0x3BD JUMP JUMPDEST SWAP1 POP SWAP2 SWAP1 POP JUMP JUMPDEST PUSH3 0x435 DUP2 PUSH3 0x416 JUMP JUMPDEST DUP2 EQ PUSH3 0x441 JUMPI PUSH1 0x0 DUP1 REVERT JUMPDEST POP JUMP JUMPDEST PUSH1 0x0 DUP2 MLOAD SWAP1 POP PUSH3 0x455 DUP2 PUSH3 0x42A JUMP JUMPDEST SWAP3 SWAP2 POP POP JUMP JUMPDEST PUSH1 0x0 DUP1 PUSH1 0x40 DUP4 DUP6 SUB SLT ISZERO PUSH3 0x475 JUMPI PUSH3 0x474 PUSH3 0x398 JUMP JUMPDEST JUMPDEST PUSH1 0x0 PUSH3 0x485 DUP6 DUP3 DUP7 ADD PUSH3 0x3FF JUMP JUMPDEST SWAP3 POP POP PUSH1 0x20 PUSH3 0x498 DUP6 DUP3 DUP7 ADD PUSH3 0x444 JUMP JUMPDEST SWAP2 POP POP SWAP3 POP SWAP3 SWAP1 POP JUMP JUMPDEST PUSH2 0x2BB2 DUP1 PUSH3 0x4B2 PUSH1 0x0 CODECOPY PUSH1 0x0 RETURN INVALID PUSH1 0x80 PUSH1 0x40 MSTORE CALLVALUE DUP1 ISZERO PUSH2 0x10 JUMPI PUSH1 0x0 DUP1 REVERT JUMPDEST POP PUSH1 0x4 CALLDATASIZE LT PUSH2 0x1CF JUMPI PUSH1 0x0 CALLDATALOAD PUSH1 0xE0 SHR DUP1 PUSH4 0x669004F9 GT PUSH2 0x104 JUMPI DUP1 PUSH4 0xA217FDDF GT PUSH2 0xA2 JUMPI DUP1 PUSH4 0xDB764EB3 GT PUSH2 0x71 JUMPI DUP1 PUSH4 0xDB764EB3 EQ PUSH2 0x4E9 JUMPI DUP1 PUSH4 0xE0E9349B EQ PUSH2 0x505 JUMPI DUP1 PUSH4 0xECEAB5C5 EQ PUSH2 0x521 JUMPI DUP1 PUSH4 0xF2FDE38B EQ PUSH2 0x53F JUMPI PUSH2 0x1CF JUMP JUMPDEST DUP1 PUSH4 0xA217FDDF EQ PUSH2 0x45E JUMPI DUP1 PUSH4 0xA6EF79B4 EQ PUSH2 0x47C JUMPI DUP1 PUSH4 0xC19BDE3C EQ PUSH2 0x4AF JUMPI DUP1 PUSH4 0xD547741F EQ PUSH2 0x4CD JUMPI PUSH2 0x1CF JUMP JUMPDEST DUP1 PUSH4 0x8DA5CB5B GT PUSH2 0xDE JUMPI DUP1 PUSH4 0x8DA5CB5B EQ PUSH2 0x3D6 JUMPI DUP1 PUSH4 0x91D14854 EQ PUSH2 0x3F4 JUMPI DUP1 PUSH4 0x92B59758 EQ PUSH2 0x424 JUMPI DUP1 PUSH4 0x9588E614 EQ PUSH2 0x440 JUMPI PUSH2 0x1CF JUMP JUMPDEST DUP1 PUSH4 0x669004F9 EQ PUSH2 0x392 JUMPI DUP1 PUSH4 0x715018A6 EQ PUSH2 0x3C2 JUMPI DUP1 PUSH4 0x8A6E0169 EQ PUSH2 0x3CC JUMPI PUSH2 0x1CF JUMP JUMPDEST DUP1 PUSH4 0x2F41FFD0 GT PUSH2 0x171 JUMPI DUP1 PUSH4 0x527A52C8 GT PUSH2 0x14B JUMPI DUP1 PUSH4 0x527A52C8 EQ PUSH2 0x31E JUMPI DUP1 PUSH4 0x552769D0 EQ PUSH2 0x33A JUMPI DUP1 PUSH4 0x58643550 EQ PUSH2 0x356 JUMPI DUP1 PUSH4 0x5E6A4FB0 EQ PUSH2 0x374 JUMPI PUSH2 0x1CF JUMP JUMPDEST DUP1 PUSH4 0x2F41FFD0 EQ PUSH2 0x2C6 JUMPI DUP1 PUSH4 0x36568ABE EQ PUSH2 0x2E4 JUMPI DUP1 PUSH4 0x38B7F446 EQ PUSH2 0x300 JUMPI PUSH2 0x1CF JUMP JUMPDEST DUP1 PUSH4 0x248A9CA3 GT PUSH2 0x1AD JUMPI DUP1 PUSH4 0x248A9CA3 EQ PUSH2 0x240 JUMPI DUP1 PUSH4 0x2DC47153 EQ PUSH2 0x270 JUMPI DUP1 PUSH4 0x2E1A7D4D EQ PUSH2 0x28E JUMPI DUP1 PUSH4 0x2F2FF15D EQ PUSH2 0x2AA JUMPI PUSH2 0x1CF JUMP JUMPDEST DUP1 PUSH4 0x1FFC9A7 EQ PUSH2 0x1D4 JUMPI DUP1 PUSH4 0x16317C21 EQ PUSH2 0x204 JUMPI DUP1 PUSH4 0x19CB170C EQ PUSH2 0x222 JUMPI JUMPDEST PUSH1 0x0 DUP1 REVERT JUMPDEST PUSH2 0x1EE PUSH1 0x4 DUP1 CALLDATASIZE SUB DUP2 ADD SWAP1 PUSH2 0x1E9 SWAP2 SWAP1 PUSH2 0x1D7C JUMP JUMPDEST PUSH2 0x55B JUMP JUMPDEST PUSH1 0x40 MLOAD PUSH2 0x1FB SWAP2 SWAP1 PUSH2 0x1DC4 JUMP JUMPDEST PUSH1 0x40 MLOAD DUP1 SWAP2 SUB SWAP1 RETURN JUMPDEST PUSH2 0x20C PUSH2 0x5D5 JUMP JUMPDEST PUSH1 0x40 MLOAD PUSH2 0x219 SWAP2 SWAP1 PUSH2 0x1DF8 JUMP JUMPDEST PUSH1 0x40 MLOAD DUP1 SWAP2 SUB SWAP1 RETURN JUMPDEST PUSH2 0x22A PUSH2 0x5DB JUMP JUMPDEST PUSH1 0x40 MLOAD PUSH2 0x237 SWAP2 SWAP1 PUSH2 0x1DF8 JUMP JUMPDEST PUSH1 0x40 MLOAD DUP1 SWAP2 SUB SWAP1 RETURN JUMPDEST PUSH2 0x25A PUSH1 0x4 DUP1 CALLDATASIZE SUB DUP2 ADD SWAP1 PUSH2 0x255 SWAP2 SWAP1 PUSH2 0x1E49 JUMP JUMPDEST PUSH2 0x5E1 JUMP JUMPDEST PUSH1 0x40 MLOAD PUSH2 0x267 SWAP2 SWAP1 PUSH2 0x1E85 JUMP JUMPDEST PUSH1 0x40 MLOAD DUP1 SWAP2 SUB SWAP1 RETURN JUMPDEST PUSH2 0x278 PUSH2 0x601 JUMP JUMPDEST PUSH1 0x40 MLOAD PUSH2 0x285 SWAP2 SWAP1 PUSH2 0x1EE1 JUMP JUMPDEST PUSH1 0x40 MLOAD DUP1 SWAP2 SUB SWAP1 RETURN JUMPDEST PUSH2 0x2A8 PUSH1 0x4 DUP1 CALLDATASIZE SUB DUP2 ADD SWAP1 PUSH2 0x2A3 SWAP2 SWAP1 PUSH2 0x1F28 JUMP JUMPDEST PUSH2 0x627 JUMP JUMPDEST STOP JUMPDEST PUSH2 0x2C4 PUSH1 0x4 DUP1 CALLDATASIZE SUB DUP2 ADD SWAP1 PUSH2 0x2BF SWAP2 SWAP1 PUSH2 0x1F81 JUMP JUMPDEST PUSH2 0x784 JUMP JUMPDEST STOP JUMPDEST PUSH2 0x2CE PUSH2 0x7A5 JUMP JUMPDEST PUSH1 0x40 MLOAD PUSH2 0x2DB SWAP2 SWAP1 PUSH2 0x1DF8 JUMP JUMPDEST PUSH1 0x40 MLOAD DUP1 SWAP2 SUB SWAP1 RETURN JUMPDEST PUSH2 0x2FE PUSH1 0x4 DUP1 CALLDATASIZE SUB DUP2 ADD SWAP1 PUSH2 0x2F9 SWAP2 SWAP1 PUSH2 0x1F81 JUMP JUMPDEST PUSH2 0x7AB JUMP JUMPDEST STOP JUMPDEST PUSH2 0x308 PUSH2 0x82E JUMP JUMPDEST PUSH1 0x40 MLOAD PUSH2 0x315 SWAP2 SWAP1 PUSH2 0x1E85 JUMP JUMPDEST PUSH1 0x40 MLOAD DUP1 SWAP2 SUB SWAP1 RETURN JUMPDEST PUSH2 0x338 PUSH1 0x4 DUP1 CALLDATASIZE SUB DUP2 ADD SWAP1 PUSH2 0x333 SWAP2 SWAP1 PUSH2 0x1FC1 JUMP JUMPDEST PUSH2 0x852 JUMP JUMPDEST STOP JUMPDEST PUSH2 0x354 PUSH1 0x4 DUP1 CALLDATASIZE SUB DUP2 ADD SWAP1 PUSH2 0x34F SWAP2 SWAP1 PUSH2 0x1F28 JUMP JUMPDEST PUSH2 0x916 JUMP JUMPDEST STOP JUMPDEST PUSH2 0x35E PUSH2 0xA73 JUMP JUMPDEST PUSH1 0x40 MLOAD PUSH2 0x36B SWAP2 SWAP1 PUSH2 0x1DF8 JUMP JUMPDEST PUSH1 0x40 MLOAD DUP1 SWAP2 SUB SWAP1 RETURN JUMPDEST PUSH2 0x37C PUSH2 0xA79 JUMP JUMPDEST PUSH1 0x40 MLOAD PUSH2 0x389 SWAP2 SWAP1 PUSH2 0x1DF8 JUMP JUMPDEST PUSH1 0x40 MLOAD DUP1 SWAP2 SUB SWAP1 RETURN JUMPDEST PUSH2 0x3AC PUSH1 0x4 DUP1 CALLDATASIZE SUB DUP2 ADD SWAP1 PUSH2 0x3A7 SWAP2 SWAP1 PUSH2 0x1F28 JUMP JUMPDEST PUSH2 0xA7F JUMP JUMPDEST PUSH1 0x40 MLOAD PUSH2 0x3B9 SWAP2 SWAP1 PUSH2 0x204D JUMP JUMPDEST PUSH1 0x40 MLOAD DUP1 SWAP2 SUB SWAP1 RETURN JUMPDEST PUSH2 0x3CA PUSH2 0xABD JUMP JUMPDEST STOP JUMPDEST PUSH2 0x3D4 PUSH2 0xAD1 JUMP JUMPDEST STOP JUMPDEST PUSH2 0x3DE PUSH2 0xEE8 JUMP JUMPDEST PUSH1 0x40 MLOAD PUSH2 0x3EB SWAP2 SWAP1 PUSH2 0x1EE1 JUMP JUMPDEST PUSH1 0x40 MLOAD DUP1 SWAP2 SUB SWAP1 RETURN JUMPDEST PUSH2 0x40E PUSH1 0x4 DUP1 CALLDATASIZE SUB DUP2 ADD SWAP1 PUSH2 0x409 SWAP2 SWAP1 PUSH2 0x1F81 JUMP JUMPDEST PUSH2 0xF11 JUMP JUMPDEST PUSH1 0x40 MLOAD PUSH2 0x41B SWAP2 SWAP1 PUSH2 0x1DC4 JUMP JUMPDEST PUSH1 0x40 MLOAD DUP1 SWAP2 SUB SWAP1 RETURN JUMPDEST PUSH2 0x43E PUSH1 0x4 DUP1 CALLDATASIZE SUB DUP2 ADD SWAP1 PUSH2 0x439 SWAP2 SWAP1 PUSH2 0x1F28 JUMP JUMPDEST PUSH2 0xF7C JUMP JUMPDEST STOP JUMPDEST PUSH2 0x448 PUSH2 0x10CB JUMP JUMPDEST PUSH1 0x40 MLOAD PUSH2 0x455 SWAP2 SWAP1 PUSH2 0x1DF8 JUMP JUMPDEST PUSH1 0x40 MLOAD DUP1 SWAP2 SUB SWAP1 RETURN JUMPDEST PUSH2 0x466 PUSH2 0x10D1 JUMP JUMPDEST PUSH1 0x40 MLOAD PUSH2 0x473 SWAP2 SWAP1 PUSH2 0x1E85 JUMP JUMPDEST PUSH1 0x40 MLOAD DUP1 SWAP2 SUB SWAP1 RETURN JUMPDEST PUSH2 0x496 PUSH1 0x4 DUP1 CALLDATASIZE SUB DUP2 ADD SWAP1 PUSH2 0x491 SWAP2 SWAP1 PUSH2 0x1F28 JUMP JUMPDEST PUSH2 0x10D8 JUMP JUMPDEST PUSH1 0x40 MLOAD PUSH2 0x4A6 SWAP5 SWAP4 SWAP3 SWAP2 SWAP1 PUSH2 0x20F8 JUMP JUMPDEST PUSH1 0x40 MLOAD DUP1 SWAP2 SUB SWAP1 RETURN JUMPDEST PUSH2 0x4B7 PUSH2 0x1190 JUMP JUMPDEST PUSH1 0x40 MLOAD PUSH2 0x4C4 SWAP2 SWAP1 PUSH2 0x1DF8 JUMP JUMPDEST PUSH1 0x40 MLOAD DUP1 SWAP2 SUB SWAP1 RETURN JUMPDEST PUSH2 0x4E7 PUSH1 0x4 DUP1 CALLDATASIZE SUB DUP2 ADD SWAP1 PUSH2 0x4E2 SWAP2 SWAP1 PUSH2 0x1F81 JUMP JUMPDEST PUSH2 0x1196 JUMP JUMPDEST STOP JUMPDEST PUSH2 0x503 PUSH1 0x4 DUP1 CALLDATASIZE SUB DUP2 ADD SWAP1 PUSH2 0x4FE SWAP2 SWAP1 PUSH2 0x1F28 JUMP JUMPDEST PUSH2 0x11B7 JUMP JUMPDEST STOP JUMPDEST PUSH2 0x51F PUSH1 0x4 DUP1 CALLDATASIZE SUB DUP2 ADD SWAP1 PUSH2 0x51A SWAP2 SWAP1 PUSH2 0x2182 JUMP JUMPDEST PUSH2 0x1231 JUMP JUMPDEST STOP JUMPDEST PUSH2 0x529 PUSH2 0x1323 JUMP JUMPDEST PUSH1 0x40 MLOAD PUSH2 0x536 SWAP2 SWAP1 PUSH2 0x1DF8 JUMP JUMPDEST PUSH1 0x40 MLOAD DUP1 SWAP2 SUB SWAP1 RETURN JUMPDEST PUSH2 0x559 PUSH1 0x4 DUP1 CALLDATASIZE SUB DUP2 ADD SWAP1 PUSH2 0x554 SWAP2 SWAP1 PUSH2 0x1FC1 JUMP JUMPDEST PUSH2 0x1329 JUMP JUMPDEST STOP JUMPDEST PUSH1 0x0 PUSH32 0x7965DB0B00000000000000000000000000000000000000000000000000000000 PUSH28 0xFFFFFFFFFFFFFFFFFFFFFFFFFFFFFFFFFFFFFFFFFFFFFFFFFFFFFFFF NOT AND DUP3 PUSH28 0xFFFFFFFFFFFFFFFFFFFFFFFFFFFFFFFFFFFFFFFFFFFFFFFFFFFFFFFF NOT AND EQ DUP1 PUSH2 0x5CE JUMPI POP PUSH2 0x5CD DUP3 PUSH2 0x13AC JUMP JUMPDEST JUMPDEST SWAP1 POP SWAP2 SWAP1 POP JUMP JUMPDEST PUSH1 0xF SLOAD DUP2 JUMP JUMPDEST PUSH1 0xB SLOAD DUP2 JUMP JUMPDEST PUSH1 0x0 PUSH1 0x2 PUSH1 0x0 DUP4 DUP2 MSTORE PUSH1 0x20 ADD SWAP1 DUP2 MSTORE PUSH1 0x20 ADD PUSH1 0x0 KECCAK256 PUSH1 0x1 ADD SLOAD SWAP1 POP SWAP2 SWAP1 POP JUMP JUMPDEST PUSH1 0x9 PUSH1 0x0 SWAP1 SLOAD SWAP1 PUSH2 0x100 EXP SWAP1 DIV PUSH20 0xFFFFFFFFFFFFFFFFFFFFFFFFFFFFFFFFFFFFFFFF AND DUP2 JUMP JUMPDEST PUSH2 0x62F PUSH2 0x1416 JUMP JUMPDEST PUSH2 0x660 PUSH32 0x899BD46557473CB80307A9DABC297131CED39608330A2D29B2D52B660C03923E PUSH2 0x65B PUSH2 0x1465 JUMP JUMPDEST PUSH2 0xF11 JUMP JUMPDEST PUSH2 0x69F JUMPI PUSH1 0x40 MLOAD PUSH32 0x8C379A000000000000000000000000000000000000000000000000000000000 DUP2 MSTORE PUSH1 0x4 ADD PUSH2 0x696 SWAP1 PUSH2 0x21FB JUMP JUMPDEST PUSH1 0x40 MLOAD DUP1 SWAP2 SUB SWAP1 REVERT JUMPDEST PUSH1 0x4 PUSH1 0x0 SWAP1 SLOAD SWAP1 PUSH2 0x100 EXP SWAP1 DIV PUSH20 0xFFFFFFFFFFFFFFFFFFFFFFFFFFFFFFFFFFFFFFFF AND PUSH20 0xFFFFFFFFFFFFFFFFFFFFFFFFFFFFFFFFFFFFFFFF AND PUSH4 0xA9059CBB CALLER DUP4 PUSH1 0x40 MLOAD DUP4 PUSH4 0xFFFFFFFF AND PUSH1 0xE0 SHL DUP2 MSTORE PUSH1 0x4 ADD PUSH2 0x6FC SWAP3 SWAP2 SWAP1 PUSH2 0x221B JUMP JUMPDEST PUSH1 0x20 PUSH1 0x40 MLOAD DUP1 DUP4 SUB DUP2 PUSH1 0x0 DUP8 GAS CALL ISZERO DUP1 ISZERO PUSH2 0x71B JUMPI RETURNDATASIZE PUSH1 0x0 DUP1 RETURNDATACOPY RETURNDATASIZE PUSH1 0x0 REVERT JUMPDEST POP POP POP POP PUSH1 0x40 MLOAD RETURNDATASIZE PUSH1 0x1F NOT PUSH1 0x1F DUP3 ADD AND DUP3 ADD DUP1 PUSH1 0x40 MSTORE POP DUP2 ADD SWAP1 PUSH2 0x73F SWAP2 SWAP1 PUSH2 0x2270 JUMP JUMPDEST POP PUSH32 0x56CA301A9219608C91E7BCEE90E083C19671D2CDCC96752C7AF291CEE5F9C8C8 TIMESTAMP DUP3 PUSH1 0x40 MLOAD PUSH2 0x771 SWAP3 SWAP2 SWAP1 PUSH2 0x229D JUMP JUMPDEST PUSH1 0x40 MLOAD DUP1 SWAP2 SUB SWAP1 LOG1 PUSH2 0x781 PUSH2 0x146D JUMP JUMPDEST POP JUMP JUMPDEST PUSH2 0x78D DUP3 PUSH2 0x5E1 JUMP JUMPDEST PUSH2 0x796 DUP2 PUSH2 0x1476 JUMP JUMPDEST PUSH2 0x7A0 DUP4 DUP4 PUSH2 0x148A JUMP JUMPDEST POP POP POP JUMP JUMPDEST PUSH1 0xA SLOAD DUP2 JUMP JUMPDEST PUSH2 0x7B3 PUSH2 0x1465 JUMP JUMPDEST PUSH20 0xFFFFFFFFFFFFFFFFFFFFFFFFFFFFFFFFFFFFFFFF AND DUP2 PUSH20 0xFFFFFFFFFFFFFFFFFFFFFFFFFFFFFFFFFFFFFFFF AND EQ PUSH2 0x820 JUMPI PUSH1 0x40 MLOAD PUSH32 0x8C379A000000000000000000000000000000000000000000000000000000000 DUP2 MSTORE PUSH1 0x4 ADD PUSH2 0x817 SWAP1 PUSH2 0x2338 JUMP JUMPDEST PUSH1 0x40 MLOAD DUP1 SWAP2 SUB SWAP1 REVERT JUMPDEST PUSH2 0x82A DUP3 DUP3 PUSH2 0x156B JUMP JUMPDEST POP POP JUMP JUMPDEST PUSH32 0x899BD46557473CB80307A9DABC297131CED39608330A2D29B2D52B660C03923E DUP2 JUMP JUMPDEST PUSH2 0x85A PUSH2 0x1416 JUMP JUMPDEST PUSH2 0x88B PUSH32 0x899BD46557473CB80307A9DABC297131CED39608330A2D29B2D52B660C03923E PUSH2 0x886 PUSH2 0x1465 JUMP JUMPDEST PUSH2 0xF11 JUMP JUMPDEST PUSH2 0x8CA JUMPI PUSH1 0x40 MLOAD PUSH32 0x8C379A000000000000000000000000000000000000000000000000000000000 DUP2 MSTORE PUSH1 0x4 ADD PUSH2 0x8C1 SWAP1 PUSH2 0x21FB JUMP JUMPDEST PUSH1 0x40 MLOAD DUP1 SWAP2 SUB SWAP1 REVERT JUMPDEST DUP1 PUSH1 0x6 PUSH1 0x0 PUSH2 0x100 EXP DUP2 SLOAD DUP2 PUSH20 0xFFFFFFFFFFFFFFFFFFFFFFFFFFFFFFFFFFFFFFFF MUL NOT AND SWAP1 DUP4 PUSH20 0xFFFFFFFFFFFFFFFFFFFFFFFFFFFFFFFFFFFFFFFF AND MUL OR SWAP1 SSTORE POP PUSH2 0x913 PUSH2 0x146D JUMP JUMPDEST POP JUMP JUMPDEST PUSH2 0x91E PUSH2 0x1416 JUMP JUMPDEST PUSH2 0x94F PUSH32 0x899BD46557473CB80307A9DABC297131CED39608330A2D29B2D52B660C03923E PUSH2 0x94A PUSH2 0x1465 JUMP JUMPDEST PUSH2 0xF11 JUMP JUMPDEST PUSH2 0x98E JUMPI PUSH1 0x40 MLOAD PUSH32 0x8C379A000000000000000000000000000000000000000000000000000000000 DUP2 MSTORE PUSH1 0x4 ADD PUSH2 0x985 SWAP1 PUSH2 0x21FB JUMP JUMPDEST PUSH1 0x40 MLOAD DUP1 SWAP2 SUB SWAP1 REVERT JUMPDEST PUSH1 0x5 PUSH1 0x0 SWAP1 SLOAD SWAP1 PUSH2 0x100 EXP SWAP1 DIV PUSH20 0xFFFFFFFFFFFFFFFFFFFFFFFFFFFFFFFFFFFFFFFF AND PUSH20 0xFFFFFFFFFFFFFFFFFFFFFFFFFFFFFFFFFFFFFFFF AND PUSH4 0xA9059CBB CALLER DUP4 PUSH1 0x40 MLOAD DUP4 PUSH4 0xFFFFFFFF AND PUSH1 0xE0 SHL DUP2 MSTORE PUSH1 0x4 ADD PUSH2 0x9EB SWAP3 SWAP2 SWAP1 PUSH2 0x221B JUMP JUMPDEST PUSH1 0x20 PUSH1 0x40 MLOAD DUP1 DUP4 SUB DUP2 PUSH1 0x0 DUP8 GAS CALL ISZERO DUP1 ISZERO PUSH2 0xA0A JUMPI RETURNDATASIZE PUSH1 0x0 DUP1 RETURNDATACOPY RETURNDATASIZE PUSH1 0x0 REVERT JUMPDEST POP POP POP POP PUSH1 0x40 MLOAD RETURNDATASIZE PUSH1 0x1F NOT PUSH1 0x1F DUP3 ADD AND DUP3 ADD DUP1 PUSH1 0x40 MSTORE POP DUP2 ADD SWAP1 PUSH2 0xA2E SWAP2 SWAP1 PUSH2 0x2270 JUMP JUMPDEST POP PUSH32 0x56CA301A9219608C91E7BCEE90E083C19671D2CDCC96752C7AF291CEE5F9C8C8 TIMESTAMP DUP3 PUSH1 0x40 MLOAD PUSH2 0xA60 SWAP3 SWAP2 SWAP1 PUSH2 0x229D JUMP JUMPDEST PUSH1 0x40 MLOAD DUP1 SWAP2 SUB SWAP1 LOG1 PUSH2 0xA70 PUSH2 0x146D JUMP JUMPDEST POP JUMP JUMPDEST PUSH1 0x7 SLOAD DUP2 JUMP JUMPDEST PUSH1 0xE SLOAD DUP2 JUMP JUMPDEST PUSH1 0x3 PUSH1 0x20 MSTORE DUP1 PUSH1 0x0 MSTORE PUSH1 0x40 PUSH1 0x0 KECCAK256 PUSH1 0x0 SWAP2 POP SWAP1 POP DUP1 PUSH1 0x0 ADD PUSH1 0x0 SWAP1 SLOAD SWAP1 PUSH2 0x100 EXP SWAP1 DIV PUSH20 0xFFFFFFFFFFFFFFFFFFFFFFFFFFFFFFFFFFFFFFFF AND SWAP1 POP DUP2 JUMP JUMPDEST PUSH2 0xAC5 PUSH2 0x164D JUMP JUMPDEST PUSH2 0xACF PUSH1 0x0 PUSH2 0x16CB JUMP JUMPDEST JUMP JUMPDEST PUSH2 0xAD9 PUSH2 0x1416 JUMP JUMPDEST PUSH2 0xB0A PUSH32 0x899BD46557473CB80307A9DABC297131CED39608330A2D29B2D52B660C03923E PUSH2 0xB05 PUSH2 0x1465 JUMP JUMPDEST PUSH2 0xF11 JUMP JUMPDEST PUSH2 0xB49 JUMPI PUSH1 0x40 MLOAD PUSH32 0x8C379A000000000000000000000000000000000000000000000000000000000 DUP2 MSTORE PUSH1 0x4 ADD PUSH2 0xB40 SWAP1 PUSH2 0x21FB JUMP JUMPDEST PUSH1 0x40 MLOAD DUP1 SWAP2 SUB SWAP1 REVERT JUMPDEST PUSH1 0x0 PUSH2 0xB53 PUSH2 0x178F JUMP JUMPDEST SWAP1 POP PUSH1 0x1 SWAP1 POP DUP1 ISZERO PUSH2 0xEDD JUMPI PUSH1 0x0 PUSH2 0xBA6 PUSH2 0xB7B PUSH1 0xE SLOAD PUSH1 0xD SLOAD PUSH2 0x19D9 SWAP1 SWAP2 SWAP1 PUSH4 0xFFFFFFFF AND JUMP JUMPDEST PUSH2 0xB98 PUSH8 0xDE0B6B3A7640000 PUSH1 0xC SLOAD PUSH2 0x19D9 SWAP1 SWAP2 SWAP1 PUSH4 0xFFFFFFFF AND JUMP JUMPDEST PUSH2 0x19EF SWAP1 SWAP2 SWAP1 PUSH4 0xFFFFFFFF AND JUMP JUMPDEST SWAP1 POP PUSH1 0x0 PUSH2 0xBC5 PUSH8 0xDE0B6B3A7640000 DUP4 PUSH2 0x1A05 SWAP1 SWAP2 SWAP1 PUSH4 0xFFFFFFFF AND JUMP JUMPDEST SWAP1 POP PUSH1 0x7 SLOAD DUP2 LT ISZERO PUSH2 0xD25 JUMPI PUSH1 0x0 PUSH2 0xBE8 DUP3 PUSH1 0x7 SLOAD PUSH2 0x1A1B SWAP1 SWAP2 SWAP1 PUSH4 0xFFFFFFFF AND JUMP JUMPDEST SWAP1 POP PUSH1 0x0 PUSH2 0xC1B PUSH8 0xDE0B6B3A7640000 PUSH2 0xC0D PUSH1 0xE SLOAD DUP6 PUSH2 0x1A05 SWAP1 SWAP2 SWAP1 PUSH4 0xFFFFFFFF AND JUMP JUMPDEST PUSH2 0x19D9 SWAP1 SWAP2 SWAP1 PUSH4 0xFFFFFFFF AND JUMP JUMPDEST SWAP1 POP PUSH1 0x5 PUSH1 0x0 SWAP1 SLOAD SWAP1 PUSH2 0x100 EXP SWAP1 DIV PUSH20 0xFFFFFFFFFFFFFFFFFFFFFFFFFFFFFFFFFFFFFFFF AND PUSH20 0xFFFFFFFFFFFFFFFFFFFFFFFFFFFFFFFFFFFFFFFF AND PUSH4 0x42966C68 DUP3 PUSH1 0x40 MLOAD DUP3 PUSH4 0xFFFFFFFF AND PUSH1 0xE0 SHL DUP2 MSTORE PUSH1 0x4 ADD PUSH2 0xC78 SWAP2 SWAP1 PUSH2 0x1DF8 JUMP JUMPDEST PUSH1 0x0 PUSH1 0x40 MLOAD DUP1 DUP4 SUB DUP2 PUSH1 0x0 DUP8 DUP1 EXTCODESIZE ISZERO DUP1 ISZERO PUSH2 0xC92 JUMPI PUSH1 0x0 DUP1 REVERT JUMPDEST POP GAS CALL ISZERO DUP1 ISZERO PUSH2 0xCA6 JUMPI RETURNDATASIZE PUSH1 0x0 DUP1 RETURNDATACOPY RETURNDATASIZE PUSH1 0x0 REVERT JUMPDEST POP POP POP POP PUSH1 0x40 MLOAD DUP1 PUSH1 0x40 ADD PUSH1 0x40 MSTORE DUP1 PUSH1 0x4 DUP2 MSTORE PUSH1 0x20 ADD PUSH32 0x4275726E00000000000000000000000000000000000000000000000000000000 DUP2 MSTORE POP PUSH1 0x10 PUSH1 0x0 PUSH1 0xA SLOAD DUP2 MSTORE PUSH1 0x20 ADD SWAP1 DUP2 MSTORE PUSH1 0x20 ADD PUSH1 0x0 KECCAK256 PUSH1 0x0 ADD SWAP1 DUP2 PUSH2 0xD04 SWAP2 SWAP1 PUSH2 0x2589 JUMP JUMPDEST POP DUP2 PUSH1 0x10 PUSH1 0x0 PUSH1 0xA SLOAD DUP2 MSTORE PUSH1 0x20 ADD SWAP1 DUP2 MSTORE PUSH1 0x20 ADD PUSH1 0x0 KECCAK256 PUSH1 0x1 ADD DUP2 SWAP1 SSTORE POP POP POP JUMPDEST PUSH1 0x7 SLOAD DUP2 GT ISZERO PUSH2 0xE4F JUMPI PUSH1 0x0 PUSH2 0xD46 PUSH1 0x7 SLOAD DUP4 PUSH2 0x1A1B SWAP1 SWAP2 SWAP1 PUSH4 0xFFFFFFFF AND JUMP JUMPDEST SWAP1 POP PUSH1 0x4 PUSH1 0x0 SWAP1 SLOAD SWAP1 PUSH2 0x100 EXP SWAP1 DIV PUSH20 0xFFFFFFFFFFFFFFFFFFFFFFFFFFFFFFFFFFFFFFFF AND PUSH20 0xFFFFFFFFFFFFFFFFFFFFFFFFFFFFFFFFFFFFFFFF AND PUSH4 0xA0712D68 DUP3 PUSH1 0x40 MLOAD DUP3 PUSH4 0xFFFFFFFF AND PUSH1 0xE0 SHL DUP2 MSTORE PUSH1 0x4 ADD PUSH2 0xDA3 SWAP2 SWAP1 PUSH2 0x1DF8 JUMP JUMPDEST PUSH1 0x0 PUSH1 0x40 MLOAD DUP1 DUP4 SUB DUP2 PUSH1 0x0 DUP8 DUP1 EXTCODESIZE ISZERO DUP1 ISZERO PUSH2 0xDBD JUMPI PUSH1 0x0 DUP1 REVERT JUMPDEST POP GAS CALL ISZERO DUP1 ISZERO PUSH2 0xDD1 JUMPI RETURNDATASIZE PUSH1 0x0 DUP1 RETURNDATACOPY RETURNDATASIZE PUSH1 0x0 REVERT JUMPDEST POP POP POP POP PUSH1 0x40 MLOAD DUP1 PUSH1 0x40 ADD PUSH1 0x40 MSTORE DUP1 PUSH1 0x4 DUP2 MSTORE PUSH1 0x20 ADD PUSH32 0x4D696E7400000000000000000000000000000000000000000000000000000000 DUP2 MSTORE POP PUSH1 0x10 PUSH1 0x0 PUSH1 0xA SLOAD DUP2 MSTORE PUSH1 0x20 ADD SWAP1 DUP2 MSTORE PUSH1 0x20 ADD PUSH1 0x0 KECCAK256 PUSH1 0x0 ADD SWAP1 DUP2 PUSH2 0xE2F SWAP2 SWAP1 PUSH2 0x2589 JUMP JUMPDEST POP DUP1 PUSH1 0x10 PUSH1 0x0 PUSH1 0xA SLOAD DUP2 MSTORE PUSH1 0x20 ADD SWAP1 DUP2 MSTORE PUSH1 0x20 ADD PUSH1 0x0 KECCAK256 PUSH1 0x1 ADD DUP2 SWAP1 SSTORE POP POP JUMPDEST NUMBER PUSH1 0x10 PUSH1 0x0 PUSH1 0xA SLOAD DUP2 MSTORE PUSH1 0x20 ADD SWAP1 DUP2 MSTORE PUSH1 0x20 ADD PUSH1 0x0 KECCAK256 PUSH1 0x3 ADD DUP2 SWAP1 SSTORE POP TIMESTAMP PUSH1 0x10 PUSH1 0x0 PUSH1 0xA SLOAD DUP2 MSTORE PUSH1 0x20 ADD SWAP1 DUP2 MSTORE PUSH1 0x20 ADD PUSH1 0x0 KECCAK256 PUSH1 0x2 ADD DUP2 SWAP1 SSTORE POP PUSH1 0xA PUSH1 0x0 DUP2 SLOAD DUP1 SWAP3 SWAP2 SWAP1 PUSH2 0xE9C SWAP1 PUSH2 0x268A JUMP JUMPDEST SWAP2 SWAP1 POP SSTORE POP PUSH32 0x2A6A493F767EC856DCAC2F52ECC7E244B432C2D615092EF532C22A94568ED995 TIMESTAMP DUP3 PUSH1 0x40 MLOAD PUSH2 0xED2 SWAP3 SWAP2 SWAP1 PUSH2 0x229D JUMP JUMPDEST PUSH1 0x40 MLOAD DUP1 SWAP2 SUB SWAP1 LOG1 POP POP JUMPDEST POP PUSH2 0xEE6 PUSH2 0x146D JUMP JUMPDEST JUMP JUMPDEST PUSH1 0x0 DUP1 PUSH1 0x0 SWAP1 SLOAD SWAP1 PUSH2 0x100 EXP SWAP1 DIV PUSH20 0xFFFFFFFFFFFFFFFFFFFFFFFFFFFFFFFFFFFFFFFF AND SWAP1 POP SWAP1 JUMP JUMPDEST PUSH1 0x0 PUSH1 0x2 PUSH1 0x0 DUP5 DUP2 MSTORE PUSH1 0x20 ADD SWAP1 DUP2 MSTORE PUSH1 0x20 ADD PUSH1 0x0 KECCAK256 PUSH1 0x0 ADD PUSH1 0x0 DUP4 PUSH20 0xFFFFFFFFFFFFFFFFFFFFFFFFFFFFFFFFFFFFFFFF AND PUSH20 0xFFFFFFFFFFFFFFFFFFFFFFFFFFFFFFFFFFFFFFFF AND DUP2 MSTORE PUSH1 0x20 ADD SWAP1 DUP2 MSTORE PUSH1 0x20 ADD PUSH1 0x0 KECCAK256 PUSH1 0x0 SWAP1 SLOAD SWAP1 PUSH2 0x100 EXP SWAP1 DIV PUSH1 0xFF AND SWAP1 POP SWAP3 SWAP2 POP POP JUMP JUMPDEST PUSH2 0xF84 PUSH2 0x1416 JUMP JUMPDEST PUSH2 0xFB5 PUSH32 0x899BD46557473CB80307A9DABC297131CED39608330A2D29B2D52B660C03923E PUSH2 0xFB0 PUSH2 0x1465 JUMP JUMPDEST PUSH2 0xF11 JUMP JUMPDEST PUSH2 0xFF4 JUMPI PUSH1 0x40 MLOAD PUSH32 0x8C379A000000000000000000000000000000000000000000000000000000000 DUP2 MSTORE PUSH1 0x4 ADD PUSH2 0xFEB SWAP1 PUSH2 0x21FB JUMP JUMPDEST PUSH1 0x40 MLOAD DUP1 SWAP2 SUB SWAP1 REVERT JUMPDEST PUSH1 0x5 PUSH1 0x0 SWAP1 SLOAD SWAP1 PUSH2 0x100 EXP SWAP1 DIV PUSH20 0xFFFFFFFFFFFFFFFFFFFFFFFFFFFFFFFFFFFFFFFF AND PUSH20 0xFFFFFFFFFFFFFFFFFFFFFFFFFFFFFFFFFFFFFFFF AND PUSH4 0x18160DDD PUSH1 0x40 MLOAD DUP2 PUSH4 0xFFFFFFFF AND PUSH1 0xE0 SHL DUP2 MSTORE PUSH1 0x4 ADD PUSH1 0x20 PUSH1 0x40 MLOAD DUP1 DUP4 SUB DUP2 DUP7 GAS STATICCALL ISZERO DUP1 ISZERO PUSH2 0x1061 JUMPI RETURNDATASIZE PUSH1 0x0 DUP1 RETURNDATACOPY RETURNDATASIZE PUSH1 0x0 REVERT JUMPDEST POP POP POP POP PUSH1 0x40 MLOAD RETURNDATASIZE PUSH1 0x1F NOT PUSH1 0x1F DUP3 ADD AND DUP3 ADD DUP1 PUSH1 0x40 MSTORE POP DUP2 ADD SWAP1 PUSH2 0x1085 SWAP2 SWAP1 PUSH2 0x26E7 JUMP JUMPDEST PUSH1 0x8 DUP2 SWAP1 SSTORE POP PUSH2 0x10BA PUSH8 0xDE0B6B3A7640000 PUSH2 0x10AC PUSH1 0x8 SLOAD DUP5 PUSH2 0x19D9 SWAP1 SWAP2 SWAP1 PUSH4 0xFFFFFFFF AND JUMP JUMPDEST PUSH2 0x1A05 SWAP1 SWAP2 SWAP1 PUSH4 0xFFFFFFFF AND JUMP JUMPDEST PUSH1 0xE DUP2 SWAP1 SSTORE POP PUSH2 0x10C8 PUSH2 0x146D JUMP JUMPDEST POP JUMP JUMPDEST PUSH1 0xC SLOAD DUP2 JUMP JUMPDEST PUSH1 0x0 DUP1 SHL DUP2 JUMP JUMPDEST PUSH1 0x10 PUSH1 0x20 MSTORE DUP1 PUSH1 0x0 MSTORE PUSH1 0x40 PUSH1 0x0 KECCAK256 PUSH1 0x0 SWAP2 POP SWAP1 POP DUP1 PUSH1 0x0 ADD DUP1 SLOAD PUSH2 0x10FB SWAP1 PUSH2 0x23B6 JUMP JUMPDEST DUP1 PUSH1 0x1F ADD PUSH1 0x20 DUP1 SWAP2 DIV MUL PUSH1 0x20 ADD PUSH1 0x40 MLOAD SWAP1 DUP2 ADD PUSH1 0x40 MSTORE DUP1 SWAP3 SWAP2 SWAP1 DUP2 DUP2 MSTORE PUSH1 0x20 ADD DUP3 DUP1 SLOAD PUSH2 0x1127 SWAP1 PUSH2 0x23B6 JUMP JUMPDEST DUP1 ISZERO PUSH2 0x1174 JUMPI DUP1 PUSH1 0x1F LT PUSH2 0x1149 JUMPI PUSH2 0x100 DUP1 DUP4 SLOAD DIV MUL DUP4 MSTORE SWAP2 PUSH1 0x20 ADD SWAP2 PUSH2 0x1174 JUMP JUMPDEST DUP3 ADD SWAP2 SWAP1 PUSH1 0x0 MSTORE PUSH1 0x20 PUSH1 0x0 KECCAK256 SWAP1 JUMPDEST DUP2 SLOAD DUP2 MSTORE SWAP1 PUSH1 0x1 ADD SWAP1 PUSH1 0x20 ADD DUP1 DUP4 GT PUSH2 0x1157 JUMPI DUP3 SWAP1 SUB PUSH1 0x1F AND DUP3 ADD SWAP2 JUMPDEST POP POP POP POP POP SWAP1 DUP1 PUSH1 0x1 ADD SLOAD SWAP1 DUP1 PUSH1 0x2 ADD SLOAD SWAP1 DUP1 PUSH1 0x3 ADD SLOAD SWAP1 POP DUP5 JUMP JUMPDEST PUSH1 0x8 SLOAD DUP2 JUMP JUMPDEST PUSH2 0x119F DUP3 PUSH2 0x5E1 JUMP JUMPDEST PUSH2 0x11A8 DUP2 PUSH2 0x1476 JUMP JUMPDEST PUSH2 0x11B2 DUP4 DUP4 PUSH2 0x156B JUMP JUMPDEST POP POP POP JUMP JUMPDEST PUSH2 0x11E8 PUSH32 0x899BD46557473CB80307A9DABC297131CED39608330A2D29B2D52B660C03923E PUSH2 0x11E3 PUSH2 0x1465 JUMP JUMPDEST PUSH2 0xF11 JUMP JUMPDEST PUSH2 0x1227 JUMPI PUSH1 0x40 MLOAD PUSH32 0x8C379A000000000000000000000000000000000000000000000000000000000 DUP2 MSTORE PUSH1 0x4 ADD PUSH2 0x121E SWAP1 PUSH2 0x21FB JUMP JUMPDEST PUSH1 0x40 MLOAD DUP1 SWAP2 SUB SWAP1 REVERT JUMPDEST DUP1 PUSH1 0x7 DUP2 SWAP1 SSTORE POP POP JUMP JUMPDEST PUSH2 0x1239 PUSH2 0x1416 JUMP JUMPDEST PUSH2 0x126A PUSH32 0x899BD46557473CB80307A9DABC297131CED39608330A2D29B2D52B660C03923E PUSH2 0x1265 PUSH2 0x1465 JUMP JUMPDEST PUSH2 0xF11 JUMP JUMPDEST PUSH2 0x12A9 JUMPI PUSH1 0x40 MLOAD PUSH32 0x8C379A000000000000000000000000000000000000000000000000000000000 DUP2 MSTORE PUSH1 0x4 ADD PUSH2 0x12A0 SWAP1 PUSH2 0x21FB JUMP JUMPDEST PUSH1 0x40 MLOAD DUP1 SWAP2 SUB SWAP1 REVERT JUMPDEST DUP1 PUSH1 0x3 PUSH1 0x0 PUSH1 0xF SLOAD DUP2 MSTORE PUSH1 0x20 ADD SWAP1 DUP2 MSTORE PUSH1 0x20 ADD PUSH1 0x0 KECCAK256 PUSH1 0x0 ADD PUSH1 0x0 PUSH2 0x100 EXP DUP2 SLOAD DUP2 PUSH20 0xFFFFFFFFFFFFFFFFFFFFFFFFFFFFFFFFFFFFFFFF MUL NOT AND SWAP1 DUP4 PUSH20 0xFFFFFFFFFFFFFFFFFFFFFFFFFFFFFFFFFFFFFFFF AND MUL OR SWAP1 SSTORE POP PUSH1 0xF PUSH1 0x0 DUP2 SLOAD DUP1 SWAP3 SWAP2 SWAP1 PUSH2 0x1313 SWAP1 PUSH2 0x268A JUMP JUMPDEST SWAP2 SWAP1 POP SSTORE POP PUSH2 0x1320 PUSH2 0x146D JUMP JUMPDEST POP JUMP JUMPDEST PUSH1 0xD SLOAD DUP2 JUMP JUMPDEST PUSH2 0x1331 PUSH2 0x164D JUMP JUMPDEST PUSH1 0x0 PUSH20 0xFFFFFFFFFFFFFFFFFFFFFFFFFFFFFFFFFFFFFFFF AND DUP2 PUSH20 0xFFFFFFFFFFFFFFFFFFFFFFFFFFFFFFFFFFFFFFFF AND SUB PUSH2 0x13A0 JUMPI PUSH1 0x40 MLOAD PUSH32 0x8C379A000000000000000000000000000000000000000000000000000000000 DUP2 MSTORE PUSH1 0x4 ADD PUSH2 0x1397 SWAP1 PUSH2 0x2786 JUMP JUMPDEST PUSH1 0x40 MLOAD DUP1 SWAP2 SUB SWAP1 REVERT JUMPDEST PUSH2 0x13A9 DUP2 PUSH2 0x16CB JUMP JUMPDEST POP JUMP JUMPDEST PUSH1 0x0 PUSH32 0x1FFC9A700000000000000000000000000000000000000000000000000000000 PUSH28 0xFFFFFFFFFFFFFFFFFFFFFFFFFFFFFFFFFFFFFFFFFFFFFFFFFFFFFFFF NOT AND DUP3 PUSH28 0xFFFFFFFFFFFFFFFFFFFFFFFFFFFFFFFFFFFFFFFFFFFFFFFFFFFFFFFF NOT AND EQ SWAP1 POP SWAP2 SWAP1 POP JUMP JUMPDEST PUSH1 0x2 PUSH1 0x1 SLOAD SUB PUSH2 0x145B JUMPI PUSH1 0x40 MLOAD PUSH32 0x8C379A000000000000000000000000000000000000000000000000000000000 DUP2 MSTORE PUSH1 0x4 ADD PUSH2 0x1452 SWAP1 PUSH2 0x27F2 JUMP JUMPDEST PUSH1 0x40 MLOAD DUP1 SWAP2 SUB SWAP1 REVERT JUMPDEST PUSH1 0x2 PUSH1 0x1 DUP2 SWAP1 SSTORE POP JUMP JUMPDEST PUSH1 0x0 CALLER SWAP1 POP SWAP1 JUMP JUMPDEST PUSH1 0x1 DUP1 DUP2 SWAP1 SSTORE POP JUMP JUMPDEST PUSH2 0x1487 DUP2 PUSH2 0x1482 PUSH2 0x1465 JUMP JUMPDEST PUSH2 0x1A31 JUMP JUMPDEST POP JUMP JUMPDEST PUSH2 0x1494 DUP3 DUP3 PUSH2 0xF11 JUMP JUMPDEST PUSH2 0x1567 JUMPI PUSH1 0x1 PUSH1 0x2 PUSH1 0x0 DUP5 DUP2 MSTORE PUSH1 0x20 ADD SWAP1 DUP2 MSTORE PUSH1 0x20 ADD PUSH1 0x0 KECCAK256 PUSH1 0x0 ADD PUSH1 0x0 DUP4 PUSH20 0xFFFFFFFFFFFFFFFFFFFFFFFFFFFFFFFFFFFFFFFF AND PUSH20 0xFFFFFFFFFFFFFFFFFFFFFFFFFFFFFFFFFFFFFFFF AND DUP2 MSTORE PUSH1 0x20 ADD SWAP1 DUP2 MSTORE PUSH1 0x20 ADD PUSH1 0x0 KECCAK256 PUSH1 0x0 PUSH2 0x100 EXP DUP2 SLOAD DUP2 PUSH1 0xFF MUL NOT AND SWAP1 DUP4 ISZERO ISZERO MUL OR SWAP1 SSTORE POP PUSH2 0x150C PUSH2 0x1465 JUMP JUMPDEST PUSH20 0xFFFFFFFFFFFFFFFFFFFFFFFFFFFFFFFFFFFFFFFF AND DUP2 PUSH20 0xFFFFFFFFFFFFFFFFFFFFFFFFFFFFFFFFFFFFFFFF AND DUP4 PUSH32 0x2F8788117E7EFF1D82E926EC794901D17C78024A50270940304540A733656F0D PUSH1 0x40 MLOAD PUSH1 0x40 MLOAD DUP1 SWAP2 SUB SWAP1 LOG4 JUMPDEST POP POP JUMP JUMPDEST PUSH2 0x1575 DUP3 DUP3 PUSH2 0xF11 JUMP JUMPDEST ISZERO PUSH2 0x1649 JUMPI PUSH1 0x0 PUSH1 0x2 PUSH1 0x0 DUP5 DUP2 MSTORE PUSH1 0x20 ADD SWAP1 DUP2 MSTORE PUSH1 0x20 ADD PUSH1 0x0 KECCAK256 PUSH1 0x0 ADD PUSH1 0x0 DUP4 PUSH20 0xFFFFFFFFFFFFFFFFFFFFFFFFFFFFFFFFFFFFFFFF AND PUSH20 0xFFFFFFFFFFFFFFFFFFFFFFFFFFFFFFFFFFFFFFFF AND DUP2 MSTORE PUSH1 0x20 ADD SWAP1 DUP2 MSTORE PUSH1 0x20 ADD PUSH1 0x0 KECCAK256 PUSH1 0x0 PUSH2 0x100 EXP DUP2 SLOAD DUP2 PUSH1 0xFF MUL NOT AND SWAP1 DUP4 ISZERO ISZERO MUL OR SWAP1 SSTORE POP PUSH2 0x15EE PUSH2 0x1465 JUMP JUMPDEST PUSH20 0xFFFFFFFFFFFFFFFFFFFFFFFFFFFFFFFFFFFFFFFF AND DUP2 PUSH20 0xFFFFFFFFFFFFFFFFFFFFFFFFFFFFFFFFFFFFFFFF AND DUP4 PUSH32 0xF6391F5C32D9C69D2A47EA670B442974B53935D1EDC7FD64EB21E047A839171B PUSH1 0x40 MLOAD PUSH1 0x40 MLOAD DUP1 SWAP2 SUB SWAP1 LOG4 JUMPDEST POP POP JUMP JUMPDEST PUSH2 0x1655 PUSH2 0x1465 JUMP JUMPDEST PUSH20 0xFFFFFFFFFFFFFFFFFFFFFFFFFFFFFFFFFFFFFFFF AND PUSH2 0x1673 PUSH2 0xEE8 JUMP JUMPDEST PUSH20 0xFFFFFFFFFFFFFFFFFFFFFFFFFFFFFFFFFFFFFFFF AND EQ PUSH2 0x16C9 JUMPI PUSH1 0x40 MLOAD PUSH32 0x8C379A000000000000000000000000000000000000000000000000000000000 DUP2 MSTORE PUSH1 0x4 ADD PUSH2 0x16C0 SWAP1 PUSH2 0x285E JUMP JUMPDEST PUSH1 0x40 MLOAD DUP1 SWAP2 SUB SWAP1 REVERT JUMPDEST JUMP JUMPDEST PUSH1 0x0 DUP1 PUSH1 0x0 SWAP1 SLOAD SWAP1 PUSH2 0x100 EXP SWAP1 DIV PUSH20 0xFFFFFFFFFFFFFFFFFFFFFFFFFFFFFFFFFFFFFFFF AND SWAP1 POP DUP2 PUSH1 0x0 DUP1 PUSH2 0x100 EXP DUP2 SLOAD DUP2 PUSH20 0xFFFFFFFFFFFFFFFFFFFFFFFFFFFFFFFFFFFFFFFF MUL NOT AND SWAP1 DUP4 PUSH20 0xFFFFFFFFFFFFFFFFFFFFFFFFFFFFFFFFFFFFFFFF AND MUL OR SWAP1 SSTORE POP DUP2 PUSH20 0xFFFFFFFFFFFFFFFFFFFFFFFFFFFFFFFFFFFFFFFF AND DUP2 PUSH20 0xFFFFFFFFFFFFFFFFFFFFFFFFFFFFFFFFFFFFFFFF AND PUSH32 0x8BE0079C531659141344CD1FD0A4F28419497F9722A3DAAFE3B4186F6B6457E0 PUSH1 0x40 MLOAD PUSH1 0x40 MLOAD DUP1 SWAP2 SUB SWAP1 LOG3 POP POP JUMP JUMPDEST PUSH1 0x0 PUSH2 0x17C2 PUSH32 0x899BD46557473CB80307A9DABC297131CED39608330A2D29B2D52B660C03923E PUSH2 0x17BD PUSH2 0x1465 JUMP JUMPDEST PUSH2 0xF11 JUMP JUMPDEST PUSH2 0x1801 JUMPI PUSH1 0x40 MLOAD PUSH32 0x8C379A000000000000000000000000000000000000000000000000000000000 DUP2 MSTORE PUSH1 0x4 ADD PUSH2 0x17F8 SWAP1 PUSH2 0x21FB JUMP JUMPDEST PUSH1 0x40 MLOAD DUP1 SWAP2 SUB SWAP1 REVERT JUMPDEST PUSH1 0x0 PUSH1 0x3 PUSH1 0x0 DUP1 DUP2 MSTORE PUSH1 0x20 ADD SWAP1 DUP2 MSTORE PUSH1 0x20 ADD PUSH1 0x0 KECCAK256 PUSH1 0x0 ADD PUSH1 0x0 SWAP1 SLOAD SWAP1 PUSH2 0x100 EXP SWAP1 DIV PUSH20 0xFFFFFFFFFFFFFFFFFFFFFFFFFFFFFFFFFFFFFFFF AND PUSH20 0xFFFFFFFFFFFFFFFFFFFFFFFFFFFFFFFFFFFFFFFF AND PUSH4 0x70A08231 PUSH1 0x6 PUSH1 0x0 SWAP1 SLOAD SWAP1 PUSH2 0x100 EXP SWAP1 DIV PUSH20 0xFFFFFFFFFFFFFFFFFFFFFFFFFFFFFFFFFFFFFFFF AND PUSH1 0x40 MLOAD DUP3 PUSH4 0xFFFFFFFF AND PUSH1 0xE0 SHL DUP2 MSTORE PUSH1 0x4 ADD PUSH2 0x1894 SWAP2 SWAP1 PUSH2 0x1EE1 JUMP JUMPDEST PUSH1 0x20 PUSH1 0x40 MLOAD DUP1 DUP4 SUB DUP2 DUP7 GAS STATICCALL ISZERO DUP1 ISZERO PUSH2 0x18B1 JUMPI RETURNDATASIZE PUSH1 0x0 DUP1 RETURNDATACOPY RETURNDATASIZE PUSH1 0x0 REVERT JUMPDEST POP POP POP POP PUSH1 0x40 MLOAD RETURNDATASIZE PUSH1 0x1F NOT PUSH1 0x1F DUP3 ADD AND DUP3 ADD DUP1 PUSH1 0x40 MSTORE POP DUP2 ADD SWAP1 PUSH2 0x18D5 SWAP2 SWAP1 PUSH2 0x26E7 JUMP JUMPDEST SWAP1 POP PUSH1 0x0 PUSH1 0x3 PUSH1 0x0 PUSH1 0x1 DUP2 MSTORE PUSH1 0x20 ADD SWAP1 DUP2 MSTORE PUSH1 0x20 ADD PUSH1 0x0 KECCAK256 PUSH1 0x0 ADD PUSH1 0x0 SWAP1 SLOAD SWAP1 PUSH2 0x100 EXP SWAP1 DIV PUSH20 0xFFFFFFFFFFFFFFFFFFFFFFFFFFFFFFFFFFFFFFFF AND PUSH20 0xFFFFFFFFFFFFFFFFFFFFFFFFFFFFFFFFFFFFFFFF AND PUSH4 0x70A08231 PUSH1 0x6 PUSH1 0x0 SWAP1 SLOAD SWAP1 PUSH2 0x100 EXP SWAP1 DIV PUSH20 0xFFFFFFFFFFFFFFFFFFFFFFFFFFFFFFFFFFFFFFFF AND PUSH1 0x40 MLOAD DUP3 PUSH4 0xFFFFFFFF AND PUSH1 0xE0 SHL DUP2 MSTORE PUSH1 0x4 ADD PUSH2 0x196B SWAP2 SWAP1 PUSH2 0x1EE1 JUMP JUMPDEST PUSH1 0x20 PUSH1 0x40 MLOAD DUP1 DUP4 SUB DUP2 DUP7 GAS STATICCALL ISZERO DUP1 ISZERO PUSH2 0x1988 JUMPI RETURNDATASIZE PUSH1 0x0 DUP1 RETURNDATACOPY RETURNDATASIZE PUSH1 0x0 REVERT JUMPDEST POP POP POP POP PUSH1 0x40 MLOAD RETURNDATASIZE PUSH1 0x1F NOT PUSH1 0x1F DUP3 ADD AND DUP3 ADD DUP1 PUSH1 0x40 MSTORE POP DUP2 ADD SWAP1 PUSH2 0x19AC SWAP2 SWAP1 PUSH2 0x26E7 JUMP JUMPDEST SWAP1 POP PUSH1 0xC SLOAD DUP3 EQ PUSH2 0x19BF JUMPI DUP2 PUSH1 0xC DUP2 SWAP1 SSTORE POP JUMPDEST PUSH1 0xC SLOAD DUP2 EQ PUSH2 0x19D0 JUMPI DUP1 PUSH1 0xD DUP2 SWAP1 SSTORE POP JUMPDEST PUSH1 0x1 SWAP3 POP POP POP SWAP1 JUMP JUMPDEST PUSH1 0x0 DUP2 DUP4 PUSH2 0x19E7 SWAP2 SWAP1 PUSH2 0x287E JUMP JUMPDEST SWAP1 POP SWAP3 SWAP2 POP POP JUMP JUMPDEST PUSH1 0x0 DUP2 DUP4 PUSH2 0x19FD SWAP2 SWAP1 PUSH2 0x28C0 JUMP JUMPDEST SWAP1 POP SWAP3 SWAP2 POP POP JUMP JUMPDEST PUSH1 0x0 DUP2 DUP4 PUSH2 0x1A13 SWAP2 SWAP1 PUSH2 0x2923 JUMP JUMPDEST SWAP1 POP SWAP3 SWAP2 POP POP JUMP JUMPDEST PUSH1 0x0 DUP2 DUP4 PUSH2 0x1A29 SWAP2 SWAP1 PUSH2 0x2954 JUMP JUMPDEST SWAP1 POP SWAP3 SWAP2 POP POP JUMP JUMPDEST PUSH2 0x1A3B DUP3 DUP3 PUSH2 0xF11 JUMP JUMPDEST PUSH2 0x1AB2 JUMPI PUSH2 0x1A48 DUP2 PUSH2 0x1AB6 JUMP JUMPDEST PUSH2 0x1A56 DUP4 PUSH1 0x0 SHR PUSH1 0x20 PUSH2 0x1AE3 JUMP JUMPDEST PUSH1 0x40 MLOAD PUSH1 0x20 ADD PUSH2 0x1A67 SWAP3 SWAP2 SWAP1 PUSH2 0x2A5C JUMP JUMPDEST PUSH1 0x40 MLOAD PUSH1 0x20 DUP2 DUP4 SUB SUB DUP2 MSTORE SWAP1 PUSH1 0x40 MSTORE PUSH1 0x40 MLOAD PUSH32 0x8C379A000000000000000000000000000000000000000000000000000000000 DUP2 MSTORE PUSH1 0x4 ADD PUSH2 0x1AA9 SWAP2 SWAP1 PUSH2 0x2A96 JUMP JUMPDEST PUSH1 0x40 MLOAD DUP1 SWAP2 SUB SWAP1 REVERT JUMPDEST POP POP JUMP JUMPDEST PUSH1 0x60 PUSH2 0x1ADC DUP3 PUSH20 0xFFFFFFFFFFFFFFFFFFFFFFFFFFFFFFFFFFFFFFFF AND PUSH1 0x14 PUSH1 0xFF AND PUSH2 0x1AE3 JUMP JUMPDEST SWAP1 POP SWAP2 SWAP1 POP JUMP JUMPDEST PUSH1 0x60 PUSH1 0x0 PUSH1 0x2 DUP4 PUSH1 0x2 PUSH2 0x1AF6 SWAP2 SWAP1 PUSH2 0x287E JUMP JUMPDEST PUSH2 0x1B00 SWAP2 SWAP1 PUSH2 0x28C0 JUMP JUMPDEST PUSH8 0xFFFFFFFFFFFFFFFF DUP2 GT ISZERO PUSH2 0x1B19 JUMPI PUSH2 0x1B18 PUSH2 0x2358 JUMP JUMPDEST JUMPDEST PUSH1 0x40 MLOAD SWAP1 DUP1 DUP3 MSTORE DUP1 PUSH1 0x1F ADD PUSH1 0x1F NOT AND PUSH1 0x20 ADD DUP3 ADD PUSH1 0x40 MSTORE DUP1 ISZERO PUSH2 0x1B4B JUMPI DUP2 PUSH1 0x20 ADD PUSH1 0x1 DUP3 MUL DUP1 CALLDATASIZE DUP4 CALLDATACOPY DUP1 DUP3 ADD SWAP2 POP POP SWAP1 POP JUMPDEST POP SWAP1 POP PUSH32 0x3000000000000000000000000000000000000000000000000000000000000000 DUP2 PUSH1 0x0 DUP2 MLOAD DUP2 LT PUSH2 0x1B83 JUMPI PUSH2 0x1B82 PUSH2 0x2AB8 JUMP JUMPDEST JUMPDEST PUSH1 0x20 ADD ADD SWAP1 PUSH31 0xFFFFFFFFFFFFFFFFFFFFFFFFFFFFFFFFFFFFFFFFFFFFFFFFFFFFFFFFFFFFFF NOT AND SWAP1 DUP2 PUSH1 0x0 BYTE SWAP1 MSTORE8 POP PUSH32 0x7800000000000000000000000000000000000000000000000000000000000000 DUP2 PUSH1 0x1 DUP2 MLOAD DUP2 LT PUSH2 0x1BE7 JUMPI PUSH2 0x1BE6 PUSH2 0x2AB8 JUMP JUMPDEST JUMPDEST PUSH1 0x20 ADD ADD SWAP1 PUSH31 0xFFFFFFFFFFFFFFFFFFFFFFFFFFFFFFFFFFFFFFFFFFFFFFFFFFFFFFFFFFFFFF NOT AND SWAP1 DUP2 PUSH1 0x0 BYTE SWAP1 MSTORE8 POP PUSH1 0x0 PUSH1 0x1 DUP5 PUSH1 0x2 PUSH2 0x1C27 SWAP2 SWAP1 PUSH2 0x287E JUMP JUMPDEST PUSH2 0x1C31 SWAP2 SWAP1 PUSH2 0x28C0 JUMP JUMPDEST SWAP1 POP JUMPDEST PUSH1 0x1 DUP2 GT ISZERO PUSH2 0x1CD1 JUMPI PUSH32 0x3031323334353637383961626364656600000000000000000000000000000000 PUSH1 0xF DUP7 AND PUSH1 0x10 DUP2 LT PUSH2 0x1C73 JUMPI PUSH2 0x1C72 PUSH2 0x2AB8 JUMP JUMPDEST JUMPDEST BYTE PUSH1 0xF8 SHL DUP3 DUP3 DUP2 MLOAD DUP2 LT PUSH2 0x1C8A JUMPI PUSH2 0x1C89 PUSH2 0x2AB8 JUMP JUMPDEST JUMPDEST PUSH1 0x20 ADD ADD SWAP1 PUSH31 0xFFFFFFFFFFFFFFFFFFFFFFFFFFFFFFFFFFFFFFFFFFFFFFFFFFFFFFFFFFFFFF NOT AND SWAP1 DUP2 PUSH1 0x0 BYTE SWAP1 MSTORE8 POP PUSH1 0x4 DUP6 SWAP1 SHR SWAP5 POP DUP1 PUSH2 0x1CCA SWAP1 PUSH2 0x2AE7 JUMP JUMPDEST SWAP1 POP PUSH2 0x1C34 JUMP JUMPDEST POP PUSH1 0x0 DUP5 EQ PUSH2 0x1D15 JUMPI PUSH1 0x40 MLOAD PUSH32 0x8C379A000000000000000000000000000000000000000000000000000000000 DUP2 MSTORE PUSH1 0x4 ADD PUSH2 0x1D0C SWAP1 PUSH2 0x2B5C JUMP JUMPDEST PUSH1 0x40 MLOAD DUP1 SWAP2 SUB SWAP1 REVERT JUMPDEST DUP1 SWAP2 POP POP SWAP3 SWAP2 POP POP JUMP JUMPDEST PUSH1 0x0 DUP1 REVERT JUMPDEST PUSH1 0x0 PUSH32 0xFFFFFFFF00000000000000000000000000000000000000000000000000000000 DUP3 AND SWAP1 POP SWAP2 SWAP1 POP JUMP JUMPDEST PUSH2 0x1D59 DUP2 PUSH2 0x1D24 JUMP JUMPDEST DUP2 EQ PUSH2 0x1D64 JUMPI PUSH1 0x0 DUP1 REVERT JUMPDEST POP JUMP JUMPDEST PUSH1 0x0 DUP2 CALLDATALOAD SWAP1 POP PUSH2 0x1D76 DUP2 PUSH2 0x1D50 JUMP JUMPDEST SWAP3 SWAP2 POP POP JUMP JUMPDEST PUSH1 0x0 PUSH1 0x20 DUP3 DUP5 SUB SLT ISZERO PUSH2 0x1D92 JUMPI PUSH2 0x1D91 PUSH2 0x1D1F JUMP JUMPDEST JUMPDEST PUSH1 0x0 PUSH2 0x1DA0 DUP5 DUP3 DUP6 ADD PUSH2 0x1D67 JUMP JUMPDEST SWAP2 POP POP SWAP3 SWAP2 POP POP JUMP JUMPDEST PUSH1 0x0 DUP2 ISZERO ISZERO SWAP1 POP SWAP2 SWAP1 POP JUMP JUMPDEST PUSH2 0x1DBE DUP2 PUSH2 0x1DA9 JUMP JUMPDEST DUP3 MSTORE POP POP JUMP JUMPDEST PUSH1 0x0 PUSH1 0x20 DUP3 ADD SWAP1 POP PUSH2 0x1DD9 PUSH1 0x0 DUP4 ADD DUP5 PUSH2 0x1DB5 JUMP JUMPDEST SWAP3 SWAP2 POP POP JUMP JUMPDEST PUSH1 0x0 DUP2 SWAP1 POP SWAP2 SWAP1 POP JUMP JUMPDEST PUSH2 0x1DF2 DUP2 PUSH2 0x1DDF JUMP JUMPDEST DUP3 MSTORE POP POP JUMP JUMPDEST PUSH1 0x0 PUSH1 0x20 DUP3 ADD SWAP1 POP PUSH2 0x1E0D PUSH1 0x0 DUP4 ADD DUP5 PUSH2 0x1DE9 JUMP JUMPDEST SWAP3 SWAP2 POP POP JUMP JUMPDEST PUSH1 0x0 DUP2 SWAP1 POP SWAP2 SWAP1 POP JUMP JUMPDEST PUSH2 0x1E26 DUP2 PUSH2 0x1E13 JUMP JUMPDEST DUP2 EQ PUSH2 0x1E31 JUMPI PUSH1 0x0 DUP1 REVERT JUMPDEST POP JUMP JUMPDEST PUSH1 0x0 DUP2 CALLDATALOAD SWAP1 POP PUSH2 0x1E43 DUP2 PUSH2 0x1E1D JUMP JUMPDEST SWAP3 SWAP2 POP POP JUMP JUMPDEST PUSH1 0x0 PUSH1 0x20 DUP3 DUP5 SUB SLT ISZERO PUSH2 0x1E5F JUMPI PUSH2 0x1E5E PUSH2 0x1D1F JUMP JUMPDEST JUMPDEST PUSH1 0x0 PUSH2 0x1E6D DUP5 DUP3 DUP6 ADD PUSH2 0x1E34 JUMP JUMPDEST SWAP2 POP POP SWAP3 SWAP2 POP POP JUMP JUMPDEST PUSH2 0x1E7F DUP2 PUSH2 0x1E13 JUMP JUMPDEST DUP3 MSTORE POP POP JUMP JUMPDEST PUSH1 0x0 PUSH1 0x20 DUP3 ADD SWAP1 POP PUSH2 0x1E9A PUSH1 0x0 DUP4 ADD DUP5 PUSH2 0x1E76 JUMP JUMPDEST SWAP3 SWAP2 POP POP JUMP JUMPDEST PUSH1 0x0 PUSH20 0xFFFFFFFFFFFFFFFFFFFFFFFFFFFFFFFFFFFFFFFF DUP3 AND SWAP1 POP SWAP2 SWAP1 POP JUMP JUMPDEST PUSH1 0x0 PUSH2 0x1ECB DUP3 PUSH2 0x1EA0 JUMP JUMPDEST SWAP1 POP SWAP2 SWAP1 POP JUMP JUMPDEST PUSH2 0x1EDB DUP2 PUSH2 0x1EC0 JUMP JUMPDEST DUP3 MSTORE POP POP JUMP JUMPDEST PUSH1 0x0 PUSH1 0x20 DUP3 ADD SWAP1 POP PUSH2 0x1EF6 PUSH1 0x0 DUP4 ADD DUP5 PUSH2 0x1ED2 JUMP JUMPDEST SWAP3 SWAP2 POP POP JUMP JUMPDEST PUSH2 0x1F05 DUP2 PUSH2 0x1DDF JUMP JUMPDEST DUP2 EQ PUSH2 0x1F10 JUMPI PUSH1 0x0 DUP1 REVERT JUMPDEST POP JUMP JUMPDEST PUSH1 0x0 DUP2 CALLDATALOAD SWAP1 POP PUSH2 0x1F22 DUP2 PUSH2 0x1EFC JUMP JUMPDEST SWAP3 SWAP2 POP POP JUMP JUMPDEST PUSH1 0x0 PUSH1 0x20 DUP3 DUP5 SUB SLT ISZERO PUSH2 0x1F3E JUMPI PUSH2 0x1F3D PUSH2 0x1D1F JUMP JUMPDEST JUMPDEST PUSH1 0x0 PUSH2 0x1F4C DUP5 DUP3 DUP6 ADD PUSH2 0x1F13 JUMP JUMPDEST SWAP2 POP POP SWAP3 SWAP2 POP POP JUMP JUMPDEST PUSH2 0x1F5E DUP2 PUSH2 0x1EC0 JUMP JUMPDEST DUP2 EQ PUSH2 0x1F69 JUMPI PUSH1 0x0 DUP1 REVERT JUMPDEST POP JUMP JUMPDEST PUSH1 0x0 DUP2 CALLDATALOAD SWAP1 POP PUSH2 0x1F7B DUP2 PUSH2 0x1F55 JUMP JUMPDEST SWAP3 SWAP2 POP POP JUMP JUMPDEST PUSH1 0x0 DUP1 PUSH1 0x40 DUP4 DUP6 SUB SLT ISZERO PUSH2 0x1F98 JUMPI PUSH2 0x1F97 PUSH2 0x1D1F JUMP JUMPDEST JUMPDEST PUSH1 0x0 PUSH2 0x1FA6 DUP6 DUP3 DUP7 ADD PUSH2 0x1E34 JUMP JUMPDEST SWAP3 POP POP PUSH1 0x20 PUSH2 0x1FB7 DUP6 DUP3 DUP7 ADD PUSH2 0x1F6C JUMP JUMPDEST SWAP2 POP POP SWAP3 POP SWAP3 SWAP1 POP JUMP JUMPDEST PUSH1 0x0 PUSH1 0x20 DUP3 DUP5 SUB SLT ISZERO PUSH2 0x1FD7 JUMPI PUSH2 0x1FD6 PUSH2 0x1D1F JUMP JUMPDEST JUMPDEST PUSH1 0x0 PUSH2 0x1FE5 DUP5 DUP3 DUP6 ADD PUSH2 0x1F6C JUMP JUMPDEST SWAP2 POP POP SWAP3 SWAP2 POP POP JUMP JUMPDEST PUSH1 0x0 DUP2 SWAP1 POP SWAP2 SWAP1 POP JUMP JUMPDEST PUSH1 0x0 PUSH2 0x2013 PUSH2 0x200E PUSH2 0x2009 DUP5 PUSH2 0x1EA0 JUMP JUMPDEST PUSH2 0x1FEE JUMP JUMPDEST PUSH2 0x1EA0 JUMP JUMPDEST SWAP1 POP SWAP2 SWAP1 POP JUMP JUMPDEST PUSH1 0x0 PUSH2 0x2025 DUP3 PUSH2 0x1FF8 JUMP JUMPDEST SWAP1 POP SWAP2 SWAP1 POP JUMP JUMPDEST PUSH1 0x0 PUSH2 0x2037 DUP3 PUSH2 0x201A JUMP JUMPDEST SWAP1 POP SWAP2 SWAP1 POP JUMP JUMPDEST PUSH2 0x2047 DUP2 PUSH2 0x202C JUMP JUMPDEST DUP3 MSTORE POP POP JUMP JUMPDEST PUSH1 0x0 PUSH1 0x20 DUP3 ADD SWAP1 POP PUSH2 0x2062 PUSH1 0x0 DUP4 ADD DUP5 PUSH2 0x203E JUMP JUMPDEST SWAP3 SWAP2 POP POP JUMP JUMPDEST PUSH1 0x0 DUP2 MLOAD SWAP1 POP SWAP2 SWAP1 POP JUMP JUMPDEST PUSH1 0x0 DUP3 DUP3 MSTORE PUSH1 0x20 DUP3 ADD SWAP1 POP SWAP3 SWAP2 POP POP JUMP JUMPDEST PUSH1 0x0 JUMPDEST DUP4 DUP2 LT ISZERO PUSH2 0x20A2 JUMPI DUP1 DUP3 ADD MLOAD DUP2 DUP5 ADD MSTORE PUSH1 0x20 DUP2 ADD SWAP1 POP PUSH2 0x2087 JUMP JUMPDEST PUSH1 0x0 DUP5 DUP5 ADD MSTORE POP POP POP POP JUMP JUMPDEST PUSH1 0x0 PUSH1 0x1F NOT PUSH1 0x1F DUP4 ADD AND SWAP1 POP SWAP2 SWAP1 POP JUMP JUMPDEST PUSH1 0x0 PUSH2 0x20CA DUP3 PUSH2 0x2068 JUMP JUMPDEST PUSH2 0x20D4 DUP2 DUP6 PUSH2 0x2073 JUMP JUMPDEST SWAP4 POP PUSH2 0x20E4 DUP2 DUP6 PUSH1 0x20 DUP7 ADD PUSH2 0x2084 JUMP JUMPDEST PUSH2 0x20ED DUP2 PUSH2 0x20AE JUMP JUMPDEST DUP5 ADD SWAP2 POP POP SWAP3 SWAP2 POP POP JUMP JUMPDEST PUSH1 0x0 PUSH1 0x80 DUP3 ADD SWAP1 POP DUP2 DUP2 SUB PUSH1 0x0 DUP4 ADD MSTORE PUSH2 0x2112 DUP2 DUP8 PUSH2 0x20BF JUMP JUMPDEST SWAP1 POP PUSH2 0x2121 PUSH1 0x20 DUP4 ADD DUP7 PUSH2 0x1DE9 JUMP JUMPDEST PUSH2 0x212E PUSH1 0x40 DUP4 ADD DUP6 PUSH2 0x1DE9 JUMP JUMPDEST PUSH2 0x213B PUSH1 0x60 DUP4 ADD DUP5 PUSH2 0x1DE9 JUMP JUMPDEST SWAP6 SWAP5 POP POP POP POP POP JUMP JUMPDEST PUSH1 0x0 PUSH2 0x214F DUP3 PUSH2 0x1EC0 JUMP JUMPDEST SWAP1 POP SWAP2 SWAP1 POP JUMP JUMPDEST PUSH2 0x215F DUP2 PUSH2 0x2144 JUMP JUMPDEST DUP2 EQ PUSH2 0x216A JUMPI PUSH1 0x0 DUP1 REVERT JUMPDEST POP JUMP JUMPDEST PUSH1 0x0 DUP2 CALLDATALOAD SWAP1 POP PUSH2 0x217C DUP2 PUSH2 0x2156 JUMP JUMPDEST SWAP3 SWAP2 POP POP JUMP JUMPDEST PUSH1 0x0 PUSH1 0x20 DUP3 DUP5 SUB SLT ISZERO PUSH2 0x2198 JUMPI PUSH2 0x2197 PUSH2 0x1D1F JUMP JUMPDEST JUMPDEST PUSH1 0x0 PUSH2 0x21A6 DUP5 DUP3 DUP6 ADD PUSH2 0x216D JUMP JUMPDEST SWAP2 POP POP SWAP3 SWAP2 POP POP JUMP JUMPDEST PUSH32 0x4E6F7420616C6C6F776564000000000000000000000000000000000000000000 PUSH1 0x0 DUP3 ADD MSTORE POP JUMP JUMPDEST PUSH1 0x0 PUSH2 0x21E5 PUSH1 0xB DUP4 PUSH2 0x2073 JUMP JUMPDEST SWAP2 POP PUSH2 0x21F0 DUP3 PUSH2 0x21AF JUMP JUMPDEST PUSH1 0x20 DUP3 ADD SWAP1 POP SWAP2 SWAP1 POP JUMP JUMPDEST PUSH1 0x0 PUSH1 0x20 DUP3 ADD SWAP1 POP DUP2 DUP2 SUB PUSH1 0x0 DUP4 ADD MSTORE PUSH2 0x2214 DUP2 PUSH2 0x21D8 JUMP JUMPDEST SWAP1 POP SWAP2 SWAP1 POP JUMP JUMPDEST PUSH1 0x0 PUSH1 0x40 DUP3 ADD SWAP1 POP PUSH2 0x2230 PUSH1 0x0 DUP4 ADD DUP6 PUSH2 0x1ED2 JUMP JUMPDEST PUSH2 0x223D PUSH1 0x20 DUP4 ADD DUP5 PUSH2 0x1DE9 JUMP JUMPDEST SWAP4 SWAP3 POP POP POP JUMP JUMPDEST PUSH2 0x224D DUP2 PUSH2 0x1DA9 JUMP JUMPDEST DUP2 EQ PUSH2 0x2258 JUMPI PUSH1 0x0 DUP1 REVERT JUMPDEST POP JUMP JUMPDEST PUSH1 0x0 DUP2 MLOAD SWAP1 POP PUSH2 0x226A DUP2 PUSH2 0x2244 JUMP JUMPDEST SWAP3 SWAP2 POP POP JUMP JUMPDEST PUSH1 0x0 PUSH1 0x20 DUP3 DUP5 SUB SLT ISZERO PUSH2 0x2286 JUMPI PUSH2 0x2285 PUSH2 0x1D1F JUMP JUMPDEST JUMPDEST PUSH1 0x0 PUSH2 0x2294 DUP5 DUP3 DUP6 ADD PUSH2 0x225B JUMP JUMPDEST SWAP2 POP POP SWAP3 SWAP2 POP POP JUMP JUMPDEST PUSH1 0x0 PUSH1 0x40 DUP3 ADD SWAP1 POP PUSH2 0x22B2 PUSH1 0x0 DUP4 ADD DUP6 PUSH2 0x1DE9 JUMP JUMPDEST PUSH2 0x22BF PUSH1 0x20 DUP4 ADD DUP5 PUSH2 0x1DE9 JUMP JUMPDEST SWAP4 SWAP3 POP POP POP JUMP JUMPDEST PUSH32 0x416363657373436F6E74726F6C3A2063616E206F6E6C792072656E6F756E6365 PUSH1 0x0 DUP3 ADD MSTORE PUSH32 0x20726F6C657320666F722073656C660000000000000000000000000000000000 PUSH1 0x20 DUP3 ADD MSTORE POP JUMP JUMPDEST PUSH1 0x0 PUSH2 0x2322 PUSH1 0x2F DUP4 PUSH2 0x2073 JUMP JUMPDEST SWAP2 POP PUSH2 0x232D DUP3 PUSH2 0x22C6 JUMP JUMPDEST PUSH1 0x40 DUP3 ADD SWAP1 POP SWAP2 SWAP1 POP JUMP JUMPDEST PUSH1 0x0 PUSH1 0x20 DUP3 ADD SWAP1 POP DUP2 DUP2 SUB PUSH1 0x0 DUP4 ADD MSTORE PUSH2 0x2351 DUP2 PUSH2 0x2315 JUMP JUMPDEST SWAP1 POP SWAP2 SWAP1 POP JUMP JUMPDEST PUSH32 0x4E487B7100000000000000000000000000000000000000000000000000000000 PUSH1 0x0 MSTORE PUSH1 0x41 PUSH1 0x4 MSTORE PUSH1 0x24 PUSH1 0x0 REVERT JUMPDEST PUSH32 0x4E487B7100000000000000000000000000000000000000000000000000000000 PUSH1 0x0 MSTORE PUSH1 0x22 PUSH1 0x4 MSTORE PUSH1 0x24 PUSH1 0x0 REVERT JUMPDEST PUSH1 0x0 PUSH1 0x2 DUP3 DIV SWAP1 POP PUSH1 0x1 DUP3 AND DUP1 PUSH2 0x23CE JUMPI PUSH1 0x7F DUP3 AND SWAP2 POP JUMPDEST PUSH1 0x20 DUP3 LT DUP2 SUB PUSH2 0x23E1 JUMPI PUSH2 0x23E0 PUSH2 0x2387 JUMP JUMPDEST JUMPDEST POP SWAP2 SWAP1 POP JUMP JUMPDEST PUSH1 0x0 DUP2 SWAP1 POP DUP2 PUSH1 0x0 MSTORE PUSH1 0x20 PUSH1 0x0 KECCAK256 SWAP1 POP SWAP2 SWAP1 POP JUMP JUMPDEST PUSH1 0x0 PUSH1 0x20 PUSH1 0x1F DUP4 ADD DIV SWAP1 POP SWAP2 SWAP1 POP JUMP JUMPDEST PUSH1 0x0 DUP3 DUP3 SHL SWAP1 POP SWAP3 SWAP2 POP POP JUMP JUMPDEST PUSH1 0x0 PUSH1 0x8 DUP4 MUL PUSH2 0x2449 PUSH32 0xFFFFFFFFFFFFFFFFFFFFFFFFFFFFFFFFFFFFFFFFFFFFFFFFFFFFFFFFFFFFFFFF DUP3 PUSH2 0x240C JUMP JUMPDEST PUSH2 0x2453 DUP7 DUP4 PUSH2 0x240C JUMP JUMPDEST SWAP6 POP DUP1 NOT DUP5 AND SWAP4 POP DUP1 DUP7 AND DUP5 OR SWAP3 POP POP POP SWAP4 SWAP3 POP POP POP JUMP JUMPDEST PUSH1 0x0 PUSH2 0x2486 PUSH2 0x2481 PUSH2 0x247C DUP5 PUSH2 0x1DDF JUMP JUMPDEST PUSH2 0x1FEE JUMP JUMPDEST PUSH2 0x1DDF JUMP JUMPDEST SWAP1 POP SWAP2 SWAP1 POP JUMP JUMPDEST PUSH1 0x0 DUP2 SWAP1 POP SWAP2 SWAP1 POP JUMP JUMPDEST PUSH2 0x24A0 DUP4 PUSH2 0x246B JUMP JUMPDEST PUSH2 0x24B4 PUSH2 0x24AC DUP3 PUSH2 0x248D JUMP JUMPDEST DUP5 DUP5 SLOAD PUSH2 0x2419 JUMP JUMPDEST DUP3 SSTORE POP POP POP POP JUMP JUMPDEST PUSH1 0x0 SWAP1 JUMP JUMPDEST PUSH2 0x24C9 PUSH2 0x24BC JUMP JUMPDEST PUSH2 0x24D4 DUP2 DUP5 DUP5 PUSH2 0x2497 JUMP JUMPDEST POP POP POP JUMP JUMPDEST JUMPDEST DUP2 DUP2 LT ISZERO PUSH2 0x24F8 JUMPI PUSH2 0x24ED PUSH1 0x0 DUP3 PUSH2 0x24C1 JUMP JUMPDEST PUSH1 0x1 DUP2 ADD SWAP1 POP PUSH2 0x24DA JUMP JUMPDEST POP POP JUMP JUMPDEST PUSH1 0x1F DUP3 GT ISZERO PUSH2 0x253D JUMPI PUSH2 0x250E DUP2 PUSH2 0x23E7 JUMP JUMPDEST PUSH2 0x2517 DUP5 PUSH2 0x23FC JUMP JUMPDEST DUP2 ADD PUSH1 0x20 DUP6 LT ISZERO PUSH2 0x2526 JUMPI DUP2 SWAP1 POP JUMPDEST PUSH2 0x253A PUSH2 0x2532 DUP6 PUSH2 0x23FC JUMP JUMPDEST DUP4 ADD DUP3 PUSH2 0x24D9 JUMP JUMPDEST POP POP JUMPDEST POP POP POP JUMP JUMPDEST PUSH1 0x0 DUP3 DUP3 SHR SWAP1 POP SWAP3 SWAP2 POP POP JUMP JUMPDEST PUSH1 0x0 PUSH2 0x2560 PUSH1 0x0 NOT DUP5 PUSH1 0x8 MUL PUSH2 0x2542 JUMP JUMPDEST NOT DUP1 DUP4 AND SWAP2 POP POP SWAP3 SWAP2 POP POP JUMP JUMPDEST PUSH1 0x0 PUSH2 0x2579 DUP4 DUP4 PUSH2 0x254F JUMP JUMPDEST SWAP2 POP DUP3 PUSH1 0x2 MUL DUP3 OR SWAP1 POP SWAP3 SWAP2 POP POP JUMP JUMPDEST PUSH2 0x2592 DUP3 PUSH2 0x2068 JUMP JUMPDEST PUSH8 0xFFFFFFFFFFFFFFFF DUP2 GT ISZERO PUSH2 0x25AB JUMPI PUSH2 0x25AA PUSH2 0x2358 JUMP JUMPDEST JUMPDEST PUSH2 0x25B5 DUP3 SLOAD PUSH2 0x23B6 JUMP JUMPDEST PUSH2 0x25C0 DUP3 DUP3 DUP6 PUSH2 0x24FC JUMP JUMPDEST PUSH1 0x0 PUSH1 0x20 SWAP1 POP PUSH1 0x1F DUP4 GT PUSH1 0x1 DUP2 EQ PUSH2 0x25F3 JUMPI PUSH1 0x0 DUP5 ISZERO PUSH2 0x25E1 JUMPI DUP3 DUP8 ADD MLOAD SWAP1 POP JUMPDEST PUSH2 0x25EB DUP6 DUP3 PUSH2 0x256D JUMP JUMPDEST DUP7 SSTORE POP PUSH2 0x2653 JUMP JUMPDEST PUSH1 0x1F NOT DUP5 AND PUSH2 0x2601 DUP7 PUSH2 0x23E7 JUMP JUMPDEST PUSH1 0x0 JUMPDEST DUP3 DUP2 LT ISZERO PUSH2 0x2629 JUMPI DUP5 DUP10 ADD MLOAD DUP3 SSTORE PUSH1 0x1 DUP3 ADD SWAP2 POP PUSH1 0x20 DUP6 ADD SWAP5 POP PUSH1 0x20 DUP2 ADD SWAP1 POP PUSH2 0x2604 JUMP JUMPDEST DUP7 DUP4 LT ISZERO PUSH2 0x2646 JUMPI DUP5 DUP10 ADD MLOAD PUSH2 0x2642 PUSH1 0x1F DUP10 AND DUP3 PUSH2 0x254F JUMP JUMPDEST DUP4 SSTORE POP JUMPDEST PUSH1 0x1 PUSH1 0x2 DUP9 MUL ADD DUP9 SSTORE POP POP POP JUMPDEST POP POP POP POP POP POP JUMP JUMPDEST PUSH32 0x4E487B7100000000000000000000000000000000000000000000000000000000 PUSH1 0x0 MSTORE PUSH1 0x11 PUSH1 0x4 MSTORE PUSH1 0x24 PUSH1 0x0 REVERT JUMPDEST PUSH1 0x0 PUSH2 0x2695 DUP3 PUSH2 0x1DDF JUMP JUMPDEST SWAP2 POP PUSH32 0xFFFFFFFFFFFFFFFFFFFFFFFFFFFFFFFFFFFFFFFFFFFFFFFFFFFFFFFFFFFFFFFF DUP3 SUB PUSH2 0x26C7 JUMPI PUSH2 0x26C6 PUSH2 0x265B JUMP JUMPDEST JUMPDEST PUSH1 0x1 DUP3 ADD SWAP1 POP SWAP2 SWAP1 POP JUMP JUMPDEST PUSH1 0x0 DUP2 MLOAD SWAP1 POP PUSH2 0x26E1 DUP2 PUSH2 0x1EFC JUMP JUMPDEST SWAP3 SWAP2 POP POP JUMP JUMPDEST PUSH1 0x0 PUSH1 0x20 DUP3 DUP5 SUB SLT ISZERO PUSH2 0x26FD JUMPI PUSH2 0x26FC PUSH2 0x1D1F JUMP JUMPDEST JUMPDEST PUSH1 0x0 PUSH2 0x270B DUP5 DUP3 DUP6 ADD PUSH2 0x26D2 JUMP JUMPDEST SWAP2 POP POP SWAP3 SWAP2 POP POP JUMP JUMPDEST PUSH32 0x4F776E61626C653A206E6577206F776E657220697320746865207A65726F2061 PUSH1 0x0 DUP3 ADD MSTORE PUSH32 0x6464726573730000000000000000000000000000000000000000000000000000 PUSH1 0x20 DUP3 ADD MSTORE POP JUMP JUMPDEST PUSH1 0x0 PUSH2 0x2770 PUSH1 0x26 DUP4 PUSH2 0x2073 JUMP JUMPDEST SWAP2 POP PUSH2 0x277B DUP3 PUSH2 0x2714 JUMP JUMPDEST PUSH1 0x40 DUP3 ADD SWAP1 POP SWAP2 SWAP1 POP JUMP JUMPDEST PUSH1 0x0 PUSH1 0x20 DUP3 ADD SWAP1 POP DUP2 DUP2 SUB PUSH1 0x0 DUP4 ADD MSTORE PUSH2 0x279F DUP2 PUSH2 0x2763 JUMP JUMPDEST SWAP1 POP SWAP2 SWAP1 POP JUMP JUMPDEST PUSH32 0x5265656E7472616E637947756172643A207265656E7472616E742063616C6C00 PUSH1 0x0 DUP3 ADD MSTORE POP JUMP JUMPDEST PUSH1 0x0 PUSH2 0x27DC PUSH1 0x1F DUP4 PUSH2 0x2073 JUMP JUMPDEST SWAP2 POP PUSH2 0x27E7 DUP3 PUSH2 0x27A6 JUMP JUMPDEST PUSH1 0x20 DUP3 ADD SWAP1 POP SWAP2 SWAP1 POP JUMP JUMPDEST PUSH1 0x0 PUSH1 0x20 DUP3 ADD SWAP1 POP DUP2 DUP2 SUB PUSH1 0x0 DUP4 ADD MSTORE PUSH2 0x280B DUP2 PUSH2 0x27CF JUMP JUMPDEST SWAP1 POP SWAP2 SWAP1 POP JUMP JUMPDEST PUSH32 0x4F776E61626C653A2063616C6C6572206973206E6F7420746865206F776E6572 PUSH1 0x0 DUP3 ADD MSTORE POP JUMP JUMPDEST PUSH1 0x0 PUSH2 0x2848 PUSH1 0x20 DUP4 PUSH2 0x2073 JUMP JUMPDEST SWAP2 POP PUSH2 0x2853 DUP3 PUSH2 0x2812 JUMP JUMPDEST PUSH1 0x20 DUP3 ADD SWAP1 POP SWAP2 SWAP1 POP JUMP JUMPDEST PUSH1 0x0 PUSH1 0x20 DUP3 ADD SWAP1 POP DUP2 DUP2 SUB PUSH1 0x0 DUP4 ADD MSTORE PUSH2 0x2877 DUP2 PUSH2 0x283B JUMP JUMPDEST SWAP1 POP SWAP2 SWAP1 POP JUMP JUMPDEST PUSH1 0x0 PUSH2 0x2889 DUP3 PUSH2 0x1DDF JUMP JUMPDEST SWAP2 POP PUSH2 0x2894 DUP4 PUSH2 0x1DDF JUMP JUMPDEST SWAP3 POP DUP3 DUP3 MUL PUSH2 0x28A2 DUP2 PUSH2 0x1DDF JUMP JUMPDEST SWAP2 POP DUP3 DUP3 DIV DUP5 EQ DUP4 ISZERO OR PUSH2 0x28B9 JUMPI PUSH2 0x28B8 PUSH2 0x265B JUMP JUMPDEST JUMPDEST POP SWAP3 SWAP2 POP POP JUMP JUMPDEST PUSH1 0x0 PUSH2 0x28CB DUP3 PUSH2 0x1DDF JUMP JUMPDEST SWAP2 POP PUSH2 0x28D6 DUP4 PUSH2 0x1DDF JUMP JUMPDEST SWAP3 POP DUP3 DUP3 ADD SWAP1 POP DUP1 DUP3 GT ISZERO PUSH2 0x28EE JUMPI PUSH2 0x28ED PUSH2 0x265B JUMP JUMPDEST JUMPDEST SWAP3 SWAP2 POP POP JUMP JUMPDEST PUSH32 0x4E487B7100000000000000000000000000000000000000000000000000000000 PUSH1 0x0 MSTORE PUSH1 0x12 PUSH1 0x4 MSTORE PUSH1 0x24 PUSH1 0x0 REVERT JUMPDEST PUSH1 0x0 PUSH2 0x292E DUP3 PUSH2 0x1DDF JUMP JUMPDEST SWAP2 POP PUSH2 0x2939 DUP4 PUSH2 0x1DDF JUMP JUMPDEST SWAP3 POP DUP3 PUSH2 0x2949 JUMPI PUSH2 0x2948 PUSH2 0x28F4 JUMP JUMPDEST JUMPDEST DUP3 DUP3 DIV SWAP1 POP SWAP3 SWAP2 POP POP JUMP JUMPDEST PUSH1 0x0 PUSH2 0x295F DUP3 PUSH2 0x1DDF JUMP JUMPDEST SWAP2 POP PUSH2 0x296A DUP4 PUSH2 0x1DDF JUMP JUMPDEST SWAP3 POP DUP3 DUP3 SUB SWAP1 POP DUP2 DUP2 GT ISZERO PUSH2 0x2982 JUMPI PUSH2 0x2981 PUSH2 0x265B JUMP JUMPDEST JUMPDEST SWAP3 SWAP2 POP POP JUMP JUMPDEST PUSH1 0x0 DUP2 SWAP1 POP SWAP3 SWAP2 POP POP JUMP JUMPDEST PUSH32 0x416363657373436F6E74726F6C3A206163636F756E7420000000000000000000 PUSH1 0x0 DUP3 ADD MSTORE POP JUMP JUMPDEST PUSH1 0x0 PUSH2 0x29C9 PUSH1 0x17 DUP4 PUSH2 0x2988 JUMP JUMPDEST SWAP2 POP PUSH2 0x29D4 DUP3 PUSH2 0x2993 JUMP JUMPDEST PUSH1 0x17 DUP3 ADD SWAP1 POP SWAP2 SWAP1 POP JUMP JUMPDEST PUSH1 0x0 PUSH2 0x29EA DUP3 PUSH2 0x2068 JUMP JUMPDEST PUSH2 0x29F4 DUP2 DUP6 PUSH2 0x2988 JUMP JUMPDEST SWAP4 POP PUSH2 0x2A04 DUP2 DUP6 PUSH1 0x20 DUP7 ADD PUSH2 0x2084 JUMP JUMPDEST DUP1 DUP5 ADD SWAP2 POP POP SWAP3 SWAP2 POP POP JUMP JUMPDEST PUSH32 0x206973206D697373696E6720726F6C6520000000000000000000000000000000 PUSH1 0x0 DUP3 ADD MSTORE POP JUMP JUMPDEST PUSH1 0x0 PUSH2 0x2A46 PUSH1 0x11 DUP4 PUSH2 0x2988 JUMP JUMPDEST SWAP2 POP PUSH2 0x2A51 DUP3 PUSH2 0x2A10 JUMP JUMPDEST PUSH1 0x11 DUP3 ADD SWAP1 POP SWAP2 SWAP1 POP JUMP JUMPDEST PUSH1 0x0 PUSH2 0x2A67 DUP3 PUSH2 0x29BC JUMP JUMPDEST SWAP2 POP PUSH2 0x2A73 DUP3 DUP6 PUSH2 0x29DF JUMP JUMPDEST SWAP2 POP PUSH2 0x2A7E DUP3 PUSH2 0x2A39 JUMP JUMPDEST SWAP2 POP PUSH2 0x2A8A DUP3 DUP5 PUSH2 0x29DF JUMP JUMPDEST SWAP2 POP DUP2 SWAP1 POP SWAP4 SWAP3 POP POP POP JUMP JUMPDEST PUSH1 0x0 PUSH1 0x20 DUP3 ADD SWAP1 POP DUP2 DUP2 SUB PUSH1 0x0 DUP4 ADD MSTORE PUSH2 0x2AB0 DUP2 DUP5 PUSH2 0x20BF JUMP JUMPDEST SWAP1 POP SWAP3 SWAP2 POP POP JUMP JUMPDEST PUSH32 0x4E487B7100000000000000000000000000000000000000000000000000000000 PUSH1 0x0 MSTORE PUSH1 0x32 PUSH1 0x4 MSTORE PUSH1 0x24 PUSH1 0x0 REVERT JUMPDEST PUSH1 0x0 PUSH2 0x2AF2 DUP3 PUSH2 0x1DDF JUMP JUMPDEST SWAP2 POP PUSH1 0x0 DUP3 SUB PUSH2 0x2B05 JUMPI PUSH2 0x2B04 PUSH2 0x265B JUMP JUMPDEST JUMPDEST PUSH1 0x1 DUP3 SUB SWAP1 POP SWAP2 SWAP1 POP JUMP JUMPDEST PUSH32 0x537472696E67733A20686578206C656E67746820696E73756666696369656E74 PUSH1 0x0 DUP3 ADD MSTORE POP JUMP JUMPDEST PUSH1 0x0 PUSH2 0x2B46 PUSH1 0x20 DUP4 PUSH2 0x2073 JUMP JUMPDEST SWAP2 POP PUSH2 0x2B51 DUP3 PUSH2 0x2B10 JUMP JUMPDEST PUSH1 0x20 DUP3 ADD SWAP1 POP SWAP2 SWAP1 POP JUMP JUMPDEST PUSH1 0x0 PUSH1 0x20 DUP3 ADD SWAP1 POP DUP2 DUP2 SUB PUSH1 0x0 DUP4 ADD MSTORE PUSH2 0x2B75 DUP2 PUSH2 0x2B39 JUMP JUMPDEST SWAP1 POP SWAP2 SWAP1 POP JUMP INVALID LOG2 PUSH5 0x6970667358 0x22 SLT KECCAK256 0xC9 EXTCODECOPY GAS 0xEC 0xA5 0x5D 0xF7 0x25 CODESIZE STOP DELEGATECALL PUSH10 0x4768A9AC1EE821212839 PUSH26 0x5A083AC42F56E1B2F264736F6C63430008120033000000000000 "
		},
		"gasEstimates": {
			"creation": {
				"codeDepositCost": "2237200",
				"executionCost": "infinite",
				"totalCost": "infinite"
			},
			"external": {
				"DEFAULT_ADMIN_ROLE()": "380",
				"GOVERN_ROLE()": "419",
				"_supplyChanges(uint256)": "infinite",
				"addColateralToken(address)": "100180",
				"datafeed()": "2582",
				"espeesupply()": "2518",
				"getRoleAdmin(bytes32)": "infinite",
				"grantRole(bytes32,address)": "infinite",
				"hasRole(bytes32,address)": "3207",
				"owner()": "2567",
				"renounceOwnership()": "30466",
				"renounceRole(bytes32,address)": "infinite",
				"reserveCount()": "2498",
				"revokeRole(bytes32,address)": "infinite",
				"rsvList(uint256)": "infinite",
				"setEspeeTokenPrice(uint256)": "infinite",
				"setReserveContract(address)": "56475",
				"setUSDSPSupply(uint256)": "24973",
				"stableColatAmount()": "2540",
				"stableColatPrice()": "2520",
				"supplyChangeCount()": "2475",
				"supportsInterface(bytes4)": "774",
				"transferOwnership(address)": "30854",
				"unstableColPrice()": "2540",
				"unstableColatAmount()": "2517",
				"usdspsupply()": "2518",
				"validatePeg()": "infinite",
				"withdraw(uint256)": "infinite",
				"withdrawN2dr(uint256)": "infinite"
			},
			"internal": {
				"colateralReBalancing()": "infinite"
			}
		},
		"methodIdentifiers": {
			"DEFAULT_ADMIN_ROLE()": "a217fddf",
			"GOVERN_ROLE()": "38b7f446",
			"_supplyChanges(uint256)": "a6ef79b4",
			"addColateralToken(address)": "e0e9349b",
			"datafeed()": "2dc47153",
			"espeesupply()": "c19bde3c",
			"getRoleAdmin(bytes32)": "248a9ca3",
			"grantRole(bytes32,address)": "2f2ff15d",
			"hasRole(bytes32,address)": "91d14854",
			"owner()": "8da5cb5b",
			"renounceOwnership()": "715018a6",
			"renounceRole(bytes32,address)": "36568abe",
			"reserveCount()": "16317c21",
			"revokeRole(bytes32,address)": "d547741f",
			"rsvList(uint256)": "669004f9",
			"setEspeeTokenPrice(uint256)": "92b59758",
			"setReserveContract(address)": "527a52c8",
			"setUSDSPSupply(uint256)": "db764eb3",
			"stableColatAmount()": "9588e614",
			"stableColatPrice()": "19cb170c",
			"supplyChangeCount()": "2f41ffd0",
			"supportsInterface(bytes4)": "01ffc9a7",
			"transferOwnership(address)": "f2fde38b",
			"unstableColPrice()": "5e6a4fb0",
			"unstableColatAmount()": "eceab5c5",
			"usdspsupply()": "58643550",
			"validatePeg()": "8a6e0169",
			"withdraw(uint256)": "2e1a7d4d",
			"withdrawN2dr(uint256)": "552769d0"
		}
	},
	"abi": [
		{
			"inputs": [
				{
					"internalType": "contract USDSP",
					"name": "_usdsp",
					"type": "address"
				},
				{
					"internalType": "contract ESPEE",
					"name": "_espee",
					"type": "address"
				}
			],
			"stateMutability": "nonpayable",
			"type": "constructor"
		},
		{
			"anonymous": false,
			"inputs": [
				{
					"indexed": true,
					"internalType": "address",
					"name": "previousOwner",
					"type": "address"
				},
				{
					"indexed": true,
					"internalType": "address",
					"name": "newOwner",
					"type": "address"
				}
			],
			"name": "OwnershipTransferred",
			"type": "event"
		},
		{
			"anonymous": false,
			"inputs": [
				{
					"indexed": false,
					"internalType": "uint256",
					"name": "time",
					"type": "uint256"
				},
				{
					"indexed": false,
					"internalType": "uint256",
					"name": "amount",
					"type": "uint256"
				}
			],
			"name": "RepegAction",
			"type": "event"
		},
		{
			"anonymous": false,
			"inputs": [
				{
					"indexed": true,
					"internalType": "bytes32",
					"name": "role",
					"type": "bytes32"
				},
				{
					"indexed": true,
					"internalType": "bytes32",
					"name": "previousAdminRole",
					"type": "bytes32"
				},
				{
					"indexed": true,
					"internalType": "bytes32",
					"name": "newAdminRole",
					"type": "bytes32"
				}
			],
			"name": "RoleAdminChanged",
			"type": "event"
		},
		{
			"anonymous": false,
			"inputs": [
				{
					"indexed": true,
					"internalType": "bytes32",
					"name": "role",
					"type": "bytes32"
				},
				{
					"indexed": true,
					"internalType": "address",
					"name": "account",
					"type": "address"
				},
				{
					"indexed": true,
					"internalType": "address",
					"name": "sender",
					"type": "address"
				}
			],
			"name": "RoleGranted",
			"type": "event"
		},
		{
			"anonymous": false,
			"inputs": [
				{
					"indexed": true,
					"internalType": "bytes32",
					"name": "role",
					"type": "bytes32"
				},
				{
					"indexed": true,
					"internalType": "address",
					"name": "account",
					"type": "address"
				},
				{
					"indexed": true,
					"internalType": "address",
					"name": "sender",
					"type": "address"
				}
			],
			"name": "RoleRevoked",
			"type": "event"
		},
		{
			"anonymous": false,
			"inputs": [
				{
					"indexed": false,
					"internalType": "uint256",
					"name": "time",
					"type": "uint256"
				},
				{
					"indexed": false,
					"internalType": "uint256",
					"name": "amount",
					"type": "uint256"
				}
			],
			"name": "Withdraw",
			"type": "event"
		},
		{
			"inputs": [],
			"name": "DEFAULT_ADMIN_ROLE",
			"outputs": [
				{
					"internalType": "bytes32",
					"name": "",
					"type": "bytes32"
				}
			],
			"stateMutability": "view",
			"type": "function"
		},
		{
			"inputs": [],
			"name": "GOVERN_ROLE",
			"outputs": [
				{
					"internalType": "bytes32",
					"name": "",
					"type": "bytes32"
				}
			],
			"stateMutability": "view",
			"type": "function"
		},
		{
			"inputs": [
				{
					"internalType": "uint256",
					"name": "",
					"type": "uint256"
				}
			],
			"name": "_supplyChanges",
			"outputs": [
				{
					"internalType": "string",
					"name": "method",
					"type": "string"
				},
				{
					"internalType": "uint256",
					"name": "amount",
					"type": "uint256"
				},
				{
					"internalType": "uint256",
					"name": "timestamp",
					"type": "uint256"
				},
				{
					"internalType": "uint256",
					"name": "blocknum",
					"type": "uint256"
				}
			],
			"stateMutability": "view",
			"type": "function"
		},
		{
			"inputs": [
				{
					"internalType": "contract IERC20",
					"name": "colcontract",
					"type": "address"
				}
			],
			"name": "addColateralToken",
			"outputs": [],
			"stateMutability": "nonpayable",
			"type": "function"
		},
		{
			"inputs": [],
			"name": "datafeed",
			"outputs": [
				{
					"internalType": "address",
					"name": "",
					"type": "address"
				}
			],
			"stateMutability": "view",
			"type": "function"
		},
		{
			"inputs": [],
			"name": "espeesupply",
			"outputs": [
				{
					"internalType": "uint256",
					"name": "",
					"type": "uint256"
				}
			],
			"stateMutability": "view",
			"type": "function"
		},
		{
			"inputs": [
				{
					"internalType": "bytes32",
					"name": "role",
					"type": "bytes32"
				}
			],
			"name": "getRoleAdmin",
			"outputs": [
				{
					"internalType": "bytes32",
					"name": "",
					"type": "bytes32"
				}
			],
			"stateMutability": "view",
			"type": "function"
		},
		{
			"inputs": [
				{
					"internalType": "bytes32",
					"name": "role",
					"type": "bytes32"
				},
				{
					"internalType": "address",
					"name": "account",
					"type": "address"
				}
			],
			"name": "grantRole",
			"outputs": [],
			"stateMutability": "nonpayable",
			"type": "function"
		},
		{
			"inputs": [
				{
					"internalType": "bytes32",
					"name": "role",
					"type": "bytes32"
				},
				{
					"internalType": "address",
					"name": "account",
					"type": "address"
				}
			],
			"name": "hasRole",
			"outputs": [
				{
					"internalType": "bool",
					"name": "",
					"type": "bool"
				}
			],
			"stateMutability": "view",
			"type": "function"
		},
		{
			"inputs": [],
			"name": "owner",
			"outputs": [
				{
					"internalType": "address",
					"name": "",
					"type": "address"
				}
			],
			"stateMutability": "view",
			"type": "function"
		},
		{
			"inputs": [],
			"name": "renounceOwnership",
			"outputs": [],
			"stateMutability": "nonpayable",
			"type": "function"
		},
		{
			"inputs": [
				{
					"internalType": "bytes32",
					"name": "role",
					"type": "bytes32"
				},
				{
					"internalType": "address",
					"name": "account",
					"type": "address"
				}
			],
			"name": "renounceRole",
			"outputs": [],
			"stateMutability": "nonpayable",
			"type": "function"
		},
		{
			"inputs": [],
			"name": "reserveCount",
			"outputs": [
				{
					"internalType": "uint256",
					"name": "",
					"type": "uint256"
				}
			],
			"stateMutability": "view",
			"type": "function"
		},
		{
			"inputs": [
				{
					"internalType": "bytes32",
					"name": "role",
					"type": "bytes32"
				},
				{
					"internalType": "address",
					"name": "account",
					"type": "address"
				}
			],
			"name": "revokeRole",
			"outputs": [],
			"stateMutability": "nonpayable",
			"type": "function"
		},
		{
			"inputs": [
				{
					"internalType": "uint256",
					"name": "",
					"type": "uint256"
				}
			],
			"name": "rsvList",
			"outputs": [
				{
					"internalType": "contract IERC20",
					"name": "colToken",
					"type": "address"
				}
			],
			"stateMutability": "view",
			"type": "function"
		},
		{
			"inputs": [
				{
					"internalType": "uint256",
					"name": "marketcap",
					"type": "uint256"
				}
			],
			"name": "setEspeeTokenPrice",
			"outputs": [],
			"stateMutability": "nonpayable",
			"type": "function"
		},
		{
			"inputs": [
				{
					"internalType": "address",
					"name": "reserve",
					"type": "address"
				}
			],
			"name": "setReserveContract",
			"outputs": [],
			"stateMutability": "nonpayable",
			"type": "function"
		},
		{
			"inputs": [
				{
					"internalType": "uint256",
					"name": "totalSupply",
					"type": "uint256"
				}
			],
			"name": "setUSDSPSupply",
			"outputs": [],
			"stateMutability": "nonpayable",
			"type": "function"
		},
		{
			"inputs": [],
			"name": "stableColatAmount",
			"outputs": [
				{
					"internalType": "uint256",
					"name": "",
					"type": "uint256"
				}
			],
			"stateMutability": "view",
			"type": "function"
		},
		{
			"inputs": [],
			"name": "stableColatPrice",
			"outputs": [
				{
					"internalType": "uint256",
					"name": "",
					"type": "uint256"
				}
			],
			"stateMutability": "view",
			"type": "function"
		},
		{
			"inputs": [],
			"name": "supplyChangeCount",
			"outputs": [
				{
					"internalType": "uint256",
					"name": "",
					"type": "uint256"
				}
			],
			"stateMutability": "view",
			"type": "function"
		},
		{
			"inputs": [
				{
					"internalType": "bytes4",
					"name": "interfaceId",
					"type": "bytes4"
				}
			],
			"name": "supportsInterface",
			"outputs": [
				{
					"internalType": "bool",
					"name": "",
					"type": "bool"
				}
			],
			"stateMutability": "view",
			"type": "function"
		},
		{
			"inputs": [
				{
					"internalType": "address",
					"name": "newOwner",
					"type": "address"
				}
			],
			"name": "transferOwnership",
			"outputs": [],
			"stateMutability": "nonpayable",
			"type": "function"
		},
		{
			"inputs": [],
			"name": "unstableColPrice",
			"outputs": [
				{
					"internalType": "uint256",
					"name": "",
					"type": "uint256"
				}
			],
			"stateMutability": "view",
			"type": "function"
		},
		{
			"inputs": [],
			"name": "unstableColatAmount",
			"outputs": [
				{
					"internalType": "uint256",
					"name": "",
					"type": "uint256"
				}
			],
			"stateMutability": "view",
			"type": "function"
		},
		{
			"inputs": [],
			"name": "usdspsupply",
			"outputs": [
				{
					"internalType": "uint256",
					"name": "",
					"type": "uint256"
				}
			],
			"stateMutability": "view",
			"type": "function"
		},
		{
			"inputs": [],
			"name": "validatePeg",
			"outputs": [],
			"stateMutability": "nonpayable",
			"type": "function"
		},
		{
			"inputs": [
				{
					"internalType": "uint256",
					"name": "_amount",
					"type": "uint256"
				}
			],
			"name": "withdraw",
			"outputs": [],
			"stateMutability": "nonpayable",
			"type": "function"
		},
		{
			"inputs": [
				{
					"internalType": "uint256",
					"name": "_amount",
					"type": "uint256"
				}
			],
			"name": "withdrawN2dr",
			"outputs": [],
			"stateMutability": "nonpayable",
			"type": "function"
		}
	]
}