{
	"tests/Reserves-collateral.sol": {
		"ESPEEReserves": {
			"abi": [
				{
					"inputs": [],
					"stateMutability": "nonpayable",
					"type": "constructor"
				},
				{
					"anonymous": false,
					"inputs": [
						{
							"indexed": true,
							"internalType": "uint256",
							"name": "vid",
							"type": "uint256"
						},
						{
							"indexed": false,
							"internalType": "uint256",
							"name": "amount",
							"type": "uint256"
						}
					],
					"name": "Deposit",
					"type": "event"
				},
				{
					"anonymous": false,
					"inputs": [
						{
							"indexed": true,
							"internalType": "address",
							"name": "previousOwner",
							"type": "address"
						},
						{
							"indexed": true,
							"internalType": "address",
							"name": "newOwner",
							"type": "address"
						}
					],
					"name": "OwnershipTransferred",
					"type": "event"
				},
				{
					"anonymous": false,
					"inputs": [
						{
							"indexed": true,
							"internalType": "bytes32",
							"name": "role",
							"type": "bytes32"
						},
						{
							"indexed": true,
							"internalType": "bytes32",
							"name": "previousAdminRole",
							"type": "bytes32"
						},
						{
							"indexed": true,
							"internalType": "bytes32",
							"name": "newAdminRole",
							"type": "bytes32"
						}
					],
					"name": "RoleAdminChanged",
					"type": "event"
				},
				{
					"anonymous": false,
					"inputs": [
						{
							"indexed": true,
							"internalType": "bytes32",
							"name": "role",
							"type": "bytes32"
						},
						{
							"indexed": true,
							"internalType": "address",
							"name": "account",
							"type": "address"
						},
						{
							"indexed": true,
							"internalType": "address",
							"name": "sender",
							"type": "address"
						}
					],
					"name": "RoleGranted",
					"type": "event"
				},
				{
					"anonymous": false,
					"inputs": [
						{
							"indexed": true,
							"internalType": "bytes32",
							"name": "role",
							"type": "bytes32"
						},
						{
							"indexed": true,
							"internalType": "address",
							"name": "account",
							"type": "address"
						},
						{
							"indexed": true,
							"internalType": "address",
							"name": "sender",
							"type": "address"
						}
					],
					"name": "RoleRevoked",
					"type": "event"
				},
				{
					"anonymous": false,
					"inputs": [
						{
							"indexed": true,
							"internalType": "uint256",
							"name": "vid",
							"type": "uint256"
						},
						{
							"indexed": false,
							"internalType": "uint256",
							"name": "amount",
							"type": "uint256"
						}
					],
					"name": "Withdraw",
					"type": "event"
				},
				{
					"inputs": [],
					"name": "DEFAULT_ADMIN_ROLE",
					"outputs": [
						{
							"internalType": "bytes32",
							"name": "",
							"type": "bytes32"
						}
					],
					"stateMutability": "view",
					"type": "function"
				},
				{
					"inputs": [],
					"name": "MANAGER_ROLE",
					"outputs": [
						{
							"internalType": "bytes32",
							"name": "",
							"type": "bytes32"
						}
					],
					"stateMutability": "view",
					"type": "function"
				},
				{
					"inputs": [
						{
							"internalType": "uint256",
							"name": "",
							"type": "uint256"
						}
					],
					"name": "_rsvVault",
					"outputs": [
						{
							"internalType": "contract IERC20",
							"name": "collateral",
							"type": "address"
						},
						{
							"internalType": "uint256",
							"name": "amount",
							"type": "uint256"
						}
					],
					"stateMutability": "view",
					"type": "function"
				},
				{
					"inputs": [
						{
							"internalType": "contract IERC20",
							"name": "_collateral",
							"type": "address"
						}
					],
					"name": "addReserveVault",
					"outputs": [],
					"stateMutability": "nonpayable",
					"type": "function"
				},
				{
					"inputs": [],
					"name": "currentReserveId",
					"outputs": [
						{
							"internalType": "uint256",
							"name": "",
							"type": "uint256"
						}
					],
					"stateMutability": "view",
					"type": "function"
				},
				{
					"inputs": [
						{
							"internalType": "uint256",
							"name": "vid",
							"type": "uint256"
						},
						{
							"internalType": "uint256",
							"name": "amount",
							"type": "uint256"
						}
					],
					"name": "depositCollateral",
					"outputs": [],
					"stateMutability": "nonpayable",
					"type": "function"
				},
				{
					"inputs": [
						{
							"internalType": "bytes32",
							"name": "role",
							"type": "bytes32"
						}
					],
					"name": "getRoleAdmin",
					"outputs": [
						{
							"internalType": "bytes32",
							"name": "",
							"type": "bytes32"
						}
					],
					"stateMutability": "view",
					"type": "function"
				},
				{
					"inputs": [
						{
							"internalType": "bytes32",
							"name": "role",
							"type": "bytes32"
						},
						{
							"internalType": "address",
							"name": "account",
							"type": "address"
						}
					],
					"name": "grantRole",
					"outputs": [],
					"stateMutability": "nonpayable",
					"type": "function"
				},
				{
					"inputs": [
						{
							"internalType": "bytes32",
							"name": "role",
							"type": "bytes32"
						},
						{
							"internalType": "address",
							"name": "account",
							"type": "address"
						}
					],
					"name": "hasRole",
					"outputs": [
						{
							"internalType": "bool",
							"name": "",
							"type": "bool"
						}
					],
					"stateMutability": "view",
					"type": "function"
				},
				{
					"inputs": [],
					"name": "owner",
					"outputs": [
						{
							"internalType": "address",
							"name": "",
							"type": "address"
						}
					],
					"stateMutability": "view",
					"type": "function"
				},
				{
					"inputs": [],
					"name": "renounceOwnership",
					"outputs": [],
					"stateMutability": "nonpayable",
					"type": "function"
				},
				{
					"inputs": [
						{
							"internalType": "bytes32",
							"name": "role",
							"type": "bytes32"
						},
						{
							"internalType": "address",
							"name": "account",
							"type": "address"
						}
					],
					"name": "renounceRole",
					"outputs": [],
					"stateMutability": "nonpayable",
					"type": "function"
				},
				{
					"inputs": [
						{
							"internalType": "bytes32",
							"name": "role",
							"type": "bytes32"
						},
						{
							"internalType": "address",
							"name": "account",
							"type": "address"
						}
					],
					"name": "revokeRole",
					"outputs": [],
					"stateMutability": "nonpayable",
					"type": "function"
				},
				{
					"inputs": [
						{
							"internalType": "bytes4",
							"name": "interfaceId",
							"type": "bytes4"
						}
					],
					"name": "supportsInterface",
					"outputs": [
						{
							"internalType": "bool",
							"name": "",
							"type": "bool"
						}
					],
					"stateMutability": "view",
					"type": "function"
				},
				{
					"inputs": [
						{
							"internalType": "address",
							"name": "newOwner",
							"type": "address"
						}
					],
					"name": "transferOwnership",
					"outputs": [],
					"stateMutability": "nonpayable",
					"type": "function"
				},
				{
					"inputs": [
						{
							"internalType": "uint256",
							"name": "vid",
							"type": "uint256"
						},
						{
							"internalType": "uint256",
							"name": "amount",
							"type": "uint256"
						}
					],
					"name": "withdrawCollateral",
					"outputs": [],
					"stateMutability": "nonpayable",
					"type": "function"
				}
			],
			"devdoc": {
				"kind": "dev",
				"methods": {
					"getRoleAdmin(bytes32)": {
						"details": "Returns the admin role that controls `role`. See {grantRole} and {revokeRole}. To change a role's admin, use {_setRoleAdmin}."
					},
					"grantRole(bytes32,address)": {
						"details": "Grants `role` to `account`. If `account` had not been already granted `role`, emits a {RoleGranted} event. Requirements: - the caller must have ``role``'s admin role. May emit a {RoleGranted} event."
					},
					"hasRole(bytes32,address)": {
						"details": "Returns `true` if `account` has been granted `role`."
					},
					"owner()": {
						"details": "Returns the address of the current owner."
					},
					"renounceOwnership()": {
						"details": "Leaves the contract without owner. It will not be possible to call `onlyOwner` functions. Can only be called by the current owner. NOTE: Renouncing ownership will leave the contract without an owner, thereby disabling any functionality that is only available to the owner."
					},
					"renounceRole(bytes32,address)": {
						"details": "Revokes `role` from the calling account. Roles are often managed via {grantRole} and {revokeRole}: this function's purpose is to provide a mechanism for accounts to lose their privileges if they are compromised (such as when a trusted device is misplaced). If the calling account had been revoked `role`, emits a {RoleRevoked} event. Requirements: - the caller must be `account`. May emit a {RoleRevoked} event."
					},
					"revokeRole(bytes32,address)": {
						"details": "Revokes `role` from `account`. If `account` had been granted `role`, emits a {RoleRevoked} event. Requirements: - the caller must have ``role``'s admin role. May emit a {RoleRevoked} event."
					},
					"supportsInterface(bytes4)": {
						"details": "See {IERC165-supportsInterface}."
					},
					"transferOwnership(address)": {
						"details": "Transfers ownership of the contract to a new account (`newOwner`). Can only be called by the current owner."
					}
				},
				"version": 1
			},
			"evm": {
				"assembly": "    /* \"tests/Reserves-collateral.sol\":427:2488  contract ESPEEReserves is Ownable, ReentrancyGuard, AccessControl {... */\n  mstore(0x40, 0x80)\n    /* \"tests/Reserves-collateral.sol\":929:1052  constructor() {... */\n  callvalue\n  dup1\n  iszero\n  tag_1\n  jumpi\n  0x00\n  dup1\n  revert\ntag_1:\n  pop\n    /* \"@openzeppelin/contracts/access/Ownable.sol\":936:968  _transferOwnership(_msgSender()) */\n  tag_6\n    /* \"@openzeppelin/contracts/access/Ownable.sol\":955:967  _msgSender() */\n  tag_7\n    /* \"@openzeppelin/contracts/access/Ownable.sol\":955:965  _msgSender */\n  shl(0x20, tag_8)\n    /* \"@openzeppelin/contracts/access/Ownable.sol\":955:967  _msgSender() */\n  0x20\n  shr\n  jump\t// in\ntag_7:\n    /* \"@openzeppelin/contracts/access/Ownable.sol\":936:954  _transferOwnership */\n  shl(0x20, tag_9)\n    /* \"@openzeppelin/contracts/access/Ownable.sol\":936:968  _transferOwnership(_msgSender()) */\n  0x20\n  shr\n  jump\t// in\ntag_6:\n    /* \"@openzeppelin/contracts/security/ReentrancyGuard.sol\":1716:1717  1 */\n  0x01\n    /* \"@openzeppelin/contracts/security/ReentrancyGuard.sol\":1821:1828  _status */\n  dup1\n    /* \"@openzeppelin/contracts/security/ReentrancyGuard.sol\":1821:1843  _status = _NOT_ENTERED */\n  dup2\n  swap1\n  sstore\n  pop\n    /* \"tests/Reserves-collateral.sol\":953:997  _setupRole(DEFAULT_ADMIN_ROLE, _msgSender()) */\n  tag_12\n    /* \"@openzeppelin/contracts/access/AccessControl.sol\":2198:2202  0x00 */\n  0x00\n    /* \"tests/Reserves-collateral.sol\":964:982  DEFAULT_ADMIN_ROLE */\n  dup1\n  shl\n    /* \"tests/Reserves-collateral.sol\":984:996  _msgSender() */\n  tag_13\n    /* \"tests/Reserves-collateral.sol\":984:994  _msgSender */\n  shl(0x20, tag_8)\n    /* \"tests/Reserves-collateral.sol\":984:996  _msgSender() */\n  0x20\n  shr\n  jump\t// in\ntag_13:\n    /* \"tests/Reserves-collateral.sol\":953:963  _setupRole */\n  shl(0x20, tag_14)\n    /* \"tests/Reserves-collateral.sol\":953:997  _setupRole(DEFAULT_ADMIN_ROLE, _msgSender()) */\n  0x20\n  shr\n  jump\t// in\ntag_12:\n    /* \"tests/Reserves-collateral.sol\":1007:1045  _setupRole(MANAGER_ROLE, _msgSender()) */\n  tag_15\n    /* \"tests/Reserves-collateral.sol\":897:922  keccak256(\"MANAGER_ROLE\") */\n  0x241ecf16d79d0f8dbfb92cbc07fe17840425976cf0667f022fe9877caa831b08\n    /* \"tests/Reserves-collateral.sol\":1032:1044  _msgSender() */\n  tag_16\n    /* \"tests/Reserves-collateral.sol\":1032:1042  _msgSender */\n  shl(0x20, tag_8)\n    /* \"tests/Reserves-collateral.sol\":1032:1044  _msgSender() */\n  0x20\n  shr\n  jump\t// in\ntag_16:\n    /* \"tests/Reserves-collateral.sol\":1007:1017  _setupRole */\n  shl(0x20, tag_14)\n    /* \"tests/Reserves-collateral.sol\":1007:1045  _setupRole(MANAGER_ROLE, _msgSender()) */\n  0x20\n  shr\n  jump\t// in\ntag_15:\n    /* \"tests/Reserves-collateral.sol\":427:2488  contract ESPEEReserves is Ownable, ReentrancyGuard, AccessControl {... */\n  jump(tag_17)\n    /* \"@openzeppelin/contracts/utils/Context.sol\":640:736  function _msgSender() internal view virtual returns (address) {... */\ntag_8:\n    /* \"@openzeppelin/contracts/utils/Context.sol\":693:700  address */\n  0x00\n    /* \"@openzeppelin/contracts/utils/Context.sol\":719:729  msg.sender */\n  caller\n    /* \"@openzeppelin/contracts/utils/Context.sol\":712:729  return msg.sender */\n  swap1\n  pop\n    /* \"@openzeppelin/contracts/utils/Context.sol\":640:736  function _msgSender() internal view virtual returns (address) {... */\n  swap1\n  jump\t// out\n    /* \"@openzeppelin/contracts/access/Ownable.sol\":2426:2613  function _transferOwnership(address newOwner) internal virtual {... */\ntag_9:\n    /* \"@openzeppelin/contracts/access/Ownable.sol\":2499:2515  address oldOwner */\n  0x00\n    /* \"@openzeppelin/contracts/access/Ownable.sol\":2518:2524  _owner */\n  dup1\n  0x00\n  swap1\n  sload\n  swap1\n  0x0100\n  exp\n  swap1\n  div\n  0xffffffffffffffffffffffffffffffffffffffff\n  and\n    /* \"@openzeppelin/contracts/access/Ownable.sol\":2499:2524  address oldOwner = _owner */\n  swap1\n  pop\n    /* \"@openzeppelin/contracts/access/Ownable.sol\":2543:2551  newOwner */\n  dup2\n    /* \"@openzeppelin/contracts/access/Ownable.sol\":2534:2540  _owner */\n  0x00\n  dup1\n    /* \"@openzeppelin/contracts/access/Ownable.sol\":2534:2551  _owner = newOwner */\n  0x0100\n  exp\n  dup2\n  sload\n  dup2\n  0xffffffffffffffffffffffffffffffffffffffff\n  mul\n  not\n  and\n  swap1\n  dup4\n  0xffffffffffffffffffffffffffffffffffffffff\n  and\n  mul\n  or\n  swap1\n  sstore\n  pop\n    /* \"@openzeppelin/contracts/access/Ownable.sol\":2597:2605  newOwner */\n  dup2\n    /* \"@openzeppelin/contracts/access/Ownable.sol\":2566:2606  OwnershipTransferred(oldOwner, newOwner) */\n  0xffffffffffffffffffffffffffffffffffffffff\n  and\n    /* \"@openzeppelin/contracts/access/Ownable.sol\":2587:2595  oldOwner */\n  dup2\n    /* \"@openzeppelin/contracts/access/Ownable.sol\":2566:2606  OwnershipTransferred(oldOwner, newOwner) */\n  0xffffffffffffffffffffffffffffffffffffffff\n  and\n  0x8be0079c531659141344cd1fd0a4f28419497f9722a3daafe3b4186f6b6457e0\n  mload(0x40)\n  mload(0x40)\n  dup1\n  swap2\n  sub\n  swap1\n  log3\n    /* \"@openzeppelin/contracts/access/Ownable.sol\":2489:2613  {... */\n  pop\n    /* \"@openzeppelin/contracts/access/Ownable.sol\":2426:2613  function _transferOwnership(address newOwner) internal virtual {... */\n  pop\n  jump\t// out\n    /* \"@openzeppelin/contracts/access/AccessControl.sol\":6937:7047  function _setupRole(bytes32 role, address account) internal virtual {... */\ntag_14:\n    /* \"@openzeppelin/contracts/access/AccessControl.sol\":7015:7040  _grantRole(role, account) */\n  tag_21\n    /* \"@openzeppelin/contracts/access/AccessControl.sol\":7026:7030  role */\n  dup3\n    /* \"@openzeppelin/contracts/access/AccessControl.sol\":7032:7039  account */\n  dup3\n    /* \"@openzeppelin/contracts/access/AccessControl.sol\":7015:7025  _grantRole */\n  shl(0x20, tag_22)\n    /* \"@openzeppelin/contracts/access/AccessControl.sol\":7015:7040  _grantRole(role, account) */\n  0x20\n  shr\n  jump\t// in\ntag_21:\n    /* \"@openzeppelin/contracts/access/AccessControl.sol\":6937:7047  function _setupRole(bytes32 role, address account) internal virtual {... */\n  pop\n  pop\n  jump\t// out\n    /* \"@openzeppelin/contracts/access/AccessControl.sol\":7587:7820  function _grantRole(bytes32 role, address account) internal virtual {... */\ntag_22:\n    /* \"@openzeppelin/contracts/access/AccessControl.sol\":7670:7692  hasRole(role, account) */\n  tag_24\n    /* \"@openzeppelin/contracts/access/AccessControl.sol\":7678:7682  role */\n  dup3\n    /* \"@openzeppelin/contracts/access/AccessControl.sol\":7684:7691  account */\n  dup3\n    /* \"@openzeppelin/contracts/access/AccessControl.sol\":7670:7677  hasRole */\n  shl(0x20, tag_25)\n    /* \"@openzeppelin/contracts/access/AccessControl.sol\":7670:7692  hasRole(role, account) */\n  0x20\n  shr\n  jump\t// in\ntag_24:\n    /* \"@openzeppelin/contracts/access/AccessControl.sol\":7665:7814  if (!hasRole(role, account)) {... */\n  tag_26\n  jumpi\n    /* \"@openzeppelin/contracts/access/AccessControl.sol\":7740:7744  true */\n  0x01\n    /* \"@openzeppelin/contracts/access/AccessControl.sol\":7708:7714  _roles */\n  0x02\n    /* \"@openzeppelin/contracts/access/AccessControl.sol\":7708:7720  _roles[role] */\n  0x00\n    /* \"@openzeppelin/contracts/access/AccessControl.sol\":7715:7719  role */\n  dup5\n    /* \"@openzeppelin/contracts/access/AccessControl.sol\":7708:7720  _roles[role] */\n  dup2\n  mstore\n  0x20\n  add\n  swap1\n  dup2\n  mstore\n  0x20\n  add\n  0x00\n  keccak256\n    /* \"@openzeppelin/contracts/access/AccessControl.sol\":7708:7728  _roles[role].members */\n  0x00\n  add\n    /* \"@openzeppelin/contracts/access/AccessControl.sol\":7708:7737  _roles[role].members[account] */\n  0x00\n    /* \"@openzeppelin/contracts/access/AccessControl.sol\":7729:7736  account */\n  dup4\n    /* \"@openzeppelin/contracts/access/AccessControl.sol\":7708:7737  _roles[role].members[account] */\n  0xffffffffffffffffffffffffffffffffffffffff\n  and\n  0xffffffffffffffffffffffffffffffffffffffff\n  and\n  dup2\n  mstore\n  0x20\n  add\n  swap1\n  dup2\n  mstore\n  0x20\n  add\n  0x00\n  keccak256\n  0x00\n    /* \"@openzeppelin/contracts/access/AccessControl.sol\":7708:7744  _roles[role].members[account] = true */\n  0x0100\n  exp\n  dup2\n  sload\n  dup2\n  0xff\n  mul\n  not\n  and\n  swap1\n  dup4\n  iszero\n  iszero\n  mul\n  or\n  swap1\n  sstore\n  pop\n    /* \"@openzeppelin/contracts/access/AccessControl.sol\":7790:7802  _msgSender() */\n  tag_27\n    /* \"@openzeppelin/contracts/access/AccessControl.sol\":7790:7800  _msgSender */\n  shl(0x20, tag_8)\n    /* \"@openzeppelin/contracts/access/AccessControl.sol\":7790:7802  _msgSender() */\n  0x20\n  shr\n  jump\t// in\ntag_27:\n    /* \"@openzeppelin/contracts/access/AccessControl.sol\":7763:7803  RoleGranted(role, account, _msgSender()) */\n  0xffffffffffffffffffffffffffffffffffffffff\n  and\n    /* \"@openzeppelin/contracts/access/AccessControl.sol\":7781:7788  account */\n  dup2\n    /* \"@openzeppelin/contracts/access/AccessControl.sol\":7763:7803  RoleGranted(role, account, _msgSender()) */\n  0xffffffffffffffffffffffffffffffffffffffff\n  and\n    /* \"@openzeppelin/contracts/access/AccessControl.sol\":7775:7779  role */\n  dup4\n    /* \"@openzeppelin/contracts/access/AccessControl.sol\":7763:7803  RoleGranted(role, account, _msgSender()) */\n  0x2f8788117e7eff1d82e926ec794901d17c78024a50270940304540a733656f0d\n  mload(0x40)\n  mload(0x40)\n  dup1\n  swap2\n  sub\n  swap1\n  log4\n    /* \"@openzeppelin/contracts/access/AccessControl.sol\":7665:7814  if (!hasRole(role, account)) {... */\ntag_26:\n    /* \"@openzeppelin/contracts/access/AccessControl.sol\":7587:7820  function _grantRole(bytes32 role, address account) internal virtual {... */\n  pop\n  pop\n  jump\t// out\n    /* \"@openzeppelin/contracts/access/AccessControl.sol\":3021:3166  function hasRole(bytes32 role, address account) public view virtual override returns (bool) {... */\ntag_25:\n    /* \"@openzeppelin/contracts/access/AccessControl.sol\":3107:3111  bool */\n  0x00\n    /* \"@openzeppelin/contracts/access/AccessControl.sol\":3130:3136  _roles */\n  0x02\n    /* \"@openzeppelin/contracts/access/AccessControl.sol\":3130:3142  _roles[role] */\n  0x00\n    /* \"@openzeppelin/contracts/access/AccessControl.sol\":3137:3141  role */\n  dup5\n    /* \"@openzeppelin/contracts/access/AccessControl.sol\":3130:3142  _roles[role] */\n  dup2\n  mstore\n  0x20\n  add\n  swap1\n  dup2\n  mstore\n  0x20\n  add\n  0x00\n  keccak256\n    /* \"@openzeppelin/contracts/access/AccessControl.sol\":3130:3150  _roles[role].members */\n  0x00\n  add\n    /* \"@openzeppelin/contracts/access/AccessControl.sol\":3130:3159  _roles[role].members[account] */\n  0x00\n    /* \"@openzeppelin/contracts/access/AccessControl.sol\":3151:3158  account */\n  dup4\n    /* \"@openzeppelin/contracts/access/AccessControl.sol\":3130:3159  _roles[role].members[account] */\n  0xffffffffffffffffffffffffffffffffffffffff\n  and\n  0xffffffffffffffffffffffffffffffffffffffff\n  and\n  dup2\n  mstore\n  0x20\n  add\n  swap1\n  dup2\n  mstore\n  0x20\n  add\n  0x00\n  keccak256\n  0x00\n  swap1\n  sload\n  swap1\n  0x0100\n  exp\n  swap1\n  div\n  0xff\n  and\n    /* \"@openzeppelin/contracts/access/AccessControl.sol\":3123:3159  return _roles[role].members[account] */\n  swap1\n  pop\n    /* \"@openzeppelin/contracts/access/AccessControl.sol\":3021:3166  function hasRole(bytes32 role, address account) public view virtual override returns (bool) {... */\n  swap3\n  swap2\n  pop\n  pop\n  jump\t// out\n    /* \"tests/Reserves-collateral.sol\":427:2488  contract ESPEEReserves is Ownable, ReentrancyGuard, AccessControl {... */\ntag_17:\n  dataSize(sub_0)\n  dup1\n  dataOffset(sub_0)\n  0x00\n  codecopy\n  0x00\n  return\nstop\n\nsub_0: assembly {\n        /* \"tests/Reserves-collateral.sol\":427:2488  contract ESPEEReserves is Ownable, ReentrancyGuard, AccessControl {... */\n      mstore(0x40, 0x80)\n      callvalue\n      dup1\n      iszero\n      tag_1\n      jumpi\n      0x00\n      dup1\n      revert\n    tag_1:\n      pop\n      jumpi(tag_2, lt(calldatasize, 0x04))\n      shr(0xe0, calldataload(0x00))\n      dup1\n      0x767a7b05\n      gt\n      tag_19\n      jumpi\n      dup1\n      0xd547741f\n      gt\n      tag_20\n      jumpi\n      dup1\n      0xd547741f\n      eq\n      tag_15\n      jumpi\n      dup1\n      0xec87621c\n      eq\n      tag_16\n      jumpi\n      dup1\n      0xece13732\n      eq\n      tag_17\n      jumpi\n      dup1\n      0xf2fde38b\n      eq\n      tag_18\n      jumpi\n      jump(tag_2)\n    tag_20:\n      dup1\n      0x767a7b05\n      eq\n      tag_11\n      jumpi\n      dup1\n      0x8da5cb5b\n      eq\n      tag_12\n      jumpi\n      dup1\n      0x91d14854\n      eq\n      tag_13\n      jumpi\n      dup1\n      0xa217fddf\n      eq\n      tag_14\n      jumpi\n      jump(tag_2)\n    tag_19:\n      dup1\n      0x36568abe\n      gt\n      tag_21\n      jumpi\n      dup1\n      0x36568abe\n      eq\n      tag_7\n      jumpi\n      dup1\n      0x3b61f098\n      eq\n      tag_8\n      jumpi\n      dup1\n      0x5306f102\n      eq\n      tag_9\n      jumpi\n      dup1\n      0x715018a6\n      eq\n      tag_10\n      jumpi\n      jump(tag_2)\n    tag_21:\n      dup1\n      0x01ffc9a7\n      eq\n      tag_3\n      jumpi\n      dup1\n      0x248a9ca3\n      eq\n      tag_4\n      jumpi\n      dup1\n      0x279ba28d\n      eq\n      tag_5\n      jumpi\n      dup1\n      0x2f2ff15d\n      eq\n      tag_6\n      jumpi\n    tag_2:\n      0x00\n      dup1\n      revert\n        /* \"@openzeppelin/contracts/access/AccessControl.sol\":2732:2934  function supportsInterface(bytes4 interfaceId) public view virtual override returns (bool) {... */\n    tag_3:\n      tag_22\n      0x04\n      dup1\n      calldatasize\n      sub\n      dup2\n      add\n      swap1\n      tag_23\n      swap2\n      swap1\n      tag_24\n      jump\t// in\n    tag_23:\n      tag_25\n      jump\t// in\n    tag_22:\n      mload(0x40)\n      tag_26\n      swap2\n      swap1\n      tag_27\n      jump\t// in\n    tag_26:\n      mload(0x40)\n      dup1\n      swap2\n      sub\n      swap1\n      return\n        /* \"@openzeppelin/contracts/access/AccessControl.sol\":4504:4633  function getRoleAdmin(bytes32 role) public view virtual override returns (bytes32) {... */\n    tag_4:\n      tag_28\n      0x04\n      dup1\n      calldatasize\n      sub\n      dup2\n      add\n      swap1\n      tag_29\n      swap2\n      swap1\n      tag_30\n      jump\t// in\n    tag_29:\n      tag_31\n      jump\t// in\n    tag_28:\n      mload(0x40)\n      tag_32\n      swap2\n      swap1\n      tag_33\n      jump\t// in\n    tag_32:\n      mload(0x40)\n      dup1\n      swap2\n      sub\n      swap1\n      return\n        /* \"tests/Reserves-collateral.sol\":686:735  mapping(uint256 => ReserveVault) public _rsvVault */\n    tag_5:\n      tag_34\n      0x04\n      dup1\n      calldatasize\n      sub\n      dup2\n      add\n      swap1\n      tag_35\n      swap2\n      swap1\n      tag_36\n      jump\t// in\n    tag_35:\n      tag_37\n      jump\t// in\n    tag_34:\n      mload(0x40)\n      tag_38\n      swap3\n      swap2\n      swap1\n      tag_39\n      jump\t// in\n    tag_38:\n      mload(0x40)\n      dup1\n      swap2\n      sub\n      swap1\n      return\n        /* \"@openzeppelin/contracts/access/AccessControl.sol\":4929:5074  function grantRole(bytes32 role, address account) public virtual override onlyRole(getRoleAdmin(role)) {... */\n    tag_6:\n      tag_40\n      0x04\n      dup1\n      calldatasize\n      sub\n      dup2\n      add\n      swap1\n      tag_41\n      swap2\n      swap1\n      tag_42\n      jump\t// in\n    tag_41:\n      tag_43\n      jump\t// in\n    tag_40:\n      stop\n        /* \"@openzeppelin/contracts/access/AccessControl.sol\":6038:6252  function renounceRole(bytes32 role, address account) public virtual override {... */\n    tag_7:\n      tag_44\n      0x04\n      dup1\n      calldatasize\n      sub\n      dup2\n      add\n      swap1\n      tag_45\n      swap2\n      swap1\n      tag_42\n      jump\t// in\n    tag_45:\n      tag_46\n      jump\t// in\n    tag_44:\n      stop\n        /* \"tests/Reserves-collateral.sol\":1293:1556  function addReserveVault(IERC20 _collateral) external {... */\n    tag_8:\n      tag_47\n      0x04\n      dup1\n      calldatasize\n      sub\n      dup2\n      add\n      swap1\n      tag_48\n      swap2\n      swap1\n      tag_49\n      jump\t// in\n    tag_48:\n      tag_50\n      jump\t// in\n    tag_47:\n      stop\n        /* \"tests/Reserves-collateral.sol\":564:595  uint256 public currentReserveId */\n    tag_9:\n      tag_51\n      tag_52\n      jump\t// in\n    tag_51:\n      mload(0x40)\n      tag_53\n      swap2\n      swap1\n      tag_54\n      jump\t// in\n    tag_53:\n      mload(0x40)\n      dup1\n      swap2\n      sub\n      swap1\n      return\n        /* \"@openzeppelin/contracts/access/Ownable.sol\":1824:1925  function renounceOwnership() public virtual onlyOwner {... */\n    tag_10:\n      tag_55\n      tag_56\n      jump\t// in\n    tag_55:\n      stop\n        /* \"tests/Reserves-collateral.sol\":2002:2486  function withdrawCollateral(uint256 vid, uint256 amount) external {... */\n    tag_11:\n      tag_57\n      0x04\n      dup1\n      calldatasize\n      sub\n      dup2\n      add\n      swap1\n      tag_58\n      swap2\n      swap1\n      tag_59\n      jump\t// in\n    tag_58:\n      tag_60\n      jump\t// in\n    tag_57:\n      stop\n        /* \"@openzeppelin/contracts/access/Ownable.sol\":1201:1286  function owner() public view virtual returns (address) {... */\n    tag_12:\n      tag_61\n      tag_62\n      jump\t// in\n    tag_61:\n      mload(0x40)\n      tag_63\n      swap2\n      swap1\n      tag_64\n      jump\t// in\n    tag_63:\n      mload(0x40)\n      dup1\n      swap2\n      sub\n      swap1\n      return\n        /* \"@openzeppelin/contracts/access/AccessControl.sol\":3021:3166  function hasRole(bytes32 role, address account) public view virtual override returns (bool) {... */\n    tag_13:\n      tag_65\n      0x04\n      dup1\n      calldatasize\n      sub\n      dup2\n      add\n      swap1\n      tag_66\n      swap2\n      swap1\n      tag_42\n      jump\t// in\n    tag_66:\n      tag_67\n      jump\t// in\n    tag_65:\n      mload(0x40)\n      tag_68\n      swap2\n      swap1\n      tag_27\n      jump\t// in\n    tag_68:\n      mload(0x40)\n      dup1\n      swap2\n      sub\n      swap1\n      return\n        /* \"@openzeppelin/contracts/access/AccessControl.sol\":2153:2202  bytes32 public constant DEFAULT_ADMIN_ROLE = 0x00 */\n    tag_14:\n      tag_69\n      tag_70\n      jump\t// in\n    tag_69:\n      mload(0x40)\n      tag_71\n      swap2\n      swap1\n      tag_33\n      jump\t// in\n    tag_71:\n      mload(0x40)\n      dup1\n      swap2\n      sub\n      swap1\n      return\n        /* \"@openzeppelin/contracts/access/AccessControl.sol\":5354:5501  function revokeRole(bytes32 role, address account) public virtual override onlyRole(getRoleAdmin(role)) {... */\n    tag_15:\n      tag_72\n      0x04\n      dup1\n      calldatasize\n      sub\n      dup2\n      add\n      swap1\n      tag_73\n      swap2\n      swap1\n      tag_42\n      jump\t// in\n    tag_73:\n      tag_74\n      jump\t// in\n    tag_72:\n      stop\n        /* \"tests/Reserves-collateral.sol\":858:922  bytes32 public constant MANAGER_ROLE = keccak256(\"MANAGER_ROLE\") */\n    tag_16:\n      tag_75\n      tag_76\n      jump\t// in\n    tag_75:\n      mload(0x40)\n      tag_77\n      swap2\n      swap1\n      tag_33\n      jump\t// in\n    tag_77:\n      mload(0x40)\n      dup1\n      swap2\n      sub\n      swap1\n      return\n        /* \"tests/Reserves-collateral.sol\":1562:1996  function depositCollateral(uint256 vid, uint256 amount) external {... */\n    tag_17:\n      tag_78\n      0x04\n      dup1\n      calldatasize\n      sub\n      dup2\n      add\n      swap1\n      tag_79\n      swap2\n      swap1\n      tag_59\n      jump\t// in\n    tag_79:\n      tag_80\n      jump\t// in\n    tag_78:\n      stop\n        /* \"@openzeppelin/contracts/access/Ownable.sol\":2074:2272  function transferOwnership(address newOwner) public virtual onlyOwner {... */\n    tag_18:\n      tag_81\n      0x04\n      dup1\n      calldatasize\n      sub\n      dup2\n      add\n      swap1\n      tag_82\n      swap2\n      swap1\n      tag_83\n      jump\t// in\n    tag_82:\n      tag_84\n      jump\t// in\n    tag_81:\n      stop\n        /* \"@openzeppelin/contracts/access/AccessControl.sol\":2732:2934  function supportsInterface(bytes4 interfaceId) public view virtual override returns (bool) {... */\n    tag_25:\n        /* \"@openzeppelin/contracts/access/AccessControl.sol\":2817:2821  bool */\n      0x00\n        /* \"@openzeppelin/contracts/access/AccessControl.sol\":2855:2887  type(IAccessControl).interfaceId */\n      0x7965db0b00000000000000000000000000000000000000000000000000000000\n        /* \"@openzeppelin/contracts/access/AccessControl.sol\":2840:2887  interfaceId == type(IAccessControl).interfaceId */\n      not(0xffffffffffffffffffffffffffffffffffffffffffffffffffffffff)\n      and\n        /* \"@openzeppelin/contracts/access/AccessControl.sol\":2840:2851  interfaceId */\n      dup3\n        /* \"@openzeppelin/contracts/access/AccessControl.sol\":2840:2887  interfaceId == type(IAccessControl).interfaceId */\n      not(0xffffffffffffffffffffffffffffffffffffffffffffffffffffffff)\n      and\n      eq\n        /* \"@openzeppelin/contracts/access/AccessControl.sol\":2840:2927  interfaceId == type(IAccessControl).interfaceId || super.supportsInterface(interfaceId) */\n      dup1\n      tag_86\n      jumpi\n      pop\n        /* \"@openzeppelin/contracts/access/AccessControl.sol\":2891:2927  super.supportsInterface(interfaceId) */\n      tag_87\n        /* \"@openzeppelin/contracts/access/AccessControl.sol\":2915:2926  interfaceId */\n      dup3\n        /* \"@openzeppelin/contracts/access/AccessControl.sol\":2891:2914  super.supportsInterface */\n      tag_88\n        /* \"@openzeppelin/contracts/access/AccessControl.sol\":2891:2927  super.supportsInterface(interfaceId) */\n      jump\t// in\n    tag_87:\n        /* \"@openzeppelin/contracts/access/AccessControl.sol\":2840:2927  interfaceId == type(IAccessControl).interfaceId || super.supportsInterface(interfaceId) */\n    tag_86:\n        /* \"@openzeppelin/contracts/access/AccessControl.sol\":2833:2927  return interfaceId == type(IAccessControl).interfaceId || super.supportsInterface(interfaceId) */\n      swap1\n      pop\n        /* \"@openzeppelin/contracts/access/AccessControl.sol\":2732:2934  function supportsInterface(bytes4 interfaceId) public view virtual override returns (bool) {... */\n      swap2\n      swap1\n      pop\n      jump\t// out\n        /* \"@openzeppelin/contracts/access/AccessControl.sol\":4504:4633  function getRoleAdmin(bytes32 role) public view virtual override returns (bytes32) {... */\n    tag_31:\n        /* \"@openzeppelin/contracts/access/AccessControl.sol\":4578:4585  bytes32 */\n      0x00\n        /* \"@openzeppelin/contracts/access/AccessControl.sol\":4604:4610  _roles */\n      0x02\n        /* \"@openzeppelin/contracts/access/AccessControl.sol\":4604:4616  _roles[role] */\n      0x00\n        /* \"@openzeppelin/contracts/access/AccessControl.sol\":4611:4615  role */\n      dup4\n        /* \"@openzeppelin/contracts/access/AccessControl.sol\":4604:4616  _roles[role] */\n      dup2\n      mstore\n      0x20\n      add\n      swap1\n      dup2\n      mstore\n      0x20\n      add\n      0x00\n      keccak256\n        /* \"@openzeppelin/contracts/access/AccessControl.sol\":4604:4626  _roles[role].adminRole */\n      0x01\n      add\n      sload\n        /* \"@openzeppelin/contracts/access/AccessControl.sol\":4597:4626  return _roles[role].adminRole */\n      swap1\n      pop\n        /* \"@openzeppelin/contracts/access/AccessControl.sol\":4504:4633  function getRoleAdmin(bytes32 role) public view virtual override returns (bytes32) {... */\n      swap2\n      swap1\n      pop\n      jump\t// out\n        /* \"tests/Reserves-collateral.sol\":686:735  mapping(uint256 => ReserveVault) public _rsvVault */\n    tag_37:\n      mstore(0x20, 0x04)\n      dup1\n      0x00\n      mstore\n      keccak256(0x00, 0x40)\n      0x00\n      swap2\n      pop\n      swap1\n      pop\n      dup1\n      0x00\n      add\n      0x00\n      swap1\n      sload\n      swap1\n      0x0100\n      exp\n      swap1\n      div\n      0xffffffffffffffffffffffffffffffffffffffff\n      and\n      swap1\n      dup1\n      0x01\n      add\n      sload\n      swap1\n      pop\n      dup3\n      jump\t// out\n        /* \"@openzeppelin/contracts/access/AccessControl.sol\":4929:5074  function grantRole(bytes32 role, address account) public virtual override onlyRole(getRoleAdmin(role)) {... */\n    tag_43:\n        /* \"@openzeppelin/contracts/access/AccessControl.sol\":5012:5030  getRoleAdmin(role) */\n      tag_90\n        /* \"@openzeppelin/contracts/access/AccessControl.sol\":5025:5029  role */\n      dup3\n        /* \"@openzeppelin/contracts/access/AccessControl.sol\":5012:5024  getRoleAdmin */\n      tag_31\n        /* \"@openzeppelin/contracts/access/AccessControl.sol\":5012:5030  getRoleAdmin(role) */\n      jump\t// in\n    tag_90:\n        /* \"@openzeppelin/contracts/access/AccessControl.sol\":2631:2647  _checkRole(role) */\n      tag_92\n        /* \"@openzeppelin/contracts/access/AccessControl.sol\":2642:2646  role */\n      dup2\n        /* \"@openzeppelin/contracts/access/AccessControl.sol\":2631:2641  _checkRole */\n      tag_93\n        /* \"@openzeppelin/contracts/access/AccessControl.sol\":2631:2647  _checkRole(role) */\n      jump\t// in\n    tag_92:\n        /* \"@openzeppelin/contracts/access/AccessControl.sol\":5042:5067  _grantRole(role, account) */\n      tag_95\n        /* \"@openzeppelin/contracts/access/AccessControl.sol\":5053:5057  role */\n      dup4\n        /* \"@openzeppelin/contracts/access/AccessControl.sol\":5059:5066  account */\n      dup4\n        /* \"@openzeppelin/contracts/access/AccessControl.sol\":5042:5052  _grantRole */\n      tag_96\n        /* \"@openzeppelin/contracts/access/AccessControl.sol\":5042:5067  _grantRole(role, account) */\n      jump\t// in\n    tag_95:\n        /* \"@openzeppelin/contracts/access/AccessControl.sol\":4929:5074  function grantRole(bytes32 role, address account) public virtual override onlyRole(getRoleAdmin(role)) {... */\n      pop\n      pop\n      pop\n      jump\t// out\n        /* \"@openzeppelin/contracts/access/AccessControl.sol\":6038:6252  function renounceRole(bytes32 role, address account) public virtual override {... */\n    tag_46:\n        /* \"@openzeppelin/contracts/access/AccessControl.sol\":6144:6156  _msgSender() */\n      tag_98\n        /* \"@openzeppelin/contracts/access/AccessControl.sol\":6144:6154  _msgSender */\n      tag_99\n        /* \"@openzeppelin/contracts/access/AccessControl.sol\":6144:6156  _msgSender() */\n      jump\t// in\n    tag_98:\n        /* \"@openzeppelin/contracts/access/AccessControl.sol\":6133:6156  account == _msgSender() */\n      0xffffffffffffffffffffffffffffffffffffffff\n      and\n        /* \"@openzeppelin/contracts/access/AccessControl.sol\":6133:6140  account */\n      dup2\n        /* \"@openzeppelin/contracts/access/AccessControl.sol\":6133:6156  account == _msgSender() */\n      0xffffffffffffffffffffffffffffffffffffffff\n      and\n      eq\n        /* \"@openzeppelin/contracts/access/AccessControl.sol\":6125:6208  require(account == _msgSender(), \"AccessControl: can only renounce roles for self\") */\n      tag_100\n      jumpi\n      mload(0x40)\n      0x08c379a000000000000000000000000000000000000000000000000000000000\n      dup2\n      mstore\n      0x04\n      add\n      tag_101\n      swap1\n      tag_102\n      jump\t// in\n    tag_101:\n      mload(0x40)\n      dup1\n      swap2\n      sub\n      swap1\n      revert\n    tag_100:\n        /* \"@openzeppelin/contracts/access/AccessControl.sol\":6219:6245  _revokeRole(role, account) */\n      tag_103\n        /* \"@openzeppelin/contracts/access/AccessControl.sol\":6231:6235  role */\n      dup3\n        /* \"@openzeppelin/contracts/access/AccessControl.sol\":6237:6244  account */\n      dup3\n        /* \"@openzeppelin/contracts/access/AccessControl.sol\":6219:6230  _revokeRole */\n      tag_104\n        /* \"@openzeppelin/contracts/access/AccessControl.sol\":6219:6245  _revokeRole(role, account) */\n      jump\t// in\n    tag_103:\n        /* \"@openzeppelin/contracts/access/AccessControl.sol\":6038:6252  function renounceRole(bytes32 role, address account) public virtual override {... */\n      pop\n      pop\n      jump\t// out\n        /* \"tests/Reserves-collateral.sol\":1293:1556  function addReserveVault(IERC20 _collateral) external {... */\n    tag_50:\n        /* \"tests/Reserves-collateral.sol\":1365:1400  hasRole(MANAGER_ROLE, _msgSender()) */\n      tag_106\n        /* \"tests/Reserves-collateral.sol\":897:922  keccak256(\"MANAGER_ROLE\") */\n      0x241ecf16d79d0f8dbfb92cbc07fe17840425976cf0667f022fe9877caa831b08\n        /* \"tests/Reserves-collateral.sol\":1387:1399  _msgSender() */\n      tag_107\n        /* \"tests/Reserves-collateral.sol\":1387:1397  _msgSender */\n      tag_99\n        /* \"tests/Reserves-collateral.sol\":1387:1399  _msgSender() */\n      jump\t// in\n    tag_107:\n        /* \"tests/Reserves-collateral.sol\":1365:1372  hasRole */\n      tag_67\n        /* \"tests/Reserves-collateral.sol\":1365:1400  hasRole(MANAGER_ROLE, _msgSender()) */\n      jump\t// in\n    tag_106:\n        /* \"tests/Reserves-collateral.sol\":1357:1416  require(hasRole(MANAGER_ROLE, _msgSender()), \"Not allowed\") */\n      tag_108\n      jumpi\n      mload(0x40)\n      0x08c379a000000000000000000000000000000000000000000000000000000000\n      dup2\n      mstore\n      0x04\n      add\n      tag_109\n      swap1\n      tag_110\n      jump\t// in\n    tag_109:\n      mload(0x40)\n      dup1\n      swap2\n      sub\n      swap1\n      revert\n    tag_108:\n        /* \"tests/Reserves-collateral.sol\":1426:1459  checkReserveContract(_collateral) */\n      tag_111\n        /* \"tests/Reserves-collateral.sol\":1447:1458  _collateral */\n      dup2\n        /* \"tests/Reserves-collateral.sol\":1426:1446  checkReserveContract */\n      tag_112\n        /* \"tests/Reserves-collateral.sol\":1426:1459  checkReserveContract(_collateral) */\n      jump\t// in\n    tag_111:\n        /* \"tests/Reserves-collateral.sol\":1510:1521  _collateral */\n      dup1\n        /* \"tests/Reserves-collateral.sol\":1469:1478  _rsvVault */\n      0x04\n        /* \"tests/Reserves-collateral.sol\":1469:1496  _rsvVault[currentReserveId] */\n      0x00\n        /* \"tests/Reserves-collateral.sol\":1479:1495  currentReserveId */\n      sload(0x03)\n        /* \"tests/Reserves-collateral.sol\":1469:1496  _rsvVault[currentReserveId] */\n      dup2\n      mstore\n      0x20\n      add\n      swap1\n      dup2\n      mstore\n      0x20\n      add\n      0x00\n      keccak256\n        /* \"tests/Reserves-collateral.sol\":1469:1507  _rsvVault[currentReserveId].collateral */\n      0x00\n      add\n      0x00\n        /* \"tests/Reserves-collateral.sol\":1469:1521  _rsvVault[currentReserveId].collateral = _collateral */\n      0x0100\n      exp\n      dup2\n      sload\n      dup2\n      0xffffffffffffffffffffffffffffffffffffffff\n      mul\n      not\n      and\n      swap1\n      dup4\n      0xffffffffffffffffffffffffffffffffffffffff\n      and\n      mul\n      or\n      swap1\n      sstore\n      pop\n        /* \"tests/Reserves-collateral.sol\":1531:1547  currentReserveId */\n      0x03\n      0x00\n        /* \"tests/Reserves-collateral.sol\":1531:1549  currentReserveId++ */\n      dup2\n      sload\n      dup1\n      swap3\n      swap2\n      swap1\n      tag_113\n      swap1\n      tag_114\n      jump\t// in\n    tag_113:\n      swap2\n      swap1\n      pop\n      sstore\n      pop\n        /* \"tests/Reserves-collateral.sol\":1293:1556  function addReserveVault(IERC20 _collateral) external {... */\n      pop\n      jump\t// out\n        /* \"tests/Reserves-collateral.sol\":564:595  uint256 public currentReserveId */\n    tag_52:\n      sload(0x03)\n      dup2\n      jump\t// out\n        /* \"@openzeppelin/contracts/access/Ownable.sol\":1824:1925  function renounceOwnership() public virtual onlyOwner {... */\n    tag_56:\n        /* \"@openzeppelin/contracts/access/Ownable.sol\":1094:1107  _checkOwner() */\n      tag_116\n        /* \"@openzeppelin/contracts/access/Ownable.sol\":1094:1105  _checkOwner */\n      tag_117\n        /* \"@openzeppelin/contracts/access/Ownable.sol\":1094:1107  _checkOwner() */\n      jump\t// in\n    tag_116:\n        /* \"@openzeppelin/contracts/access/Ownable.sol\":1888:1918  _transferOwnership(address(0)) */\n      tag_119\n        /* \"@openzeppelin/contracts/access/Ownable.sol\":1915:1916  0 */\n      0x00\n        /* \"@openzeppelin/contracts/access/Ownable.sol\":1888:1906  _transferOwnership */\n      tag_120\n        /* \"@openzeppelin/contracts/access/Ownable.sol\":1888:1918  _transferOwnership(address(0)) */\n      jump\t// in\n    tag_119:\n        /* \"@openzeppelin/contracts/access/Ownable.sol\":1824:1925  function renounceOwnership() public virtual onlyOwner {... */\n      jump\t// out\n        /* \"tests/Reserves-collateral.sol\":2002:2486  function withdrawCollateral(uint256 vid, uint256 amount) external {... */\n    tag_60:\n        /* \"tests/Reserves-collateral.sol\":2086:2121  hasRole(MANAGER_ROLE, _msgSender()) */\n      tag_122\n        /* \"tests/Reserves-collateral.sol\":897:922  keccak256(\"MANAGER_ROLE\") */\n      0x241ecf16d79d0f8dbfb92cbc07fe17840425976cf0667f022fe9877caa831b08\n        /* \"tests/Reserves-collateral.sol\":2108:2120  _msgSender() */\n      tag_123\n        /* \"tests/Reserves-collateral.sol\":2108:2118  _msgSender */\n      tag_99\n        /* \"tests/Reserves-collateral.sol\":2108:2120  _msgSender() */\n      jump\t// in\n    tag_123:\n        /* \"tests/Reserves-collateral.sol\":2086:2093  hasRole */\n      tag_67\n        /* \"tests/Reserves-collateral.sol\":2086:2121  hasRole(MANAGER_ROLE, _msgSender()) */\n      jump\t// in\n    tag_122:\n        /* \"tests/Reserves-collateral.sol\":2078:2137  require(hasRole(MANAGER_ROLE, _msgSender()), \"Not allowed\") */\n      tag_124\n      jumpi\n      mload(0x40)\n      0x08c379a000000000000000000000000000000000000000000000000000000000\n      dup2\n      mstore\n      0x04\n      add\n      tag_125\n      swap1\n      tag_110\n      jump\t// in\n    tag_125:\n      mload(0x40)\n      dup1\n      swap2\n      sub\n      swap1\n      revert\n    tag_124:\n        /* \"tests/Reserves-collateral.sol\":2147:2162  IERC20 reserves */\n      0x00\n        /* \"tests/Reserves-collateral.sol\":2165:2174  _rsvVault */\n      0x04\n        /* \"tests/Reserves-collateral.sol\":2165:2179  _rsvVault[vid] */\n      0x00\n        /* \"tests/Reserves-collateral.sol\":2175:2178  vid */\n      dup5\n        /* \"tests/Reserves-collateral.sol\":2165:2179  _rsvVault[vid] */\n      dup2\n      mstore\n      0x20\n      add\n      swap1\n      dup2\n      mstore\n      0x20\n      add\n      0x00\n      keccak256\n        /* \"tests/Reserves-collateral.sol\":2165:2190  _rsvVault[vid].collateral */\n      0x00\n      add\n      0x00\n      swap1\n      sload\n      swap1\n      0x0100\n      exp\n      swap1\n      div\n      0xffffffffffffffffffffffffffffffffffffffff\n      and\n        /* \"tests/Reserves-collateral.sol\":2147:2190  IERC20 reserves = _rsvVault[vid].collateral */\n      swap1\n      pop\n        /* \"tests/Reserves-collateral.sol\":2200:2227  uint256 currentVaultBalance */\n      0x00\n        /* \"tests/Reserves-collateral.sol\":2230:2239  _rsvVault */\n      0x04\n        /* \"tests/Reserves-collateral.sol\":2230:2244  _rsvVault[vid] */\n      0x00\n        /* \"tests/Reserves-collateral.sol\":2240:2243  vid */\n      dup6\n        /* \"tests/Reserves-collateral.sol\":2230:2244  _rsvVault[vid] */\n      dup2\n      mstore\n      0x20\n      add\n      swap1\n      dup2\n      mstore\n      0x20\n      add\n      0x00\n      keccak256\n        /* \"tests/Reserves-collateral.sol\":2230:2251  _rsvVault[vid].amount */\n      0x01\n      add\n      sload\n        /* \"tests/Reserves-collateral.sol\":2200:2251  uint256 currentVaultBalance = _rsvVault[vid].amount */\n      swap1\n      pop\n        /* \"tests/Reserves-collateral.sol\":2288:2294  amount */\n      dup3\n        /* \"tests/Reserves-collateral.sol\":2265:2284  currentVaultBalance */\n      dup2\n        /* \"tests/Reserves-collateral.sol\":2265:2294  currentVaultBalance >= amount */\n      lt\n        /* \"tests/Reserves-collateral.sol\":2261:2480  if (currentVaultBalance >= amount) {... */\n      tag_126\n      jumpi\n        /* \"tests/Reserves-collateral.sol\":2310:2360  reserves.safeTransfer(address(msg.sender), amount) */\n      tag_127\n        /* \"tests/Reserves-collateral.sol\":2340:2350  msg.sender */\n      caller\n        /* \"tests/Reserves-collateral.sol\":2353:2359  amount */\n      dup5\n        /* \"tests/Reserves-collateral.sol\":2310:2318  reserves */\n      dup5\n        /* \"tests/Reserves-collateral.sol\":2310:2331  reserves.safeTransfer */\n      0xffffffffffffffffffffffffffffffffffffffff\n      and\n      tag_128\n      swap1\n        /* \"tests/Reserves-collateral.sol\":2310:2360  reserves.safeTransfer(address(msg.sender), amount) */\n      swap3\n      swap2\n      swap1\n      0xffffffff\n      and\n      jump\t// in\n    tag_127:\n        /* \"tests/Reserves-collateral.sol\":2398:2429  currentVaultBalance.sub(amount) */\n      tag_129\n        /* \"tests/Reserves-collateral.sol\":2422:2428  amount */\n      dup4\n        /* \"tests/Reserves-collateral.sol\":2398:2417  currentVaultBalance */\n      dup3\n        /* \"tests/Reserves-collateral.sol\":2398:2421  currentVaultBalance.sub */\n      tag_130\n      swap1\n        /* \"tests/Reserves-collateral.sol\":2398:2429  currentVaultBalance.sub(amount) */\n      swap2\n      swap1\n      0xffffffff\n      and\n      jump\t// in\n    tag_129:\n        /* \"tests/Reserves-collateral.sol\":2374:2383  _rsvVault */\n      0x04\n        /* \"tests/Reserves-collateral.sol\":2374:2388  _rsvVault[vid] */\n      0x00\n        /* \"tests/Reserves-collateral.sol\":2384:2387  vid */\n      dup7\n        /* \"tests/Reserves-collateral.sol\":2374:2388  _rsvVault[vid] */\n      dup2\n      mstore\n      0x20\n      add\n      swap1\n      dup2\n      mstore\n      0x20\n      add\n      0x00\n      keccak256\n        /* \"tests/Reserves-collateral.sol\":2374:2395  _rsvVault[vid].amount */\n      0x01\n      add\n        /* \"tests/Reserves-collateral.sol\":2374:2429  _rsvVault[vid].amount = currentVaultBalance.sub(amount) */\n      dup2\n      swap1\n      sstore\n      pop\n        /* \"tests/Reserves-collateral.sol\":2457:2460  vid */\n      dup4\n        /* \"tests/Reserves-collateral.sol\":2448:2469  Withdraw(vid, amount) */\n      0x56ca301a9219608c91e7bcee90e083c19671d2cdcc96752c7af291cee5f9c8c8\n        /* \"tests/Reserves-collateral.sol\":2462:2468  amount */\n      dup5\n        /* \"tests/Reserves-collateral.sol\":2448:2469  Withdraw(vid, amount) */\n      mload(0x40)\n      tag_131\n      swap2\n      swap1\n      tag_54\n      jump\t// in\n    tag_131:\n      mload(0x40)\n      dup1\n      swap2\n      sub\n      swap1\n      log2\n        /* \"tests/Reserves-collateral.sol\":2261:2480  if (currentVaultBalance >= amount) {... */\n    tag_126:\n        /* \"tests/Reserves-collateral.sol\":2068:2486  {... */\n      pop\n      pop\n        /* \"tests/Reserves-collateral.sol\":2002:2486  function withdrawCollateral(uint256 vid, uint256 amount) external {... */\n      pop\n      pop\n      jump\t// out\n        /* \"@openzeppelin/contracts/access/Ownable.sol\":1201:1286  function owner() public view virtual returns (address) {... */\n    tag_62:\n        /* \"@openzeppelin/contracts/access/Ownable.sol\":1247:1254  address */\n      0x00\n        /* \"@openzeppelin/contracts/access/Ownable.sol\":1273:1279  _owner */\n      dup1\n      0x00\n      swap1\n      sload\n      swap1\n      0x0100\n      exp\n      swap1\n      div\n      0xffffffffffffffffffffffffffffffffffffffff\n      and\n        /* \"@openzeppelin/contracts/access/Ownable.sol\":1266:1279  return _owner */\n      swap1\n      pop\n        /* \"@openzeppelin/contracts/access/Ownable.sol\":1201:1286  function owner() public view virtual returns (address) {... */\n      swap1\n      jump\t// out\n        /* \"@openzeppelin/contracts/access/AccessControl.sol\":3021:3166  function hasRole(bytes32 role, address account) public view virtual override returns (bool) {... */\n    tag_67:\n        /* \"@openzeppelin/contracts/access/AccessControl.sol\":3107:3111  bool */\n      0x00\n        /* \"@openzeppelin/contracts/access/AccessControl.sol\":3130:3136  _roles */\n      0x02\n        /* \"@openzeppelin/contracts/access/AccessControl.sol\":3130:3142  _roles[role] */\n      0x00\n        /* \"@openzeppelin/contracts/access/AccessControl.sol\":3137:3141  role */\n      dup5\n        /* \"@openzeppelin/contracts/access/AccessControl.sol\":3130:3142  _roles[role] */\n      dup2\n      mstore\n      0x20\n      add\n      swap1\n      dup2\n      mstore\n      0x20\n      add\n      0x00\n      keccak256\n        /* \"@openzeppelin/contracts/access/AccessControl.sol\":3130:3150  _roles[role].members */\n      0x00\n      add\n        /* \"@openzeppelin/contracts/access/AccessControl.sol\":3130:3159  _roles[role].members[account] */\n      0x00\n        /* \"@openzeppelin/contracts/access/AccessControl.sol\":3151:3158  account */\n      dup4\n        /* \"@openzeppelin/contracts/access/AccessControl.sol\":3130:3159  _roles[role].members[account] */\n      0xffffffffffffffffffffffffffffffffffffffff\n      and\n      0xffffffffffffffffffffffffffffffffffffffff\n      and\n      dup2\n      mstore\n      0x20\n      add\n      swap1\n      dup2\n      mstore\n      0x20\n      add\n      0x00\n      keccak256\n      0x00\n      swap1\n      sload\n      swap1\n      0x0100\n      exp\n      swap1\n      div\n      0xff\n      and\n        /* \"@openzeppelin/contracts/access/AccessControl.sol\":3123:3159  return _roles[role].members[account] */\n      swap1\n      pop\n        /* \"@openzeppelin/contracts/access/AccessControl.sol\":3021:3166  function hasRole(bytes32 role, address account) public view virtual override returns (bool) {... */\n      swap3\n      swap2\n      pop\n      pop\n      jump\t// out\n        /* \"@openzeppelin/contracts/access/AccessControl.sol\":2153:2202  bytes32 public constant DEFAULT_ADMIN_ROLE = 0x00 */\n    tag_70:\n        /* \"@openzeppelin/contracts/access/AccessControl.sol\":2198:2202  0x00 */\n      0x00\n        /* \"@openzeppelin/contracts/access/AccessControl.sol\":2153:2202  bytes32 public constant DEFAULT_ADMIN_ROLE = 0x00 */\n      dup1\n      shl\n      dup2\n      jump\t// out\n        /* \"@openzeppelin/contracts/access/AccessControl.sol\":5354:5501  function revokeRole(bytes32 role, address account) public virtual override onlyRole(getRoleAdmin(role)) {... */\n    tag_74:\n        /* \"@openzeppelin/contracts/access/AccessControl.sol\":5438:5456  getRoleAdmin(role) */\n      tag_134\n        /* \"@openzeppelin/contracts/access/AccessControl.sol\":5451:5455  role */\n      dup3\n        /* \"@openzeppelin/contracts/access/AccessControl.sol\":5438:5450  getRoleAdmin */\n      tag_31\n        /* \"@openzeppelin/contracts/access/AccessControl.sol\":5438:5456  getRoleAdmin(role) */\n      jump\t// in\n    tag_134:\n        /* \"@openzeppelin/contracts/access/AccessControl.sol\":2631:2647  _checkRole(role) */\n      tag_136\n        /* \"@openzeppelin/contracts/access/AccessControl.sol\":2642:2646  role */\n      dup2\n        /* \"@openzeppelin/contracts/access/AccessControl.sol\":2631:2641  _checkRole */\n      tag_93\n        /* \"@openzeppelin/contracts/access/AccessControl.sol\":2631:2647  _checkRole(role) */\n      jump\t// in\n    tag_136:\n        /* \"@openzeppelin/contracts/access/AccessControl.sol\":5468:5494  _revokeRole(role, account) */\n      tag_138\n        /* \"@openzeppelin/contracts/access/AccessControl.sol\":5480:5484  role */\n      dup4\n        /* \"@openzeppelin/contracts/access/AccessControl.sol\":5486:5493  account */\n      dup4\n        /* \"@openzeppelin/contracts/access/AccessControl.sol\":5468:5479  _revokeRole */\n      tag_104\n        /* \"@openzeppelin/contracts/access/AccessControl.sol\":5468:5494  _revokeRole(role, account) */\n      jump\t// in\n    tag_138:\n        /* \"@openzeppelin/contracts/access/AccessControl.sol\":5354:5501  function revokeRole(bytes32 role, address account) public virtual override onlyRole(getRoleAdmin(role)) {... */\n      pop\n      pop\n      pop\n      jump\t// out\n        /* \"tests/Reserves-collateral.sol\":858:922  bytes32 public constant MANAGER_ROLE = keccak256(\"MANAGER_ROLE\") */\n    tag_76:\n        /* \"tests/Reserves-collateral.sol\":897:922  keccak256(\"MANAGER_ROLE\") */\n      0x241ecf16d79d0f8dbfb92cbc07fe17840425976cf0667f022fe9877caa831b08\n        /* \"tests/Reserves-collateral.sol\":858:922  bytes32 public constant MANAGER_ROLE = keccak256(\"MANAGER_ROLE\") */\n      dup2\n      jump\t// out\n        /* \"tests/Reserves-collateral.sol\":1562:1996  function depositCollateral(uint256 vid, uint256 amount) external {... */\n    tag_80:\n        /* \"tests/Reserves-collateral.sol\":1645:1680  hasRole(MANAGER_ROLE, _msgSender()) */\n      tag_140\n        /* \"tests/Reserves-collateral.sol\":897:922  keccak256(\"MANAGER_ROLE\") */\n      0x241ecf16d79d0f8dbfb92cbc07fe17840425976cf0667f022fe9877caa831b08\n        /* \"tests/Reserves-collateral.sol\":1667:1679  _msgSender() */\n      tag_141\n        /* \"tests/Reserves-collateral.sol\":1667:1677  _msgSender */\n      tag_99\n        /* \"tests/Reserves-collateral.sol\":1667:1679  _msgSender() */\n      jump\t// in\n    tag_141:\n        /* \"tests/Reserves-collateral.sol\":1645:1652  hasRole */\n      tag_67\n        /* \"tests/Reserves-collateral.sol\":1645:1680  hasRole(MANAGER_ROLE, _msgSender()) */\n      jump\t// in\n    tag_140:\n        /* \"tests/Reserves-collateral.sol\":1637:1696  require(hasRole(MANAGER_ROLE, _msgSender()), \"Not allowed\") */\n      tag_142\n      jumpi\n      mload(0x40)\n      0x08c379a000000000000000000000000000000000000000000000000000000000\n      dup2\n      mstore\n      0x04\n      add\n      tag_143\n      swap1\n      tag_110\n      jump\t// in\n    tag_143:\n      mload(0x40)\n      dup1\n      swap2\n      sub\n      swap1\n      revert\n    tag_142:\n        /* \"tests/Reserves-collateral.sol\":1706:1721  IERC20 reserves */\n      0x00\n        /* \"tests/Reserves-collateral.sol\":1724:1733  _rsvVault */\n      0x04\n        /* \"tests/Reserves-collateral.sol\":1724:1738  _rsvVault[vid] */\n      0x00\n        /* \"tests/Reserves-collateral.sol\":1734:1737  vid */\n      dup5\n        /* \"tests/Reserves-collateral.sol\":1724:1738  _rsvVault[vid] */\n      dup2\n      mstore\n      0x20\n      add\n      swap1\n      dup2\n      mstore\n      0x20\n      add\n      0x00\n      keccak256\n        /* \"tests/Reserves-collateral.sol\":1724:1749  _rsvVault[vid].collateral */\n      0x00\n      add\n      0x00\n      swap1\n      sload\n      swap1\n      0x0100\n      exp\n      swap1\n      div\n      0xffffffffffffffffffffffffffffffffffffffff\n      and\n        /* \"tests/Reserves-collateral.sol\":1706:1749  IERC20 reserves = _rsvVault[vid].collateral */\n      swap1\n      pop\n        /* \"tests/Reserves-collateral.sol\":1759:1828  reserves.safeTransferFrom(address(msg.sender), address(this), amount) */\n      tag_144\n        /* \"tests/Reserves-collateral.sol\":1793:1803  msg.sender */\n      caller\n        /* \"tests/Reserves-collateral.sol\":1814:1818  this */\n      address\n        /* \"tests/Reserves-collateral.sol\":1821:1827  amount */\n      dup5\n        /* \"tests/Reserves-collateral.sol\":1759:1767  reserves */\n      dup5\n        /* \"tests/Reserves-collateral.sol\":1759:1784  reserves.safeTransferFrom */\n      0xffffffffffffffffffffffffffffffffffffffff\n      and\n      tag_145\n      swap1\n        /* \"tests/Reserves-collateral.sol\":1759:1828  reserves.safeTransferFrom(address(msg.sender), address(this), amount) */\n      swap4\n      swap3\n      swap2\n      swap1\n      0xffffffff\n      and\n      jump\t// in\n    tag_144:\n        /* \"tests/Reserves-collateral.sol\":1838:1865  uint256 currentVaultBalance */\n      0x00\n        /* \"tests/Reserves-collateral.sol\":1868:1877  _rsvVault */\n      0x04\n        /* \"tests/Reserves-collateral.sol\":1868:1882  _rsvVault[vid] */\n      0x00\n        /* \"tests/Reserves-collateral.sol\":1878:1881  vid */\n      dup6\n        /* \"tests/Reserves-collateral.sol\":1868:1882  _rsvVault[vid] */\n      dup2\n      mstore\n      0x20\n      add\n      swap1\n      dup2\n      mstore\n      0x20\n      add\n      0x00\n      keccak256\n        /* \"tests/Reserves-collateral.sol\":1868:1889  _rsvVault[vid].amount */\n      0x01\n      add\n      sload\n        /* \"tests/Reserves-collateral.sol\":1838:1889  uint256 currentVaultBalance = _rsvVault[vid].amount */\n      swap1\n      pop\n        /* \"tests/Reserves-collateral.sol\":1923:1954  currentVaultBalance.add(amount) */\n      tag_146\n        /* \"tests/Reserves-collateral.sol\":1947:1953  amount */\n      dup4\n        /* \"tests/Reserves-collateral.sol\":1923:1942  currentVaultBalance */\n      dup3\n        /* \"tests/Reserves-collateral.sol\":1923:1946  currentVaultBalance.add */\n      tag_147\n      swap1\n        /* \"tests/Reserves-collateral.sol\":1923:1954  currentVaultBalance.add(amount) */\n      swap2\n      swap1\n      0xffffffff\n      and\n      jump\t// in\n    tag_146:\n        /* \"tests/Reserves-collateral.sol\":1899:1908  _rsvVault */\n      0x04\n        /* \"tests/Reserves-collateral.sol\":1899:1913  _rsvVault[vid] */\n      0x00\n        /* \"tests/Reserves-collateral.sol\":1909:1912  vid */\n      dup7\n        /* \"tests/Reserves-collateral.sol\":1899:1913  _rsvVault[vid] */\n      dup2\n      mstore\n      0x20\n      add\n      swap1\n      dup2\n      mstore\n      0x20\n      add\n      0x00\n      keccak256\n        /* \"tests/Reserves-collateral.sol\":1899:1920  _rsvVault[vid].amount */\n      0x01\n      add\n        /* \"tests/Reserves-collateral.sol\":1899:1954  _rsvVault[vid].amount = currentVaultBalance.add(amount) */\n      dup2\n      swap1\n      sstore\n      pop\n        /* \"tests/Reserves-collateral.sol\":1977:1980  vid */\n      dup4\n        /* \"tests/Reserves-collateral.sol\":1969:1989  Deposit(vid, amount) */\n      0xa3af609bf46297028ce551832669030f9effef2b02606d02cbbcc40fe6b47c55\n        /* \"tests/Reserves-collateral.sol\":1982:1988  amount */\n      dup5\n        /* \"tests/Reserves-collateral.sol\":1969:1989  Deposit(vid, amount) */\n      mload(0x40)\n      tag_148\n      swap2\n      swap1\n      tag_54\n      jump\t// in\n    tag_148:\n      mload(0x40)\n      dup1\n      swap2\n      sub\n      swap1\n      log2\n        /* \"tests/Reserves-collateral.sol\":1627:1996  {... */\n      pop\n      pop\n        /* \"tests/Reserves-collateral.sol\":1562:1996  function depositCollateral(uint256 vid, uint256 amount) external {... */\n      pop\n      pop\n      jump\t// out\n        /* \"@openzeppelin/contracts/access/Ownable.sol\":2074:2272  function transferOwnership(address newOwner) public virtual onlyOwner {... */\n    tag_84:\n        /* \"@openzeppelin/contracts/access/Ownable.sol\":1094:1107  _checkOwner() */\n      tag_150\n        /* \"@openzeppelin/contracts/access/Ownable.sol\":1094:1105  _checkOwner */\n      tag_117\n        /* \"@openzeppelin/contracts/access/Ownable.sol\":1094:1107  _checkOwner() */\n      jump\t// in\n    tag_150:\n        /* \"@openzeppelin/contracts/access/Ownable.sol\":2182:2183  0 */\n      0x00\n        /* \"@openzeppelin/contracts/access/Ownable.sol\":2162:2184  newOwner != address(0) */\n      0xffffffffffffffffffffffffffffffffffffffff\n      and\n        /* \"@openzeppelin/contracts/access/Ownable.sol\":2162:2170  newOwner */\n      dup2\n        /* \"@openzeppelin/contracts/access/Ownable.sol\":2162:2184  newOwner != address(0) */\n      0xffffffffffffffffffffffffffffffffffffffff\n      and\n      sub\n        /* \"@openzeppelin/contracts/access/Ownable.sol\":2154:2227  require(newOwner != address(0), \"Ownable: new owner is the zero address\") */\n      tag_152\n      jumpi\n      mload(0x40)\n      0x08c379a000000000000000000000000000000000000000000000000000000000\n      dup2\n      mstore\n      0x04\n      add\n      tag_153\n      swap1\n      tag_154\n      jump\t// in\n    tag_153:\n      mload(0x40)\n      dup1\n      swap2\n      sub\n      swap1\n      revert\n    tag_152:\n        /* \"@openzeppelin/contracts/access/Ownable.sol\":2237:2265  _transferOwnership(newOwner) */\n      tag_155\n        /* \"@openzeppelin/contracts/access/Ownable.sol\":2256:2264  newOwner */\n      dup2\n        /* \"@openzeppelin/contracts/access/Ownable.sol\":2237:2255  _transferOwnership */\n      tag_120\n        /* \"@openzeppelin/contracts/access/Ownable.sol\":2237:2265  _transferOwnership(newOwner) */\n      jump\t// in\n    tag_155:\n        /* \"@openzeppelin/contracts/access/Ownable.sol\":2074:2272  function transferOwnership(address newOwner) public virtual onlyOwner {... */\n      pop\n      jump\t// out\n        /* \"@openzeppelin/contracts/utils/introspection/ERC165.sol\":829:984  function supportsInterface(bytes4 interfaceId) public view virtual override returns (bool) {... */\n    tag_88:\n        /* \"@openzeppelin/contracts/utils/introspection/ERC165.sol\":914:918  bool */\n      0x00\n        /* \"@openzeppelin/contracts/utils/introspection/ERC165.sol\":952:977  type(IERC165).interfaceId */\n      0x01ffc9a700000000000000000000000000000000000000000000000000000000\n        /* \"@openzeppelin/contracts/utils/introspection/ERC165.sol\":937:977  interfaceId == type(IERC165).interfaceId */\n      not(0xffffffffffffffffffffffffffffffffffffffffffffffffffffffff)\n      and\n        /* \"@openzeppelin/contracts/utils/introspection/ERC165.sol\":937:948  interfaceId */\n      dup3\n        /* \"@openzeppelin/contracts/utils/introspection/ERC165.sol\":937:977  interfaceId == type(IERC165).interfaceId */\n      not(0xffffffffffffffffffffffffffffffffffffffffffffffffffffffff)\n      and\n      eq\n        /* \"@openzeppelin/contracts/utils/introspection/ERC165.sol\":930:977  return interfaceId == type(IERC165).interfaceId */\n      swap1\n      pop\n        /* \"@openzeppelin/contracts/utils/introspection/ERC165.sol\":829:984  function supportsInterface(bytes4 interfaceId) public view virtual override returns (bool) {... */\n      swap2\n      swap1\n      pop\n      jump\t// out\n        /* \"@openzeppelin/contracts/access/AccessControl.sol\":3460:3563  function _checkRole(bytes32 role) internal view virtual {... */\n    tag_93:\n        /* \"@openzeppelin/contracts/access/AccessControl.sol\":3526:3556  _checkRole(role, _msgSender()) */\n      tag_158\n        /* \"@openzeppelin/contracts/access/AccessControl.sol\":3537:3541  role */\n      dup2\n        /* \"@openzeppelin/contracts/access/AccessControl.sol\":3543:3555  _msgSender() */\n      tag_159\n        /* \"@openzeppelin/contracts/access/AccessControl.sol\":3543:3553  _msgSender */\n      tag_99\n        /* \"@openzeppelin/contracts/access/AccessControl.sol\":3543:3555  _msgSender() */\n      jump\t// in\n    tag_159:\n        /* \"@openzeppelin/contracts/access/AccessControl.sol\":3526:3536  _checkRole */\n      tag_160\n        /* \"@openzeppelin/contracts/access/AccessControl.sol\":3526:3556  _checkRole(role, _msgSender()) */\n      jump\t// in\n    tag_158:\n        /* \"@openzeppelin/contracts/access/AccessControl.sol\":3460:3563  function _checkRole(bytes32 role) internal view virtual {... */\n      pop\n      jump\t// out\n        /* \"@openzeppelin/contracts/access/AccessControl.sol\":7587:7820  function _grantRole(bytes32 role, address account) internal virtual {... */\n    tag_96:\n        /* \"@openzeppelin/contracts/access/AccessControl.sol\":7670:7692  hasRole(role, account) */\n      tag_162\n        /* \"@openzeppelin/contracts/access/AccessControl.sol\":7678:7682  role */\n      dup3\n        /* \"@openzeppelin/contracts/access/AccessControl.sol\":7684:7691  account */\n      dup3\n        /* \"@openzeppelin/contracts/access/AccessControl.sol\":7670:7677  hasRole */\n      tag_67\n        /* \"@openzeppelin/contracts/access/AccessControl.sol\":7670:7692  hasRole(role, account) */\n      jump\t// in\n    tag_162:\n        /* \"@openzeppelin/contracts/access/AccessControl.sol\":7665:7814  if (!hasRole(role, account)) {... */\n      tag_163\n      jumpi\n        /* \"@openzeppelin/contracts/access/AccessControl.sol\":7740:7744  true */\n      0x01\n        /* \"@openzeppelin/contracts/access/AccessControl.sol\":7708:7714  _roles */\n      0x02\n        /* \"@openzeppelin/contracts/access/AccessControl.sol\":7708:7720  _roles[role] */\n      0x00\n        /* \"@openzeppelin/contracts/access/AccessControl.sol\":7715:7719  role */\n      dup5\n        /* \"@openzeppelin/contracts/access/AccessControl.sol\":7708:7720  _roles[role] */\n      dup2\n      mstore\n      0x20\n      add\n      swap1\n      dup2\n      mstore\n      0x20\n      add\n      0x00\n      keccak256\n        /* \"@openzeppelin/contracts/access/AccessControl.sol\":7708:7728  _roles[role].members */\n      0x00\n      add\n        /* \"@openzeppelin/contracts/access/AccessControl.sol\":7708:7737  _roles[role].members[account] */\n      0x00\n        /* \"@openzeppelin/contracts/access/AccessControl.sol\":7729:7736  account */\n      dup4\n        /* \"@openzeppelin/contracts/access/AccessControl.sol\":7708:7737  _roles[role].members[account] */\n      0xffffffffffffffffffffffffffffffffffffffff\n      and\n      0xffffffffffffffffffffffffffffffffffffffff\n      and\n      dup2\n      mstore\n      0x20\n      add\n      swap1\n      dup2\n      mstore\n      0x20\n      add\n      0x00\n      keccak256\n      0x00\n        /* \"@openzeppelin/contracts/access/AccessControl.sol\":7708:7744  _roles[role].members[account] = true */\n      0x0100\n      exp\n      dup2\n      sload\n      dup2\n      0xff\n      mul\n      not\n      and\n      swap1\n      dup4\n      iszero\n      iszero\n      mul\n      or\n      swap1\n      sstore\n      pop\n        /* \"@openzeppelin/contracts/access/AccessControl.sol\":7790:7802  _msgSender() */\n      tag_164\n        /* \"@openzeppelin/contracts/access/AccessControl.sol\":7790:7800  _msgSender */\n      tag_99\n        /* \"@openzeppelin/contracts/access/AccessControl.sol\":7790:7802  _msgSender() */\n      jump\t// in\n    tag_164:\n        /* \"@openzeppelin/contracts/access/AccessControl.sol\":7763:7803  RoleGranted(role, account, _msgSender()) */\n      0xffffffffffffffffffffffffffffffffffffffff\n      and\n        /* \"@openzeppelin/contracts/access/AccessControl.sol\":7781:7788  account */\n      dup2\n        /* \"@openzeppelin/contracts/access/AccessControl.sol\":7763:7803  RoleGranted(role, account, _msgSender()) */\n      0xffffffffffffffffffffffffffffffffffffffff\n      and\n        /* \"@openzeppelin/contracts/access/AccessControl.sol\":7775:7779  role */\n      dup4\n        /* \"@openzeppelin/contracts/access/AccessControl.sol\":7763:7803  RoleGranted(role, account, _msgSender()) */\n      0x2f8788117e7eff1d82e926ec794901d17c78024a50270940304540a733656f0d\n      mload(0x40)\n      mload(0x40)\n      dup1\n      swap2\n      sub\n      swap1\n      log4\n        /* \"@openzeppelin/contracts/access/AccessControl.sol\":7665:7814  if (!hasRole(role, account)) {... */\n    tag_163:\n        /* \"@openzeppelin/contracts/access/AccessControl.sol\":7587:7820  function _grantRole(bytes32 role, address account) internal virtual {... */\n      pop\n      pop\n      jump\t// out\n        /* \"@openzeppelin/contracts/utils/Context.sol\":640:736  function _msgSender() internal view virtual returns (address) {... */\n    tag_99:\n        /* \"@openzeppelin/contracts/utils/Context.sol\":693:700  address */\n      0x00\n        /* \"@openzeppelin/contracts/utils/Context.sol\":719:729  msg.sender */\n      caller\n        /* \"@openzeppelin/contracts/utils/Context.sol\":712:729  return msg.sender */\n      swap1\n      pop\n        /* \"@openzeppelin/contracts/utils/Context.sol\":640:736  function _msgSender() internal view virtual returns (address) {... */\n      swap1\n      jump\t// out\n        /* \"@openzeppelin/contracts/access/AccessControl.sol\":7991:8225  function _revokeRole(bytes32 role, address account) internal virtual {... */\n    tag_104:\n        /* \"@openzeppelin/contracts/access/AccessControl.sol\":8074:8096  hasRole(role, account) */\n      tag_167\n        /* \"@openzeppelin/contracts/access/AccessControl.sol\":8082:8086  role */\n      dup3\n        /* \"@openzeppelin/contracts/access/AccessControl.sol\":8088:8095  account */\n      dup3\n        /* \"@openzeppelin/contracts/access/AccessControl.sol\":8074:8081  hasRole */\n      tag_67\n        /* \"@openzeppelin/contracts/access/AccessControl.sol\":8074:8096  hasRole(role, account) */\n      jump\t// in\n    tag_167:\n        /* \"@openzeppelin/contracts/access/AccessControl.sol\":8070:8219  if (hasRole(role, account)) {... */\n      iszero\n      tag_168\n      jumpi\n        /* \"@openzeppelin/contracts/access/AccessControl.sol\":8144:8149  false */\n      0x00\n        /* \"@openzeppelin/contracts/access/AccessControl.sol\":8112:8118  _roles */\n      0x02\n        /* \"@openzeppelin/contracts/access/AccessControl.sol\":8112:8124  _roles[role] */\n      0x00\n        /* \"@openzeppelin/contracts/access/AccessControl.sol\":8119:8123  role */\n      dup5\n        /* \"@openzeppelin/contracts/access/AccessControl.sol\":8112:8124  _roles[role] */\n      dup2\n      mstore\n      0x20\n      add\n      swap1\n      dup2\n      mstore\n      0x20\n      add\n      0x00\n      keccak256\n        /* \"@openzeppelin/contracts/access/AccessControl.sol\":8112:8132  _roles[role].members */\n      0x00\n      add\n        /* \"@openzeppelin/contracts/access/AccessControl.sol\":8112:8141  _roles[role].members[account] */\n      0x00\n        /* \"@openzeppelin/contracts/access/AccessControl.sol\":8133:8140  account */\n      dup4\n        /* \"@openzeppelin/contracts/access/AccessControl.sol\":8112:8141  _roles[role].members[account] */\n      0xffffffffffffffffffffffffffffffffffffffff\n      and\n      0xffffffffffffffffffffffffffffffffffffffff\n      and\n      dup2\n      mstore\n      0x20\n      add\n      swap1\n      dup2\n      mstore\n      0x20\n      add\n      0x00\n      keccak256\n      0x00\n        /* \"@openzeppelin/contracts/access/AccessControl.sol\":8112:8149  _roles[role].members[account] = false */\n      0x0100\n      exp\n      dup2\n      sload\n      dup2\n      0xff\n      mul\n      not\n      and\n      swap1\n      dup4\n      iszero\n      iszero\n      mul\n      or\n      swap1\n      sstore\n      pop\n        /* \"@openzeppelin/contracts/access/AccessControl.sol\":8195:8207  _msgSender() */\n      tag_169\n        /* \"@openzeppelin/contracts/access/AccessControl.sol\":8195:8205  _msgSender */\n      tag_99\n        /* \"@openzeppelin/contracts/access/AccessControl.sol\":8195:8207  _msgSender() */\n      jump\t// in\n    tag_169:\n        /* \"@openzeppelin/contracts/access/AccessControl.sol\":8168:8208  RoleRevoked(role, account, _msgSender()) */\n      0xffffffffffffffffffffffffffffffffffffffff\n      and\n        /* \"@openzeppelin/contracts/access/AccessControl.sol\":8186:8193  account */\n      dup2\n        /* \"@openzeppelin/contracts/access/AccessControl.sol\":8168:8208  RoleRevoked(role, account, _msgSender()) */\n      0xffffffffffffffffffffffffffffffffffffffff\n      and\n        /* \"@openzeppelin/contracts/access/AccessControl.sol\":8180:8184  role */\n      dup4\n        /* \"@openzeppelin/contracts/access/AccessControl.sol\":8168:8208  RoleRevoked(role, account, _msgSender()) */\n      0xf6391f5c32d9c69d2a47ea670b442974b53935d1edc7fd64eb21e047a839171b\n      mload(0x40)\n      mload(0x40)\n      dup1\n      swap2\n      sub\n      swap1\n      log4\n        /* \"@openzeppelin/contracts/access/AccessControl.sol\":8070:8219  if (hasRole(role, account)) {... */\n    tag_168:\n        /* \"@openzeppelin/contracts/access/AccessControl.sol\":7991:8225  function _revokeRole(bytes32 role, address account) internal virtual {... */\n      pop\n      pop\n      jump\t// out\n        /* \"tests/Reserves-collateral.sol\":1058:1287  function checkReserveContract(IERC20 _collateral) internal view {... */\n    tag_112:\n        /* \"tests/Reserves-collateral.sol\":1136:1145  uint256 i */\n      0x00\n        /* \"tests/Reserves-collateral.sol\":1132:1281  for(uint256 i; i < currentReserveId; i++){... */\n    tag_171:\n        /* \"tests/Reserves-collateral.sol\":1151:1167  currentReserveId */\n      sload(0x03)\n        /* \"tests/Reserves-collateral.sol\":1147:1148  i */\n      dup2\n        /* \"tests/Reserves-collateral.sol\":1147:1167  i < currentReserveId */\n      lt\n        /* \"tests/Reserves-collateral.sol\":1132:1281  for(uint256 i; i < currentReserveId; i++){... */\n      iszero\n      tag_172\n      jumpi\n        /* \"tests/Reserves-collateral.sol\":1222:1233  _collateral */\n      dup2\n        /* \"tests/Reserves-collateral.sol\":1195:1233  _rsvVault[i].collateral != _collateral */\n      0xffffffffffffffffffffffffffffffffffffffff\n      and\n        /* \"tests/Reserves-collateral.sol\":1195:1204  _rsvVault */\n      0x04\n        /* \"tests/Reserves-collateral.sol\":1195:1207  _rsvVault[i] */\n      0x00\n        /* \"tests/Reserves-collateral.sol\":1205:1206  i */\n      dup4\n        /* \"tests/Reserves-collateral.sol\":1195:1207  _rsvVault[i] */\n      dup2\n      mstore\n      0x20\n      add\n      swap1\n      dup2\n      mstore\n      0x20\n      add\n      0x00\n      keccak256\n        /* \"tests/Reserves-collateral.sol\":1195:1218  _rsvVault[i].collateral */\n      0x00\n      add\n      0x00\n      swap1\n      sload\n      swap1\n      0x0100\n      exp\n      swap1\n      div\n      0xffffffffffffffffffffffffffffffffffffffff\n      and\n        /* \"tests/Reserves-collateral.sol\":1195:1233  _rsvVault[i].collateral != _collateral */\n      0xffffffffffffffffffffffffffffffffffffffff\n      and\n      sub\n        /* \"tests/Reserves-collateral.sol\":1187:1270  require(_rsvVault[i].collateral != _collateral, \"Collateral Address Already Added\") */\n      tag_174\n      jumpi\n      mload(0x40)\n      0x08c379a000000000000000000000000000000000000000000000000000000000\n      dup2\n      mstore\n      0x04\n      add\n      tag_175\n      swap1\n      tag_176\n      jump\t// in\n    tag_175:\n      mload(0x40)\n      dup1\n      swap2\n      sub\n      swap1\n      revert\n    tag_174:\n        /* \"tests/Reserves-collateral.sol\":1169:1172  i++ */\n      dup1\n      dup1\n      tag_177\n      swap1\n      tag_114\n      jump\t// in\n    tag_177:\n      swap2\n      pop\n      pop\n        /* \"tests/Reserves-collateral.sol\":1132:1281  for(uint256 i; i < currentReserveId; i++){... */\n      jump(tag_171)\n    tag_172:\n      pop\n        /* \"tests/Reserves-collateral.sol\":1058:1287  function checkReserveContract(IERC20 _collateral) internal view {... */\n      pop\n      jump\t// out\n        /* \"@openzeppelin/contracts/access/Ownable.sol\":1359:1489  function _checkOwner() internal view virtual {... */\n    tag_117:\n        /* \"@openzeppelin/contracts/access/Ownable.sol\":1433:1445  _msgSender() */\n      tag_179\n        /* \"@openzeppelin/contracts/access/Ownable.sol\":1433:1443  _msgSender */\n      tag_99\n        /* \"@openzeppelin/contracts/access/Ownable.sol\":1433:1445  _msgSender() */\n      jump\t// in\n    tag_179:\n        /* \"@openzeppelin/contracts/access/Ownable.sol\":1422:1445  owner() == _msgSender() */\n      0xffffffffffffffffffffffffffffffffffffffff\n      and\n        /* \"@openzeppelin/contracts/access/Ownable.sol\":1422:1429  owner() */\n      tag_180\n        /* \"@openzeppelin/contracts/access/Ownable.sol\":1422:1427  owner */\n      tag_62\n        /* \"@openzeppelin/contracts/access/Ownable.sol\":1422:1429  owner() */\n      jump\t// in\n    tag_180:\n        /* \"@openzeppelin/contracts/access/Ownable.sol\":1422:1445  owner() == _msgSender() */\n      0xffffffffffffffffffffffffffffffffffffffff\n      and\n      eq\n        /* \"@openzeppelin/contracts/access/Ownable.sol\":1414:1482  require(owner() == _msgSender(), \"Ownable: caller is not the owner\") */\n      tag_181\n      jumpi\n      mload(0x40)\n      0x08c379a000000000000000000000000000000000000000000000000000000000\n      dup2\n      mstore\n      0x04\n      add\n      tag_182\n      swap1\n      tag_183\n      jump\t// in\n    tag_182:\n      mload(0x40)\n      dup1\n      swap2\n      sub\n      swap1\n      revert\n    tag_181:\n        /* \"@openzeppelin/contracts/access/Ownable.sol\":1359:1489  function _checkOwner() internal view virtual {... */\n      jump\t// out\n        /* \"@openzeppelin/contracts/access/Ownable.sol\":2426:2613  function _transferOwnership(address newOwner) internal virtual {... */\n    tag_120:\n        /* \"@openzeppelin/contracts/access/Ownable.sol\":2499:2515  address oldOwner */\n      0x00\n        /* \"@openzeppelin/contracts/access/Ownable.sol\":2518:2524  _owner */\n      dup1\n      0x00\n      swap1\n      sload\n      swap1\n      0x0100\n      exp\n      swap1\n      div\n      0xffffffffffffffffffffffffffffffffffffffff\n      and\n        /* \"@openzeppelin/contracts/access/Ownable.sol\":2499:2524  address oldOwner = _owner */\n      swap1\n      pop\n        /* \"@openzeppelin/contracts/access/Ownable.sol\":2543:2551  newOwner */\n      dup2\n        /* \"@openzeppelin/contracts/access/Ownable.sol\":2534:2540  _owner */\n      0x00\n      dup1\n        /* \"@openzeppelin/contracts/access/Ownable.sol\":2534:2551  _owner = newOwner */\n      0x0100\n      exp\n      dup2\n      sload\n      dup2\n      0xffffffffffffffffffffffffffffffffffffffff\n      mul\n      not\n      and\n      swap1\n      dup4\n      0xffffffffffffffffffffffffffffffffffffffff\n      and\n      mul\n      or\n      swap1\n      sstore\n      pop\n        /* \"@openzeppelin/contracts/access/Ownable.sol\":2597:2605  newOwner */\n      dup2\n        /* \"@openzeppelin/contracts/access/Ownable.sol\":2566:2606  OwnershipTransferred(oldOwner, newOwner) */\n      0xffffffffffffffffffffffffffffffffffffffff\n      and\n        /* \"@openzeppelin/contracts/access/Ownable.sol\":2587:2595  oldOwner */\n      dup2\n        /* \"@openzeppelin/contracts/access/Ownable.sol\":2566:2606  OwnershipTransferred(oldOwner, newOwner) */\n      0xffffffffffffffffffffffffffffffffffffffff\n      and\n      0x8be0079c531659141344cd1fd0a4f28419497f9722a3daafe3b4186f6b6457e0\n      mload(0x40)\n      mload(0x40)\n      dup1\n      swap2\n      sub\n      swap1\n      log3\n        /* \"@openzeppelin/contracts/access/Ownable.sol\":2489:2613  {... */\n      pop\n        /* \"@openzeppelin/contracts/access/Ownable.sol\":2426:2613  function _transferOwnership(address newOwner) internal virtual {... */\n      pop\n      jump\t// out\n        /* \"@openzeppelin/contracts/token/ERC20/utils/SafeERC20.sol\":941:1116  function safeTransfer(IERC20 token, address to, uint256 value) internal {... */\n    tag_128:\n        /* \"@openzeppelin/contracts/token/ERC20/utils/SafeERC20.sol\":1023:1109  _callOptionalReturn(token, abi.encodeWithSelector(token.transfer.selector, to, value)) */\n      tag_186\n        /* \"@openzeppelin/contracts/token/ERC20/utils/SafeERC20.sol\":1043:1048  token */\n      dup4\n        /* \"@openzeppelin/contracts/token/ERC20/utils/SafeERC20.sol\":1073:1096  token.transfer.selector */\n      shl(0xe0, 0xa9059cbb)\n        /* \"@openzeppelin/contracts/token/ERC20/utils/SafeERC20.sol\":1098:1100  to */\n      dup5\n        /* \"@openzeppelin/contracts/token/ERC20/utils/SafeERC20.sol\":1102:1107  value */\n      dup5\n        /* \"@openzeppelin/contracts/token/ERC20/utils/SafeERC20.sol\":1050:1108  abi.encodeWithSelector(token.transfer.selector, to, value) */\n      add(0x24, mload(0x40))\n      tag_187\n      swap3\n      swap2\n      swap1\n      tag_188\n      jump\t// in\n    tag_187:\n      mload(0x40)\n      0x20\n      dup2\n      dup4\n      sub\n      sub\n      dup2\n      mstore\n      swap1\n      0x40\n      mstore\n      swap1\n      not(0xffffffffffffffffffffffffffffffffffffffffffffffffffffffff)\n      and\n      0x20\n      dup3\n      add\n      dup1\n      mload\n      0xffffffffffffffffffffffffffffffffffffffffffffffffffffffff\n      dup4\n      dup2\n      dup4\n      and\n      or\n      dup4\n      mstore\n      pop\n      pop\n      pop\n      pop\n        /* \"@openzeppelin/contracts/token/ERC20/utils/SafeERC20.sol\":1023:1042  _callOptionalReturn */\n      tag_189\n        /* \"@openzeppelin/contracts/token/ERC20/utils/SafeERC20.sol\":1023:1109  _callOptionalReturn(token, abi.encodeWithSelector(token.transfer.selector, to, value)) */\n      jump\t// in\n    tag_186:\n        /* \"@openzeppelin/contracts/token/ERC20/utils/SafeERC20.sol\":941:1116  function safeTransfer(IERC20 token, address to, uint256 value) internal {... */\n      pop\n      pop\n      pop\n      jump\t// out\n        /* \"@openzeppelin/contracts/utils/math/SafeMath.sol\":3122:3218  function sub(uint256 a, uint256 b) internal pure returns (uint256) {... */\n    tag_130:\n        /* \"@openzeppelin/contracts/utils/math/SafeMath.sol\":3180:3187  uint256 */\n      0x00\n        /* \"@openzeppelin/contracts/utils/math/SafeMath.sol\":3210:3211  b */\n      dup2\n        /* \"@openzeppelin/contracts/utils/math/SafeMath.sol\":3206:3207  a */\n      dup4\n        /* \"@openzeppelin/contracts/utils/math/SafeMath.sol\":3206:3211  a - b */\n      tag_191\n      swap2\n      swap1\n      tag_192\n      jump\t// in\n    tag_191:\n        /* \"@openzeppelin/contracts/utils/math/SafeMath.sol\":3199:3211  return a - b */\n      swap1\n      pop\n        /* \"@openzeppelin/contracts/utils/math/SafeMath.sol\":3122:3218  function sub(uint256 a, uint256 b) internal pure returns (uint256) {... */\n      swap3\n      swap2\n      pop\n      pop\n      jump\t// out\n        /* \"@openzeppelin/contracts/token/ERC20/utils/SafeERC20.sol\":1355:1558  function safeTransferFrom(IERC20 token, address from, address to, uint256 value) internal {... */\n    tag_145:\n        /* \"@openzeppelin/contracts/token/ERC20/utils/SafeERC20.sol\":1455:1551  _callOptionalReturn(token, abi.encodeWithSelector(token.transferFrom.selector, from, to, value)) */\n      tag_194\n        /* \"@openzeppelin/contracts/token/ERC20/utils/SafeERC20.sol\":1475:1480  token */\n      dup5\n        /* \"@openzeppelin/contracts/token/ERC20/utils/SafeERC20.sol\":1505:1532  token.transferFrom.selector */\n      shl(0xe0, 0x23b872dd)\n        /* \"@openzeppelin/contracts/token/ERC20/utils/SafeERC20.sol\":1534:1538  from */\n      dup6\n        /* \"@openzeppelin/contracts/token/ERC20/utils/SafeERC20.sol\":1540:1542  to */\n      dup6\n        /* \"@openzeppelin/contracts/token/ERC20/utils/SafeERC20.sol\":1544:1549  value */\n      dup6\n        /* \"@openzeppelin/contracts/token/ERC20/utils/SafeERC20.sol\":1482:1550  abi.encodeWithSelector(token.transferFrom.selector, from, to, value) */\n      add(0x24, mload(0x40))\n      tag_195\n      swap4\n      swap3\n      swap2\n      swap1\n      tag_196\n      jump\t// in\n    tag_195:\n      mload(0x40)\n      0x20\n      dup2\n      dup4\n      sub\n      sub\n      dup2\n      mstore\n      swap1\n      0x40\n      mstore\n      swap1\n      not(0xffffffffffffffffffffffffffffffffffffffffffffffffffffffff)\n      and\n      0x20\n      dup3\n      add\n      dup1\n      mload\n      0xffffffffffffffffffffffffffffffffffffffffffffffffffffffff\n      dup4\n      dup2\n      dup4\n      and\n      or\n      dup4\n      mstore\n      pop\n      pop\n      pop\n      pop\n        /* \"@openzeppelin/contracts/token/ERC20/utils/SafeERC20.sol\":1455:1474  _callOptionalReturn */\n      tag_189\n        /* \"@openzeppelin/contracts/token/ERC20/utils/SafeERC20.sol\":1455:1551  _callOptionalReturn(token, abi.encodeWithSelector(token.transferFrom.selector, from, to, value)) */\n      jump\t// in\n    tag_194:\n        /* \"@openzeppelin/contracts/token/ERC20/utils/SafeERC20.sol\":1355:1558  function safeTransferFrom(IERC20 token, address from, address to, uint256 value) internal {... */\n      pop\n      pop\n      pop\n      pop\n      jump\t// out\n        /* \"@openzeppelin/contracts/utils/math/SafeMath.sol\":2755:2851  function add(uint256 a, uint256 b) internal pure returns (uint256) {... */\n    tag_147:\n        /* \"@openzeppelin/contracts/utils/math/SafeMath.sol\":2813:2820  uint256 */\n      0x00\n        /* \"@openzeppelin/contracts/utils/math/SafeMath.sol\":2843:2844  b */\n      dup2\n        /* \"@openzeppelin/contracts/utils/math/SafeMath.sol\":2839:2840  a */\n      dup4\n        /* \"@openzeppelin/contracts/utils/math/SafeMath.sol\":2839:2844  a + b */\n      tag_198\n      swap2\n      swap1\n      tag_199\n      jump\t// in\n    tag_198:\n        /* \"@openzeppelin/contracts/utils/math/SafeMath.sol\":2832:2844  return a + b */\n      swap1\n      pop\n        /* \"@openzeppelin/contracts/utils/math/SafeMath.sol\":2755:2851  function add(uint256 a, uint256 b) internal pure returns (uint256) {... */\n      swap3\n      swap2\n      pop\n      pop\n      jump\t// out\n        /* \"@openzeppelin/contracts/access/AccessControl.sol\":3844:4323  function _checkRole(bytes32 role, address account) internal view virtual {... */\n    tag_160:\n        /* \"@openzeppelin/contracts/access/AccessControl.sol\":3932:3954  hasRole(role, account) */\n      tag_201\n        /* \"@openzeppelin/contracts/access/AccessControl.sol\":3940:3944  role */\n      dup3\n        /* \"@openzeppelin/contracts/access/AccessControl.sol\":3946:3953  account */\n      dup3\n        /* \"@openzeppelin/contracts/access/AccessControl.sol\":3932:3939  hasRole */\n      tag_67\n        /* \"@openzeppelin/contracts/access/AccessControl.sol\":3932:3954  hasRole(role, account) */\n      jump\t// in\n    tag_201:\n        /* \"@openzeppelin/contracts/access/AccessControl.sol\":3927:4317  if (!hasRole(role, account)) {... */\n      tag_202\n      jumpi\n        /* \"@openzeppelin/contracts/access/AccessControl.sol\":4115:4143  Strings.toHexString(account) */\n      tag_203\n        /* \"@openzeppelin/contracts/access/AccessControl.sol\":4135:4142  account */\n      dup2\n        /* \"@openzeppelin/contracts/access/AccessControl.sol\":4115:4134  Strings.toHexString */\n      tag_204\n        /* \"@openzeppelin/contracts/access/AccessControl.sol\":4115:4143  Strings.toHexString(account) */\n      jump\t// in\n    tag_203:\n        /* \"@openzeppelin/contracts/access/AccessControl.sol\":4214:4252  Strings.toHexString(uint256(role), 32) */\n      tag_205\n        /* \"@openzeppelin/contracts/access/AccessControl.sol\":4242:4246  role */\n      dup4\n        /* \"@openzeppelin/contracts/access/AccessControl.sol\":4234:4247  uint256(role) */\n      0x00\n      shr\n        /* \"@openzeppelin/contracts/access/AccessControl.sol\":4249:4251  32 */\n      0x20\n        /* \"@openzeppelin/contracts/access/AccessControl.sol\":4214:4233  Strings.toHexString */\n      tag_206\n        /* \"@openzeppelin/contracts/access/AccessControl.sol\":4214:4252  Strings.toHexString(uint256(role), 32) */\n      jump\t// in\n    tag_205:\n        /* \"@openzeppelin/contracts/access/AccessControl.sol\":4022:4274  abi.encodePacked(... */\n      add(0x20, mload(0x40))\n      tag_207\n      swap3\n      swap2\n      swap1\n      tag_208\n      jump\t// in\n    tag_207:\n      mload(0x40)\n      0x20\n      dup2\n      dup4\n      sub\n      sub\n      dup2\n      mstore\n      swap1\n      0x40\n      mstore\n        /* \"@openzeppelin/contracts/access/AccessControl.sol\":3970:4306  revert(... */\n      mload(0x40)\n      0x08c379a000000000000000000000000000000000000000000000000000000000\n      dup2\n      mstore\n      0x04\n      add\n      tag_209\n      swap2\n      swap1\n      tag_210\n      jump\t// in\n    tag_209:\n      mload(0x40)\n      dup1\n      swap2\n      sub\n      swap1\n      revert\n        /* \"@openzeppelin/contracts/access/AccessControl.sol\":3927:4317  if (!hasRole(role, account)) {... */\n    tag_202:\n        /* \"@openzeppelin/contracts/access/AccessControl.sol\":3844:4323  function _checkRole(bytes32 role, address account) internal view virtual {... */\n      pop\n      pop\n      jump\t// out\n        /* \"@openzeppelin/contracts/token/ERC20/utils/SafeERC20.sol\":5173:5815  function _callOptionalReturn(IERC20 token, bytes memory data) private {... */\n    tag_189:\n        /* \"@openzeppelin/contracts/token/ERC20/utils/SafeERC20.sol\":5592:5615  bytes memory returndata */\n      0x00\n        /* \"@openzeppelin/contracts/token/ERC20/utils/SafeERC20.sol\":5618:5687  address(token).functionCall(data, \"SafeERC20: low-level call failed\") */\n      tag_212\n        /* \"@openzeppelin/contracts/token/ERC20/utils/SafeERC20.sol\":5646:5650  data */\n      dup3\n        /* \"@openzeppelin/contracts/token/ERC20/utils/SafeERC20.sol\":5618:5687  address(token).functionCall(data, \"SafeERC20: low-level call failed\") */\n      mload(0x40)\n      dup1\n      0x40\n      add\n      0x40\n      mstore\n      dup1\n      0x20\n      dup2\n      mstore\n      0x20\n      add\n      0x5361666545524332303a206c6f772d6c6576656c2063616c6c206661696c6564\n      dup2\n      mstore\n      pop\n        /* \"@openzeppelin/contracts/token/ERC20/utils/SafeERC20.sol\":5626:5631  token */\n      dup6\n        /* \"@openzeppelin/contracts/token/ERC20/utils/SafeERC20.sol\":5618:5645  address(token).functionCall */\n      0xffffffffffffffffffffffffffffffffffffffff\n      and\n      tag_213\n      swap1\n        /* \"@openzeppelin/contracts/token/ERC20/utils/SafeERC20.sol\":5618:5687  address(token).functionCall(data, \"SafeERC20: low-level call failed\") */\n      swap3\n      swap2\n      swap1\n      0xffffffff\n      and\n      jump\t// in\n    tag_212:\n        /* \"@openzeppelin/contracts/token/ERC20/utils/SafeERC20.sol\":5592:5687  bytes memory returndata = address(token).functionCall(data, \"SafeERC20: low-level call failed\") */\n      swap1\n      pop\n        /* \"@openzeppelin/contracts/token/ERC20/utils/SafeERC20.sol\":5726:5727  0 */\n      0x00\n        /* \"@openzeppelin/contracts/token/ERC20/utils/SafeERC20.sol\":5705:5715  returndata */\n      dup2\n        /* \"@openzeppelin/contracts/token/ERC20/utils/SafeERC20.sol\":5705:5722  returndata.length */\n      mload\n        /* \"@openzeppelin/contracts/token/ERC20/utils/SafeERC20.sol\":5705:5727  returndata.length == 0 */\n      eq\n        /* \"@openzeppelin/contracts/token/ERC20/utils/SafeERC20.sol\":5705:5761  returndata.length == 0 || abi.decode(returndata, (bool)) */\n      dup1\n      tag_214\n      jumpi\n      pop\n        /* \"@openzeppelin/contracts/token/ERC20/utils/SafeERC20.sol\":5742:5752  returndata */\n      dup1\n        /* \"@openzeppelin/contracts/token/ERC20/utils/SafeERC20.sol\":5731:5761  abi.decode(returndata, (bool)) */\n      dup1\n      0x20\n      add\n      swap1\n      mload\n      dup2\n      add\n      swap1\n      tag_215\n      swap2\n      swap1\n      tag_216\n      jump\t// in\n    tag_215:\n        /* \"@openzeppelin/contracts/token/ERC20/utils/SafeERC20.sol\":5705:5761  returndata.length == 0 || abi.decode(returndata, (bool)) */\n    tag_214:\n        /* \"@openzeppelin/contracts/token/ERC20/utils/SafeERC20.sol\":5697:5808  require(returndata.length == 0 || abi.decode(returndata, (bool)), \"SafeERC20: ERC20 operation did not succeed\") */\n      tag_217\n      jumpi\n      mload(0x40)\n      0x08c379a000000000000000000000000000000000000000000000000000000000\n      dup2\n      mstore\n      0x04\n      add\n      tag_218\n      swap1\n      tag_219\n      jump\t// in\n    tag_218:\n      mload(0x40)\n      dup1\n      swap2\n      sub\n      swap1\n      revert\n    tag_217:\n        /* \"@openzeppelin/contracts/token/ERC20/utils/SafeERC20.sol\":5243:5815  {... */\n      pop\n        /* \"@openzeppelin/contracts/token/ERC20/utils/SafeERC20.sol\":5173:5815  function _callOptionalReturn(IERC20 token, bytes memory data) private {... */\n      pop\n      pop\n      jump\t// out\n        /* \"@openzeppelin/contracts/utils/Strings.sol\":2407:2556  function toHexString(address addr) internal pure returns (string memory) {... */\n    tag_204:\n        /* \"@openzeppelin/contracts/utils/Strings.sol\":2465:2478  string memory */\n      0x60\n        /* \"@openzeppelin/contracts/utils/Strings.sol\":2497:2549  toHexString(uint256(uint160(addr)), _ADDRESS_LENGTH) */\n      tag_221\n        /* \"@openzeppelin/contracts/utils/Strings.sol\":2525:2529  addr */\n      dup3\n        /* \"@openzeppelin/contracts/utils/Strings.sol\":2509:2531  uint256(uint160(addr)) */\n      0xffffffffffffffffffffffffffffffffffffffff\n      and\n        /* \"@openzeppelin/contracts/utils/Strings.sol\":343:345  20 */\n      0x14\n        /* \"@openzeppelin/contracts/utils/Strings.sol\":2497:2549  toHexString(uint256(uint160(addr)), _ADDRESS_LENGTH) */\n      0xff\n      and\n        /* \"@openzeppelin/contracts/utils/Strings.sol\":2497:2508  toHexString */\n      tag_206\n        /* \"@openzeppelin/contracts/utils/Strings.sol\":2497:2549  toHexString(uint256(uint160(addr)), _ADDRESS_LENGTH) */\n      jump\t// in\n    tag_221:\n        /* \"@openzeppelin/contracts/utils/Strings.sol\":2490:2549  return toHexString(uint256(uint160(addr)), _ADDRESS_LENGTH) */\n      swap1\n      pop\n        /* \"@openzeppelin/contracts/utils/Strings.sol\":2407:2556  function toHexString(address addr) internal pure returns (string memory) {... */\n      swap2\n      swap1\n      pop\n      jump\t// out\n        /* \"@openzeppelin/contracts/utils/Strings.sol\":1818:2255  function toHexString(uint256 value, uint256 length) internal pure returns (string memory) {... */\n    tag_206:\n        /* \"@openzeppelin/contracts/utils/Strings.sol\":1893:1906  string memory */\n      0x60\n        /* \"@openzeppelin/contracts/utils/Strings.sol\":1918:1937  bytes memory buffer */\n      0x00\n        /* \"@openzeppelin/contracts/utils/Strings.sol\":1963:1964  2 */\n      0x02\n        /* \"@openzeppelin/contracts/utils/Strings.sol\":1954:1960  length */\n      dup4\n        /* \"@openzeppelin/contracts/utils/Strings.sol\":1950:1951  2 */\n      0x02\n        /* \"@openzeppelin/contracts/utils/Strings.sol\":1950:1960  2 * length */\n      tag_223\n      swap2\n      swap1\n      tag_224\n      jump\t// in\n    tag_223:\n        /* \"@openzeppelin/contracts/utils/Strings.sol\":1950:1964  2 * length + 2 */\n      tag_225\n      swap2\n      swap1\n      tag_199\n      jump\t// in\n    tag_225:\n        /* \"@openzeppelin/contracts/utils/Strings.sol\":1940:1965  new bytes(2 * length + 2) */\n      0xffffffffffffffff\n      dup2\n      gt\n      iszero\n      tag_226\n      jumpi\n      tag_227\n      tag_228\n      jump\t// in\n    tag_227:\n    tag_226:\n      mload(0x40)\n      swap1\n      dup1\n      dup3\n      mstore\n      dup1\n      0x1f\n      add\n      not(0x1f)\n      and\n      0x20\n      add\n      dup3\n      add\n      0x40\n      mstore\n      dup1\n      iszero\n      tag_229\n      jumpi\n      dup2\n      0x20\n      add\n      0x01\n      dup3\n      mul\n      dup1\n      calldatasize\n      dup4\n      calldatacopy\n      dup1\n      dup3\n      add\n      swap2\n      pop\n      pop\n      swap1\n      pop\n    tag_229:\n      pop\n        /* \"@openzeppelin/contracts/utils/Strings.sol\":1918:1965  bytes memory buffer = new bytes(2 * length + 2) */\n      swap1\n      pop\n        /* \"@openzeppelin/contracts/utils/Strings.sol\":1975:1990  buffer[0] = \"0\" */\n      0x3000000000000000000000000000000000000000000000000000000000000000\n        /* \"@openzeppelin/contracts/utils/Strings.sol\":1975:1981  buffer */\n      dup2\n        /* \"@openzeppelin/contracts/utils/Strings.sol\":1982:1983  0 */\n      0x00\n        /* \"@openzeppelin/contracts/utils/Strings.sol\":1975:1984  buffer[0] */\n      dup2\n      mload\n      dup2\n      lt\n      tag_230\n      jumpi\n      tag_231\n      tag_232\n      jump\t// in\n    tag_231:\n    tag_230:\n      0x20\n      add\n      add\n        /* \"@openzeppelin/contracts/utils/Strings.sol\":1975:1990  buffer[0] = \"0\" */\n      swap1\n      not(0xffffffffffffffffffffffffffffffffffffffffffffffffffffffffffffff)\n      and\n      swap1\n      dup2\n      0x00\n      byte\n      swap1\n      mstore8\n      pop\n        /* \"@openzeppelin/contracts/utils/Strings.sol\":2000:2015  buffer[1] = \"x\" */\n      0x7800000000000000000000000000000000000000000000000000000000000000\n        /* \"@openzeppelin/contracts/utils/Strings.sol\":2000:2006  buffer */\n      dup2\n        /* \"@openzeppelin/contracts/utils/Strings.sol\":2007:2008  1 */\n      0x01\n        /* \"@openzeppelin/contracts/utils/Strings.sol\":2000:2009  buffer[1] */\n      dup2\n      mload\n      dup2\n      lt\n      tag_233\n      jumpi\n      tag_234\n      tag_232\n      jump\t// in\n    tag_234:\n    tag_233:\n      0x20\n      add\n      add\n        /* \"@openzeppelin/contracts/utils/Strings.sol\":2000:2015  buffer[1] = \"x\" */\n      swap1\n      not(0xffffffffffffffffffffffffffffffffffffffffffffffffffffffffffffff)\n      and\n      swap1\n      dup2\n      0x00\n      byte\n      swap1\n      mstore8\n      pop\n        /* \"@openzeppelin/contracts/utils/Strings.sol\":2030:2039  uint256 i */\n      0x00\n        /* \"@openzeppelin/contracts/utils/Strings.sol\":2055:2056  1 */\n      0x01\n        /* \"@openzeppelin/contracts/utils/Strings.sol\":2046:2052  length */\n      dup5\n        /* \"@openzeppelin/contracts/utils/Strings.sol\":2042:2043  2 */\n      0x02\n        /* \"@openzeppelin/contracts/utils/Strings.sol\":2042:2052  2 * length */\n      tag_238\n      swap2\n      swap1\n      tag_224\n      jump\t// in\n    tag_238:\n        /* \"@openzeppelin/contracts/utils/Strings.sol\":2042:2056  2 * length + 1 */\n      tag_239\n      swap2\n      swap1\n      tag_199\n      jump\t// in\n    tag_239:\n        /* \"@openzeppelin/contracts/utils/Strings.sol\":2030:2056  uint256 i = 2 * length + 1 */\n      swap1\n      pop\n        /* \"@openzeppelin/contracts/utils/Strings.sol\":2025:2153  for (uint256 i = 2 * length + 1; i > 1; --i) {... */\n    tag_235:\n        /* \"@openzeppelin/contracts/utils/Strings.sol\":2062:2063  1 */\n      0x01\n        /* \"@openzeppelin/contracts/utils/Strings.sol\":2058:2059  i */\n      dup2\n        /* \"@openzeppelin/contracts/utils/Strings.sol\":2058:2063  i > 1 */\n      gt\n        /* \"@openzeppelin/contracts/utils/Strings.sol\":2025:2153  for (uint256 i = 2 * length + 1; i > 1; --i) {... */\n      iszero\n      tag_236\n      jumpi\n        /* \"@openzeppelin/contracts/utils/Strings.sol\":2096:2104  _SYMBOLS */\n      0x3031323334353637383961626364656600000000000000000000000000000000\n        /* \"@openzeppelin/contracts/utils/Strings.sol\":2113:2116  0xf */\n      0x0f\n        /* \"@openzeppelin/contracts/utils/Strings.sol\":2105:2110  value */\n      dup7\n        /* \"@openzeppelin/contracts/utils/Strings.sol\":2105:2116  value & 0xf */\n      and\n        /* \"@openzeppelin/contracts/utils/Strings.sol\":2096:2117  _SYMBOLS[value & 0xf] */\n      0x10\n      dup2\n      lt\n      tag_240\n      jumpi\n      tag_241\n      tag_232\n      jump\t// in\n    tag_241:\n    tag_240:\n      byte\n      0xf8\n      shl\n        /* \"@openzeppelin/contracts/utils/Strings.sol\":2084:2090  buffer */\n      dup3\n        /* \"@openzeppelin/contracts/utils/Strings.sol\":2091:2092  i */\n      dup3\n        /* \"@openzeppelin/contracts/utils/Strings.sol\":2084:2093  buffer[i] */\n      dup2\n      mload\n      dup2\n      lt\n      tag_242\n      jumpi\n      tag_243\n      tag_232\n      jump\t// in\n    tag_243:\n    tag_242:\n      0x20\n      add\n      add\n        /* \"@openzeppelin/contracts/utils/Strings.sol\":2084:2117  buffer[i] = _SYMBOLS[value & 0xf] */\n      swap1\n      not(0xffffffffffffffffffffffffffffffffffffffffffffffffffffffffffffff)\n      and\n      swap1\n      dup2\n      0x00\n      byte\n      swap1\n      mstore8\n      pop\n        /* \"@openzeppelin/contracts/utils/Strings.sol\":2141:2142  4 */\n      0x04\n        /* \"@openzeppelin/contracts/utils/Strings.sol\":2131:2142  value >>= 4 */\n      dup6\n      swap1\n      shr\n      swap5\n      pop\n        /* \"@openzeppelin/contracts/utils/Strings.sol\":2065:2068  --i */\n      dup1\n      tag_244\n      swap1\n      tag_245\n      jump\t// in\n    tag_244:\n      swap1\n      pop\n        /* \"@openzeppelin/contracts/utils/Strings.sol\":2025:2153  for (uint256 i = 2 * length + 1; i > 1; --i) {... */\n      jump(tag_235)\n    tag_236:\n      pop\n        /* \"@openzeppelin/contracts/utils/Strings.sol\":2179:2180  0 */\n      0x00\n        /* \"@openzeppelin/contracts/utils/Strings.sol\":2170:2175  value */\n      dup5\n        /* \"@openzeppelin/contracts/utils/Strings.sol\":2170:2180  value == 0 */\n      eq\n        /* \"@openzeppelin/contracts/utils/Strings.sol\":2162:2217  require(value == 0, \"Strings: hex length insufficient\") */\n      tag_246\n      jumpi\n      mload(0x40)\n      0x08c379a000000000000000000000000000000000000000000000000000000000\n      dup2\n      mstore\n      0x04\n      add\n      tag_247\n      swap1\n      tag_248\n      jump\t// in\n    tag_247:\n      mload(0x40)\n      dup1\n      swap2\n      sub\n      swap1\n      revert\n    tag_246:\n        /* \"@openzeppelin/contracts/utils/Strings.sol\":2241:2247  buffer */\n      dup1\n        /* \"@openzeppelin/contracts/utils/Strings.sol\":2227:2248  return string(buffer) */\n      swap2\n      pop\n      pop\n        /* \"@openzeppelin/contracts/utils/Strings.sol\":1818:2255  function toHexString(uint256 value, uint256 length) internal pure returns (string memory) {... */\n      swap3\n      swap2\n      pop\n      pop\n      jump\t// out\n        /* \"@openzeppelin/contracts/utils/Address.sol\":4108:4331  function functionCall(... */\n    tag_213:\n        /* \"@openzeppelin/contracts/utils/Address.sol\":4241:4253  bytes memory */\n      0x60\n        /* \"@openzeppelin/contracts/utils/Address.sol\":4272:4324  functionCallWithValue(target, data, 0, errorMessage) */\n      tag_250\n        /* \"@openzeppelin/contracts/utils/Address.sol\":4294:4300  target */\n      dup5\n        /* \"@openzeppelin/contracts/utils/Address.sol\":4302:4306  data */\n      dup5\n        /* \"@openzeppelin/contracts/utils/Address.sol\":4308:4309  0 */\n      0x00\n        /* \"@openzeppelin/contracts/utils/Address.sol\":4311:4323  errorMessage */\n      dup6\n        /* \"@openzeppelin/contracts/utils/Address.sol\":4272:4293  functionCallWithValue */\n      tag_251\n        /* \"@openzeppelin/contracts/utils/Address.sol\":4272:4324  functionCallWithValue(target, data, 0, errorMessage) */\n      jump\t// in\n    tag_250:\n        /* \"@openzeppelin/contracts/utils/Address.sol\":4265:4324  return functionCallWithValue(target, data, 0, errorMessage) */\n      swap1\n      pop\n        /* \"@openzeppelin/contracts/utils/Address.sol\":4108:4331  function functionCall(... */\n      swap4\n      swap3\n      pop\n      pop\n      pop\n      jump\t// out\n        /* \"@openzeppelin/contracts/utils/Address.sol\":5165:5611  function functionCallWithValue(... */\n    tag_251:\n        /* \"@openzeppelin/contracts/utils/Address.sol\":5330:5342  bytes memory */\n      0x60\n        /* \"@openzeppelin/contracts/utils/Address.sol\":5387:5392  value */\n      dup3\n        /* \"@openzeppelin/contracts/utils/Address.sol\":5362:5383  address(this).balance */\n      selfbalance\n        /* \"@openzeppelin/contracts/utils/Address.sol\":5362:5392  address(this).balance >= value */\n      lt\n      iszero\n        /* \"@openzeppelin/contracts/utils/Address.sol\":5354:5435  require(address(this).balance >= value, \"Address: insufficient balance for call\") */\n      tag_253\n      jumpi\n      mload(0x40)\n      0x08c379a000000000000000000000000000000000000000000000000000000000\n      dup2\n      mstore\n      0x04\n      add\n      tag_254\n      swap1\n      tag_255\n      jump\t// in\n    tag_254:\n      mload(0x40)\n      dup1\n      swap2\n      sub\n      swap1\n      revert\n    tag_253:\n        /* \"@openzeppelin/contracts/utils/Address.sol\":5446:5458  bool success */\n      0x00\n        /* \"@openzeppelin/contracts/utils/Address.sol\":5460:5483  bytes memory returndata */\n      dup1\n        /* \"@openzeppelin/contracts/utils/Address.sol\":5487:5493  target */\n      dup7\n        /* \"@openzeppelin/contracts/utils/Address.sol\":5487:5498  target.call */\n      0xffffffffffffffffffffffffffffffffffffffff\n      and\n        /* \"@openzeppelin/contracts/utils/Address.sol\":5506:5511  value */\n      dup6\n        /* \"@openzeppelin/contracts/utils/Address.sol\":5513:5517  data */\n      dup8\n        /* \"@openzeppelin/contracts/utils/Address.sol\":5487:5518  target.call{value: value}(data) */\n      mload(0x40)\n      tag_256\n      swap2\n      swap1\n      tag_257\n      jump\t// in\n    tag_256:\n      0x00\n      mload(0x40)\n      dup1\n      dup4\n      sub\n      dup2\n      dup6\n      dup8\n      gas\n      call\n      swap3\n      pop\n      pop\n      pop\n      returndatasize\n      dup1\n      0x00\n      dup2\n      eq\n      tag_260\n      jumpi\n      mload(0x40)\n      swap2\n      pop\n      and(add(returndatasize, 0x3f), not(0x1f))\n      dup3\n      add\n      0x40\n      mstore\n      returndatasize\n      dup3\n      mstore\n      returndatasize\n      0x00\n      0x20\n      dup5\n      add\n      returndatacopy\n      jump(tag_259)\n    tag_260:\n      0x60\n      swap2\n      pop\n    tag_259:\n      pop\n        /* \"@openzeppelin/contracts/utils/Address.sol\":5445:5518  (bool success, bytes memory returndata) = target.call{value: value}(data) */\n      swap2\n      pop\n      swap2\n      pop\n        /* \"@openzeppelin/contracts/utils/Address.sol\":5535:5604  verifyCallResultFromTarget(target, success, returndata, errorMessage) */\n      tag_261\n        /* \"@openzeppelin/contracts/utils/Address.sol\":5562:5568  target */\n      dup8\n        /* \"@openzeppelin/contracts/utils/Address.sol\":5570:5577  success */\n      dup4\n        /* \"@openzeppelin/contracts/utils/Address.sol\":5579:5589  returndata */\n      dup4\n        /* \"@openzeppelin/contracts/utils/Address.sol\":5591:5603  errorMessage */\n      dup8\n        /* \"@openzeppelin/contracts/utils/Address.sol\":5535:5561  verifyCallResultFromTarget */\n      tag_262\n        /* \"@openzeppelin/contracts/utils/Address.sol\":5535:5604  verifyCallResultFromTarget(target, success, returndata, errorMessage) */\n      jump\t// in\n    tag_261:\n        /* \"@openzeppelin/contracts/utils/Address.sol\":5528:5604  return verifyCallResultFromTarget(target, success, returndata, errorMessage) */\n      swap3\n      pop\n      pop\n      pop\n        /* \"@openzeppelin/contracts/utils/Address.sol\":5165:5611  function functionCallWithValue(... */\n      swap5\n      swap4\n      pop\n      pop\n      pop\n      pop\n      jump\t// out\n        /* \"@openzeppelin/contracts/utils/Address.sol\":7671:8299  function verifyCallResultFromTarget(... */\n    tag_262:\n        /* \"@openzeppelin/contracts/utils/Address.sol\":7851:7863  bytes memory */\n      0x60\n        /* \"@openzeppelin/contracts/utils/Address.sol\":7879:7886  success */\n      dup4\n        /* \"@openzeppelin/contracts/utils/Address.sol\":7875:8293  if (success) {... */\n      iszero\n      tag_264\n      jumpi\n        /* \"@openzeppelin/contracts/utils/Address.sol\":7927:7928  0 */\n      0x00\n        /* \"@openzeppelin/contracts/utils/Address.sol\":7906:7916  returndata */\n      dup4\n        /* \"@openzeppelin/contracts/utils/Address.sol\":7906:7923  returndata.length */\n      mload\n        /* \"@openzeppelin/contracts/utils/Address.sol\":7906:7928  returndata.length == 0 */\n      sub\n        /* \"@openzeppelin/contracts/utils/Address.sol\":7902:8188  if (returndata.length == 0) {... */\n      tag_265\n      jumpi\n        /* \"@openzeppelin/contracts/utils/Address.sol\":8121:8139  isContract(target) */\n      tag_266\n        /* \"@openzeppelin/contracts/utils/Address.sol\":8132:8138  target */\n      dup6\n        /* \"@openzeppelin/contracts/utils/Address.sol\":8121:8131  isContract */\n      tag_267\n        /* \"@openzeppelin/contracts/utils/Address.sol\":8121:8139  isContract(target) */\n      jump\t// in\n    tag_266:\n        /* \"@openzeppelin/contracts/utils/Address.sol\":8113:8173  require(isContract(target), \"Address: call to non-contract\") */\n      tag_268\n      jumpi\n      mload(0x40)\n      0x08c379a000000000000000000000000000000000000000000000000000000000\n      dup2\n      mstore\n      0x04\n      add\n      tag_269\n      swap1\n      tag_270\n      jump\t// in\n    tag_269:\n      mload(0x40)\n      dup1\n      swap2\n      sub\n      swap1\n      revert\n    tag_268:\n        /* \"@openzeppelin/contracts/utils/Address.sol\":7902:8188  if (returndata.length == 0) {... */\n    tag_265:\n        /* \"@openzeppelin/contracts/utils/Address.sol\":8208:8218  returndata */\n      dup3\n        /* \"@openzeppelin/contracts/utils/Address.sol\":8201:8218  return returndata */\n      swap1\n      pop\n      jump(tag_263)\n        /* \"@openzeppelin/contracts/utils/Address.sol\":7875:8293  if (success) {... */\n    tag_264:\n        /* \"@openzeppelin/contracts/utils/Address.sol\":8249:8282  _revert(returndata, errorMessage) */\n      tag_272\n        /* \"@openzeppelin/contracts/utils/Address.sol\":8257:8267  returndata */\n      dup4\n        /* \"@openzeppelin/contracts/utils/Address.sol\":8269:8281  errorMessage */\n      dup4\n        /* \"@openzeppelin/contracts/utils/Address.sol\":8249:8256  _revert */\n      tag_273\n        /* \"@openzeppelin/contracts/utils/Address.sol\":8249:8282  _revert(returndata, errorMessage) */\n      jump\t// in\n    tag_272:\n        /* \"@openzeppelin/contracts/utils/Address.sol\":7671:8299  function verifyCallResultFromTarget(... */\n    tag_263:\n      swap5\n      swap4\n      pop\n      pop\n      pop\n      pop\n      jump\t// out\n        /* \"@openzeppelin/contracts/utils/Address.sol\":1412:1732  function isContract(address account) internal view returns (bool) {... */\n    tag_267:\n        /* \"@openzeppelin/contracts/utils/Address.sol\":1472:1476  bool */\n      0x00\n        /* \"@openzeppelin/contracts/utils/Address.sol\":1724:1725  0 */\n      dup1\n        /* \"@openzeppelin/contracts/utils/Address.sol\":1702:1709  account */\n      dup3\n        /* \"@openzeppelin/contracts/utils/Address.sol\":1702:1721  account.code.length */\n      0xffffffffffffffffffffffffffffffffffffffff\n      and\n      extcodesize\n        /* \"@openzeppelin/contracts/utils/Address.sol\":1702:1725  account.code.length > 0 */\n      gt\n        /* \"@openzeppelin/contracts/utils/Address.sol\":1695:1725  return account.code.length > 0 */\n      swap1\n      pop\n        /* \"@openzeppelin/contracts/utils/Address.sol\":1412:1732  function isContract(address account) internal view returns (bool) {... */\n      swap2\n      swap1\n      pop\n      jump\t// out\n        /* \"@openzeppelin/contracts/utils/Address.sol\":8821:9361  function _revert(bytes memory returndata, string memory errorMessage) private pure {... */\n    tag_273:\n        /* \"@openzeppelin/contracts/utils/Address.sol\":9000:9001  0 */\n      0x00\n        /* \"@openzeppelin/contracts/utils/Address.sol\":8980:8990  returndata */\n      dup3\n        /* \"@openzeppelin/contracts/utils/Address.sol\":8980:8997  returndata.length */\n      mload\n        /* \"@openzeppelin/contracts/utils/Address.sol\":8980:9001  returndata.length > 0 */\n      gt\n        /* \"@openzeppelin/contracts/utils/Address.sol\":8976:9355  if (returndata.length > 0) {... */\n      iszero\n      tag_276\n      jumpi\n        /* \"@openzeppelin/contracts/utils/Address.sol\":9208:9218  returndata */\n      dup2\n        /* \"@openzeppelin/contracts/utils/Address.sol\":9202:9219  mload(returndata) */\n      mload\n        /* \"@openzeppelin/contracts/utils/Address.sol\":9264:9279  returndata_size */\n      dup1\n        /* \"@openzeppelin/contracts/utils/Address.sol\":9251:9261  returndata */\n      dup4\n        /* \"@openzeppelin/contracts/utils/Address.sol\":9247:9249  32 */\n      0x20\n        /* \"@openzeppelin/contracts/utils/Address.sol\":9243:9262  add(32, returndata) */\n      add\n        /* \"@openzeppelin/contracts/utils/Address.sol\":9236:9280  revert(add(32, returndata), returndata_size) */\n      revert\n        /* \"@openzeppelin/contracts/utils/Address.sol\":8976:9355  if (returndata.length > 0) {... */\n    tag_276:\n        /* \"@openzeppelin/contracts/utils/Address.sol\":9331:9343  errorMessage */\n      dup1\n        /* \"@openzeppelin/contracts/utils/Address.sol\":9324:9344  revert(errorMessage) */\n      mload(0x40)\n      0x08c379a000000000000000000000000000000000000000000000000000000000\n      dup2\n      mstore\n      0x04\n      add\n      tag_278\n      swap2\n      swap1\n      tag_210\n      jump\t// in\n    tag_278:\n      mload(0x40)\n      dup1\n      swap2\n      sub\n      swap1\n      revert\n        /* \"#utility.yul\":88:205   */\n    tag_280:\n        /* \"#utility.yul\":197:198   */\n      0x00\n        /* \"#utility.yul\":194:195   */\n      dup1\n        /* \"#utility.yul\":187:199   */\n      revert\n        /* \"#utility.yul\":334:483   */\n    tag_282:\n        /* \"#utility.yul\":370:377   */\n      0x00\n        /* \"#utility.yul\":410:476   */\n      0xffffffff00000000000000000000000000000000000000000000000000000000\n        /* \"#utility.yul\":403:408   */\n      dup3\n        /* \"#utility.yul\":399:477   */\n      and\n        /* \"#utility.yul\":388:477   */\n      swap1\n      pop\n        /* \"#utility.yul\":334:483   */\n      swap2\n      swap1\n      pop\n      jump\t// out\n        /* \"#utility.yul\":489:609   */\n    tag_283:\n        /* \"#utility.yul\":561:584   */\n      tag_349\n        /* \"#utility.yul\":578:583   */\n      dup2\n        /* \"#utility.yul\":561:584   */\n      tag_282\n      jump\t// in\n    tag_349:\n        /* \"#utility.yul\":554:559   */\n      dup2\n        /* \"#utility.yul\":551:585   */\n      eq\n        /* \"#utility.yul\":541:603   */\n      tag_350\n      jumpi\n        /* \"#utility.yul\":599:600   */\n      0x00\n        /* \"#utility.yul\":596:597   */\n      dup1\n        /* \"#utility.yul\":589:601   */\n      revert\n        /* \"#utility.yul\":541:603   */\n    tag_350:\n        /* \"#utility.yul\":489:609   */\n      pop\n      jump\t// out\n        /* \"#utility.yul\":615:752   */\n    tag_284:\n        /* \"#utility.yul\":660:665   */\n      0x00\n        /* \"#utility.yul\":698:704   */\n      dup2\n        /* \"#utility.yul\":685:705   */\n      calldataload\n        /* \"#utility.yul\":676:705   */\n      swap1\n      pop\n        /* \"#utility.yul\":714:746   */\n      tag_352\n        /* \"#utility.yul\":740:745   */\n      dup2\n        /* \"#utility.yul\":714:746   */\n      tag_283\n      jump\t// in\n    tag_352:\n        /* \"#utility.yul\":615:752   */\n      swap3\n      swap2\n      pop\n      pop\n      jump\t// out\n        /* \"#utility.yul\":758:1085   */\n    tag_24:\n        /* \"#utility.yul\":816:822   */\n      0x00\n        /* \"#utility.yul\":865:867   */\n      0x20\n        /* \"#utility.yul\":853:862   */\n      dup3\n        /* \"#utility.yul\":844:851   */\n      dup5\n        /* \"#utility.yul\":840:863   */\n      sub\n        /* \"#utility.yul\":836:868   */\n      slt\n        /* \"#utility.yul\":833:952   */\n      iszero\n      tag_354\n      jumpi\n        /* \"#utility.yul\":871:950   */\n      tag_355\n      tag_280\n      jump\t// in\n    tag_355:\n        /* \"#utility.yul\":833:952   */\n    tag_354:\n        /* \"#utility.yul\":991:992   */\n      0x00\n        /* \"#utility.yul\":1016:1068   */\n      tag_356\n        /* \"#utility.yul\":1060:1067   */\n      dup5\n        /* \"#utility.yul\":1051:1057   */\n      dup3\n        /* \"#utility.yul\":1040:1049   */\n      dup6\n        /* \"#utility.yul\":1036:1058   */\n      add\n        /* \"#utility.yul\":1016:1068   */\n      tag_284\n      jump\t// in\n    tag_356:\n        /* \"#utility.yul\":1006:1068   */\n      swap2\n      pop\n        /* \"#utility.yul\":962:1078   */\n      pop\n        /* \"#utility.yul\":758:1085   */\n      swap3\n      swap2\n      pop\n      pop\n      jump\t// out\n        /* \"#utility.yul\":1091:1181   */\n    tag_285:\n        /* \"#utility.yul\":1125:1132   */\n      0x00\n        /* \"#utility.yul\":1168:1173   */\n      dup2\n        /* \"#utility.yul\":1161:1174   */\n      iszero\n        /* \"#utility.yul\":1154:1175   */\n      iszero\n        /* \"#utility.yul\":1143:1175   */\n      swap1\n      pop\n        /* \"#utility.yul\":1091:1181   */\n      swap2\n      swap1\n      pop\n      jump\t// out\n        /* \"#utility.yul\":1187:1296   */\n    tag_286:\n        /* \"#utility.yul\":1268:1289   */\n      tag_359\n        /* \"#utility.yul\":1283:1288   */\n      dup2\n        /* \"#utility.yul\":1268:1289   */\n      tag_285\n      jump\t// in\n    tag_359:\n        /* \"#utility.yul\":1263:1266   */\n      dup3\n        /* \"#utility.yul\":1256:1290   */\n      mstore\n        /* \"#utility.yul\":1187:1296   */\n      pop\n      pop\n      jump\t// out\n        /* \"#utility.yul\":1302:1512   */\n    tag_27:\n        /* \"#utility.yul\":1389:1393   */\n      0x00\n        /* \"#utility.yul\":1427:1429   */\n      0x20\n        /* \"#utility.yul\":1416:1425   */\n      dup3\n        /* \"#utility.yul\":1412:1430   */\n      add\n        /* \"#utility.yul\":1404:1430   */\n      swap1\n      pop\n        /* \"#utility.yul\":1440:1505   */\n      tag_361\n        /* \"#utility.yul\":1502:1503   */\n      0x00\n        /* \"#utility.yul\":1491:1500   */\n      dup4\n        /* \"#utility.yul\":1487:1504   */\n      add\n        /* \"#utility.yul\":1478:1484   */\n      dup5\n        /* \"#utility.yul\":1440:1505   */\n      tag_286\n      jump\t// in\n    tag_361:\n        /* \"#utility.yul\":1302:1512   */\n      swap3\n      swap2\n      pop\n      pop\n      jump\t// out\n        /* \"#utility.yul\":1518:1595   */\n    tag_287:\n        /* \"#utility.yul\":1555:1562   */\n      0x00\n        /* \"#utility.yul\":1584:1589   */\n      dup2\n        /* \"#utility.yul\":1573:1589   */\n      swap1\n      pop\n        /* \"#utility.yul\":1518:1595   */\n      swap2\n      swap1\n      pop\n      jump\t// out\n        /* \"#utility.yul\":1601:1723   */\n    tag_288:\n        /* \"#utility.yul\":1674:1698   */\n      tag_364\n        /* \"#utility.yul\":1692:1697   */\n      dup2\n        /* \"#utility.yul\":1674:1698   */\n      tag_287\n      jump\t// in\n    tag_364:\n        /* \"#utility.yul\":1667:1672   */\n      dup2\n        /* \"#utility.yul\":1664:1699   */\n      eq\n        /* \"#utility.yul\":1654:1717   */\n      tag_365\n      jumpi\n        /* \"#utility.yul\":1713:1714   */\n      0x00\n        /* \"#utility.yul\":1710:1711   */\n      dup1\n        /* \"#utility.yul\":1703:1715   */\n      revert\n        /* \"#utility.yul\":1654:1717   */\n    tag_365:\n        /* \"#utility.yul\":1601:1723   */\n      pop\n      jump\t// out\n        /* \"#utility.yul\":1729:1868   */\n    tag_289:\n        /* \"#utility.yul\":1775:1780   */\n      0x00\n        /* \"#utility.yul\":1813:1819   */\n      dup2\n        /* \"#utility.yul\":1800:1820   */\n      calldataload\n        /* \"#utility.yul\":1791:1820   */\n      swap1\n      pop\n        /* \"#utility.yul\":1829:1862   */\n      tag_367\n        /* \"#utility.yul\":1856:1861   */\n      dup2\n        /* \"#utility.yul\":1829:1862   */\n      tag_288\n      jump\t// in\n    tag_367:\n        /* \"#utility.yul\":1729:1868   */\n      swap3\n      swap2\n      pop\n      pop\n      jump\t// out\n        /* \"#utility.yul\":1874:2203   */\n    tag_30:\n        /* \"#utility.yul\":1933:1939   */\n      0x00\n        /* \"#utility.yul\":1982:1984   */\n      0x20\n        /* \"#utility.yul\":1970:1979   */\n      dup3\n        /* \"#utility.yul\":1961:1968   */\n      dup5\n        /* \"#utility.yul\":1957:1980   */\n      sub\n        /* \"#utility.yul\":1953:1985   */\n      slt\n        /* \"#utility.yul\":1950:2069   */\n      iszero\n      tag_369\n      jumpi\n        /* \"#utility.yul\":1988:2067   */\n      tag_370\n      tag_280\n      jump\t// in\n    tag_370:\n        /* \"#utility.yul\":1950:2069   */\n    tag_369:\n        /* \"#utility.yul\":2108:2109   */\n      0x00\n        /* \"#utility.yul\":2133:2186   */\n      tag_371\n        /* \"#utility.yul\":2178:2185   */\n      dup5\n        /* \"#utility.yul\":2169:2175   */\n      dup3\n        /* \"#utility.yul\":2158:2167   */\n      dup6\n        /* \"#utility.yul\":2154:2176   */\n      add\n        /* \"#utility.yul\":2133:2186   */\n      tag_289\n      jump\t// in\n    tag_371:\n        /* \"#utility.yul\":2123:2186   */\n      swap2\n      pop\n        /* \"#utility.yul\":2079:2196   */\n      pop\n        /* \"#utility.yul\":1874:2203   */\n      swap3\n      swap2\n      pop\n      pop\n      jump\t// out\n        /* \"#utility.yul\":2209:2327   */\n    tag_290:\n        /* \"#utility.yul\":2296:2320   */\n      tag_373\n        /* \"#utility.yul\":2314:2319   */\n      dup2\n        /* \"#utility.yul\":2296:2320   */\n      tag_287\n      jump\t// in\n    tag_373:\n        /* \"#utility.yul\":2291:2294   */\n      dup3\n        /* \"#utility.yul\":2284:2321   */\n      mstore\n        /* \"#utility.yul\":2209:2327   */\n      pop\n      pop\n      jump\t// out\n        /* \"#utility.yul\":2333:2555   */\n    tag_33:\n        /* \"#utility.yul\":2426:2430   */\n      0x00\n        /* \"#utility.yul\":2464:2466   */\n      0x20\n        /* \"#utility.yul\":2453:2462   */\n      dup3\n        /* \"#utility.yul\":2449:2467   */\n      add\n        /* \"#utility.yul\":2441:2467   */\n      swap1\n      pop\n        /* \"#utility.yul\":2477:2548   */\n      tag_375\n        /* \"#utility.yul\":2545:2546   */\n      0x00\n        /* \"#utility.yul\":2534:2543   */\n      dup4\n        /* \"#utility.yul\":2530:2547   */\n      add\n        /* \"#utility.yul\":2521:2527   */\n      dup5\n        /* \"#utility.yul\":2477:2548   */\n      tag_290\n      jump\t// in\n    tag_375:\n        /* \"#utility.yul\":2333:2555   */\n      swap3\n      swap2\n      pop\n      pop\n      jump\t// out\n        /* \"#utility.yul\":2561:2638   */\n    tag_291:\n        /* \"#utility.yul\":2598:2605   */\n      0x00\n        /* \"#utility.yul\":2627:2632   */\n      dup2\n        /* \"#utility.yul\":2616:2632   */\n      swap1\n      pop\n        /* \"#utility.yul\":2561:2638   */\n      swap2\n      swap1\n      pop\n      jump\t// out\n        /* \"#utility.yul\":2644:2766   */\n    tag_292:\n        /* \"#utility.yul\":2717:2741   */\n      tag_378\n        /* \"#utility.yul\":2735:2740   */\n      dup2\n        /* \"#utility.yul\":2717:2741   */\n      tag_291\n      jump\t// in\n    tag_378:\n        /* \"#utility.yul\":2710:2715   */\n      dup2\n        /* \"#utility.yul\":2707:2742   */\n      eq\n        /* \"#utility.yul\":2697:2760   */\n      tag_379\n      jumpi\n        /* \"#utility.yul\":2756:2757   */\n      0x00\n        /* \"#utility.yul\":2753:2754   */\n      dup1\n        /* \"#utility.yul\":2746:2758   */\n      revert\n        /* \"#utility.yul\":2697:2760   */\n    tag_379:\n        /* \"#utility.yul\":2644:2766   */\n      pop\n      jump\t// out\n        /* \"#utility.yul\":2772:2911   */\n    tag_293:\n        /* \"#utility.yul\":2818:2823   */\n      0x00\n        /* \"#utility.yul\":2856:2862   */\n      dup2\n        /* \"#utility.yul\":2843:2863   */\n      calldataload\n        /* \"#utility.yul\":2834:2863   */\n      swap1\n      pop\n        /* \"#utility.yul\":2872:2905   */\n      tag_381\n        /* \"#utility.yul\":2899:2904   */\n      dup2\n        /* \"#utility.yul\":2872:2905   */\n      tag_292\n      jump\t// in\n    tag_381:\n        /* \"#utility.yul\":2772:2911   */\n      swap3\n      swap2\n      pop\n      pop\n      jump\t// out\n        /* \"#utility.yul\":2917:3246   */\n    tag_36:\n        /* \"#utility.yul\":2976:2982   */\n      0x00\n        /* \"#utility.yul\":3025:3027   */\n      0x20\n        /* \"#utility.yul\":3013:3022   */\n      dup3\n        /* \"#utility.yul\":3004:3011   */\n      dup5\n        /* \"#utility.yul\":3000:3023   */\n      sub\n        /* \"#utility.yul\":2996:3028   */\n      slt\n        /* \"#utility.yul\":2993:3112   */\n      iszero\n      tag_383\n      jumpi\n        /* \"#utility.yul\":3031:3110   */\n      tag_384\n      tag_280\n      jump\t// in\n    tag_384:\n        /* \"#utility.yul\":2993:3112   */\n    tag_383:\n        /* \"#utility.yul\":3151:3152   */\n      0x00\n        /* \"#utility.yul\":3176:3229   */\n      tag_385\n        /* \"#utility.yul\":3221:3228   */\n      dup5\n        /* \"#utility.yul\":3212:3218   */\n      dup3\n        /* \"#utility.yul\":3201:3210   */\n      dup6\n        /* \"#utility.yul\":3197:3219   */\n      add\n        /* \"#utility.yul\":3176:3229   */\n      tag_293\n      jump\t// in\n    tag_385:\n        /* \"#utility.yul\":3166:3229   */\n      swap2\n      pop\n        /* \"#utility.yul\":3122:3239   */\n      pop\n        /* \"#utility.yul\":2917:3246   */\n      swap3\n      swap2\n      pop\n      pop\n      jump\t// out\n        /* \"#utility.yul\":3252:3378   */\n    tag_294:\n        /* \"#utility.yul\":3289:3296   */\n      0x00\n        /* \"#utility.yul\":3329:3371   */\n      0xffffffffffffffffffffffffffffffffffffffff\n        /* \"#utility.yul\":3322:3327   */\n      dup3\n        /* \"#utility.yul\":3318:3372   */\n      and\n        /* \"#utility.yul\":3307:3372   */\n      swap1\n      pop\n        /* \"#utility.yul\":3252:3378   */\n      swap2\n      swap1\n      pop\n      jump\t// out\n        /* \"#utility.yul\":3384:3444   */\n    tag_295:\n        /* \"#utility.yul\":3412:3415   */\n      0x00\n        /* \"#utility.yul\":3433:3438   */\n      dup2\n        /* \"#utility.yul\":3426:3438   */\n      swap1\n      pop\n        /* \"#utility.yul\":3384:3444   */\n      swap2\n      swap1\n      pop\n      jump\t// out\n        /* \"#utility.yul\":3450:3592   */\n    tag_296:\n        /* \"#utility.yul\":3500:3509   */\n      0x00\n        /* \"#utility.yul\":3533:3586   */\n      tag_389\n        /* \"#utility.yul\":3551:3585   */\n      tag_390\n        /* \"#utility.yul\":3560:3584   */\n      tag_391\n        /* \"#utility.yul\":3578:3583   */\n      dup5\n        /* \"#utility.yul\":3560:3584   */\n      tag_294\n      jump\t// in\n    tag_391:\n        /* \"#utility.yul\":3551:3585   */\n      tag_295\n      jump\t// in\n    tag_390:\n        /* \"#utility.yul\":3533:3586   */\n      tag_294\n      jump\t// in\n    tag_389:\n        /* \"#utility.yul\":3520:3586   */\n      swap1\n      pop\n        /* \"#utility.yul\":3450:3592   */\n      swap2\n      swap1\n      pop\n      jump\t// out\n        /* \"#utility.yul\":3598:3724   */\n    tag_297:\n        /* \"#utility.yul\":3648:3657   */\n      0x00\n        /* \"#utility.yul\":3681:3718   */\n      tag_393\n        /* \"#utility.yul\":3712:3717   */\n      dup3\n        /* \"#utility.yul\":3681:3718   */\n      tag_296\n      jump\t// in\n    tag_393:\n        /* \"#utility.yul\":3668:3718   */\n      swap1\n      pop\n        /* \"#utility.yul\":3598:3724   */\n      swap2\n      swap1\n      pop\n      jump\t// out\n        /* \"#utility.yul\":3730:3870   */\n    tag_298:\n        /* \"#utility.yul\":3794:3803   */\n      0x00\n        /* \"#utility.yul\":3827:3864   */\n      tag_395\n        /* \"#utility.yul\":3858:3863   */\n      dup3\n        /* \"#utility.yul\":3827:3864   */\n      tag_297\n      jump\t// in\n    tag_395:\n        /* \"#utility.yul\":3814:3864   */\n      swap1\n      pop\n        /* \"#utility.yul\":3730:3870   */\n      swap2\n      swap1\n      pop\n      jump\t// out\n        /* \"#utility.yul\":3876:4035   */\n    tag_299:\n        /* \"#utility.yul\":3977:4028   */\n      tag_397\n        /* \"#utility.yul\":4022:4027   */\n      dup2\n        /* \"#utility.yul\":3977:4028   */\n      tag_298\n      jump\t// in\n    tag_397:\n        /* \"#utility.yul\":3972:3975   */\n      dup3\n        /* \"#utility.yul\":3965:4029   */\n      mstore\n        /* \"#utility.yul\":3876:4035   */\n      pop\n      pop\n      jump\t// out\n        /* \"#utility.yul\":4041:4159   */\n    tag_300:\n        /* \"#utility.yul\":4128:4152   */\n      tag_399\n        /* \"#utility.yul\":4146:4151   */\n      dup2\n        /* \"#utility.yul\":4128:4152   */\n      tag_291\n      jump\t// in\n    tag_399:\n        /* \"#utility.yul\":4123:4126   */\n      dup3\n        /* \"#utility.yul\":4116:4153   */\n      mstore\n        /* \"#utility.yul\":4041:4159   */\n      pop\n      pop\n      jump\t// out\n        /* \"#utility.yul\":4165:4525   */\n    tag_39:\n        /* \"#utility.yul\":4300:4304   */\n      0x00\n        /* \"#utility.yul\":4338:4340   */\n      0x40\n        /* \"#utility.yul\":4327:4336   */\n      dup3\n        /* \"#utility.yul\":4323:4341   */\n      add\n        /* \"#utility.yul\":4315:4341   */\n      swap1\n      pop\n        /* \"#utility.yul\":4351:4436   */\n      tag_401\n        /* \"#utility.yul\":4433:4434   */\n      0x00\n        /* \"#utility.yul\":4422:4431   */\n      dup4\n        /* \"#utility.yul\":4418:4435   */\n      add\n        /* \"#utility.yul\":4409:4415   */\n      dup6\n        /* \"#utility.yul\":4351:4436   */\n      tag_299\n      jump\t// in\n    tag_401:\n        /* \"#utility.yul\":4446:4518   */\n      tag_402\n        /* \"#utility.yul\":4514:4516   */\n      0x20\n        /* \"#utility.yul\":4503:4512   */\n      dup4\n        /* \"#utility.yul\":4499:4517   */\n      add\n        /* \"#utility.yul\":4490:4496   */\n      dup5\n        /* \"#utility.yul\":4446:4518   */\n      tag_300\n      jump\t// in\n    tag_402:\n        /* \"#utility.yul\":4165:4525   */\n      swap4\n      swap3\n      pop\n      pop\n      pop\n      jump\t// out\n        /* \"#utility.yul\":4531:4627   */\n    tag_301:\n        /* \"#utility.yul\":4568:4575   */\n      0x00\n        /* \"#utility.yul\":4597:4621   */\n      tag_404\n        /* \"#utility.yul\":4615:4620   */\n      dup3\n        /* \"#utility.yul\":4597:4621   */\n      tag_294\n      jump\t// in\n    tag_404:\n        /* \"#utility.yul\":4586:4621   */\n      swap1\n      pop\n        /* \"#utility.yul\":4531:4627   */\n      swap2\n      swap1\n      pop\n      jump\t// out\n        /* \"#utility.yul\":4633:4755   */\n    tag_302:\n        /* \"#utility.yul\":4706:4730   */\n      tag_406\n        /* \"#utility.yul\":4724:4729   */\n      dup2\n        /* \"#utility.yul\":4706:4730   */\n      tag_301\n      jump\t// in\n    tag_406:\n        /* \"#utility.yul\":4699:4704   */\n      dup2\n        /* \"#utility.yul\":4696:4731   */\n      eq\n        /* \"#utility.yul\":4686:4749   */\n      tag_407\n      jumpi\n        /* \"#utility.yul\":4745:4746   */\n      0x00\n        /* \"#utility.yul\":4742:4743   */\n      dup1\n        /* \"#utility.yul\":4735:4747   */\n      revert\n        /* \"#utility.yul\":4686:4749   */\n    tag_407:\n        /* \"#utility.yul\":4633:4755   */\n      pop\n      jump\t// out\n        /* \"#utility.yul\":4761:4900   */\n    tag_303:\n        /* \"#utility.yul\":4807:4812   */\n      0x00\n        /* \"#utility.yul\":4845:4851   */\n      dup2\n        /* \"#utility.yul\":4832:4852   */\n      calldataload\n        /* \"#utility.yul\":4823:4852   */\n      swap1\n      pop\n        /* \"#utility.yul\":4861:4894   */\n      tag_409\n        /* \"#utility.yul\":4888:4893   */\n      dup2\n        /* \"#utility.yul\":4861:4894   */\n      tag_302\n      jump\t// in\n    tag_409:\n        /* \"#utility.yul\":4761:4900   */\n      swap3\n      swap2\n      pop\n      pop\n      jump\t// out\n        /* \"#utility.yul\":4906:5380   */\n    tag_42:\n        /* \"#utility.yul\":4974:4980   */\n      0x00\n        /* \"#utility.yul\":4982:4988   */\n      dup1\n        /* \"#utility.yul\":5031:5033   */\n      0x40\n        /* \"#utility.yul\":5019:5028   */\n      dup4\n        /* \"#utility.yul\":5010:5017   */\n      dup6\n        /* \"#utility.yul\":5006:5029   */\n      sub\n        /* \"#utility.yul\":5002:5034   */\n      slt\n        /* \"#utility.yul\":4999:5118   */\n      iszero\n      tag_411\n      jumpi\n        /* \"#utility.yul\":5037:5116   */\n      tag_412\n      tag_280\n      jump\t// in\n    tag_412:\n        /* \"#utility.yul\":4999:5118   */\n    tag_411:\n        /* \"#utility.yul\":5157:5158   */\n      0x00\n        /* \"#utility.yul\":5182:5235   */\n      tag_413\n        /* \"#utility.yul\":5227:5234   */\n      dup6\n        /* \"#utility.yul\":5218:5224   */\n      dup3\n        /* \"#utility.yul\":5207:5216   */\n      dup7\n        /* \"#utility.yul\":5203:5225   */\n      add\n        /* \"#utility.yul\":5182:5235   */\n      tag_289\n      jump\t// in\n    tag_413:\n        /* \"#utility.yul\":5172:5235   */\n      swap3\n      pop\n        /* \"#utility.yul\":5128:5245   */\n      pop\n        /* \"#utility.yul\":5284:5286   */\n      0x20\n        /* \"#utility.yul\":5310:5363   */\n      tag_414\n        /* \"#utility.yul\":5355:5362   */\n      dup6\n        /* \"#utility.yul\":5346:5352   */\n      dup3\n        /* \"#utility.yul\":5335:5344   */\n      dup7\n        /* \"#utility.yul\":5331:5353   */\n      add\n        /* \"#utility.yul\":5310:5363   */\n      tag_303\n      jump\t// in\n    tag_414:\n        /* \"#utility.yul\":5300:5363   */\n      swap2\n      pop\n        /* \"#utility.yul\":5255:5373   */\n      pop\n        /* \"#utility.yul\":4906:5380   */\n      swap3\n      pop\n      swap3\n      swap1\n      pop\n      jump\t// out\n        /* \"#utility.yul\":5386:5496   */\n    tag_304:\n        /* \"#utility.yul\":5437:5444   */\n      0x00\n        /* \"#utility.yul\":5466:5490   */\n      tag_416\n        /* \"#utility.yul\":5484:5489   */\n      dup3\n        /* \"#utility.yul\":5466:5490   */\n      tag_301\n      jump\t// in\n    tag_416:\n        /* \"#utility.yul\":5455:5490   */\n      swap1\n      pop\n        /* \"#utility.yul\":5386:5496   */\n      swap2\n      swap1\n      pop\n      jump\t// out\n        /* \"#utility.yul\":5502:5652   */\n    tag_305:\n        /* \"#utility.yul\":5589:5627   */\n      tag_418\n        /* \"#utility.yul\":5621:5626   */\n      dup2\n        /* \"#utility.yul\":5589:5627   */\n      tag_304\n      jump\t// in\n    tag_418:\n        /* \"#utility.yul\":5582:5587   */\n      dup2\n        /* \"#utility.yul\":5579:5628   */\n      eq\n        /* \"#utility.yul\":5569:5646   */\n      tag_419\n      jumpi\n        /* \"#utility.yul\":5642:5643   */\n      0x00\n        /* \"#utility.yul\":5639:5640   */\n      dup1\n        /* \"#utility.yul\":5632:5644   */\n      revert\n        /* \"#utility.yul\":5569:5646   */\n    tag_419:\n        /* \"#utility.yul\":5502:5652   */\n      pop\n      jump\t// out\n        /* \"#utility.yul\":5658:5825   */\n    tag_306:\n        /* \"#utility.yul\":5718:5723   */\n      0x00\n        /* \"#utility.yul\":5756:5762   */\n      dup2\n        /* \"#utility.yul\":5743:5763   */\n      calldataload\n        /* \"#utility.yul\":5734:5763   */\n      swap1\n      pop\n        /* \"#utility.yul\":5772:5819   */\n      tag_421\n        /* \"#utility.yul\":5813:5818   */\n      dup2\n        /* \"#utility.yul\":5772:5819   */\n      tag_305\n      jump\t// in\n    tag_421:\n        /* \"#utility.yul\":5658:5825   */\n      swap3\n      swap2\n      pop\n      pop\n      jump\t// out\n        /* \"#utility.yul\":5831:6188   */\n    tag_49:\n        /* \"#utility.yul\":5904:5910   */\n      0x00\n        /* \"#utility.yul\":5953:5955   */\n      0x20\n        /* \"#utility.yul\":5941:5950   */\n      dup3\n        /* \"#utility.yul\":5932:5939   */\n      dup5\n        /* \"#utility.yul\":5928:5951   */\n      sub\n        /* \"#utility.yul\":5924:5956   */\n      slt\n        /* \"#utility.yul\":5921:6040   */\n      iszero\n      tag_423\n      jumpi\n        /* \"#utility.yul\":5959:6038   */\n      tag_424\n      tag_280\n      jump\t// in\n    tag_424:\n        /* \"#utility.yul\":5921:6040   */\n    tag_423:\n        /* \"#utility.yul\":6079:6080   */\n      0x00\n        /* \"#utility.yul\":6104:6171   */\n      tag_425\n        /* \"#utility.yul\":6163:6170   */\n      dup5\n        /* \"#utility.yul\":6154:6160   */\n      dup3\n        /* \"#utility.yul\":6143:6152   */\n      dup6\n        /* \"#utility.yul\":6139:6161   */\n      add\n        /* \"#utility.yul\":6104:6171   */\n      tag_306\n      jump\t// in\n    tag_425:\n        /* \"#utility.yul\":6094:6171   */\n      swap2\n      pop\n        /* \"#utility.yul\":6050:6181   */\n      pop\n        /* \"#utility.yul\":5831:6188   */\n      swap3\n      swap2\n      pop\n      pop\n      jump\t// out\n        /* \"#utility.yul\":6194:6416   */\n    tag_54:\n        /* \"#utility.yul\":6287:6291   */\n      0x00\n        /* \"#utility.yul\":6325:6327   */\n      0x20\n        /* \"#utility.yul\":6314:6323   */\n      dup3\n        /* \"#utility.yul\":6310:6328   */\n      add\n        /* \"#utility.yul\":6302:6328   */\n      swap1\n      pop\n        /* \"#utility.yul\":6338:6409   */\n      tag_427\n        /* \"#utility.yul\":6406:6407   */\n      0x00\n        /* \"#utility.yul\":6395:6404   */\n      dup4\n        /* \"#utility.yul\":6391:6408   */\n      add\n        /* \"#utility.yul\":6382:6388   */\n      dup5\n        /* \"#utility.yul\":6338:6409   */\n      tag_300\n      jump\t// in\n    tag_427:\n        /* \"#utility.yul\":6194:6416   */\n      swap3\n      swap2\n      pop\n      pop\n      jump\t// out\n        /* \"#utility.yul\":6422:6896   */\n    tag_59:\n        /* \"#utility.yul\":6490:6496   */\n      0x00\n        /* \"#utility.yul\":6498:6504   */\n      dup1\n        /* \"#utility.yul\":6547:6549   */\n      0x40\n        /* \"#utility.yul\":6535:6544   */\n      dup4\n        /* \"#utility.yul\":6526:6533   */\n      dup6\n        /* \"#utility.yul\":6522:6545   */\n      sub\n        /* \"#utility.yul\":6518:6550   */\n      slt\n        /* \"#utility.yul\":6515:6634   */\n      iszero\n      tag_429\n      jumpi\n        /* \"#utility.yul\":6553:6632   */\n      tag_430\n      tag_280\n      jump\t// in\n    tag_430:\n        /* \"#utility.yul\":6515:6634   */\n    tag_429:\n        /* \"#utility.yul\":6673:6674   */\n      0x00\n        /* \"#utility.yul\":6698:6751   */\n      tag_431\n        /* \"#utility.yul\":6743:6750   */\n      dup6\n        /* \"#utility.yul\":6734:6740   */\n      dup3\n        /* \"#utility.yul\":6723:6732   */\n      dup7\n        /* \"#utility.yul\":6719:6741   */\n      add\n        /* \"#utility.yul\":6698:6751   */\n      tag_293\n      jump\t// in\n    tag_431:\n        /* \"#utility.yul\":6688:6751   */\n      swap3\n      pop\n        /* \"#utility.yul\":6644:6761   */\n      pop\n        /* \"#utility.yul\":6800:6802   */\n      0x20\n        /* \"#utility.yul\":6826:6879   */\n      tag_432\n        /* \"#utility.yul\":6871:6878   */\n      dup6\n        /* \"#utility.yul\":6862:6868   */\n      dup3\n        /* \"#utility.yul\":6851:6860   */\n      dup7\n        /* \"#utility.yul\":6847:6869   */\n      add\n        /* \"#utility.yul\":6826:6879   */\n      tag_293\n      jump\t// in\n    tag_432:\n        /* \"#utility.yul\":6816:6879   */\n      swap2\n      pop\n        /* \"#utility.yul\":6771:6889   */\n      pop\n        /* \"#utility.yul\":6422:6896   */\n      swap3\n      pop\n      swap3\n      swap1\n      pop\n      jump\t// out\n        /* \"#utility.yul\":6902:7020   */\n    tag_307:\n        /* \"#utility.yul\":6989:7013   */\n      tag_434\n        /* \"#utility.yul\":7007:7012   */\n      dup2\n        /* \"#utility.yul\":6989:7013   */\n      tag_301\n      jump\t// in\n    tag_434:\n        /* \"#utility.yul\":6984:6987   */\n      dup3\n        /* \"#utility.yul\":6977:7014   */\n      mstore\n        /* \"#utility.yul\":6902:7020   */\n      pop\n      pop\n      jump\t// out\n        /* \"#utility.yul\":7026:7248   */\n    tag_64:\n        /* \"#utility.yul\":7119:7123   */\n      0x00\n        /* \"#utility.yul\":7157:7159   */\n      0x20\n        /* \"#utility.yul\":7146:7155   */\n      dup3\n        /* \"#utility.yul\":7142:7160   */\n      add\n        /* \"#utility.yul\":7134:7160   */\n      swap1\n      pop\n        /* \"#utility.yul\":7170:7241   */\n      tag_436\n        /* \"#utility.yul\":7238:7239   */\n      0x00\n        /* \"#utility.yul\":7227:7236   */\n      dup4\n        /* \"#utility.yul\":7223:7240   */\n      add\n        /* \"#utility.yul\":7214:7220   */\n      dup5\n        /* \"#utility.yul\":7170:7241   */\n      tag_307\n      jump\t// in\n    tag_436:\n        /* \"#utility.yul\":7026:7248   */\n      swap3\n      swap2\n      pop\n      pop\n      jump\t// out\n        /* \"#utility.yul\":7254:7583   */\n    tag_83:\n        /* \"#utility.yul\":7313:7319   */\n      0x00\n        /* \"#utility.yul\":7362:7364   */\n      0x20\n        /* \"#utility.yul\":7350:7359   */\n      dup3\n        /* \"#utility.yul\":7341:7348   */\n      dup5\n        /* \"#utility.yul\":7337:7360   */\n      sub\n        /* \"#utility.yul\":7333:7365   */\n      slt\n        /* \"#utility.yul\":7330:7449   */\n      iszero\n      tag_438\n      jumpi\n        /* \"#utility.yul\":7368:7447   */\n      tag_439\n      tag_280\n      jump\t// in\n    tag_439:\n        /* \"#utility.yul\":7330:7449   */\n    tag_438:\n        /* \"#utility.yul\":7488:7489   */\n      0x00\n        /* \"#utility.yul\":7513:7566   */\n      tag_440\n        /* \"#utility.yul\":7558:7565   */\n      dup5\n        /* \"#utility.yul\":7549:7555   */\n      dup3\n        /* \"#utility.yul\":7538:7547   */\n      dup6\n        /* \"#utility.yul\":7534:7556   */\n      add\n        /* \"#utility.yul\":7513:7566   */\n      tag_303\n      jump\t// in\n    tag_440:\n        /* \"#utility.yul\":7503:7566   */\n      swap2\n      pop\n        /* \"#utility.yul\":7459:7576   */\n      pop\n        /* \"#utility.yul\":7254:7583   */\n      swap3\n      swap2\n      pop\n      pop\n      jump\t// out\n        /* \"#utility.yul\":7589:7758   */\n    tag_308:\n        /* \"#utility.yul\":7673:7684   */\n      0x00\n        /* \"#utility.yul\":7707:7713   */\n      dup3\n        /* \"#utility.yul\":7702:7705   */\n      dup3\n        /* \"#utility.yul\":7695:7714   */\n      mstore\n        /* \"#utility.yul\":7747:7751   */\n      0x20\n        /* \"#utility.yul\":7742:7745   */\n      dup3\n        /* \"#utility.yul\":7738:7752   */\n      add\n        /* \"#utility.yul\":7723:7752   */\n      swap1\n      pop\n        /* \"#utility.yul\":7589:7758   */\n      swap3\n      swap2\n      pop\n      pop\n      jump\t// out\n        /* \"#utility.yul\":7764:7998   */\n    tag_309:\n        /* \"#utility.yul\":7904:7938   */\n      0x416363657373436f6e74726f6c3a2063616e206f6e6c792072656e6f756e6365\n        /* \"#utility.yul\":7900:7901   */\n      0x00\n        /* \"#utility.yul\":7892:7898   */\n      dup3\n        /* \"#utility.yul\":7888:7902   */\n      add\n        /* \"#utility.yul\":7881:7939   */\n      mstore\n        /* \"#utility.yul\":7973:7990   */\n      0x20726f6c657320666f722073656c660000000000000000000000000000000000\n        /* \"#utility.yul\":7968:7970   */\n      0x20\n        /* \"#utility.yul\":7960:7966   */\n      dup3\n        /* \"#utility.yul\":7956:7971   */\n      add\n        /* \"#utility.yul\":7949:7991   */\n      mstore\n        /* \"#utility.yul\":7764:7998   */\n      pop\n      jump\t// out\n        /* \"#utility.yul\":8004:8370   */\n    tag_310:\n        /* \"#utility.yul\":8146:8149   */\n      0x00\n        /* \"#utility.yul\":8167:8234   */\n      tag_444\n        /* \"#utility.yul\":8231:8233   */\n      0x2f\n        /* \"#utility.yul\":8226:8229   */\n      dup4\n        /* \"#utility.yul\":8167:8234   */\n      tag_308\n      jump\t// in\n    tag_444:\n        /* \"#utility.yul\":8160:8234   */\n      swap2\n      pop\n        /* \"#utility.yul\":8243:8336   */\n      tag_445\n        /* \"#utility.yul\":8332:8335   */\n      dup3\n        /* \"#utility.yul\":8243:8336   */\n      tag_309\n      jump\t// in\n    tag_445:\n        /* \"#utility.yul\":8361:8363   */\n      0x40\n        /* \"#utility.yul\":8356:8359   */\n      dup3\n        /* \"#utility.yul\":8352:8364   */\n      add\n        /* \"#utility.yul\":8345:8364   */\n      swap1\n      pop\n        /* \"#utility.yul\":8004:8370   */\n      swap2\n      swap1\n      pop\n      jump\t// out\n        /* \"#utility.yul\":8376:8795   */\n    tag_102:\n        /* \"#utility.yul\":8542:8546   */\n      0x00\n        /* \"#utility.yul\":8580:8582   */\n      0x20\n        /* \"#utility.yul\":8569:8578   */\n      dup3\n        /* \"#utility.yul\":8565:8583   */\n      add\n        /* \"#utility.yul\":8557:8583   */\n      swap1\n      pop\n        /* \"#utility.yul\":8629:8638   */\n      dup2\n        /* \"#utility.yul\":8623:8627   */\n      dup2\n        /* \"#utility.yul\":8619:8639   */\n      sub\n        /* \"#utility.yul\":8615:8616   */\n      0x00\n        /* \"#utility.yul\":8604:8613   */\n      dup4\n        /* \"#utility.yul\":8600:8617   */\n      add\n        /* \"#utility.yul\":8593:8640   */\n      mstore\n        /* \"#utility.yul\":8657:8788   */\n      tag_447\n        /* \"#utility.yul\":8783:8787   */\n      dup2\n        /* \"#utility.yul\":8657:8788   */\n      tag_310\n      jump\t// in\n    tag_447:\n        /* \"#utility.yul\":8649:8788   */\n      swap1\n      pop\n        /* \"#utility.yul\":8376:8795   */\n      swap2\n      swap1\n      pop\n      jump\t// out\n        /* \"#utility.yul\":8801:8962   */\n    tag_311:\n        /* \"#utility.yul\":8941:8954   */\n      0x4e6f7420616c6c6f776564000000000000000000000000000000000000000000\n        /* \"#utility.yul\":8937:8938   */\n      0x00\n        /* \"#utility.yul\":8929:8935   */\n      dup3\n        /* \"#utility.yul\":8925:8939   */\n      add\n        /* \"#utility.yul\":8918:8955   */\n      mstore\n        /* \"#utility.yul\":8801:8962   */\n      pop\n      jump\t// out\n        /* \"#utility.yul\":8968:9334   */\n    tag_312:\n        /* \"#utility.yul\":9110:9113   */\n      0x00\n        /* \"#utility.yul\":9131:9198   */\n      tag_450\n        /* \"#utility.yul\":9195:9197   */\n      0x0b\n        /* \"#utility.yul\":9190:9193   */\n      dup4\n        /* \"#utility.yul\":9131:9198   */\n      tag_308\n      jump\t// in\n    tag_450:\n        /* \"#utility.yul\":9124:9198   */\n      swap2\n      pop\n        /* \"#utility.yul\":9207:9300   */\n      tag_451\n        /* \"#utility.yul\":9296:9299   */\n      dup3\n        /* \"#utility.yul\":9207:9300   */\n      tag_311\n      jump\t// in\n    tag_451:\n        /* \"#utility.yul\":9325:9327   */\n      0x20\n        /* \"#utility.yul\":9320:9323   */\n      dup3\n        /* \"#utility.yul\":9316:9328   */\n      add\n        /* \"#utility.yul\":9309:9328   */\n      swap1\n      pop\n        /* \"#utility.yul\":8968:9334   */\n      swap2\n      swap1\n      pop\n      jump\t// out\n        /* \"#utility.yul\":9340:9759   */\n    tag_110:\n        /* \"#utility.yul\":9506:9510   */\n      0x00\n        /* \"#utility.yul\":9544:9546   */\n      0x20\n        /* \"#utility.yul\":9533:9542   */\n      dup3\n        /* \"#utility.yul\":9529:9547   */\n      add\n        /* \"#utility.yul\":9521:9547   */\n      swap1\n      pop\n        /* \"#utility.yul\":9593:9602   */\n      dup2\n        /* \"#utility.yul\":9587:9591   */\n      dup2\n        /* \"#utility.yul\":9583:9603   */\n      sub\n        /* \"#utility.yul\":9579:9580   */\n      0x00\n        /* \"#utility.yul\":9568:9577   */\n      dup4\n        /* \"#utility.yul\":9564:9581   */\n      add\n        /* \"#utility.yul\":9557:9604   */\n      mstore\n        /* \"#utility.yul\":9621:9752   */\n      tag_453\n        /* \"#utility.yul\":9747:9751   */\n      dup2\n        /* \"#utility.yul\":9621:9752   */\n      tag_312\n      jump\t// in\n    tag_453:\n        /* \"#utility.yul\":9613:9752   */\n      swap1\n      pop\n        /* \"#utility.yul\":9340:9759   */\n      swap2\n      swap1\n      pop\n      jump\t// out\n        /* \"#utility.yul\":9765:9945   */\n    tag_313:\n        /* \"#utility.yul\":9813:9890   */\n      0x4e487b7100000000000000000000000000000000000000000000000000000000\n        /* \"#utility.yul\":9810:9811   */\n      0x00\n        /* \"#utility.yul\":9803:9891   */\n      mstore\n        /* \"#utility.yul\":9910:9914   */\n      0x11\n        /* \"#utility.yul\":9907:9908   */\n      0x04\n        /* \"#utility.yul\":9900:9915   */\n      mstore\n        /* \"#utility.yul\":9934:9938   */\n      0x24\n        /* \"#utility.yul\":9931:9932   */\n      0x00\n        /* \"#utility.yul\":9924:9939   */\n      revert\n        /* \"#utility.yul\":9951:10184   */\n    tag_114:\n        /* \"#utility.yul\":9990:9993   */\n      0x00\n        /* \"#utility.yul\":10013:10037   */\n      tag_456\n        /* \"#utility.yul\":10031:10036   */\n      dup3\n        /* \"#utility.yul\":10013:10037   */\n      tag_291\n      jump\t// in\n    tag_456:\n        /* \"#utility.yul\":10004:10037   */\n      swap2\n      pop\n        /* \"#utility.yul\":10059:10125   */\n      0xffffffffffffffffffffffffffffffffffffffffffffffffffffffffffffffff\n        /* \"#utility.yul\":10052:10057   */\n      dup3\n        /* \"#utility.yul\":10049:10126   */\n      sub\n        /* \"#utility.yul\":10046:10149   */\n      tag_457\n      jumpi\n        /* \"#utility.yul\":10129:10147   */\n      tag_458\n      tag_313\n      jump\t// in\n    tag_458:\n        /* \"#utility.yul\":10046:10149   */\n    tag_457:\n        /* \"#utility.yul\":10176:10177   */\n      0x01\n        /* \"#utility.yul\":10169:10174   */\n      dup3\n        /* \"#utility.yul\":10165:10178   */\n      add\n        /* \"#utility.yul\":10158:10178   */\n      swap1\n      pop\n        /* \"#utility.yul\":9951:10184   */\n      swap2\n      swap1\n      pop\n      jump\t// out\n        /* \"#utility.yul\":10190:10415   */\n    tag_314:\n        /* \"#utility.yul\":10330:10364   */\n      0x4f776e61626c653a206e6577206f776e657220697320746865207a65726f2061\n        /* \"#utility.yul\":10326:10327   */\n      0x00\n        /* \"#utility.yul\":10318:10324   */\n      dup3\n        /* \"#utility.yul\":10314:10328   */\n      add\n        /* \"#utility.yul\":10307:10365   */\n      mstore\n        /* \"#utility.yul\":10399:10407   */\n      0x6464726573730000000000000000000000000000000000000000000000000000\n        /* \"#utility.yul\":10394:10396   */\n      0x20\n        /* \"#utility.yul\":10386:10392   */\n      dup3\n        /* \"#utility.yul\":10382:10397   */\n      add\n        /* \"#utility.yul\":10375:10408   */\n      mstore\n        /* \"#utility.yul\":10190:10415   */\n      pop\n      jump\t// out\n        /* \"#utility.yul\":10421:10787   */\n    tag_315:\n        /* \"#utility.yul\":10563:10566   */\n      0x00\n        /* \"#utility.yul\":10584:10651   */\n      tag_461\n        /* \"#utility.yul\":10648:10650   */\n      0x26\n        /* \"#utility.yul\":10643:10646   */\n      dup4\n        /* \"#utility.yul\":10584:10651   */\n      tag_308\n      jump\t// in\n    tag_461:\n        /* \"#utility.yul\":10577:10651   */\n      swap2\n      pop\n        /* \"#utility.yul\":10660:10753   */\n      tag_462\n        /* \"#utility.yul\":10749:10752   */\n      dup3\n        /* \"#utility.yul\":10660:10753   */\n      tag_314\n      jump\t// in\n    tag_462:\n        /* \"#utility.yul\":10778:10780   */\n      0x40\n        /* \"#utility.yul\":10773:10776   */\n      dup3\n        /* \"#utility.yul\":10769:10781   */\n      add\n        /* \"#utility.yul\":10762:10781   */\n      swap1\n      pop\n        /* \"#utility.yul\":10421:10787   */\n      swap2\n      swap1\n      pop\n      jump\t// out\n        /* \"#utility.yul\":10793:11212   */\n    tag_154:\n        /* \"#utility.yul\":10959:10963   */\n      0x00\n        /* \"#utility.yul\":10997:10999   */\n      0x20\n        /* \"#utility.yul\":10986:10995   */\n      dup3\n        /* \"#utility.yul\":10982:11000   */\n      add\n        /* \"#utility.yul\":10974:11000   */\n      swap1\n      pop\n        /* \"#utility.yul\":11046:11055   */\n      dup2\n        /* \"#utility.yul\":11040:11044   */\n      dup2\n        /* \"#utility.yul\":11036:11056   */\n      sub\n        /* \"#utility.yul\":11032:11033   */\n      0x00\n        /* \"#utility.yul\":11021:11030   */\n      dup4\n        /* \"#utility.yul\":11017:11034   */\n      add\n        /* \"#utility.yul\":11010:11057   */\n      mstore\n        /* \"#utility.yul\":11074:11205   */\n      tag_464\n        /* \"#utility.yul\":11200:11204   */\n      dup2\n        /* \"#utility.yul\":11074:11205   */\n      tag_315\n      jump\t// in\n    tag_464:\n        /* \"#utility.yul\":11066:11205   */\n      swap1\n      pop\n        /* \"#utility.yul\":10793:11212   */\n      swap2\n      swap1\n      pop\n      jump\t// out\n        /* \"#utility.yul\":11218:11400   */\n    tag_316:\n        /* \"#utility.yul\":11358:11392   */\n      0x436f6c6c61746572616c204164647265737320416c7265616479204164646564\n        /* \"#utility.yul\":11354:11355   */\n      0x00\n        /* \"#utility.yul\":11346:11352   */\n      dup3\n        /* \"#utility.yul\":11342:11356   */\n      add\n        /* \"#utility.yul\":11335:11393   */\n      mstore\n        /* \"#utility.yul\":11218:11400   */\n      pop\n      jump\t// out\n        /* \"#utility.yul\":11406:11772   */\n    tag_317:\n        /* \"#utility.yul\":11548:11551   */\n      0x00\n        /* \"#utility.yul\":11569:11636   */\n      tag_467\n        /* \"#utility.yul\":11633:11635   */\n      0x20\n        /* \"#utility.yul\":11628:11631   */\n      dup4\n        /* \"#utility.yul\":11569:11636   */\n      tag_308\n      jump\t// in\n    tag_467:\n        /* \"#utility.yul\":11562:11636   */\n      swap2\n      pop\n        /* \"#utility.yul\":11645:11738   */\n      tag_468\n        /* \"#utility.yul\":11734:11737   */\n      dup3\n        /* \"#utility.yul\":11645:11738   */\n      tag_316\n      jump\t// in\n    tag_468:\n        /* \"#utility.yul\":11763:11765   */\n      0x20\n        /* \"#utility.yul\":11758:11761   */\n      dup3\n        /* \"#utility.yul\":11754:11766   */\n      add\n        /* \"#utility.yul\":11747:11766   */\n      swap1\n      pop\n        /* \"#utility.yul\":11406:11772   */\n      swap2\n      swap1\n      pop\n      jump\t// out\n        /* \"#utility.yul\":11778:12197   */\n    tag_176:\n        /* \"#utility.yul\":11944:11948   */\n      0x00\n        /* \"#utility.yul\":11982:11984   */\n      0x20\n        /* \"#utility.yul\":11971:11980   */\n      dup3\n        /* \"#utility.yul\":11967:11985   */\n      add\n        /* \"#utility.yul\":11959:11985   */\n      swap1\n      pop\n        /* \"#utility.yul\":12031:12040   */\n      dup2\n        /* \"#utility.yul\":12025:12029   */\n      dup2\n        /* \"#utility.yul\":12021:12041   */\n      sub\n        /* \"#utility.yul\":12017:12018   */\n      0x00\n        /* \"#utility.yul\":12006:12015   */\n      dup4\n        /* \"#utility.yul\":12002:12019   */\n      add\n        /* \"#utility.yul\":11995:12042   */\n      mstore\n        /* \"#utility.yul\":12059:12190   */\n      tag_470\n        /* \"#utility.yul\":12185:12189   */\n      dup2\n        /* \"#utility.yul\":12059:12190   */\n      tag_317\n      jump\t// in\n    tag_470:\n        /* \"#utility.yul\":12051:12190   */\n      swap1\n      pop\n        /* \"#utility.yul\":11778:12197   */\n      swap2\n      swap1\n      pop\n      jump\t// out\n        /* \"#utility.yul\":12203:12385   */\n    tag_318:\n        /* \"#utility.yul\":12343:12377   */\n      0x4f776e61626c653a2063616c6c6572206973206e6f7420746865206f776e6572\n        /* \"#utility.yul\":12339:12340   */\n      0x00\n        /* \"#utility.yul\":12331:12337   */\n      dup3\n        /* \"#utility.yul\":12327:12341   */\n      add\n        /* \"#utility.yul\":12320:12378   */\n      mstore\n        /* \"#utility.yul\":12203:12385   */\n      pop\n      jump\t// out\n        /* \"#utility.yul\":12391:12757   */\n    tag_319:\n        /* \"#utility.yul\":12533:12536   */\n      0x00\n        /* \"#utility.yul\":12554:12621   */\n      tag_473\n        /* \"#utility.yul\":12618:12620   */\n      0x20\n        /* \"#utility.yul\":12613:12616   */\n      dup4\n        /* \"#utility.yul\":12554:12621   */\n      tag_308\n      jump\t// in\n    tag_473:\n        /* \"#utility.yul\":12547:12621   */\n      swap2\n      pop\n        /* \"#utility.yul\":12630:12723   */\n      tag_474\n        /* \"#utility.yul\":12719:12722   */\n      dup3\n        /* \"#utility.yul\":12630:12723   */\n      tag_318\n      jump\t// in\n    tag_474:\n        /* \"#utility.yul\":12748:12750   */\n      0x20\n        /* \"#utility.yul\":12743:12746   */\n      dup3\n        /* \"#utility.yul\":12739:12751   */\n      add\n        /* \"#utility.yul\":12732:12751   */\n      swap1\n      pop\n        /* \"#utility.yul\":12391:12757   */\n      swap2\n      swap1\n      pop\n      jump\t// out\n        /* \"#utility.yul\":12763:13182   */\n    tag_183:\n        /* \"#utility.yul\":12929:12933   */\n      0x00\n        /* \"#utility.yul\":12967:12969   */\n      0x20\n        /* \"#utility.yul\":12956:12965   */\n      dup3\n        /* \"#utility.yul\":12952:12970   */\n      add\n        /* \"#utility.yul\":12944:12970   */\n      swap1\n      pop\n        /* \"#utility.yul\":13016:13025   */\n      dup2\n        /* \"#utility.yul\":13010:13014   */\n      dup2\n        /* \"#utility.yul\":13006:13026   */\n      sub\n        /* \"#utility.yul\":13002:13003   */\n      0x00\n        /* \"#utility.yul\":12991:13000   */\n      dup4\n        /* \"#utility.yul\":12987:13004   */\n      add\n        /* \"#utility.yul\":12980:13027   */\n      mstore\n        /* \"#utility.yul\":13044:13175   */\n      tag_476\n        /* \"#utility.yul\":13170:13174   */\n      dup2\n        /* \"#utility.yul\":13044:13175   */\n      tag_319\n      jump\t// in\n    tag_476:\n        /* \"#utility.yul\":13036:13175   */\n      swap1\n      pop\n        /* \"#utility.yul\":12763:13182   */\n      swap2\n      swap1\n      pop\n      jump\t// out\n        /* \"#utility.yul\":13188:13520   */\n    tag_188:\n        /* \"#utility.yul\":13309:13313   */\n      0x00\n        /* \"#utility.yul\":13347:13349   */\n      0x40\n        /* \"#utility.yul\":13336:13345   */\n      dup3\n        /* \"#utility.yul\":13332:13350   */\n      add\n        /* \"#utility.yul\":13324:13350   */\n      swap1\n      pop\n        /* \"#utility.yul\":13360:13431   */\n      tag_478\n        /* \"#utility.yul\":13428:13429   */\n      0x00\n        /* \"#utility.yul\":13417:13426   */\n      dup4\n        /* \"#utility.yul\":13413:13430   */\n      add\n        /* \"#utility.yul\":13404:13410   */\n      dup6\n        /* \"#utility.yul\":13360:13431   */\n      tag_307\n      jump\t// in\n    tag_478:\n        /* \"#utility.yul\":13441:13513   */\n      tag_479\n        /* \"#utility.yul\":13509:13511   */\n      0x20\n        /* \"#utility.yul\":13498:13507   */\n      dup4\n        /* \"#utility.yul\":13494:13512   */\n      add\n        /* \"#utility.yul\":13485:13491   */\n      dup5\n        /* \"#utility.yul\":13441:13513   */\n      tag_300\n      jump\t// in\n    tag_479:\n        /* \"#utility.yul\":13188:13520   */\n      swap4\n      swap3\n      pop\n      pop\n      pop\n      jump\t// out\n        /* \"#utility.yul\":13526:13720   */\n    tag_192:\n        /* \"#utility.yul\":13566:13570   */\n      0x00\n        /* \"#utility.yul\":13586:13606   */\n      tag_481\n        /* \"#utility.yul\":13604:13605   */\n      dup3\n        /* \"#utility.yul\":13586:13606   */\n      tag_291\n      jump\t// in\n    tag_481:\n        /* \"#utility.yul\":13581:13606   */\n      swap2\n      pop\n        /* \"#utility.yul\":13620:13640   */\n      tag_482\n        /* \"#utility.yul\":13638:13639   */\n      dup4\n        /* \"#utility.yul\":13620:13640   */\n      tag_291\n      jump\t// in\n    tag_482:\n        /* \"#utility.yul\":13615:13640   */\n      swap3\n      pop\n        /* \"#utility.yul\":13664:13665   */\n      dup3\n        /* \"#utility.yul\":13661:13662   */\n      dup3\n        /* \"#utility.yul\":13657:13666   */\n      sub\n        /* \"#utility.yul\":13649:13666   */\n      swap1\n      pop\n        /* \"#utility.yul\":13688:13689   */\n      dup2\n        /* \"#utility.yul\":13682:13686   */\n      dup2\n        /* \"#utility.yul\":13679:13690   */\n      gt\n        /* \"#utility.yul\":13676:13713   */\n      iszero\n      tag_483\n      jumpi\n        /* \"#utility.yul\":13693:13711   */\n      tag_484\n      tag_313\n      jump\t// in\n    tag_484:\n        /* \"#utility.yul\":13676:13713   */\n    tag_483:\n        /* \"#utility.yul\":13526:13720   */\n      swap3\n      swap2\n      pop\n      pop\n      jump\t// out\n        /* \"#utility.yul\":13726:14168   */\n    tag_196:\n        /* \"#utility.yul\":13875:13879   */\n      0x00\n        /* \"#utility.yul\":13913:13915   */\n      0x60\n        /* \"#utility.yul\":13902:13911   */\n      dup3\n        /* \"#utility.yul\":13898:13916   */\n      add\n        /* \"#utility.yul\":13890:13916   */\n      swap1\n      pop\n        /* \"#utility.yul\":13926:13997   */\n      tag_486\n        /* \"#utility.yul\":13994:13995   */\n      0x00\n        /* \"#utility.yul\":13983:13992   */\n      dup4\n        /* \"#utility.yul\":13979:13996   */\n      add\n        /* \"#utility.yul\":13970:13976   */\n      dup7\n        /* \"#utility.yul\":13926:13997   */\n      tag_307\n      jump\t// in\n    tag_486:\n        /* \"#utility.yul\":14007:14079   */\n      tag_487\n        /* \"#utility.yul\":14075:14077   */\n      0x20\n        /* \"#utility.yul\":14064:14073   */\n      dup4\n        /* \"#utility.yul\":14060:14078   */\n      add\n        /* \"#utility.yul\":14051:14057   */\n      dup6\n        /* \"#utility.yul\":14007:14079   */\n      tag_307\n      jump\t// in\n    tag_487:\n        /* \"#utility.yul\":14089:14161   */\n      tag_488\n        /* \"#utility.yul\":14157:14159   */\n      0x40\n        /* \"#utility.yul\":14146:14155   */\n      dup4\n        /* \"#utility.yul\":14142:14160   */\n      add\n        /* \"#utility.yul\":14133:14139   */\n      dup5\n        /* \"#utility.yul\":14089:14161   */\n      tag_300\n      jump\t// in\n    tag_488:\n        /* \"#utility.yul\":13726:14168   */\n      swap5\n      swap4\n      pop\n      pop\n      pop\n      pop\n      jump\t// out\n        /* \"#utility.yul\":14174:14365   */\n    tag_199:\n        /* \"#utility.yul\":14214:14217   */\n      0x00\n        /* \"#utility.yul\":14233:14253   */\n      tag_490\n        /* \"#utility.yul\":14251:14252   */\n      dup3\n        /* \"#utility.yul\":14233:14253   */\n      tag_291\n      jump\t// in\n    tag_490:\n        /* \"#utility.yul\":14228:14253   */\n      swap2\n      pop\n        /* \"#utility.yul\":14267:14287   */\n      tag_491\n        /* \"#utility.yul\":14285:14286   */\n      dup4\n        /* \"#utility.yul\":14267:14287   */\n      tag_291\n      jump\t// in\n    tag_491:\n        /* \"#utility.yul\":14262:14287   */\n      swap3\n      pop\n        /* \"#utility.yul\":14310:14311   */\n      dup3\n        /* \"#utility.yul\":14307:14308   */\n      dup3\n        /* \"#utility.yul\":14303:14312   */\n      add\n        /* \"#utility.yul\":14296:14312   */\n      swap1\n      pop\n        /* \"#utility.yul\":14331:14334   */\n      dup1\n        /* \"#utility.yul\":14328:14329   */\n      dup3\n        /* \"#utility.yul\":14325:14335   */\n      gt\n        /* \"#utility.yul\":14322:14358   */\n      iszero\n      tag_492\n      jumpi\n        /* \"#utility.yul\":14338:14356   */\n      tag_493\n      tag_313\n      jump\t// in\n    tag_493:\n        /* \"#utility.yul\":14322:14358   */\n    tag_492:\n        /* \"#utility.yul\":14174:14365   */\n      swap3\n      swap2\n      pop\n      pop\n      jump\t// out\n        /* \"#utility.yul\":14371:14519   */\n    tag_320:\n        /* \"#utility.yul\":14473:14484   */\n      0x00\n        /* \"#utility.yul\":14510:14513   */\n      dup2\n        /* \"#utility.yul\":14495:14513   */\n      swap1\n      pop\n        /* \"#utility.yul\":14371:14519   */\n      swap3\n      swap2\n      pop\n      pop\n      jump\t// out\n        /* \"#utility.yul\":14525:14698   */\n    tag_321:\n        /* \"#utility.yul\":14665:14690   */\n      0x416363657373436f6e74726f6c3a206163636f756e7420000000000000000000\n        /* \"#utility.yul\":14661:14662   */\n      0x00\n        /* \"#utility.yul\":14653:14659   */\n      dup3\n        /* \"#utility.yul\":14649:14663   */\n      add\n        /* \"#utility.yul\":14642:14691   */\n      mstore\n        /* \"#utility.yul\":14525:14698   */\n      pop\n      jump\t// out\n        /* \"#utility.yul\":14704:15106   */\n    tag_322:\n        /* \"#utility.yul\":14864:14867   */\n      0x00\n        /* \"#utility.yul\":14885:14970   */\n      tag_497\n        /* \"#utility.yul\":14967:14969   */\n      0x17\n        /* \"#utility.yul\":14962:14965   */\n      dup4\n        /* \"#utility.yul\":14885:14970   */\n      tag_320\n      jump\t// in\n    tag_497:\n        /* \"#utility.yul\":14878:14970   */\n      swap2\n      pop\n        /* \"#utility.yul\":14979:15072   */\n      tag_498\n        /* \"#utility.yul\":15068:15071   */\n      dup3\n        /* \"#utility.yul\":14979:15072   */\n      tag_321\n      jump\t// in\n    tag_498:\n        /* \"#utility.yul\":15097:15099   */\n      0x17\n        /* \"#utility.yul\":15092:15095   */\n      dup3\n        /* \"#utility.yul\":15088:15100   */\n      add\n        /* \"#utility.yul\":15081:15100   */\n      swap1\n      pop\n        /* \"#utility.yul\":14704:15106   */\n      swap2\n      swap1\n      pop\n      jump\t// out\n        /* \"#utility.yul\":15112:15211   */\n    tag_323:\n        /* \"#utility.yul\":15164:15170   */\n      0x00\n        /* \"#utility.yul\":15198:15203   */\n      dup2\n        /* \"#utility.yul\":15192:15204   */\n      mload\n        /* \"#utility.yul\":15182:15204   */\n      swap1\n      pop\n        /* \"#utility.yul\":15112:15211   */\n      swap2\n      swap1\n      pop\n      jump\t// out\n        /* \"#utility.yul\":15217:15463   */\n    tag_324:\n        /* \"#utility.yul\":15298:15299   */\n      0x00\n        /* \"#utility.yul\":15308:15421   */\n    tag_501:\n        /* \"#utility.yul\":15322:15328   */\n      dup4\n        /* \"#utility.yul\":15319:15320   */\n      dup2\n        /* \"#utility.yul\":15316:15329   */\n      lt\n        /* \"#utility.yul\":15308:15421   */\n      iszero\n      tag_503\n      jumpi\n        /* \"#utility.yul\":15407:15408   */\n      dup1\n        /* \"#utility.yul\":15402:15405   */\n      dup3\n        /* \"#utility.yul\":15398:15409   */\n      add\n        /* \"#utility.yul\":15392:15410   */\n      mload\n        /* \"#utility.yul\":15388:15389   */\n      dup2\n        /* \"#utility.yul\":15383:15386   */\n      dup5\n        /* \"#utility.yul\":15379:15390   */\n      add\n        /* \"#utility.yul\":15372:15411   */\n      mstore\n        /* \"#utility.yul\":15344:15346   */\n      0x20\n        /* \"#utility.yul\":15341:15342   */\n      dup2\n        /* \"#utility.yul\":15337:15347   */\n      add\n        /* \"#utility.yul\":15332:15347   */\n      swap1\n      pop\n        /* \"#utility.yul\":15308:15421   */\n      jump(tag_501)\n    tag_503:\n        /* \"#utility.yul\":15455:15456   */\n      0x00\n        /* \"#utility.yul\":15446:15452   */\n      dup5\n        /* \"#utility.yul\":15441:15444   */\n      dup5\n        /* \"#utility.yul\":15437:15453   */\n      add\n        /* \"#utility.yul\":15430:15457   */\n      mstore\n        /* \"#utility.yul\":15279:15463   */\n      pop\n        /* \"#utility.yul\":15217:15463   */\n      pop\n      pop\n      pop\n      jump\t// out\n        /* \"#utility.yul\":15469:15859   */\n    tag_325:\n        /* \"#utility.yul\":15575:15578   */\n      0x00\n        /* \"#utility.yul\":15603:15642   */\n      tag_505\n        /* \"#utility.yul\":15636:15641   */\n      dup3\n        /* \"#utility.yul\":15603:15642   */\n      tag_323\n      jump\t// in\n    tag_505:\n        /* \"#utility.yul\":15658:15747   */\n      tag_506\n        /* \"#utility.yul\":15740:15746   */\n      dup2\n        /* \"#utility.yul\":15735:15738   */\n      dup6\n        /* \"#utility.yul\":15658:15747   */\n      tag_320\n      jump\t// in\n    tag_506:\n        /* \"#utility.yul\":15651:15747   */\n      swap4\n      pop\n        /* \"#utility.yul\":15756:15821   */\n      tag_507\n        /* \"#utility.yul\":15814:15820   */\n      dup2\n        /* \"#utility.yul\":15809:15812   */\n      dup6\n        /* \"#utility.yul\":15802:15806   */\n      0x20\n        /* \"#utility.yul\":15795:15800   */\n      dup7\n        /* \"#utility.yul\":15791:15807   */\n      add\n        /* \"#utility.yul\":15756:15821   */\n      tag_324\n      jump\t// in\n    tag_507:\n        /* \"#utility.yul\":15846:15852   */\n      dup1\n        /* \"#utility.yul\":15841:15844   */\n      dup5\n        /* \"#utility.yul\":15837:15853   */\n      add\n        /* \"#utility.yul\":15830:15853   */\n      swap2\n      pop\n        /* \"#utility.yul\":15579:15859   */\n      pop\n        /* \"#utility.yul\":15469:15859   */\n      swap3\n      swap2\n      pop\n      pop\n      jump\t// out\n        /* \"#utility.yul\":15865:16032   */\n    tag_326:\n        /* \"#utility.yul\":16005:16024   */\n      0x206973206d697373696e6720726f6c6520000000000000000000000000000000\n        /* \"#utility.yul\":16001:16002   */\n      0x00\n        /* \"#utility.yul\":15993:15999   */\n      dup3\n        /* \"#utility.yul\":15989:16003   */\n      add\n        /* \"#utility.yul\":15982:16025   */\n      mstore\n        /* \"#utility.yul\":15865:16032   */\n      pop\n      jump\t// out\n        /* \"#utility.yul\":16038:16440   */\n    tag_327:\n        /* \"#utility.yul\":16198:16201   */\n      0x00\n        /* \"#utility.yul\":16219:16304   */\n      tag_510\n        /* \"#utility.yul\":16301:16303   */\n      0x11\n        /* \"#utility.yul\":16296:16299   */\n      dup4\n        /* \"#utility.yul\":16219:16304   */\n      tag_320\n      jump\t// in\n    tag_510:\n        /* \"#utility.yul\":16212:16304   */\n      swap2\n      pop\n        /* \"#utility.yul\":16313:16406   */\n      tag_511\n        /* \"#utility.yul\":16402:16405   */\n      dup3\n        /* \"#utility.yul\":16313:16406   */\n      tag_326\n      jump\t// in\n    tag_511:\n        /* \"#utility.yul\":16431:16433   */\n      0x11\n        /* \"#utility.yul\":16426:16429   */\n      dup3\n        /* \"#utility.yul\":16422:16434   */\n      add\n        /* \"#utility.yul\":16415:16434   */\n      swap1\n      pop\n        /* \"#utility.yul\":16038:16440   */\n      swap2\n      swap1\n      pop\n      jump\t// out\n        /* \"#utility.yul\":16446:17413   */\n    tag_208:\n        /* \"#utility.yul\":16828:16831   */\n      0x00\n        /* \"#utility.yul\":16850:16998   */\n      tag_513\n        /* \"#utility.yul\":16994:16997   */\n      dup3\n        /* \"#utility.yul\":16850:16998   */\n      tag_322\n      jump\t// in\n    tag_513:\n        /* \"#utility.yul\":16843:16998   */\n      swap2\n      pop\n        /* \"#utility.yul\":17015:17110   */\n      tag_514\n        /* \"#utility.yul\":17106:17109   */\n      dup3\n        /* \"#utility.yul\":17097:17103   */\n      dup6\n        /* \"#utility.yul\":17015:17110   */\n      tag_325\n      jump\t// in\n    tag_514:\n        /* \"#utility.yul\":17008:17110   */\n      swap2\n      pop\n        /* \"#utility.yul\":17127:17275   */\n      tag_515\n        /* \"#utility.yul\":17271:17274   */\n      dup3\n        /* \"#utility.yul\":17127:17275   */\n      tag_327\n      jump\t// in\n    tag_515:\n        /* \"#utility.yul\":17120:17275   */\n      swap2\n      pop\n        /* \"#utility.yul\":17292:17387   */\n      tag_516\n        /* \"#utility.yul\":17383:17386   */\n      dup3\n        /* \"#utility.yul\":17374:17380   */\n      dup5\n        /* \"#utility.yul\":17292:17387   */\n      tag_325\n      jump\t// in\n    tag_516:\n        /* \"#utility.yul\":17285:17387   */\n      swap2\n      pop\n        /* \"#utility.yul\":17404:17407   */\n      dup2\n        /* \"#utility.yul\":17397:17407   */\n      swap1\n      pop\n        /* \"#utility.yul\":16446:17413   */\n      swap4\n      swap3\n      pop\n      pop\n      pop\n      jump\t// out\n        /* \"#utility.yul\":17419:17521   */\n    tag_328:\n        /* \"#utility.yul\":17460:17466   */\n      0x00\n        /* \"#utility.yul\":17511:17513   */\n      0x1f\n        /* \"#utility.yul\":17507:17514   */\n      not\n        /* \"#utility.yul\":17502:17504   */\n      0x1f\n        /* \"#utility.yul\":17495:17500   */\n      dup4\n        /* \"#utility.yul\":17491:17505   */\n      add\n        /* \"#utility.yul\":17487:17515   */\n      and\n        /* \"#utility.yul\":17477:17515   */\n      swap1\n      pop\n        /* \"#utility.yul\":17419:17521   */\n      swap2\n      swap1\n      pop\n      jump\t// out\n        /* \"#utility.yul\":17527:17904   */\n    tag_329:\n        /* \"#utility.yul\":17615:17618   */\n      0x00\n        /* \"#utility.yul\":17643:17682   */\n      tag_519\n        /* \"#utility.yul\":17676:17681   */\n      dup3\n        /* \"#utility.yul\":17643:17682   */\n      tag_323\n      jump\t// in\n    tag_519:\n        /* \"#utility.yul\":17698:17769   */\n      tag_520\n        /* \"#utility.yul\":17762:17768   */\n      dup2\n        /* \"#utility.yul\":17757:17760   */\n      dup6\n        /* \"#utility.yul\":17698:17769   */\n      tag_308\n      jump\t// in\n    tag_520:\n        /* \"#utility.yul\":17691:17769   */\n      swap4\n      pop\n        /* \"#utility.yul\":17778:17843   */\n      tag_521\n        /* \"#utility.yul\":17836:17842   */\n      dup2\n        /* \"#utility.yul\":17831:17834   */\n      dup6\n        /* \"#utility.yul\":17824:17828   */\n      0x20\n        /* \"#utility.yul\":17817:17822   */\n      dup7\n        /* \"#utility.yul\":17813:17829   */\n      add\n        /* \"#utility.yul\":17778:17843   */\n      tag_324\n      jump\t// in\n    tag_521:\n        /* \"#utility.yul\":17868:17897   */\n      tag_522\n        /* \"#utility.yul\":17890:17896   */\n      dup2\n        /* \"#utility.yul\":17868:17897   */\n      tag_328\n      jump\t// in\n    tag_522:\n        /* \"#utility.yul\":17863:17866   */\n      dup5\n        /* \"#utility.yul\":17859:17898   */\n      add\n        /* \"#utility.yul\":17852:17898   */\n      swap2\n      pop\n        /* \"#utility.yul\":17619:17904   */\n      pop\n        /* \"#utility.yul\":17527:17904   */\n      swap3\n      swap2\n      pop\n      pop\n      jump\t// out\n        /* \"#utility.yul\":17910:18223   */\n    tag_210:\n        /* \"#utility.yul\":18023:18027   */\n      0x00\n        /* \"#utility.yul\":18061:18063   */\n      0x20\n        /* \"#utility.yul\":18050:18059   */\n      dup3\n        /* \"#utility.yul\":18046:18064   */\n      add\n        /* \"#utility.yul\":18038:18064   */\n      swap1\n      pop\n        /* \"#utility.yul\":18110:18119   */\n      dup2\n        /* \"#utility.yul\":18104:18108   */\n      dup2\n        /* \"#utility.yul\":18100:18120   */\n      sub\n        /* \"#utility.yul\":18096:18097   */\n      0x00\n        /* \"#utility.yul\":18085:18094   */\n      dup4\n        /* \"#utility.yul\":18081:18098   */\n      add\n        /* \"#utility.yul\":18074:18121   */\n      mstore\n        /* \"#utility.yul\":18138:18216   */\n      tag_524\n        /* \"#utility.yul\":18211:18215   */\n      dup2\n        /* \"#utility.yul\":18202:18208   */\n      dup5\n        /* \"#utility.yul\":18138:18216   */\n      tag_329\n      jump\t// in\n    tag_524:\n        /* \"#utility.yul\":18130:18216   */\n      swap1\n      pop\n        /* \"#utility.yul\":17910:18223   */\n      swap3\n      swap2\n      pop\n      pop\n      jump\t// out\n        /* \"#utility.yul\":18229:18345   */\n    tag_330:\n        /* \"#utility.yul\":18299:18320   */\n      tag_526\n        /* \"#utility.yul\":18314:18319   */\n      dup2\n        /* \"#utility.yul\":18299:18320   */\n      tag_285\n      jump\t// in\n    tag_526:\n        /* \"#utility.yul\":18292:18297   */\n      dup2\n        /* \"#utility.yul\":18289:18321   */\n      eq\n        /* \"#utility.yul\":18279:18339   */\n      tag_527\n      jumpi\n        /* \"#utility.yul\":18335:18336   */\n      0x00\n        /* \"#utility.yul\":18332:18333   */\n      dup1\n        /* \"#utility.yul\":18325:18337   */\n      revert\n        /* \"#utility.yul\":18279:18339   */\n    tag_527:\n        /* \"#utility.yul\":18229:18345   */\n      pop\n      jump\t// out\n        /* \"#utility.yul\":18351:18488   */\n    tag_331:\n        /* \"#utility.yul\":18405:18410   */\n      0x00\n        /* \"#utility.yul\":18436:18442   */\n      dup2\n        /* \"#utility.yul\":18430:18443   */\n      mload\n        /* \"#utility.yul\":18421:18443   */\n      swap1\n      pop\n        /* \"#utility.yul\":18452:18482   */\n      tag_529\n        /* \"#utility.yul\":18476:18481   */\n      dup2\n        /* \"#utility.yul\":18452:18482   */\n      tag_330\n      jump\t// in\n    tag_529:\n        /* \"#utility.yul\":18351:18488   */\n      swap3\n      swap2\n      pop\n      pop\n      jump\t// out\n        /* \"#utility.yul\":18494:18839   */\n    tag_216:\n        /* \"#utility.yul\":18561:18567   */\n      0x00\n        /* \"#utility.yul\":18610:18612   */\n      0x20\n        /* \"#utility.yul\":18598:18607   */\n      dup3\n        /* \"#utility.yul\":18589:18596   */\n      dup5\n        /* \"#utility.yul\":18585:18608   */\n      sub\n        /* \"#utility.yul\":18581:18613   */\n      slt\n        /* \"#utility.yul\":18578:18697   */\n      iszero\n      tag_531\n      jumpi\n        /* \"#utility.yul\":18616:18695   */\n      tag_532\n      tag_280\n      jump\t// in\n    tag_532:\n        /* \"#utility.yul\":18578:18697   */\n    tag_531:\n        /* \"#utility.yul\":18736:18737   */\n      0x00\n        /* \"#utility.yul\":18761:18822   */\n      tag_533\n        /* \"#utility.yul\":18814:18821   */\n      dup5\n        /* \"#utility.yul\":18805:18811   */\n      dup3\n        /* \"#utility.yul\":18794:18803   */\n      dup6\n        /* \"#utility.yul\":18790:18812   */\n      add\n        /* \"#utility.yul\":18761:18822   */\n      tag_331\n      jump\t// in\n    tag_533:\n        /* \"#utility.yul\":18751:18822   */\n      swap2\n      pop\n        /* \"#utility.yul\":18707:18832   */\n      pop\n        /* \"#utility.yul\":18494:18839   */\n      swap3\n      swap2\n      pop\n      pop\n      jump\t// out\n        /* \"#utility.yul\":18845:19074   */\n    tag_332:\n        /* \"#utility.yul\":18985:19019   */\n      0x5361666545524332303a204552433230206f7065726174696f6e20646964206e\n        /* \"#utility.yul\":18981:18982   */\n      0x00\n        /* \"#utility.yul\":18973:18979   */\n      dup3\n        /* \"#utility.yul\":18969:18983   */\n      add\n        /* \"#utility.yul\":18962:19020   */\n      mstore\n        /* \"#utility.yul\":19054:19066   */\n      0x6f74207375636365656400000000000000000000000000000000000000000000\n        /* \"#utility.yul\":19049:19051   */\n      0x20\n        /* \"#utility.yul\":19041:19047   */\n      dup3\n        /* \"#utility.yul\":19037:19052   */\n      add\n        /* \"#utility.yul\":19030:19067   */\n      mstore\n        /* \"#utility.yul\":18845:19074   */\n      pop\n      jump\t// out\n        /* \"#utility.yul\":19080:19446   */\n    tag_333:\n        /* \"#utility.yul\":19222:19225   */\n      0x00\n        /* \"#utility.yul\":19243:19310   */\n      tag_536\n        /* \"#utility.yul\":19307:19309   */\n      0x2a\n        /* \"#utility.yul\":19302:19305   */\n      dup4\n        /* \"#utility.yul\":19243:19310   */\n      tag_308\n      jump\t// in\n    tag_536:\n        /* \"#utility.yul\":19236:19310   */\n      swap2\n      pop\n        /* \"#utility.yul\":19319:19412   */\n      tag_537\n        /* \"#utility.yul\":19408:19411   */\n      dup3\n        /* \"#utility.yul\":19319:19412   */\n      tag_332\n      jump\t// in\n    tag_537:\n        /* \"#utility.yul\":19437:19439   */\n      0x40\n        /* \"#utility.yul\":19432:19435   */\n      dup3\n        /* \"#utility.yul\":19428:19440   */\n      add\n        /* \"#utility.yul\":19421:19440   */\n      swap1\n      pop\n        /* \"#utility.yul\":19080:19446   */\n      swap2\n      swap1\n      pop\n      jump\t// out\n        /* \"#utility.yul\":19452:19871   */\n    tag_219:\n        /* \"#utility.yul\":19618:19622   */\n      0x00\n        /* \"#utility.yul\":19656:19658   */\n      0x20\n        /* \"#utility.yul\":19645:19654   */\n      dup3\n        /* \"#utility.yul\":19641:19659   */\n      add\n        /* \"#utility.yul\":19633:19659   */\n      swap1\n      pop\n        /* \"#utility.yul\":19705:19714   */\n      dup2\n        /* \"#utility.yul\":19699:19703   */\n      dup2\n        /* \"#utility.yul\":19695:19715   */\n      sub\n        /* \"#utility.yul\":19691:19692   */\n      0x00\n        /* \"#utility.yul\":19680:19689   */\n      dup4\n        /* \"#utility.yul\":19676:19693   */\n      add\n        /* \"#utility.yul\":19669:19716   */\n      mstore\n        /* \"#utility.yul\":19733:19864   */\n      tag_539\n        /* \"#utility.yul\":19859:19863   */\n      dup2\n        /* \"#utility.yul\":19733:19864   */\n      tag_333\n      jump\t// in\n    tag_539:\n        /* \"#utility.yul\":19725:19864   */\n      swap1\n      pop\n        /* \"#utility.yul\":19452:19871   */\n      swap2\n      swap1\n      pop\n      jump\t// out\n        /* \"#utility.yul\":19877:20287   */\n    tag_224:\n        /* \"#utility.yul\":19917:19924   */\n      0x00\n        /* \"#utility.yul\":19940:19960   */\n      tag_541\n        /* \"#utility.yul\":19958:19959   */\n      dup3\n        /* \"#utility.yul\":19940:19960   */\n      tag_291\n      jump\t// in\n    tag_541:\n        /* \"#utility.yul\":19935:19960   */\n      swap2\n      pop\n        /* \"#utility.yul\":19974:19994   */\n      tag_542\n        /* \"#utility.yul\":19992:19993   */\n      dup4\n        /* \"#utility.yul\":19974:19994   */\n      tag_291\n      jump\t// in\n    tag_542:\n        /* \"#utility.yul\":19969:19994   */\n      swap3\n      pop\n        /* \"#utility.yul\":20029:20030   */\n      dup3\n        /* \"#utility.yul\":20026:20027   */\n      dup3\n        /* \"#utility.yul\":20022:20031   */\n      mul\n        /* \"#utility.yul\":20051:20081   */\n      tag_543\n        /* \"#utility.yul\":20069:20080   */\n      dup2\n        /* \"#utility.yul\":20051:20081   */\n      tag_291\n      jump\t// in\n    tag_543:\n        /* \"#utility.yul\":20040:20081   */\n      swap2\n      pop\n        /* \"#utility.yul\":20230:20231   */\n      dup3\n        /* \"#utility.yul\":20221:20228   */\n      dup3\n        /* \"#utility.yul\":20217:20232   */\n      div\n        /* \"#utility.yul\":20214:20215   */\n      dup5\n        /* \"#utility.yul\":20211:20233   */\n      eq\n        /* \"#utility.yul\":20191:20192   */\n      dup4\n        /* \"#utility.yul\":20184:20193   */\n      iszero\n        /* \"#utility.yul\":20164:20247   */\n      or\n        /* \"#utility.yul\":20141:20280   */\n      tag_544\n      jumpi\n        /* \"#utility.yul\":20260:20278   */\n      tag_545\n      tag_313\n      jump\t// in\n    tag_545:\n        /* \"#utility.yul\":20141:20280   */\n    tag_544:\n        /* \"#utility.yul\":19925:20287   */\n      pop\n        /* \"#utility.yul\":19877:20287   */\n      swap3\n      swap2\n      pop\n      pop\n      jump\t// out\n        /* \"#utility.yul\":20293:20473   */\n    tag_228:\n        /* \"#utility.yul\":20341:20418   */\n      0x4e487b7100000000000000000000000000000000000000000000000000000000\n        /* \"#utility.yul\":20338:20339   */\n      0x00\n        /* \"#utility.yul\":20331:20419   */\n      mstore\n        /* \"#utility.yul\":20438:20442   */\n      0x41\n        /* \"#utility.yul\":20435:20436   */\n      0x04\n        /* \"#utility.yul\":20428:20443   */\n      mstore\n        /* \"#utility.yul\":20462:20466   */\n      0x24\n        /* \"#utility.yul\":20459:20460   */\n      0x00\n        /* \"#utility.yul\":20452:20467   */\n      revert\n        /* \"#utility.yul\":20479:20659   */\n    tag_232:\n        /* \"#utility.yul\":20527:20604   */\n      0x4e487b7100000000000000000000000000000000000000000000000000000000\n        /* \"#utility.yul\":20524:20525   */\n      0x00\n        /* \"#utility.yul\":20517:20605   */\n      mstore\n        /* \"#utility.yul\":20624:20628   */\n      0x32\n        /* \"#utility.yul\":20621:20622   */\n      0x04\n        /* \"#utility.yul\":20614:20629   */\n      mstore\n        /* \"#utility.yul\":20648:20652   */\n      0x24\n        /* \"#utility.yul\":20645:20646   */\n      0x00\n        /* \"#utility.yul\":20638:20653   */\n      revert\n        /* \"#utility.yul\":20665:20836   */\n    tag_245:\n        /* \"#utility.yul\":20704:20707   */\n      0x00\n        /* \"#utility.yul\":20727:20751   */\n      tag_549\n        /* \"#utility.yul\":20745:20750   */\n      dup3\n        /* \"#utility.yul\":20727:20751   */\n      tag_291\n      jump\t// in\n    tag_549:\n        /* \"#utility.yul\":20718:20751   */\n      swap2\n      pop\n        /* \"#utility.yul\":20773:20777   */\n      0x00\n        /* \"#utility.yul\":20766:20771   */\n      dup3\n        /* \"#utility.yul\":20763:20778   */\n      sub\n        /* \"#utility.yul\":20760:20801   */\n      tag_550\n      jumpi\n        /* \"#utility.yul\":20781:20799   */\n      tag_551\n      tag_313\n      jump\t// in\n    tag_551:\n        /* \"#utility.yul\":20760:20801   */\n    tag_550:\n        /* \"#utility.yul\":20828:20829   */\n      0x01\n        /* \"#utility.yul\":20821:20826   */\n      dup3\n        /* \"#utility.yul\":20817:20830   */\n      sub\n        /* \"#utility.yul\":20810:20830   */\n      swap1\n      pop\n        /* \"#utility.yul\":20665:20836   */\n      swap2\n      swap1\n      pop\n      jump\t// out\n        /* \"#utility.yul\":20842:21024   */\n    tag_334:\n        /* \"#utility.yul\":20982:21016   */\n      0x537472696e67733a20686578206c656e67746820696e73756666696369656e74\n        /* \"#utility.yul\":20978:20979   */\n      0x00\n        /* \"#utility.yul\":20970:20976   */\n      dup3\n        /* \"#utility.yul\":20966:20980   */\n      add\n        /* \"#utility.yul\":20959:21017   */\n      mstore\n        /* \"#utility.yul\":20842:21024   */\n      pop\n      jump\t// out\n        /* \"#utility.yul\":21030:21396   */\n    tag_335:\n        /* \"#utility.yul\":21172:21175   */\n      0x00\n        /* \"#utility.yul\":21193:21260   */\n      tag_554\n        /* \"#utility.yul\":21257:21259   */\n      0x20\n        /* \"#utility.yul\":21252:21255   */\n      dup4\n        /* \"#utility.yul\":21193:21260   */\n      tag_308\n      jump\t// in\n    tag_554:\n        /* \"#utility.yul\":21186:21260   */\n      swap2\n      pop\n        /* \"#utility.yul\":21269:21362   */\n      tag_555\n        /* \"#utility.yul\":21358:21361   */\n      dup3\n        /* \"#utility.yul\":21269:21362   */\n      tag_334\n      jump\t// in\n    tag_555:\n        /* \"#utility.yul\":21387:21389   */\n      0x20\n        /* \"#utility.yul\":21382:21385   */\n      dup3\n        /* \"#utility.yul\":21378:21390   */\n      add\n        /* \"#utility.yul\":21371:21390   */\n      swap1\n      pop\n        /* \"#utility.yul\":21030:21396   */\n      swap2\n      swap1\n      pop\n      jump\t// out\n        /* \"#utility.yul\":21402:21821   */\n    tag_248:\n        /* \"#utility.yul\":21568:21572   */\n      0x00\n        /* \"#utility.yul\":21606:21608   */\n      0x20\n        /* \"#utility.yul\":21595:21604   */\n      dup3\n        /* \"#utility.yul\":21591:21609   */\n      add\n        /* \"#utility.yul\":21583:21609   */\n      swap1\n      pop\n        /* \"#utility.yul\":21655:21664   */\n      dup2\n        /* \"#utility.yul\":21649:21653   */\n      dup2\n        /* \"#utility.yul\":21645:21665   */\n      sub\n        /* \"#utility.yul\":21641:21642   */\n      0x00\n        /* \"#utility.yul\":21630:21639   */\n      dup4\n        /* \"#utility.yul\":21626:21643   */\n      add\n        /* \"#utility.yul\":21619:21666   */\n      mstore\n        /* \"#utility.yul\":21683:21814   */\n      tag_557\n        /* \"#utility.yul\":21809:21813   */\n      dup2\n        /* \"#utility.yul\":21683:21814   */\n      tag_335\n      jump\t// in\n    tag_557:\n        /* \"#utility.yul\":21675:21814   */\n      swap1\n      pop\n        /* \"#utility.yul\":21402:21821   */\n      swap2\n      swap1\n      pop\n      jump\t// out\n        /* \"#utility.yul\":21827:22052   */\n    tag_336:\n        /* \"#utility.yul\":21967:22001   */\n      0x416464726573733a20696e73756666696369656e742062616c616e636520666f\n        /* \"#utility.yul\":21963:21964   */\n      0x00\n        /* \"#utility.yul\":21955:21961   */\n      dup3\n        /* \"#utility.yul\":21951:21965   */\n      add\n        /* \"#utility.yul\":21944:22002   */\n      mstore\n        /* \"#utility.yul\":22036:22044   */\n      0x722063616c6c0000000000000000000000000000000000000000000000000000\n        /* \"#utility.yul\":22031:22033   */\n      0x20\n        /* \"#utility.yul\":22023:22029   */\n      dup3\n        /* \"#utility.yul\":22019:22034   */\n      add\n        /* \"#utility.yul\":22012:22045   */\n      mstore\n        /* \"#utility.yul\":21827:22052   */\n      pop\n      jump\t// out\n        /* \"#utility.yul\":22058:22424   */\n    tag_337:\n        /* \"#utility.yul\":22200:22203   */\n      0x00\n        /* \"#utility.yul\":22221:22288   */\n      tag_560\n        /* \"#utility.yul\":22285:22287   */\n      0x26\n        /* \"#utility.yul\":22280:22283   */\n      dup4\n        /* \"#utility.yul\":22221:22288   */\n      tag_308\n      jump\t// in\n    tag_560:\n        /* \"#utility.yul\":22214:22288   */\n      swap2\n      pop\n        /* \"#utility.yul\":22297:22390   */\n      tag_561\n        /* \"#utility.yul\":22386:22389   */\n      dup3\n        /* \"#utility.yul\":22297:22390   */\n      tag_336\n      jump\t// in\n    tag_561:\n        /* \"#utility.yul\":22415:22417   */\n      0x40\n        /* \"#utility.yul\":22410:22413   */\n      dup3\n        /* \"#utility.yul\":22406:22418   */\n      add\n        /* \"#utility.yul\":22399:22418   */\n      swap1\n      pop\n        /* \"#utility.yul\":22058:22424   */\n      swap2\n      swap1\n      pop\n      jump\t// out\n        /* \"#utility.yul\":22430:22849   */\n    tag_255:\n        /* \"#utility.yul\":22596:22600   */\n      0x00\n        /* \"#utility.yul\":22634:22636   */\n      0x20\n        /* \"#utility.yul\":22623:22632   */\n      dup3\n        /* \"#utility.yul\":22619:22637   */\n      add\n        /* \"#utility.yul\":22611:22637   */\n      swap1\n      pop\n        /* \"#utility.yul\":22683:22692   */\n      dup2\n        /* \"#utility.yul\":22677:22681   */\n      dup2\n        /* \"#utility.yul\":22673:22693   */\n      sub\n        /* \"#utility.yul\":22669:22670   */\n      0x00\n        /* \"#utility.yul\":22658:22667   */\n      dup4\n        /* \"#utility.yul\":22654:22671   */\n      add\n        /* \"#utility.yul\":22647:22694   */\n      mstore\n        /* \"#utility.yul\":22711:22842   */\n      tag_563\n        /* \"#utility.yul\":22837:22841   */\n      dup2\n        /* \"#utility.yul\":22711:22842   */\n      tag_337\n      jump\t// in\n    tag_563:\n        /* \"#utility.yul\":22703:22842   */\n      swap1\n      pop\n        /* \"#utility.yul\":22430:22849   */\n      swap2\n      swap1\n      pop\n      jump\t// out\n        /* \"#utility.yul\":22855:22953   */\n    tag_338:\n        /* \"#utility.yul\":22906:22912   */\n      0x00\n        /* \"#utility.yul\":22940:22945   */\n      dup2\n        /* \"#utility.yul\":22934:22946   */\n      mload\n        /* \"#utility.yul\":22924:22946   */\n      swap1\n      pop\n        /* \"#utility.yul\":22855:22953   */\n      swap2\n      swap1\n      pop\n      jump\t// out\n        /* \"#utility.yul\":22959:23106   */\n    tag_339:\n        /* \"#utility.yul\":23060:23071   */\n      0x00\n        /* \"#utility.yul\":23097:23100   */\n      dup2\n        /* \"#utility.yul\":23082:23100   */\n      swap1\n      pop\n        /* \"#utility.yul\":22959:23106   */\n      swap3\n      swap2\n      pop\n      pop\n      jump\t// out\n        /* \"#utility.yul\":23112:23498   */\n    tag_340:\n        /* \"#utility.yul\":23216:23219   */\n      0x00\n        /* \"#utility.yul\":23244:23282   */\n      tag_567\n        /* \"#utility.yul\":23276:23281   */\n      dup3\n        /* \"#utility.yul\":23244:23282   */\n      tag_338\n      jump\t// in\n    tag_567:\n        /* \"#utility.yul\":23298:23386   */\n      tag_568\n        /* \"#utility.yul\":23379:23385   */\n      dup2\n        /* \"#utility.yul\":23374:23377   */\n      dup6\n        /* \"#utility.yul\":23298:23386   */\n      tag_339\n      jump\t// in\n    tag_568:\n        /* \"#utility.yul\":23291:23386   */\n      swap4\n      pop\n        /* \"#utility.yul\":23395:23460   */\n      tag_569\n        /* \"#utility.yul\":23453:23459   */\n      dup2\n        /* \"#utility.yul\":23448:23451   */\n      dup6\n        /* \"#utility.yul\":23441:23445   */\n      0x20\n        /* \"#utility.yul\":23434:23439   */\n      dup7\n        /* \"#utility.yul\":23430:23446   */\n      add\n        /* \"#utility.yul\":23395:23460   */\n      tag_324\n      jump\t// in\n    tag_569:\n        /* \"#utility.yul\":23485:23491   */\n      dup1\n        /* \"#utility.yul\":23480:23483   */\n      dup5\n        /* \"#utility.yul\":23476:23492   */\n      add\n        /* \"#utility.yul\":23469:23492   */\n      swap2\n      pop\n        /* \"#utility.yul\":23220:23498   */\n      pop\n        /* \"#utility.yul\":23112:23498   */\n      swap3\n      swap2\n      pop\n      pop\n      jump\t// out\n        /* \"#utility.yul\":23504:23775   */\n    tag_257:\n        /* \"#utility.yul\":23634:23637   */\n      0x00\n        /* \"#utility.yul\":23656:23749   */\n      tag_571\n        /* \"#utility.yul\":23745:23748   */\n      dup3\n        /* \"#utility.yul\":23736:23742   */\n      dup5\n        /* \"#utility.yul\":23656:23749   */\n      tag_340\n      jump\t// in\n    tag_571:\n        /* \"#utility.yul\":23649:23749   */\n      swap2\n      pop\n        /* \"#utility.yul\":23766:23769   */\n      dup2\n        /* \"#utility.yul\":23759:23769   */\n      swap1\n      pop\n        /* \"#utility.yul\":23504:23775   */\n      swap3\n      swap2\n      pop\n      pop\n      jump\t// out\n        /* \"#utility.yul\":23781:23960   */\n    tag_341:\n        /* \"#utility.yul\":23921:23952   */\n      0x416464726573733a2063616c6c20746f206e6f6e2d636f6e7472616374000000\n        /* \"#utility.yul\":23917:23918   */\n      0x00\n        /* \"#utility.yul\":23909:23915   */\n      dup3\n        /* \"#utility.yul\":23905:23919   */\n      add\n        /* \"#utility.yul\":23898:23953   */\n      mstore\n        /* \"#utility.yul\":23781:23960   */\n      pop\n      jump\t// out\n        /* \"#utility.yul\":23966:24332   */\n    tag_342:\n        /* \"#utility.yul\":24108:24111   */\n      0x00\n        /* \"#utility.yul\":24129:24196   */\n      tag_574\n        /* \"#utility.yul\":24193:24195   */\n      0x1d\n        /* \"#utility.yul\":24188:24191   */\n      dup4\n        /* \"#utility.yul\":24129:24196   */\n      tag_308\n      jump\t// in\n    tag_574:\n        /* \"#utility.yul\":24122:24196   */\n      swap2\n      pop\n        /* \"#utility.yul\":24205:24298   */\n      tag_575\n        /* \"#utility.yul\":24294:24297   */\n      dup3\n        /* \"#utility.yul\":24205:24298   */\n      tag_341\n      jump\t// in\n    tag_575:\n        /* \"#utility.yul\":24323:24325   */\n      0x20\n        /* \"#utility.yul\":24318:24321   */\n      dup3\n        /* \"#utility.yul\":24314:24326   */\n      add\n        /* \"#utility.yul\":24307:24326   */\n      swap1\n      pop\n        /* \"#utility.yul\":23966:24332   */\n      swap2\n      swap1\n      pop\n      jump\t// out\n        /* \"#utility.yul\":24338:24757   */\n    tag_270:\n        /* \"#utility.yul\":24504:24508   */\n      0x00\n        /* \"#utility.yul\":24542:24544   */\n      0x20\n        /* \"#utility.yul\":24531:24540   */\n      dup3\n        /* \"#utility.yul\":24527:24545   */\n      add\n        /* \"#utility.yul\":24519:24545   */\n      swap1\n      pop\n        /* \"#utility.yul\":24591:24600   */\n      dup2\n        /* \"#utility.yul\":24585:24589   */\n      dup2\n        /* \"#utility.yul\":24581:24601   */\n      sub\n        /* \"#utility.yul\":24577:24578   */\n      0x00\n        /* \"#utility.yul\":24566:24575   */\n      dup4\n        /* \"#utility.yul\":24562:24579   */\n      add\n        /* \"#utility.yul\":24555:24602   */\n      mstore\n        /* \"#utility.yul\":24619:24750   */\n      tag_577\n        /* \"#utility.yul\":24745:24749   */\n      dup2\n        /* \"#utility.yul\":24619:24750   */\n      tag_342\n      jump\t// in\n    tag_577:\n        /* \"#utility.yul\":24611:24750   */\n      swap1\n      pop\n        /* \"#utility.yul\":24338:24757   */\n      swap2\n      swap1\n      pop\n      jump\t// out\n\n    auxdata: 0xa2646970667358221220403d56d9ca8040387c4f207a20cfacb7b01436d90a7ed81565714d3ce075097964736f6c63430008110033\n}\n",
				"bytecode": {
					"linkReferences": {},
					"object": "60806040523480156200001157600080fd5b506200003262000026620000a460201b60201c565b620000ac60201b60201c565b600180819055506200005d6000801b62000051620000a460201b60201c565b6200017060201b60201c565b6200009e7f241ecf16d79d0f8dbfb92cbc07fe17840425976cf0667f022fe9877caa831b0862000092620000a460201b60201c565b6200017060201b60201c565b620002e3565b600033905090565b60008060009054906101000a900473ffffffffffffffffffffffffffffffffffffffff169050816000806101000a81548173ffffffffffffffffffffffffffffffffffffffff021916908373ffffffffffffffffffffffffffffffffffffffff1602179055508173ffffffffffffffffffffffffffffffffffffffff168173ffffffffffffffffffffffffffffffffffffffff167f8be0079c531659141344cd1fd0a4f28419497f9722a3daafe3b4186f6b6457e060405160405180910390a35050565b6200018282826200018660201b60201c565b5050565b6200019882826200027860201b60201c565b620002745760016002600084815260200190815260200160002060000160008373ffffffffffffffffffffffffffffffffffffffff1673ffffffffffffffffffffffffffffffffffffffff16815260200190815260200160002060006101000a81548160ff02191690831515021790555062000219620000a460201b60201c565b73ffffffffffffffffffffffffffffffffffffffff168173ffffffffffffffffffffffffffffffffffffffff16837f2f8788117e7eff1d82e926ec794901d17c78024a50270940304540a733656f0d60405160405180910390a45b5050565b60006002600084815260200190815260200160002060000160008373ffffffffffffffffffffffffffffffffffffffff1673ffffffffffffffffffffffffffffffffffffffff16815260200190815260200160002060009054906101000a900460ff16905092915050565b6121e480620002f36000396000f3fe608060405234801561001057600080fd5b50600436106101005760003560e01c8063767a7b0511610097578063d547741f11610066578063d547741f1461029a578063ec87621c146102b6578063ece13732146102d4578063f2fde38b146102f057610100565b8063767a7b05146102125780638da5cb5b1461022e57806391d148541461024c578063a217fddf1461027c57610100565b806336568abe116100d357806336568abe146101b25780633b61f098146101ce5780635306f102146101ea578063715018a61461020857610100565b806301ffc9a714610105578063248a9ca314610135578063279ba28d146101655780632f2ff15d14610196575b600080fd5b61011f600480360381019061011a9190611526565b61030c565b60405161012c919061156e565b60405180910390f35b61014f600480360381019061014a91906115bf565b610386565b60405161015c91906115fb565b60405180910390f35b61017f600480360381019061017a919061164c565b6103a6565b60405161018d929190611707565b60405180910390f35b6101b060048036038101906101ab919061176e565b6103ea565b005b6101cc60048036038101906101c7919061176e565b61040b565b005b6101e860048036038101906101e391906117ec565b61048e565b005b6101f2610579565b6040516101ff9190611819565b60405180910390f35b61021061057f565b005b61022c60048036038101906102279190611834565b610593565b005b6102366106f7565b6040516102439190611883565b60405180910390f35b6102666004803603810190610261919061176e565b610720565b604051610273919061156e565b60405180910390f35b61028461078b565b60405161029191906115fb565b60405180910390f35b6102b460048036038101906102af919061176e565b610792565b005b6102be6107b3565b6040516102cb91906115fb565b60405180910390f35b6102ee60048036038101906102e99190611834565b6107d7565b005b61030a6004803603810190610305919061189e565b610935565b005b60007f7965db0b000000000000000000000000000000000000000000000000000000007bffffffffffffffffffffffffffffffffffffffffffffffffffffffff1916827bffffffffffffffffffffffffffffffffffffffffffffffffffffffff1916148061037f575061037e826109b8565b5b9050919050565b600060026000838152602001908152602001600020600101549050919050565b60046020528060005260406000206000915090508060000160009054906101000a900473ffffffffffffffffffffffffffffffffffffffff16908060010154905082565b6103f382610386565b6103fc81610a22565b6104068383610a36565b505050565b610413610b17565b73ffffffffffffffffffffffffffffffffffffffff168173ffffffffffffffffffffffffffffffffffffffff1614610480576040517f08c379a00000000000000000000000000000000000000000000000000000000081526004016104779061194e565b60405180910390fd5b61048a8282610b1f565b5050565b6104bf7f241ecf16d79d0f8dbfb92cbc07fe17840425976cf0667f022fe9877caa831b086104ba610b17565b610720565b6104fe576040517f08c379a00000000000000000000000000000000000000000000000000000000081526004016104f5906119ba565b60405180910390fd5b61050781610c01565b8060046000600354815260200190815260200160002060000160006101000a81548173ffffffffffffffffffffffffffffffffffffffff021916908373ffffffffffffffffffffffffffffffffffffffff1602179055506003600081548092919061057190611a09565b919050555050565b60035481565b610587610cc9565b6105916000610d47565b565b6105c47f241ecf16d79d0f8dbfb92cbc07fe17840425976cf0667f022fe9877caa831b086105bf610b17565b610720565b610603576040517f08c379a00000000000000000000000000000000000000000000000000000000081526004016105fa906119ba565b60405180910390fd5b60006004600084815260200190815260200160002060000160009054906101000a900473ffffffffffffffffffffffffffffffffffffffff1690506000600460008581526020019081526020016000206001015490508281106106f15761068b33848473ffffffffffffffffffffffffffffffffffffffff16610e0b9092919063ffffffff16565b61069e8382610e9190919063ffffffff16565b6004600086815260200190815260200160002060010181905550837f56ca301a9219608c91e7bcee90e083c19671d2cdcc96752c7af291cee5f9c8c8846040516106e89190611819565b60405180910390a25b50505050565b60008060009054906101000a900473ffffffffffffffffffffffffffffffffffffffff16905090565b60006002600084815260200190815260200160002060000160008373ffffffffffffffffffffffffffffffffffffffff1673ffffffffffffffffffffffffffffffffffffffff16815260200190815260200160002060009054906101000a900460ff16905092915050565b6000801b81565b61079b82610386565b6107a481610a22565b6107ae8383610b1f565b505050565b7f241ecf16d79d0f8dbfb92cbc07fe17840425976cf0667f022fe9877caa831b0881565b6108087f241ecf16d79d0f8dbfb92cbc07fe17840425976cf0667f022fe9877caa831b08610803610b17565b610720565b610847576040517f08c379a000000000000000000000000000000000000000000000000000000000815260040161083e906119ba565b60405180910390fd5b60006004600084815260200190815260200160002060000160009054906101000a900473ffffffffffffffffffffffffffffffffffffffff1690506108af3330848473ffffffffffffffffffffffffffffffffffffffff16610ea7909392919063ffffffff16565b6000600460008581526020019081526020016000206001015490506108dd8382610f3090919063ffffffff16565b6004600086815260200190815260200160002060010181905550837fa3af609bf46297028ce551832669030f9effef2b02606d02cbbcc40fe6b47c55846040516109279190611819565b60405180910390a250505050565b61093d610cc9565b600073ffffffffffffffffffffffffffffffffffffffff168173ffffffffffffffffffffffffffffffffffffffff16036109ac576040517f08c379a00000000000000000000000000000000000000000000000000000000081526004016109a390611ac3565b60405180910390fd5b6109b581610d47565b50565b60007f01ffc9a7000000000000000000000000000000000000000000000000000000007bffffffffffffffffffffffffffffffffffffffffffffffffffffffff1916827bffffffffffffffffffffffffffffffffffffffffffffffffffffffff1916149050919050565b610a3381610a2e610b17565b610f46565b50565b610a408282610720565b610b135760016002600084815260200190815260200160002060000160008373ffffffffffffffffffffffffffffffffffffffff1673ffffffffffffffffffffffffffffffffffffffff16815260200190815260200160002060006101000a81548160ff021916908315150217905550610ab8610b17565b73ffffffffffffffffffffffffffffffffffffffff168173ffffffffffffffffffffffffffffffffffffffff16837f2f8788117e7eff1d82e926ec794901d17c78024a50270940304540a733656f0d60405160405180910390a45b5050565b600033905090565b610b298282610720565b15610bfd5760006002600084815260200190815260200160002060000160008373ffffffffffffffffffffffffffffffffffffffff1673ffffffffffffffffffffffffffffffffffffffff16815260200190815260200160002060006101000a81548160ff021916908315150217905550610ba2610b17565b73ffffffffffffffffffffffffffffffffffffffff168173ffffffffffffffffffffffffffffffffffffffff16837ff6391f5c32d9c69d2a47ea670b442974b53935d1edc7fd64eb21e047a839171b60405160405180910390a45b5050565b60005b600354811015610cc5578173ffffffffffffffffffffffffffffffffffffffff166004600083815260200190815260200160002060000160009054906101000a900473ffffffffffffffffffffffffffffffffffffffff1673ffffffffffffffffffffffffffffffffffffffff1603610cb2576040517f08c379a0000000000000000000000000000000000000000000000000000000008152600401610ca990611b2f565b60405180910390fd5b8080610cbd90611a09565b915050610c04565b5050565b610cd1610b17565b73ffffffffffffffffffffffffffffffffffffffff16610cef6106f7565b73ffffffffffffffffffffffffffffffffffffffff1614610d45576040517f08c379a0000000000000000000000000000000000000000000000000000000008152600401610d3c90611b9b565b60405180910390fd5b565b60008060009054906101000a900473ffffffffffffffffffffffffffffffffffffffff169050816000806101000a81548173ffffffffffffffffffffffffffffffffffffffff021916908373ffffffffffffffffffffffffffffffffffffffff1602179055508173ffffffffffffffffffffffffffffffffffffffff168173ffffffffffffffffffffffffffffffffffffffff167f8be0079c531659141344cd1fd0a4f28419497f9722a3daafe3b4186f6b6457e060405160405180910390a35050565b610e8c8363a9059cbb60e01b8484604051602401610e2a929190611bbb565b604051602081830303815290604052907bffffffffffffffffffffffffffffffffffffffffffffffffffffffff19166020820180517bffffffffffffffffffffffffffffffffffffffffffffffffffffffff8381831617835250505050610fcb565b505050565b60008183610e9f9190611be4565b905092915050565b610f2a846323b872dd60e01b858585604051602401610ec893929190611c18565b604051602081830303815290604052907bffffffffffffffffffffffffffffffffffffffffffffffffffffffff19166020820180517bffffffffffffffffffffffffffffffffffffffffffffffffffffffff8381831617835250505050610fcb565b50505050565b60008183610f3e9190611c4f565b905092915050565b610f508282610720565b610fc757610f5d81611093565b610f6b8360001c60206110c0565b604051602001610f7c929190611d8c565b6040516020818303038152906040526040517f08c379a0000000000000000000000000000000000000000000000000000000008152600401610fbe9190611e10565b60405180910390fd5b5050565b600061102d826040518060400160405280602081526020017f5361666545524332303a206c6f772d6c6576656c2063616c6c206661696c65648152508573ffffffffffffffffffffffffffffffffffffffff166112fc9092919063ffffffff16565b905060008151148061104f57508080602001905181019061104e9190611e5e565b5b61108e576040517f08c379a000000000000000000000000000000000000000000000000000000000815260040161108590611efd565b60405180910390fd5b505050565b60606110b98273ffffffffffffffffffffffffffffffffffffffff16601460ff166110c0565b9050919050565b6060600060028360026110d39190611f1d565b6110dd9190611c4f565b67ffffffffffffffff8111156110f6576110f5611f5f565b5b6040519080825280601f01601f1916602001820160405280156111285781602001600182028036833780820191505090505b5090507f3000000000000000000000000000000000000000000000000000000000000000816000815181106111605761115f611f8e565b5b60200101907effffffffffffffffffffffffffffffffffffffffffffffffffffffffffffff1916908160001a9053507f7800000000000000000000000000000000000000000000000000000000000000816001815181106111c4576111c3611f8e565b5b60200101907effffffffffffffffffffffffffffffffffffffffffffffffffffffffffffff1916908160001a905350600060018460026112049190611f1d565b61120e9190611c4f565b90505b60018111156112ae577f3031323334353637383961626364656600000000000000000000000000000000600f8616601081106112505761124f611f8e565b5b1a60f81b82828151811061126757611266611f8e565b5b60200101907effffffffffffffffffffffffffffffffffffffffffffffffffffffffffffff1916908160001a905350600485901c9450806112a790611fbd565b9050611211565b50600084146112f2576040517f08c379a00000000000000000000000000000000000000000000000000000000081526004016112e990612032565b60405180910390fd5b8091505092915050565b606061130b8484600085611314565b90509392505050565b606082471015611359576040517f08c379a0000000000000000000000000000000000000000000000000000000008152600401611350906120c4565b60405180910390fd5b6000808673ffffffffffffffffffffffffffffffffffffffff168587604051611382919061212b565b60006040518083038185875af1925050503d80600081146113bf576040519150601f19603f3d011682016040523d82523d6000602084013e6113c4565b606091505b50915091506113d5878383876113e1565b92505050949350505050565b6060831561144357600083510361143b576113fb85611456565b61143a576040517f08c379a00000000000000000000000000000000000000000000000000000000081526004016114319061218e565b60405180910390fd5b5b82905061144e565b61144d8383611479565b5b949350505050565b6000808273ffffffffffffffffffffffffffffffffffffffff163b119050919050565b60008251111561148c5781518083602001fd5b806040517f08c379a00000000000000000000000000000000000000000000000000000000081526004016114c09190611e10565b60405180910390fd5b600080fd5b60007fffffffff0000000000000000000000000000000000000000000000000000000082169050919050565b611503816114ce565b811461150e57600080fd5b50565b600081359050611520816114fa565b92915050565b60006020828403121561153c5761153b6114c9565b5b600061154a84828501611511565b91505092915050565b60008115159050919050565b61156881611553565b82525050565b6000602082019050611583600083018461155f565b92915050565b6000819050919050565b61159c81611589565b81146115a757600080fd5b50565b6000813590506115b981611593565b92915050565b6000602082840312156115d5576115d46114c9565b5b60006115e3848285016115aa565b91505092915050565b6115f581611589565b82525050565b600060208201905061161060008301846115ec565b92915050565b6000819050919050565b61162981611616565b811461163457600080fd5b50565b60008135905061164681611620565b92915050565b600060208284031215611662576116616114c9565b5b600061167084828501611637565b91505092915050565b600073ffffffffffffffffffffffffffffffffffffffff82169050919050565b6000819050919050565b60006116be6116b96116b484611679565b611699565b611679565b9050919050565b60006116d0826116a3565b9050919050565b60006116e2826116c5565b9050919050565b6116f2816116d7565b82525050565b61170181611616565b82525050565b600060408201905061171c60008301856116e9565b61172960208301846116f8565b9392505050565b600061173b82611679565b9050919050565b61174b81611730565b811461175657600080fd5b50565b60008135905061176881611742565b92915050565b60008060408385031215611785576117846114c9565b5b6000611793858286016115aa565b92505060206117a485828601611759565b9150509250929050565b60006117b982611730565b9050919050565b6117c9816117ae565b81146117d457600080fd5b50565b6000813590506117e6816117c0565b92915050565b600060208284031215611802576118016114c9565b5b6000611810848285016117d7565b91505092915050565b600060208201905061182e60008301846116f8565b92915050565b6000806040838503121561184b5761184a6114c9565b5b600061185985828601611637565b925050602061186a85828601611637565b9150509250929050565b61187d81611730565b82525050565b60006020820190506118986000830184611874565b92915050565b6000602082840312156118b4576118b36114c9565b5b60006118c284828501611759565b91505092915050565b600082825260208201905092915050565b7f416363657373436f6e74726f6c3a2063616e206f6e6c792072656e6f756e636560008201527f20726f6c657320666f722073656c660000000000000000000000000000000000602082015250565b6000611938602f836118cb565b9150611943826118dc565b604082019050919050565b600060208201905081810360008301526119678161192b565b9050919050565b7f4e6f7420616c6c6f776564000000000000000000000000000000000000000000600082015250565b60006119a4600b836118cb565b91506119af8261196e565b602082019050919050565b600060208201905081810360008301526119d381611997565b9050919050565b7f4e487b7100000000000000000000000000000000000000000000000000000000600052601160045260246000fd5b6000611a1482611616565b91507fffffffffffffffffffffffffffffffffffffffffffffffffffffffffffffffff8203611a4657611a456119da565b5b600182019050919050565b7f4f776e61626c653a206e6577206f776e657220697320746865207a65726f206160008201527f6464726573730000000000000000000000000000000000000000000000000000602082015250565b6000611aad6026836118cb565b9150611ab882611a51565b604082019050919050565b60006020820190508181036000830152611adc81611aa0565b9050919050565b7f436f6c6c61746572616c204164647265737320416c7265616479204164646564600082015250565b6000611b196020836118cb565b9150611b2482611ae3565b602082019050919050565b60006020820190508181036000830152611b4881611b0c565b9050919050565b7f4f776e61626c653a2063616c6c6572206973206e6f7420746865206f776e6572600082015250565b6000611b856020836118cb565b9150611b9082611b4f565b602082019050919050565b60006020820190508181036000830152611bb481611b78565b9050919050565b6000604082019050611bd06000830185611874565b611bdd60208301846116f8565b9392505050565b6000611bef82611616565b9150611bfa83611616565b9250828203905081811115611c1257611c116119da565b5b92915050565b6000606082019050611c2d6000830186611874565b611c3a6020830185611874565b611c4760408301846116f8565b949350505050565b6000611c5a82611616565b9150611c6583611616565b9250828201905080821115611c7d57611c7c6119da565b5b92915050565b600081905092915050565b7f416363657373436f6e74726f6c3a206163636f756e7420000000000000000000600082015250565b6000611cc4601783611c83565b9150611ccf82611c8e565b601782019050919050565b600081519050919050565b60005b83811015611d03578082015181840152602081019050611ce8565b60008484015250505050565b6000611d1a82611cda565b611d248185611c83565b9350611d34818560208601611ce5565b80840191505092915050565b7f206973206d697373696e6720726f6c6520000000000000000000000000000000600082015250565b6000611d76601183611c83565b9150611d8182611d40565b601182019050919050565b6000611d9782611cb7565b9150611da38285611d0f565b9150611dae82611d69565b9150611dba8284611d0f565b91508190509392505050565b6000601f19601f8301169050919050565b6000611de282611cda565b611dec81856118cb565b9350611dfc818560208601611ce5565b611e0581611dc6565b840191505092915050565b60006020820190508181036000830152611e2a8184611dd7565b905092915050565b611e3b81611553565b8114611e4657600080fd5b50565b600081519050611e5881611e32565b92915050565b600060208284031215611e7457611e736114c9565b5b6000611e8284828501611e49565b91505092915050565b7f5361666545524332303a204552433230206f7065726174696f6e20646964206e60008201527f6f74207375636365656400000000000000000000000000000000000000000000602082015250565b6000611ee7602a836118cb565b9150611ef282611e8b565b604082019050919050565b60006020820190508181036000830152611f1681611eda565b9050919050565b6000611f2882611616565b9150611f3383611616565b9250828202611f4181611616565b91508282048414831517611f5857611f576119da565b5b5092915050565b7f4e487b7100000000000000000000000000000000000000000000000000000000600052604160045260246000fd5b7f4e487b7100000000000000000000000000000000000000000000000000000000600052603260045260246000fd5b6000611fc882611616565b915060008203611fdb57611fda6119da565b5b600182039050919050565b7f537472696e67733a20686578206c656e67746820696e73756666696369656e74600082015250565b600061201c6020836118cb565b915061202782611fe6565b602082019050919050565b6000602082019050818103600083015261204b8161200f565b9050919050565b7f416464726573733a20696e73756666696369656e742062616c616e636520666f60008201527f722063616c6c0000000000000000000000000000000000000000000000000000602082015250565b60006120ae6026836118cb565b91506120b982612052565b604082019050919050565b600060208201905081810360008301526120dd816120a1565b9050919050565b600081519050919050565b600081905092915050565b6000612105826120e4565b61210f81856120ef565b935061211f818560208601611ce5565b80840191505092915050565b600061213782846120fa565b915081905092915050565b7f416464726573733a2063616c6c20746f206e6f6e2d636f6e7472616374000000600082015250565b6000612178601d836118cb565b915061218382612142565b602082019050919050565b600060208201905081810360008301526121a78161216b565b905091905056fea2646970667358221220403d56d9ca8040387c4f207a20cfacb7b01436d90a7ed81565714d3ce075097964736f6c63430008110033",
					"opcodes": "PUSH1 0x80 PUSH1 0x40 MSTORE CALLVALUE DUP1 ISZERO PUSH3 0x11 JUMPI PUSH1 0x0 DUP1 REVERT JUMPDEST POP PUSH3 0x32 PUSH3 0x26 PUSH3 0xA4 PUSH1 0x20 SHL PUSH1 0x20 SHR JUMP JUMPDEST PUSH3 0xAC PUSH1 0x20 SHL PUSH1 0x20 SHR JUMP JUMPDEST PUSH1 0x1 DUP1 DUP2 SWAP1 SSTORE POP PUSH3 0x5D PUSH1 0x0 DUP1 SHL PUSH3 0x51 PUSH3 0xA4 PUSH1 0x20 SHL PUSH1 0x20 SHR JUMP JUMPDEST PUSH3 0x170 PUSH1 0x20 SHL PUSH1 0x20 SHR JUMP JUMPDEST PUSH3 0x9E PUSH32 0x241ECF16D79D0F8DBFB92CBC07FE17840425976CF0667F022FE9877CAA831B08 PUSH3 0x92 PUSH3 0xA4 PUSH1 0x20 SHL PUSH1 0x20 SHR JUMP JUMPDEST PUSH3 0x170 PUSH1 0x20 SHL PUSH1 0x20 SHR JUMP JUMPDEST PUSH3 0x2E3 JUMP JUMPDEST PUSH1 0x0 CALLER SWAP1 POP SWAP1 JUMP JUMPDEST PUSH1 0x0 DUP1 PUSH1 0x0 SWAP1 SLOAD SWAP1 PUSH2 0x100 EXP SWAP1 DIV PUSH20 0xFFFFFFFFFFFFFFFFFFFFFFFFFFFFFFFFFFFFFFFF AND SWAP1 POP DUP2 PUSH1 0x0 DUP1 PUSH2 0x100 EXP DUP2 SLOAD DUP2 PUSH20 0xFFFFFFFFFFFFFFFFFFFFFFFFFFFFFFFFFFFFFFFF MUL NOT AND SWAP1 DUP4 PUSH20 0xFFFFFFFFFFFFFFFFFFFFFFFFFFFFFFFFFFFFFFFF AND MUL OR SWAP1 SSTORE POP DUP2 PUSH20 0xFFFFFFFFFFFFFFFFFFFFFFFFFFFFFFFFFFFFFFFF AND DUP2 PUSH20 0xFFFFFFFFFFFFFFFFFFFFFFFFFFFFFFFFFFFFFFFF AND PUSH32 0x8BE0079C531659141344CD1FD0A4F28419497F9722A3DAAFE3B4186F6B6457E0 PUSH1 0x40 MLOAD PUSH1 0x40 MLOAD DUP1 SWAP2 SUB SWAP1 LOG3 POP POP JUMP JUMPDEST PUSH3 0x182 DUP3 DUP3 PUSH3 0x186 PUSH1 0x20 SHL PUSH1 0x20 SHR JUMP JUMPDEST POP POP JUMP JUMPDEST PUSH3 0x198 DUP3 DUP3 PUSH3 0x278 PUSH1 0x20 SHL PUSH1 0x20 SHR JUMP JUMPDEST PUSH3 0x274 JUMPI PUSH1 0x1 PUSH1 0x2 PUSH1 0x0 DUP5 DUP2 MSTORE PUSH1 0x20 ADD SWAP1 DUP2 MSTORE PUSH1 0x20 ADD PUSH1 0x0 KECCAK256 PUSH1 0x0 ADD PUSH1 0x0 DUP4 PUSH20 0xFFFFFFFFFFFFFFFFFFFFFFFFFFFFFFFFFFFFFFFF AND PUSH20 0xFFFFFFFFFFFFFFFFFFFFFFFFFFFFFFFFFFFFFFFF AND DUP2 MSTORE PUSH1 0x20 ADD SWAP1 DUP2 MSTORE PUSH1 0x20 ADD PUSH1 0x0 KECCAK256 PUSH1 0x0 PUSH2 0x100 EXP DUP2 SLOAD DUP2 PUSH1 0xFF MUL NOT AND SWAP1 DUP4 ISZERO ISZERO MUL OR SWAP1 SSTORE POP PUSH3 0x219 PUSH3 0xA4 PUSH1 0x20 SHL PUSH1 0x20 SHR JUMP JUMPDEST PUSH20 0xFFFFFFFFFFFFFFFFFFFFFFFFFFFFFFFFFFFFFFFF AND DUP2 PUSH20 0xFFFFFFFFFFFFFFFFFFFFFFFFFFFFFFFFFFFFFFFF AND DUP4 PUSH32 0x2F8788117E7EFF1D82E926EC794901D17C78024A50270940304540A733656F0D PUSH1 0x40 MLOAD PUSH1 0x40 MLOAD DUP1 SWAP2 SUB SWAP1 LOG4 JUMPDEST POP POP JUMP JUMPDEST PUSH1 0x0 PUSH1 0x2 PUSH1 0x0 DUP5 DUP2 MSTORE PUSH1 0x20 ADD SWAP1 DUP2 MSTORE PUSH1 0x20 ADD PUSH1 0x0 KECCAK256 PUSH1 0x0 ADD PUSH1 0x0 DUP4 PUSH20 0xFFFFFFFFFFFFFFFFFFFFFFFFFFFFFFFFFFFFFFFF AND PUSH20 0xFFFFFFFFFFFFFFFFFFFFFFFFFFFFFFFFFFFFFFFF AND DUP2 MSTORE PUSH1 0x20 ADD SWAP1 DUP2 MSTORE PUSH1 0x20 ADD PUSH1 0x0 KECCAK256 PUSH1 0x0 SWAP1 SLOAD SWAP1 PUSH2 0x100 EXP SWAP1 DIV PUSH1 0xFF AND SWAP1 POP SWAP3 SWAP2 POP POP JUMP JUMPDEST PUSH2 0x21E4 DUP1 PUSH3 0x2F3 PUSH1 0x0 CODECOPY PUSH1 0x0 RETURN INVALID PUSH1 0x80 PUSH1 0x40 MSTORE CALLVALUE DUP1 ISZERO PUSH2 0x10 JUMPI PUSH1 0x0 DUP1 REVERT JUMPDEST POP PUSH1 0x4 CALLDATASIZE LT PUSH2 0x100 JUMPI PUSH1 0x0 CALLDATALOAD PUSH1 0xE0 SHR DUP1 PUSH4 0x767A7B05 GT PUSH2 0x97 JUMPI DUP1 PUSH4 0xD547741F GT PUSH2 0x66 JUMPI DUP1 PUSH4 0xD547741F EQ PUSH2 0x29A JUMPI DUP1 PUSH4 0xEC87621C EQ PUSH2 0x2B6 JUMPI DUP1 PUSH4 0xECE13732 EQ PUSH2 0x2D4 JUMPI DUP1 PUSH4 0xF2FDE38B EQ PUSH2 0x2F0 JUMPI PUSH2 0x100 JUMP JUMPDEST DUP1 PUSH4 0x767A7B05 EQ PUSH2 0x212 JUMPI DUP1 PUSH4 0x8DA5CB5B EQ PUSH2 0x22E JUMPI DUP1 PUSH4 0x91D14854 EQ PUSH2 0x24C JUMPI DUP1 PUSH4 0xA217FDDF EQ PUSH2 0x27C JUMPI PUSH2 0x100 JUMP JUMPDEST DUP1 PUSH4 0x36568ABE GT PUSH2 0xD3 JUMPI DUP1 PUSH4 0x36568ABE EQ PUSH2 0x1B2 JUMPI DUP1 PUSH4 0x3B61F098 EQ PUSH2 0x1CE JUMPI DUP1 PUSH4 0x5306F102 EQ PUSH2 0x1EA JUMPI DUP1 PUSH4 0x715018A6 EQ PUSH2 0x208 JUMPI PUSH2 0x100 JUMP JUMPDEST DUP1 PUSH4 0x1FFC9A7 EQ PUSH2 0x105 JUMPI DUP1 PUSH4 0x248A9CA3 EQ PUSH2 0x135 JUMPI DUP1 PUSH4 0x279BA28D EQ PUSH2 0x165 JUMPI DUP1 PUSH4 0x2F2FF15D EQ PUSH2 0x196 JUMPI JUMPDEST PUSH1 0x0 DUP1 REVERT JUMPDEST PUSH2 0x11F PUSH1 0x4 DUP1 CALLDATASIZE SUB DUP2 ADD SWAP1 PUSH2 0x11A SWAP2 SWAP1 PUSH2 0x1526 JUMP JUMPDEST PUSH2 0x30C JUMP JUMPDEST PUSH1 0x40 MLOAD PUSH2 0x12C SWAP2 SWAP1 PUSH2 0x156E JUMP JUMPDEST PUSH1 0x40 MLOAD DUP1 SWAP2 SUB SWAP1 RETURN JUMPDEST PUSH2 0x14F PUSH1 0x4 DUP1 CALLDATASIZE SUB DUP2 ADD SWAP1 PUSH2 0x14A SWAP2 SWAP1 PUSH2 0x15BF JUMP JUMPDEST PUSH2 0x386 JUMP JUMPDEST PUSH1 0x40 MLOAD PUSH2 0x15C SWAP2 SWAP1 PUSH2 0x15FB JUMP JUMPDEST PUSH1 0x40 MLOAD DUP1 SWAP2 SUB SWAP1 RETURN JUMPDEST PUSH2 0x17F PUSH1 0x4 DUP1 CALLDATASIZE SUB DUP2 ADD SWAP1 PUSH2 0x17A SWAP2 SWAP1 PUSH2 0x164C JUMP JUMPDEST PUSH2 0x3A6 JUMP JUMPDEST PUSH1 0x40 MLOAD PUSH2 0x18D SWAP3 SWAP2 SWAP1 PUSH2 0x1707 JUMP JUMPDEST PUSH1 0x40 MLOAD DUP1 SWAP2 SUB SWAP1 RETURN JUMPDEST PUSH2 0x1B0 PUSH1 0x4 DUP1 CALLDATASIZE SUB DUP2 ADD SWAP1 PUSH2 0x1AB SWAP2 SWAP1 PUSH2 0x176E JUMP JUMPDEST PUSH2 0x3EA JUMP JUMPDEST STOP JUMPDEST PUSH2 0x1CC PUSH1 0x4 DUP1 CALLDATASIZE SUB DUP2 ADD SWAP1 PUSH2 0x1C7 SWAP2 SWAP1 PUSH2 0x176E JUMP JUMPDEST PUSH2 0x40B JUMP JUMPDEST STOP JUMPDEST PUSH2 0x1E8 PUSH1 0x4 DUP1 CALLDATASIZE SUB DUP2 ADD SWAP1 PUSH2 0x1E3 SWAP2 SWAP1 PUSH2 0x17EC JUMP JUMPDEST PUSH2 0x48E JUMP JUMPDEST STOP JUMPDEST PUSH2 0x1F2 PUSH2 0x579 JUMP JUMPDEST PUSH1 0x40 MLOAD PUSH2 0x1FF SWAP2 SWAP1 PUSH2 0x1819 JUMP JUMPDEST PUSH1 0x40 MLOAD DUP1 SWAP2 SUB SWAP1 RETURN JUMPDEST PUSH2 0x210 PUSH2 0x57F JUMP JUMPDEST STOP JUMPDEST PUSH2 0x22C PUSH1 0x4 DUP1 CALLDATASIZE SUB DUP2 ADD SWAP1 PUSH2 0x227 SWAP2 SWAP1 PUSH2 0x1834 JUMP JUMPDEST PUSH2 0x593 JUMP JUMPDEST STOP JUMPDEST PUSH2 0x236 PUSH2 0x6F7 JUMP JUMPDEST PUSH1 0x40 MLOAD PUSH2 0x243 SWAP2 SWAP1 PUSH2 0x1883 JUMP JUMPDEST PUSH1 0x40 MLOAD DUP1 SWAP2 SUB SWAP1 RETURN JUMPDEST PUSH2 0x266 PUSH1 0x4 DUP1 CALLDATASIZE SUB DUP2 ADD SWAP1 PUSH2 0x261 SWAP2 SWAP1 PUSH2 0x176E JUMP JUMPDEST PUSH2 0x720 JUMP JUMPDEST PUSH1 0x40 MLOAD PUSH2 0x273 SWAP2 SWAP1 PUSH2 0x156E JUMP JUMPDEST PUSH1 0x40 MLOAD DUP1 SWAP2 SUB SWAP1 RETURN JUMPDEST PUSH2 0x284 PUSH2 0x78B JUMP JUMPDEST PUSH1 0x40 MLOAD PUSH2 0x291 SWAP2 SWAP1 PUSH2 0x15FB JUMP JUMPDEST PUSH1 0x40 MLOAD DUP1 SWAP2 SUB SWAP1 RETURN JUMPDEST PUSH2 0x2B4 PUSH1 0x4 DUP1 CALLDATASIZE SUB DUP2 ADD SWAP1 PUSH2 0x2AF SWAP2 SWAP1 PUSH2 0x176E JUMP JUMPDEST PUSH2 0x792 JUMP JUMPDEST STOP JUMPDEST PUSH2 0x2BE PUSH2 0x7B3 JUMP JUMPDEST PUSH1 0x40 MLOAD PUSH2 0x2CB SWAP2 SWAP1 PUSH2 0x15FB JUMP JUMPDEST PUSH1 0x40 MLOAD DUP1 SWAP2 SUB SWAP1 RETURN JUMPDEST PUSH2 0x2EE PUSH1 0x4 DUP1 CALLDATASIZE SUB DUP2 ADD SWAP1 PUSH2 0x2E9 SWAP2 SWAP1 PUSH2 0x1834 JUMP JUMPDEST PUSH2 0x7D7 JUMP JUMPDEST STOP JUMPDEST PUSH2 0x30A PUSH1 0x4 DUP1 CALLDATASIZE SUB DUP2 ADD SWAP1 PUSH2 0x305 SWAP2 SWAP1 PUSH2 0x189E JUMP JUMPDEST PUSH2 0x935 JUMP JUMPDEST STOP JUMPDEST PUSH1 0x0 PUSH32 0x7965DB0B00000000000000000000000000000000000000000000000000000000 PUSH28 0xFFFFFFFFFFFFFFFFFFFFFFFFFFFFFFFFFFFFFFFFFFFFFFFFFFFFFFFF NOT AND DUP3 PUSH28 0xFFFFFFFFFFFFFFFFFFFFFFFFFFFFFFFFFFFFFFFFFFFFFFFFFFFFFFFF NOT AND EQ DUP1 PUSH2 0x37F JUMPI POP PUSH2 0x37E DUP3 PUSH2 0x9B8 JUMP JUMPDEST JUMPDEST SWAP1 POP SWAP2 SWAP1 POP JUMP JUMPDEST PUSH1 0x0 PUSH1 0x2 PUSH1 0x0 DUP4 DUP2 MSTORE PUSH1 0x20 ADD SWAP1 DUP2 MSTORE PUSH1 0x20 ADD PUSH1 0x0 KECCAK256 PUSH1 0x1 ADD SLOAD SWAP1 POP SWAP2 SWAP1 POP JUMP JUMPDEST PUSH1 0x4 PUSH1 0x20 MSTORE DUP1 PUSH1 0x0 MSTORE PUSH1 0x40 PUSH1 0x0 KECCAK256 PUSH1 0x0 SWAP2 POP SWAP1 POP DUP1 PUSH1 0x0 ADD PUSH1 0x0 SWAP1 SLOAD SWAP1 PUSH2 0x100 EXP SWAP1 DIV PUSH20 0xFFFFFFFFFFFFFFFFFFFFFFFFFFFFFFFFFFFFFFFF AND SWAP1 DUP1 PUSH1 0x1 ADD SLOAD SWAP1 POP DUP3 JUMP JUMPDEST PUSH2 0x3F3 DUP3 PUSH2 0x386 JUMP JUMPDEST PUSH2 0x3FC DUP2 PUSH2 0xA22 JUMP JUMPDEST PUSH2 0x406 DUP4 DUP4 PUSH2 0xA36 JUMP JUMPDEST POP POP POP JUMP JUMPDEST PUSH2 0x413 PUSH2 0xB17 JUMP JUMPDEST PUSH20 0xFFFFFFFFFFFFFFFFFFFFFFFFFFFFFFFFFFFFFFFF AND DUP2 PUSH20 0xFFFFFFFFFFFFFFFFFFFFFFFFFFFFFFFFFFFFFFFF AND EQ PUSH2 0x480 JUMPI PUSH1 0x40 MLOAD PUSH32 0x8C379A000000000000000000000000000000000000000000000000000000000 DUP2 MSTORE PUSH1 0x4 ADD PUSH2 0x477 SWAP1 PUSH2 0x194E JUMP JUMPDEST PUSH1 0x40 MLOAD DUP1 SWAP2 SUB SWAP1 REVERT JUMPDEST PUSH2 0x48A DUP3 DUP3 PUSH2 0xB1F JUMP JUMPDEST POP POP JUMP JUMPDEST PUSH2 0x4BF PUSH32 0x241ECF16D79D0F8DBFB92CBC07FE17840425976CF0667F022FE9877CAA831B08 PUSH2 0x4BA PUSH2 0xB17 JUMP JUMPDEST PUSH2 0x720 JUMP JUMPDEST PUSH2 0x4FE JUMPI PUSH1 0x40 MLOAD PUSH32 0x8C379A000000000000000000000000000000000000000000000000000000000 DUP2 MSTORE PUSH1 0x4 ADD PUSH2 0x4F5 SWAP1 PUSH2 0x19BA JUMP JUMPDEST PUSH1 0x40 MLOAD DUP1 SWAP2 SUB SWAP1 REVERT JUMPDEST PUSH2 0x507 DUP2 PUSH2 0xC01 JUMP JUMPDEST DUP1 PUSH1 0x4 PUSH1 0x0 PUSH1 0x3 SLOAD DUP2 MSTORE PUSH1 0x20 ADD SWAP1 DUP2 MSTORE PUSH1 0x20 ADD PUSH1 0x0 KECCAK256 PUSH1 0x0 ADD PUSH1 0x0 PUSH2 0x100 EXP DUP2 SLOAD DUP2 PUSH20 0xFFFFFFFFFFFFFFFFFFFFFFFFFFFFFFFFFFFFFFFF MUL NOT AND SWAP1 DUP4 PUSH20 0xFFFFFFFFFFFFFFFFFFFFFFFFFFFFFFFFFFFFFFFF AND MUL OR SWAP1 SSTORE POP PUSH1 0x3 PUSH1 0x0 DUP2 SLOAD DUP1 SWAP3 SWAP2 SWAP1 PUSH2 0x571 SWAP1 PUSH2 0x1A09 JUMP JUMPDEST SWAP2 SWAP1 POP SSTORE POP POP JUMP JUMPDEST PUSH1 0x3 SLOAD DUP2 JUMP JUMPDEST PUSH2 0x587 PUSH2 0xCC9 JUMP JUMPDEST PUSH2 0x591 PUSH1 0x0 PUSH2 0xD47 JUMP JUMPDEST JUMP JUMPDEST PUSH2 0x5C4 PUSH32 0x241ECF16D79D0F8DBFB92CBC07FE17840425976CF0667F022FE9877CAA831B08 PUSH2 0x5BF PUSH2 0xB17 JUMP JUMPDEST PUSH2 0x720 JUMP JUMPDEST PUSH2 0x603 JUMPI PUSH1 0x40 MLOAD PUSH32 0x8C379A000000000000000000000000000000000000000000000000000000000 DUP2 MSTORE PUSH1 0x4 ADD PUSH2 0x5FA SWAP1 PUSH2 0x19BA JUMP JUMPDEST PUSH1 0x40 MLOAD DUP1 SWAP2 SUB SWAP1 REVERT JUMPDEST PUSH1 0x0 PUSH1 0x4 PUSH1 0x0 DUP5 DUP2 MSTORE PUSH1 0x20 ADD SWAP1 DUP2 MSTORE PUSH1 0x20 ADD PUSH1 0x0 KECCAK256 PUSH1 0x0 ADD PUSH1 0x0 SWAP1 SLOAD SWAP1 PUSH2 0x100 EXP SWAP1 DIV PUSH20 0xFFFFFFFFFFFFFFFFFFFFFFFFFFFFFFFFFFFFFFFF AND SWAP1 POP PUSH1 0x0 PUSH1 0x4 PUSH1 0x0 DUP6 DUP2 MSTORE PUSH1 0x20 ADD SWAP1 DUP2 MSTORE PUSH1 0x20 ADD PUSH1 0x0 KECCAK256 PUSH1 0x1 ADD SLOAD SWAP1 POP DUP3 DUP2 LT PUSH2 0x6F1 JUMPI PUSH2 0x68B CALLER DUP5 DUP5 PUSH20 0xFFFFFFFFFFFFFFFFFFFFFFFFFFFFFFFFFFFFFFFF AND PUSH2 0xE0B SWAP1 SWAP3 SWAP2 SWAP1 PUSH4 0xFFFFFFFF AND JUMP JUMPDEST PUSH2 0x69E DUP4 DUP3 PUSH2 0xE91 SWAP1 SWAP2 SWAP1 PUSH4 0xFFFFFFFF AND JUMP JUMPDEST PUSH1 0x4 PUSH1 0x0 DUP7 DUP2 MSTORE PUSH1 0x20 ADD SWAP1 DUP2 MSTORE PUSH1 0x20 ADD PUSH1 0x0 KECCAK256 PUSH1 0x1 ADD DUP2 SWAP1 SSTORE POP DUP4 PUSH32 0x56CA301A9219608C91E7BCEE90E083C19671D2CDCC96752C7AF291CEE5F9C8C8 DUP5 PUSH1 0x40 MLOAD PUSH2 0x6E8 SWAP2 SWAP1 PUSH2 0x1819 JUMP JUMPDEST PUSH1 0x40 MLOAD DUP1 SWAP2 SUB SWAP1 LOG2 JUMPDEST POP POP POP POP JUMP JUMPDEST PUSH1 0x0 DUP1 PUSH1 0x0 SWAP1 SLOAD SWAP1 PUSH2 0x100 EXP SWAP1 DIV PUSH20 0xFFFFFFFFFFFFFFFFFFFFFFFFFFFFFFFFFFFFFFFF AND SWAP1 POP SWAP1 JUMP JUMPDEST PUSH1 0x0 PUSH1 0x2 PUSH1 0x0 DUP5 DUP2 MSTORE PUSH1 0x20 ADD SWAP1 DUP2 MSTORE PUSH1 0x20 ADD PUSH1 0x0 KECCAK256 PUSH1 0x0 ADD PUSH1 0x0 DUP4 PUSH20 0xFFFFFFFFFFFFFFFFFFFFFFFFFFFFFFFFFFFFFFFF AND PUSH20 0xFFFFFFFFFFFFFFFFFFFFFFFFFFFFFFFFFFFFFFFF AND DUP2 MSTORE PUSH1 0x20 ADD SWAP1 DUP2 MSTORE PUSH1 0x20 ADD PUSH1 0x0 KECCAK256 PUSH1 0x0 SWAP1 SLOAD SWAP1 PUSH2 0x100 EXP SWAP1 DIV PUSH1 0xFF AND SWAP1 POP SWAP3 SWAP2 POP POP JUMP JUMPDEST PUSH1 0x0 DUP1 SHL DUP2 JUMP JUMPDEST PUSH2 0x79B DUP3 PUSH2 0x386 JUMP JUMPDEST PUSH2 0x7A4 DUP2 PUSH2 0xA22 JUMP JUMPDEST PUSH2 0x7AE DUP4 DUP4 PUSH2 0xB1F JUMP JUMPDEST POP POP POP JUMP JUMPDEST PUSH32 0x241ECF16D79D0F8DBFB92CBC07FE17840425976CF0667F022FE9877CAA831B08 DUP2 JUMP JUMPDEST PUSH2 0x808 PUSH32 0x241ECF16D79D0F8DBFB92CBC07FE17840425976CF0667F022FE9877CAA831B08 PUSH2 0x803 PUSH2 0xB17 JUMP JUMPDEST PUSH2 0x720 JUMP JUMPDEST PUSH2 0x847 JUMPI PUSH1 0x40 MLOAD PUSH32 0x8C379A000000000000000000000000000000000000000000000000000000000 DUP2 MSTORE PUSH1 0x4 ADD PUSH2 0x83E SWAP1 PUSH2 0x19BA JUMP JUMPDEST PUSH1 0x40 MLOAD DUP1 SWAP2 SUB SWAP1 REVERT JUMPDEST PUSH1 0x0 PUSH1 0x4 PUSH1 0x0 DUP5 DUP2 MSTORE PUSH1 0x20 ADD SWAP1 DUP2 MSTORE PUSH1 0x20 ADD PUSH1 0x0 KECCAK256 PUSH1 0x0 ADD PUSH1 0x0 SWAP1 SLOAD SWAP1 PUSH2 0x100 EXP SWAP1 DIV PUSH20 0xFFFFFFFFFFFFFFFFFFFFFFFFFFFFFFFFFFFFFFFF AND SWAP1 POP PUSH2 0x8AF CALLER ADDRESS DUP5 DUP5 PUSH20 0xFFFFFFFFFFFFFFFFFFFFFFFFFFFFFFFFFFFFFFFF AND PUSH2 0xEA7 SWAP1 SWAP4 SWAP3 SWAP2 SWAP1 PUSH4 0xFFFFFFFF AND JUMP JUMPDEST PUSH1 0x0 PUSH1 0x4 PUSH1 0x0 DUP6 DUP2 MSTORE PUSH1 0x20 ADD SWAP1 DUP2 MSTORE PUSH1 0x20 ADD PUSH1 0x0 KECCAK256 PUSH1 0x1 ADD SLOAD SWAP1 POP PUSH2 0x8DD DUP4 DUP3 PUSH2 0xF30 SWAP1 SWAP2 SWAP1 PUSH4 0xFFFFFFFF AND JUMP JUMPDEST PUSH1 0x4 PUSH1 0x0 DUP7 DUP2 MSTORE PUSH1 0x20 ADD SWAP1 DUP2 MSTORE PUSH1 0x20 ADD PUSH1 0x0 KECCAK256 PUSH1 0x1 ADD DUP2 SWAP1 SSTORE POP DUP4 PUSH32 0xA3AF609BF46297028CE551832669030F9EFFEF2B02606D02CBBCC40FE6B47C55 DUP5 PUSH1 0x40 MLOAD PUSH2 0x927 SWAP2 SWAP1 PUSH2 0x1819 JUMP JUMPDEST PUSH1 0x40 MLOAD DUP1 SWAP2 SUB SWAP1 LOG2 POP POP POP POP JUMP JUMPDEST PUSH2 0x93D PUSH2 0xCC9 JUMP JUMPDEST PUSH1 0x0 PUSH20 0xFFFFFFFFFFFFFFFFFFFFFFFFFFFFFFFFFFFFFFFF AND DUP2 PUSH20 0xFFFFFFFFFFFFFFFFFFFFFFFFFFFFFFFFFFFFFFFF AND SUB PUSH2 0x9AC JUMPI PUSH1 0x40 MLOAD PUSH32 0x8C379A000000000000000000000000000000000000000000000000000000000 DUP2 MSTORE PUSH1 0x4 ADD PUSH2 0x9A3 SWAP1 PUSH2 0x1AC3 JUMP JUMPDEST PUSH1 0x40 MLOAD DUP1 SWAP2 SUB SWAP1 REVERT JUMPDEST PUSH2 0x9B5 DUP2 PUSH2 0xD47 JUMP JUMPDEST POP JUMP JUMPDEST PUSH1 0x0 PUSH32 0x1FFC9A700000000000000000000000000000000000000000000000000000000 PUSH28 0xFFFFFFFFFFFFFFFFFFFFFFFFFFFFFFFFFFFFFFFFFFFFFFFFFFFFFFFF NOT AND DUP3 PUSH28 0xFFFFFFFFFFFFFFFFFFFFFFFFFFFFFFFFFFFFFFFFFFFFFFFFFFFFFFFF NOT AND EQ SWAP1 POP SWAP2 SWAP1 POP JUMP JUMPDEST PUSH2 0xA33 DUP2 PUSH2 0xA2E PUSH2 0xB17 JUMP JUMPDEST PUSH2 0xF46 JUMP JUMPDEST POP JUMP JUMPDEST PUSH2 0xA40 DUP3 DUP3 PUSH2 0x720 JUMP JUMPDEST PUSH2 0xB13 JUMPI PUSH1 0x1 PUSH1 0x2 PUSH1 0x0 DUP5 DUP2 MSTORE PUSH1 0x20 ADD SWAP1 DUP2 MSTORE PUSH1 0x20 ADD PUSH1 0x0 KECCAK256 PUSH1 0x0 ADD PUSH1 0x0 DUP4 PUSH20 0xFFFFFFFFFFFFFFFFFFFFFFFFFFFFFFFFFFFFFFFF AND PUSH20 0xFFFFFFFFFFFFFFFFFFFFFFFFFFFFFFFFFFFFFFFF AND DUP2 MSTORE PUSH1 0x20 ADD SWAP1 DUP2 MSTORE PUSH1 0x20 ADD PUSH1 0x0 KECCAK256 PUSH1 0x0 PUSH2 0x100 EXP DUP2 SLOAD DUP2 PUSH1 0xFF MUL NOT AND SWAP1 DUP4 ISZERO ISZERO MUL OR SWAP1 SSTORE POP PUSH2 0xAB8 PUSH2 0xB17 JUMP JUMPDEST PUSH20 0xFFFFFFFFFFFFFFFFFFFFFFFFFFFFFFFFFFFFFFFF AND DUP2 PUSH20 0xFFFFFFFFFFFFFFFFFFFFFFFFFFFFFFFFFFFFFFFF AND DUP4 PUSH32 0x2F8788117E7EFF1D82E926EC794901D17C78024A50270940304540A733656F0D PUSH1 0x40 MLOAD PUSH1 0x40 MLOAD DUP1 SWAP2 SUB SWAP1 LOG4 JUMPDEST POP POP JUMP JUMPDEST PUSH1 0x0 CALLER SWAP1 POP SWAP1 JUMP JUMPDEST PUSH2 0xB29 DUP3 DUP3 PUSH2 0x720 JUMP JUMPDEST ISZERO PUSH2 0xBFD JUMPI PUSH1 0x0 PUSH1 0x2 PUSH1 0x0 DUP5 DUP2 MSTORE PUSH1 0x20 ADD SWAP1 DUP2 MSTORE PUSH1 0x20 ADD PUSH1 0x0 KECCAK256 PUSH1 0x0 ADD PUSH1 0x0 DUP4 PUSH20 0xFFFFFFFFFFFFFFFFFFFFFFFFFFFFFFFFFFFFFFFF AND PUSH20 0xFFFFFFFFFFFFFFFFFFFFFFFFFFFFFFFFFFFFFFFF AND DUP2 MSTORE PUSH1 0x20 ADD SWAP1 DUP2 MSTORE PUSH1 0x20 ADD PUSH1 0x0 KECCAK256 PUSH1 0x0 PUSH2 0x100 EXP DUP2 SLOAD DUP2 PUSH1 0xFF MUL NOT AND SWAP1 DUP4 ISZERO ISZERO MUL OR SWAP1 SSTORE POP PUSH2 0xBA2 PUSH2 0xB17 JUMP JUMPDEST PUSH20 0xFFFFFFFFFFFFFFFFFFFFFFFFFFFFFFFFFFFFFFFF AND DUP2 PUSH20 0xFFFFFFFFFFFFFFFFFFFFFFFFFFFFFFFFFFFFFFFF AND DUP4 PUSH32 0xF6391F5C32D9C69D2A47EA670B442974B53935D1EDC7FD64EB21E047A839171B PUSH1 0x40 MLOAD PUSH1 0x40 MLOAD DUP1 SWAP2 SUB SWAP1 LOG4 JUMPDEST POP POP JUMP JUMPDEST PUSH1 0x0 JUMPDEST PUSH1 0x3 SLOAD DUP2 LT ISZERO PUSH2 0xCC5 JUMPI DUP2 PUSH20 0xFFFFFFFFFFFFFFFFFFFFFFFFFFFFFFFFFFFFFFFF AND PUSH1 0x4 PUSH1 0x0 DUP4 DUP2 MSTORE PUSH1 0x20 ADD SWAP1 DUP2 MSTORE PUSH1 0x20 ADD PUSH1 0x0 KECCAK256 PUSH1 0x0 ADD PUSH1 0x0 SWAP1 SLOAD SWAP1 PUSH2 0x100 EXP SWAP1 DIV PUSH20 0xFFFFFFFFFFFFFFFFFFFFFFFFFFFFFFFFFFFFFFFF AND PUSH20 0xFFFFFFFFFFFFFFFFFFFFFFFFFFFFFFFFFFFFFFFF AND SUB PUSH2 0xCB2 JUMPI PUSH1 0x40 MLOAD PUSH32 0x8C379A000000000000000000000000000000000000000000000000000000000 DUP2 MSTORE PUSH1 0x4 ADD PUSH2 0xCA9 SWAP1 PUSH2 0x1B2F JUMP JUMPDEST PUSH1 0x40 MLOAD DUP1 SWAP2 SUB SWAP1 REVERT JUMPDEST DUP1 DUP1 PUSH2 0xCBD SWAP1 PUSH2 0x1A09 JUMP JUMPDEST SWAP2 POP POP PUSH2 0xC04 JUMP JUMPDEST POP POP JUMP JUMPDEST PUSH2 0xCD1 PUSH2 0xB17 JUMP JUMPDEST PUSH20 0xFFFFFFFFFFFFFFFFFFFFFFFFFFFFFFFFFFFFFFFF AND PUSH2 0xCEF PUSH2 0x6F7 JUMP JUMPDEST PUSH20 0xFFFFFFFFFFFFFFFFFFFFFFFFFFFFFFFFFFFFFFFF AND EQ PUSH2 0xD45 JUMPI PUSH1 0x40 MLOAD PUSH32 0x8C379A000000000000000000000000000000000000000000000000000000000 DUP2 MSTORE PUSH1 0x4 ADD PUSH2 0xD3C SWAP1 PUSH2 0x1B9B JUMP JUMPDEST PUSH1 0x40 MLOAD DUP1 SWAP2 SUB SWAP1 REVERT JUMPDEST JUMP JUMPDEST PUSH1 0x0 DUP1 PUSH1 0x0 SWAP1 SLOAD SWAP1 PUSH2 0x100 EXP SWAP1 DIV PUSH20 0xFFFFFFFFFFFFFFFFFFFFFFFFFFFFFFFFFFFFFFFF AND SWAP1 POP DUP2 PUSH1 0x0 DUP1 PUSH2 0x100 EXP DUP2 SLOAD DUP2 PUSH20 0xFFFFFFFFFFFFFFFFFFFFFFFFFFFFFFFFFFFFFFFF MUL NOT AND SWAP1 DUP4 PUSH20 0xFFFFFFFFFFFFFFFFFFFFFFFFFFFFFFFFFFFFFFFF AND MUL OR SWAP1 SSTORE POP DUP2 PUSH20 0xFFFFFFFFFFFFFFFFFFFFFFFFFFFFFFFFFFFFFFFF AND DUP2 PUSH20 0xFFFFFFFFFFFFFFFFFFFFFFFFFFFFFFFFFFFFFFFF AND PUSH32 0x8BE0079C531659141344CD1FD0A4F28419497F9722A3DAAFE3B4186F6B6457E0 PUSH1 0x40 MLOAD PUSH1 0x40 MLOAD DUP1 SWAP2 SUB SWAP1 LOG3 POP POP JUMP JUMPDEST PUSH2 0xE8C DUP4 PUSH4 0xA9059CBB PUSH1 0xE0 SHL DUP5 DUP5 PUSH1 0x40 MLOAD PUSH1 0x24 ADD PUSH2 0xE2A SWAP3 SWAP2 SWAP1 PUSH2 0x1BBB JUMP JUMPDEST PUSH1 0x40 MLOAD PUSH1 0x20 DUP2 DUP4 SUB SUB DUP2 MSTORE SWAP1 PUSH1 0x40 MSTORE SWAP1 PUSH28 0xFFFFFFFFFFFFFFFFFFFFFFFFFFFFFFFFFFFFFFFFFFFFFFFFFFFFFFFF NOT AND PUSH1 0x20 DUP3 ADD DUP1 MLOAD PUSH28 0xFFFFFFFFFFFFFFFFFFFFFFFFFFFFFFFFFFFFFFFFFFFFFFFFFFFFFFFF DUP4 DUP2 DUP4 AND OR DUP4 MSTORE POP POP POP POP PUSH2 0xFCB JUMP JUMPDEST POP POP POP JUMP JUMPDEST PUSH1 0x0 DUP2 DUP4 PUSH2 0xE9F SWAP2 SWAP1 PUSH2 0x1BE4 JUMP JUMPDEST SWAP1 POP SWAP3 SWAP2 POP POP JUMP JUMPDEST PUSH2 0xF2A DUP5 PUSH4 0x23B872DD PUSH1 0xE0 SHL DUP6 DUP6 DUP6 PUSH1 0x40 MLOAD PUSH1 0x24 ADD PUSH2 0xEC8 SWAP4 SWAP3 SWAP2 SWAP1 PUSH2 0x1C18 JUMP JUMPDEST PUSH1 0x40 MLOAD PUSH1 0x20 DUP2 DUP4 SUB SUB DUP2 MSTORE SWAP1 PUSH1 0x40 MSTORE SWAP1 PUSH28 0xFFFFFFFFFFFFFFFFFFFFFFFFFFFFFFFFFFFFFFFFFFFFFFFFFFFFFFFF NOT AND PUSH1 0x20 DUP3 ADD DUP1 MLOAD PUSH28 0xFFFFFFFFFFFFFFFFFFFFFFFFFFFFFFFFFFFFFFFFFFFFFFFFFFFFFFFF DUP4 DUP2 DUP4 AND OR DUP4 MSTORE POP POP POP POP PUSH2 0xFCB JUMP JUMPDEST POP POP POP POP JUMP JUMPDEST PUSH1 0x0 DUP2 DUP4 PUSH2 0xF3E SWAP2 SWAP1 PUSH2 0x1C4F JUMP JUMPDEST SWAP1 POP SWAP3 SWAP2 POP POP JUMP JUMPDEST PUSH2 0xF50 DUP3 DUP3 PUSH2 0x720 JUMP JUMPDEST PUSH2 0xFC7 JUMPI PUSH2 0xF5D DUP2 PUSH2 0x1093 JUMP JUMPDEST PUSH2 0xF6B DUP4 PUSH1 0x0 SHR PUSH1 0x20 PUSH2 0x10C0 JUMP JUMPDEST PUSH1 0x40 MLOAD PUSH1 0x20 ADD PUSH2 0xF7C SWAP3 SWAP2 SWAP1 PUSH2 0x1D8C JUMP JUMPDEST PUSH1 0x40 MLOAD PUSH1 0x20 DUP2 DUP4 SUB SUB DUP2 MSTORE SWAP1 PUSH1 0x40 MSTORE PUSH1 0x40 MLOAD PUSH32 0x8C379A000000000000000000000000000000000000000000000000000000000 DUP2 MSTORE PUSH1 0x4 ADD PUSH2 0xFBE SWAP2 SWAP1 PUSH2 0x1E10 JUMP JUMPDEST PUSH1 0x40 MLOAD DUP1 SWAP2 SUB SWAP1 REVERT JUMPDEST POP POP JUMP JUMPDEST PUSH1 0x0 PUSH2 0x102D DUP3 PUSH1 0x40 MLOAD DUP1 PUSH1 0x40 ADD PUSH1 0x40 MSTORE DUP1 PUSH1 0x20 DUP2 MSTORE PUSH1 0x20 ADD PUSH32 0x5361666545524332303A206C6F772D6C6576656C2063616C6C206661696C6564 DUP2 MSTORE POP DUP6 PUSH20 0xFFFFFFFFFFFFFFFFFFFFFFFFFFFFFFFFFFFFFFFF AND PUSH2 0x12FC SWAP1 SWAP3 SWAP2 SWAP1 PUSH4 0xFFFFFFFF AND JUMP JUMPDEST SWAP1 POP PUSH1 0x0 DUP2 MLOAD EQ DUP1 PUSH2 0x104F JUMPI POP DUP1 DUP1 PUSH1 0x20 ADD SWAP1 MLOAD DUP2 ADD SWAP1 PUSH2 0x104E SWAP2 SWAP1 PUSH2 0x1E5E JUMP JUMPDEST JUMPDEST PUSH2 0x108E JUMPI PUSH1 0x40 MLOAD PUSH32 0x8C379A000000000000000000000000000000000000000000000000000000000 DUP2 MSTORE PUSH1 0x4 ADD PUSH2 0x1085 SWAP1 PUSH2 0x1EFD JUMP JUMPDEST PUSH1 0x40 MLOAD DUP1 SWAP2 SUB SWAP1 REVERT JUMPDEST POP POP POP JUMP JUMPDEST PUSH1 0x60 PUSH2 0x10B9 DUP3 PUSH20 0xFFFFFFFFFFFFFFFFFFFFFFFFFFFFFFFFFFFFFFFF AND PUSH1 0x14 PUSH1 0xFF AND PUSH2 0x10C0 JUMP JUMPDEST SWAP1 POP SWAP2 SWAP1 POP JUMP JUMPDEST PUSH1 0x60 PUSH1 0x0 PUSH1 0x2 DUP4 PUSH1 0x2 PUSH2 0x10D3 SWAP2 SWAP1 PUSH2 0x1F1D JUMP JUMPDEST PUSH2 0x10DD SWAP2 SWAP1 PUSH2 0x1C4F JUMP JUMPDEST PUSH8 0xFFFFFFFFFFFFFFFF DUP2 GT ISZERO PUSH2 0x10F6 JUMPI PUSH2 0x10F5 PUSH2 0x1F5F JUMP JUMPDEST JUMPDEST PUSH1 0x40 MLOAD SWAP1 DUP1 DUP3 MSTORE DUP1 PUSH1 0x1F ADD PUSH1 0x1F NOT AND PUSH1 0x20 ADD DUP3 ADD PUSH1 0x40 MSTORE DUP1 ISZERO PUSH2 0x1128 JUMPI DUP2 PUSH1 0x20 ADD PUSH1 0x1 DUP3 MUL DUP1 CALLDATASIZE DUP4 CALLDATACOPY DUP1 DUP3 ADD SWAP2 POP POP SWAP1 POP JUMPDEST POP SWAP1 POP PUSH32 0x3000000000000000000000000000000000000000000000000000000000000000 DUP2 PUSH1 0x0 DUP2 MLOAD DUP2 LT PUSH2 0x1160 JUMPI PUSH2 0x115F PUSH2 0x1F8E JUMP JUMPDEST JUMPDEST PUSH1 0x20 ADD ADD SWAP1 PUSH31 0xFFFFFFFFFFFFFFFFFFFFFFFFFFFFFFFFFFFFFFFFFFFFFFFFFFFFFFFFFFFFFF NOT AND SWAP1 DUP2 PUSH1 0x0 BYTE SWAP1 MSTORE8 POP PUSH32 0x7800000000000000000000000000000000000000000000000000000000000000 DUP2 PUSH1 0x1 DUP2 MLOAD DUP2 LT PUSH2 0x11C4 JUMPI PUSH2 0x11C3 PUSH2 0x1F8E JUMP JUMPDEST JUMPDEST PUSH1 0x20 ADD ADD SWAP1 PUSH31 0xFFFFFFFFFFFFFFFFFFFFFFFFFFFFFFFFFFFFFFFFFFFFFFFFFFFFFFFFFFFFFF NOT AND SWAP1 DUP2 PUSH1 0x0 BYTE SWAP1 MSTORE8 POP PUSH1 0x0 PUSH1 0x1 DUP5 PUSH1 0x2 PUSH2 0x1204 SWAP2 SWAP1 PUSH2 0x1F1D JUMP JUMPDEST PUSH2 0x120E SWAP2 SWAP1 PUSH2 0x1C4F JUMP JUMPDEST SWAP1 POP JUMPDEST PUSH1 0x1 DUP2 GT ISZERO PUSH2 0x12AE JUMPI PUSH32 0x3031323334353637383961626364656600000000000000000000000000000000 PUSH1 0xF DUP7 AND PUSH1 0x10 DUP2 LT PUSH2 0x1250 JUMPI PUSH2 0x124F PUSH2 0x1F8E JUMP JUMPDEST JUMPDEST BYTE PUSH1 0xF8 SHL DUP3 DUP3 DUP2 MLOAD DUP2 LT PUSH2 0x1267 JUMPI PUSH2 0x1266 PUSH2 0x1F8E JUMP JUMPDEST JUMPDEST PUSH1 0x20 ADD ADD SWAP1 PUSH31 0xFFFFFFFFFFFFFFFFFFFFFFFFFFFFFFFFFFFFFFFFFFFFFFFFFFFFFFFFFFFFFF NOT AND SWAP1 DUP2 PUSH1 0x0 BYTE SWAP1 MSTORE8 POP PUSH1 0x4 DUP6 SWAP1 SHR SWAP5 POP DUP1 PUSH2 0x12A7 SWAP1 PUSH2 0x1FBD JUMP JUMPDEST SWAP1 POP PUSH2 0x1211 JUMP JUMPDEST POP PUSH1 0x0 DUP5 EQ PUSH2 0x12F2 JUMPI PUSH1 0x40 MLOAD PUSH32 0x8C379A000000000000000000000000000000000000000000000000000000000 DUP2 MSTORE PUSH1 0x4 ADD PUSH2 0x12E9 SWAP1 PUSH2 0x2032 JUMP JUMPDEST PUSH1 0x40 MLOAD DUP1 SWAP2 SUB SWAP1 REVERT JUMPDEST DUP1 SWAP2 POP POP SWAP3 SWAP2 POP POP JUMP JUMPDEST PUSH1 0x60 PUSH2 0x130B DUP5 DUP5 PUSH1 0x0 DUP6 PUSH2 0x1314 JUMP JUMPDEST SWAP1 POP SWAP4 SWAP3 POP POP POP JUMP JUMPDEST PUSH1 0x60 DUP3 SELFBALANCE LT ISZERO PUSH2 0x1359 JUMPI PUSH1 0x40 MLOAD PUSH32 0x8C379A000000000000000000000000000000000000000000000000000000000 DUP2 MSTORE PUSH1 0x4 ADD PUSH2 0x1350 SWAP1 PUSH2 0x20C4 JUMP JUMPDEST PUSH1 0x40 MLOAD DUP1 SWAP2 SUB SWAP1 REVERT JUMPDEST PUSH1 0x0 DUP1 DUP7 PUSH20 0xFFFFFFFFFFFFFFFFFFFFFFFFFFFFFFFFFFFFFFFF AND DUP6 DUP8 PUSH1 0x40 MLOAD PUSH2 0x1382 SWAP2 SWAP1 PUSH2 0x212B JUMP JUMPDEST PUSH1 0x0 PUSH1 0x40 MLOAD DUP1 DUP4 SUB DUP2 DUP6 DUP8 GAS CALL SWAP3 POP POP POP RETURNDATASIZE DUP1 PUSH1 0x0 DUP2 EQ PUSH2 0x13BF JUMPI PUSH1 0x40 MLOAD SWAP2 POP PUSH1 0x1F NOT PUSH1 0x3F RETURNDATASIZE ADD AND DUP3 ADD PUSH1 0x40 MSTORE RETURNDATASIZE DUP3 MSTORE RETURNDATASIZE PUSH1 0x0 PUSH1 0x20 DUP5 ADD RETURNDATACOPY PUSH2 0x13C4 JUMP JUMPDEST PUSH1 0x60 SWAP2 POP JUMPDEST POP SWAP2 POP SWAP2 POP PUSH2 0x13D5 DUP8 DUP4 DUP4 DUP8 PUSH2 0x13E1 JUMP JUMPDEST SWAP3 POP POP POP SWAP5 SWAP4 POP POP POP POP JUMP JUMPDEST PUSH1 0x60 DUP4 ISZERO PUSH2 0x1443 JUMPI PUSH1 0x0 DUP4 MLOAD SUB PUSH2 0x143B JUMPI PUSH2 0x13FB DUP6 PUSH2 0x1456 JUMP JUMPDEST PUSH2 0x143A JUMPI PUSH1 0x40 MLOAD PUSH32 0x8C379A000000000000000000000000000000000000000000000000000000000 DUP2 MSTORE PUSH1 0x4 ADD PUSH2 0x1431 SWAP1 PUSH2 0x218E JUMP JUMPDEST PUSH1 0x40 MLOAD DUP1 SWAP2 SUB SWAP1 REVERT JUMPDEST JUMPDEST DUP3 SWAP1 POP PUSH2 0x144E JUMP JUMPDEST PUSH2 0x144D DUP4 DUP4 PUSH2 0x1479 JUMP JUMPDEST JUMPDEST SWAP5 SWAP4 POP POP POP POP JUMP JUMPDEST PUSH1 0x0 DUP1 DUP3 PUSH20 0xFFFFFFFFFFFFFFFFFFFFFFFFFFFFFFFFFFFFFFFF AND EXTCODESIZE GT SWAP1 POP SWAP2 SWAP1 POP JUMP JUMPDEST PUSH1 0x0 DUP3 MLOAD GT ISZERO PUSH2 0x148C JUMPI DUP2 MLOAD DUP1 DUP4 PUSH1 0x20 ADD REVERT JUMPDEST DUP1 PUSH1 0x40 MLOAD PUSH32 0x8C379A000000000000000000000000000000000000000000000000000000000 DUP2 MSTORE PUSH1 0x4 ADD PUSH2 0x14C0 SWAP2 SWAP1 PUSH2 0x1E10 JUMP JUMPDEST PUSH1 0x40 MLOAD DUP1 SWAP2 SUB SWAP1 REVERT JUMPDEST PUSH1 0x0 DUP1 REVERT JUMPDEST PUSH1 0x0 PUSH32 0xFFFFFFFF00000000000000000000000000000000000000000000000000000000 DUP3 AND SWAP1 POP SWAP2 SWAP1 POP JUMP JUMPDEST PUSH2 0x1503 DUP2 PUSH2 0x14CE JUMP JUMPDEST DUP2 EQ PUSH2 0x150E JUMPI PUSH1 0x0 DUP1 REVERT JUMPDEST POP JUMP JUMPDEST PUSH1 0x0 DUP2 CALLDATALOAD SWAP1 POP PUSH2 0x1520 DUP2 PUSH2 0x14FA JUMP JUMPDEST SWAP3 SWAP2 POP POP JUMP JUMPDEST PUSH1 0x0 PUSH1 0x20 DUP3 DUP5 SUB SLT ISZERO PUSH2 0x153C JUMPI PUSH2 0x153B PUSH2 0x14C9 JUMP JUMPDEST JUMPDEST PUSH1 0x0 PUSH2 0x154A DUP5 DUP3 DUP6 ADD PUSH2 0x1511 JUMP JUMPDEST SWAP2 POP POP SWAP3 SWAP2 POP POP JUMP JUMPDEST PUSH1 0x0 DUP2 ISZERO ISZERO SWAP1 POP SWAP2 SWAP1 POP JUMP JUMPDEST PUSH2 0x1568 DUP2 PUSH2 0x1553 JUMP JUMPDEST DUP3 MSTORE POP POP JUMP JUMPDEST PUSH1 0x0 PUSH1 0x20 DUP3 ADD SWAP1 POP PUSH2 0x1583 PUSH1 0x0 DUP4 ADD DUP5 PUSH2 0x155F JUMP JUMPDEST SWAP3 SWAP2 POP POP JUMP JUMPDEST PUSH1 0x0 DUP2 SWAP1 POP SWAP2 SWAP1 POP JUMP JUMPDEST PUSH2 0x159C DUP2 PUSH2 0x1589 JUMP JUMPDEST DUP2 EQ PUSH2 0x15A7 JUMPI PUSH1 0x0 DUP1 REVERT JUMPDEST POP JUMP JUMPDEST PUSH1 0x0 DUP2 CALLDATALOAD SWAP1 POP PUSH2 0x15B9 DUP2 PUSH2 0x1593 JUMP JUMPDEST SWAP3 SWAP2 POP POP JUMP JUMPDEST PUSH1 0x0 PUSH1 0x20 DUP3 DUP5 SUB SLT ISZERO PUSH2 0x15D5 JUMPI PUSH2 0x15D4 PUSH2 0x14C9 JUMP JUMPDEST JUMPDEST PUSH1 0x0 PUSH2 0x15E3 DUP5 DUP3 DUP6 ADD PUSH2 0x15AA JUMP JUMPDEST SWAP2 POP POP SWAP3 SWAP2 POP POP JUMP JUMPDEST PUSH2 0x15F5 DUP2 PUSH2 0x1589 JUMP JUMPDEST DUP3 MSTORE POP POP JUMP JUMPDEST PUSH1 0x0 PUSH1 0x20 DUP3 ADD SWAP1 POP PUSH2 0x1610 PUSH1 0x0 DUP4 ADD DUP5 PUSH2 0x15EC JUMP JUMPDEST SWAP3 SWAP2 POP POP JUMP JUMPDEST PUSH1 0x0 DUP2 SWAP1 POP SWAP2 SWAP1 POP JUMP JUMPDEST PUSH2 0x1629 DUP2 PUSH2 0x1616 JUMP JUMPDEST DUP2 EQ PUSH2 0x1634 JUMPI PUSH1 0x0 DUP1 REVERT JUMPDEST POP JUMP JUMPDEST PUSH1 0x0 DUP2 CALLDATALOAD SWAP1 POP PUSH2 0x1646 DUP2 PUSH2 0x1620 JUMP JUMPDEST SWAP3 SWAP2 POP POP JUMP JUMPDEST PUSH1 0x0 PUSH1 0x20 DUP3 DUP5 SUB SLT ISZERO PUSH2 0x1662 JUMPI PUSH2 0x1661 PUSH2 0x14C9 JUMP JUMPDEST JUMPDEST PUSH1 0x0 PUSH2 0x1670 DUP5 DUP3 DUP6 ADD PUSH2 0x1637 JUMP JUMPDEST SWAP2 POP POP SWAP3 SWAP2 POP POP JUMP JUMPDEST PUSH1 0x0 PUSH20 0xFFFFFFFFFFFFFFFFFFFFFFFFFFFFFFFFFFFFFFFF DUP3 AND SWAP1 POP SWAP2 SWAP1 POP JUMP JUMPDEST PUSH1 0x0 DUP2 SWAP1 POP SWAP2 SWAP1 POP JUMP JUMPDEST PUSH1 0x0 PUSH2 0x16BE PUSH2 0x16B9 PUSH2 0x16B4 DUP5 PUSH2 0x1679 JUMP JUMPDEST PUSH2 0x1699 JUMP JUMPDEST PUSH2 0x1679 JUMP JUMPDEST SWAP1 POP SWAP2 SWAP1 POP JUMP JUMPDEST PUSH1 0x0 PUSH2 0x16D0 DUP3 PUSH2 0x16A3 JUMP JUMPDEST SWAP1 POP SWAP2 SWAP1 POP JUMP JUMPDEST PUSH1 0x0 PUSH2 0x16E2 DUP3 PUSH2 0x16C5 JUMP JUMPDEST SWAP1 POP SWAP2 SWAP1 POP JUMP JUMPDEST PUSH2 0x16F2 DUP2 PUSH2 0x16D7 JUMP JUMPDEST DUP3 MSTORE POP POP JUMP JUMPDEST PUSH2 0x1701 DUP2 PUSH2 0x1616 JUMP JUMPDEST DUP3 MSTORE POP POP JUMP JUMPDEST PUSH1 0x0 PUSH1 0x40 DUP3 ADD SWAP1 POP PUSH2 0x171C PUSH1 0x0 DUP4 ADD DUP6 PUSH2 0x16E9 JUMP JUMPDEST PUSH2 0x1729 PUSH1 0x20 DUP4 ADD DUP5 PUSH2 0x16F8 JUMP JUMPDEST SWAP4 SWAP3 POP POP POP JUMP JUMPDEST PUSH1 0x0 PUSH2 0x173B DUP3 PUSH2 0x1679 JUMP JUMPDEST SWAP1 POP SWAP2 SWAP1 POP JUMP JUMPDEST PUSH2 0x174B DUP2 PUSH2 0x1730 JUMP JUMPDEST DUP2 EQ PUSH2 0x1756 JUMPI PUSH1 0x0 DUP1 REVERT JUMPDEST POP JUMP JUMPDEST PUSH1 0x0 DUP2 CALLDATALOAD SWAP1 POP PUSH2 0x1768 DUP2 PUSH2 0x1742 JUMP JUMPDEST SWAP3 SWAP2 POP POP JUMP JUMPDEST PUSH1 0x0 DUP1 PUSH1 0x40 DUP4 DUP6 SUB SLT ISZERO PUSH2 0x1785 JUMPI PUSH2 0x1784 PUSH2 0x14C9 JUMP JUMPDEST JUMPDEST PUSH1 0x0 PUSH2 0x1793 DUP6 DUP3 DUP7 ADD PUSH2 0x15AA JUMP JUMPDEST SWAP3 POP POP PUSH1 0x20 PUSH2 0x17A4 DUP6 DUP3 DUP7 ADD PUSH2 0x1759 JUMP JUMPDEST SWAP2 POP POP SWAP3 POP SWAP3 SWAP1 POP JUMP JUMPDEST PUSH1 0x0 PUSH2 0x17B9 DUP3 PUSH2 0x1730 JUMP JUMPDEST SWAP1 POP SWAP2 SWAP1 POP JUMP JUMPDEST PUSH2 0x17C9 DUP2 PUSH2 0x17AE JUMP JUMPDEST DUP2 EQ PUSH2 0x17D4 JUMPI PUSH1 0x0 DUP1 REVERT JUMPDEST POP JUMP JUMPDEST PUSH1 0x0 DUP2 CALLDATALOAD SWAP1 POP PUSH2 0x17E6 DUP2 PUSH2 0x17C0 JUMP JUMPDEST SWAP3 SWAP2 POP POP JUMP JUMPDEST PUSH1 0x0 PUSH1 0x20 DUP3 DUP5 SUB SLT ISZERO PUSH2 0x1802 JUMPI PUSH2 0x1801 PUSH2 0x14C9 JUMP JUMPDEST JUMPDEST PUSH1 0x0 PUSH2 0x1810 DUP5 DUP3 DUP6 ADD PUSH2 0x17D7 JUMP JUMPDEST SWAP2 POP POP SWAP3 SWAP2 POP POP JUMP JUMPDEST PUSH1 0x0 PUSH1 0x20 DUP3 ADD SWAP1 POP PUSH2 0x182E PUSH1 0x0 DUP4 ADD DUP5 PUSH2 0x16F8 JUMP JUMPDEST SWAP3 SWAP2 POP POP JUMP JUMPDEST PUSH1 0x0 DUP1 PUSH1 0x40 DUP4 DUP6 SUB SLT ISZERO PUSH2 0x184B JUMPI PUSH2 0x184A PUSH2 0x14C9 JUMP JUMPDEST JUMPDEST PUSH1 0x0 PUSH2 0x1859 DUP6 DUP3 DUP7 ADD PUSH2 0x1637 JUMP JUMPDEST SWAP3 POP POP PUSH1 0x20 PUSH2 0x186A DUP6 DUP3 DUP7 ADD PUSH2 0x1637 JUMP JUMPDEST SWAP2 POP POP SWAP3 POP SWAP3 SWAP1 POP JUMP JUMPDEST PUSH2 0x187D DUP2 PUSH2 0x1730 JUMP JUMPDEST DUP3 MSTORE POP POP JUMP JUMPDEST PUSH1 0x0 PUSH1 0x20 DUP3 ADD SWAP1 POP PUSH2 0x1898 PUSH1 0x0 DUP4 ADD DUP5 PUSH2 0x1874 JUMP JUMPDEST SWAP3 SWAP2 POP POP JUMP JUMPDEST PUSH1 0x0 PUSH1 0x20 DUP3 DUP5 SUB SLT ISZERO PUSH2 0x18B4 JUMPI PUSH2 0x18B3 PUSH2 0x14C9 JUMP JUMPDEST JUMPDEST PUSH1 0x0 PUSH2 0x18C2 DUP5 DUP3 DUP6 ADD PUSH2 0x1759 JUMP JUMPDEST SWAP2 POP POP SWAP3 SWAP2 POP POP JUMP JUMPDEST PUSH1 0x0 DUP3 DUP3 MSTORE PUSH1 0x20 DUP3 ADD SWAP1 POP SWAP3 SWAP2 POP POP JUMP JUMPDEST PUSH32 0x416363657373436F6E74726F6C3A2063616E206F6E6C792072656E6F756E6365 PUSH1 0x0 DUP3 ADD MSTORE PUSH32 0x20726F6C657320666F722073656C660000000000000000000000000000000000 PUSH1 0x20 DUP3 ADD MSTORE POP JUMP JUMPDEST PUSH1 0x0 PUSH2 0x1938 PUSH1 0x2F DUP4 PUSH2 0x18CB JUMP JUMPDEST SWAP2 POP PUSH2 0x1943 DUP3 PUSH2 0x18DC JUMP JUMPDEST PUSH1 0x40 DUP3 ADD SWAP1 POP SWAP2 SWAP1 POP JUMP JUMPDEST PUSH1 0x0 PUSH1 0x20 DUP3 ADD SWAP1 POP DUP2 DUP2 SUB PUSH1 0x0 DUP4 ADD MSTORE PUSH2 0x1967 DUP2 PUSH2 0x192B JUMP JUMPDEST SWAP1 POP SWAP2 SWAP1 POP JUMP JUMPDEST PUSH32 0x4E6F7420616C6C6F776564000000000000000000000000000000000000000000 PUSH1 0x0 DUP3 ADD MSTORE POP JUMP JUMPDEST PUSH1 0x0 PUSH2 0x19A4 PUSH1 0xB DUP4 PUSH2 0x18CB JUMP JUMPDEST SWAP2 POP PUSH2 0x19AF DUP3 PUSH2 0x196E JUMP JUMPDEST PUSH1 0x20 DUP3 ADD SWAP1 POP SWAP2 SWAP1 POP JUMP JUMPDEST PUSH1 0x0 PUSH1 0x20 DUP3 ADD SWAP1 POP DUP2 DUP2 SUB PUSH1 0x0 DUP4 ADD MSTORE PUSH2 0x19D3 DUP2 PUSH2 0x1997 JUMP JUMPDEST SWAP1 POP SWAP2 SWAP1 POP JUMP JUMPDEST PUSH32 0x4E487B7100000000000000000000000000000000000000000000000000000000 PUSH1 0x0 MSTORE PUSH1 0x11 PUSH1 0x4 MSTORE PUSH1 0x24 PUSH1 0x0 REVERT JUMPDEST PUSH1 0x0 PUSH2 0x1A14 DUP3 PUSH2 0x1616 JUMP JUMPDEST SWAP2 POP PUSH32 0xFFFFFFFFFFFFFFFFFFFFFFFFFFFFFFFFFFFFFFFFFFFFFFFFFFFFFFFFFFFFFFFF DUP3 SUB PUSH2 0x1A46 JUMPI PUSH2 0x1A45 PUSH2 0x19DA JUMP JUMPDEST JUMPDEST PUSH1 0x1 DUP3 ADD SWAP1 POP SWAP2 SWAP1 POP JUMP JUMPDEST PUSH32 0x4F776E61626C653A206E6577206F776E657220697320746865207A65726F2061 PUSH1 0x0 DUP3 ADD MSTORE PUSH32 0x6464726573730000000000000000000000000000000000000000000000000000 PUSH1 0x20 DUP3 ADD MSTORE POP JUMP JUMPDEST PUSH1 0x0 PUSH2 0x1AAD PUSH1 0x26 DUP4 PUSH2 0x18CB JUMP JUMPDEST SWAP2 POP PUSH2 0x1AB8 DUP3 PUSH2 0x1A51 JUMP JUMPDEST PUSH1 0x40 DUP3 ADD SWAP1 POP SWAP2 SWAP1 POP JUMP JUMPDEST PUSH1 0x0 PUSH1 0x20 DUP3 ADD SWAP1 POP DUP2 DUP2 SUB PUSH1 0x0 DUP4 ADD MSTORE PUSH2 0x1ADC DUP2 PUSH2 0x1AA0 JUMP JUMPDEST SWAP1 POP SWAP2 SWAP1 POP JUMP JUMPDEST PUSH32 0x436F6C6C61746572616C204164647265737320416C7265616479204164646564 PUSH1 0x0 DUP3 ADD MSTORE POP JUMP JUMPDEST PUSH1 0x0 PUSH2 0x1B19 PUSH1 0x20 DUP4 PUSH2 0x18CB JUMP JUMPDEST SWAP2 POP PUSH2 0x1B24 DUP3 PUSH2 0x1AE3 JUMP JUMPDEST PUSH1 0x20 DUP3 ADD SWAP1 POP SWAP2 SWAP1 POP JUMP JUMPDEST PUSH1 0x0 PUSH1 0x20 DUP3 ADD SWAP1 POP DUP2 DUP2 SUB PUSH1 0x0 DUP4 ADD MSTORE PUSH2 0x1B48 DUP2 PUSH2 0x1B0C JUMP JUMPDEST SWAP1 POP SWAP2 SWAP1 POP JUMP JUMPDEST PUSH32 0x4F776E61626C653A2063616C6C6572206973206E6F7420746865206F776E6572 PUSH1 0x0 DUP3 ADD MSTORE POP JUMP JUMPDEST PUSH1 0x0 PUSH2 0x1B85 PUSH1 0x20 DUP4 PUSH2 0x18CB JUMP JUMPDEST SWAP2 POP PUSH2 0x1B90 DUP3 PUSH2 0x1B4F JUMP JUMPDEST PUSH1 0x20 DUP3 ADD SWAP1 POP SWAP2 SWAP1 POP JUMP JUMPDEST PUSH1 0x0 PUSH1 0x20 DUP3 ADD SWAP1 POP DUP2 DUP2 SUB PUSH1 0x0 DUP4 ADD MSTORE PUSH2 0x1BB4 DUP2 PUSH2 0x1B78 JUMP JUMPDEST SWAP1 POP SWAP2 SWAP1 POP JUMP JUMPDEST PUSH1 0x0 PUSH1 0x40 DUP3 ADD SWAP1 POP PUSH2 0x1BD0 PUSH1 0x0 DUP4 ADD DUP6 PUSH2 0x1874 JUMP JUMPDEST PUSH2 0x1BDD PUSH1 0x20 DUP4 ADD DUP5 PUSH2 0x16F8 JUMP JUMPDEST SWAP4 SWAP3 POP POP POP JUMP JUMPDEST PUSH1 0x0 PUSH2 0x1BEF DUP3 PUSH2 0x1616 JUMP JUMPDEST SWAP2 POP PUSH2 0x1BFA DUP4 PUSH2 0x1616 JUMP JUMPDEST SWAP3 POP DUP3 DUP3 SUB SWAP1 POP DUP2 DUP2 GT ISZERO PUSH2 0x1C12 JUMPI PUSH2 0x1C11 PUSH2 0x19DA JUMP JUMPDEST JUMPDEST SWAP3 SWAP2 POP POP JUMP JUMPDEST PUSH1 0x0 PUSH1 0x60 DUP3 ADD SWAP1 POP PUSH2 0x1C2D PUSH1 0x0 DUP4 ADD DUP7 PUSH2 0x1874 JUMP JUMPDEST PUSH2 0x1C3A PUSH1 0x20 DUP4 ADD DUP6 PUSH2 0x1874 JUMP JUMPDEST PUSH2 0x1C47 PUSH1 0x40 DUP4 ADD DUP5 PUSH2 0x16F8 JUMP JUMPDEST SWAP5 SWAP4 POP POP POP POP JUMP JUMPDEST PUSH1 0x0 PUSH2 0x1C5A DUP3 PUSH2 0x1616 JUMP JUMPDEST SWAP2 POP PUSH2 0x1C65 DUP4 PUSH2 0x1616 JUMP JUMPDEST SWAP3 POP DUP3 DUP3 ADD SWAP1 POP DUP1 DUP3 GT ISZERO PUSH2 0x1C7D JUMPI PUSH2 0x1C7C PUSH2 0x19DA JUMP JUMPDEST JUMPDEST SWAP3 SWAP2 POP POP JUMP JUMPDEST PUSH1 0x0 DUP2 SWAP1 POP SWAP3 SWAP2 POP POP JUMP JUMPDEST PUSH32 0x416363657373436F6E74726F6C3A206163636F756E7420000000000000000000 PUSH1 0x0 DUP3 ADD MSTORE POP JUMP JUMPDEST PUSH1 0x0 PUSH2 0x1CC4 PUSH1 0x17 DUP4 PUSH2 0x1C83 JUMP JUMPDEST SWAP2 POP PUSH2 0x1CCF DUP3 PUSH2 0x1C8E JUMP JUMPDEST PUSH1 0x17 DUP3 ADD SWAP1 POP SWAP2 SWAP1 POP JUMP JUMPDEST PUSH1 0x0 DUP2 MLOAD SWAP1 POP SWAP2 SWAP1 POP JUMP JUMPDEST PUSH1 0x0 JUMPDEST DUP4 DUP2 LT ISZERO PUSH2 0x1D03 JUMPI DUP1 DUP3 ADD MLOAD DUP2 DUP5 ADD MSTORE PUSH1 0x20 DUP2 ADD SWAP1 POP PUSH2 0x1CE8 JUMP JUMPDEST PUSH1 0x0 DUP5 DUP5 ADD MSTORE POP POP POP POP JUMP JUMPDEST PUSH1 0x0 PUSH2 0x1D1A DUP3 PUSH2 0x1CDA JUMP JUMPDEST PUSH2 0x1D24 DUP2 DUP6 PUSH2 0x1C83 JUMP JUMPDEST SWAP4 POP PUSH2 0x1D34 DUP2 DUP6 PUSH1 0x20 DUP7 ADD PUSH2 0x1CE5 JUMP JUMPDEST DUP1 DUP5 ADD SWAP2 POP POP SWAP3 SWAP2 POP POP JUMP JUMPDEST PUSH32 0x206973206D697373696E6720726F6C6520000000000000000000000000000000 PUSH1 0x0 DUP3 ADD MSTORE POP JUMP JUMPDEST PUSH1 0x0 PUSH2 0x1D76 PUSH1 0x11 DUP4 PUSH2 0x1C83 JUMP JUMPDEST SWAP2 POP PUSH2 0x1D81 DUP3 PUSH2 0x1D40 JUMP JUMPDEST PUSH1 0x11 DUP3 ADD SWAP1 POP SWAP2 SWAP1 POP JUMP JUMPDEST PUSH1 0x0 PUSH2 0x1D97 DUP3 PUSH2 0x1CB7 JUMP JUMPDEST SWAP2 POP PUSH2 0x1DA3 DUP3 DUP6 PUSH2 0x1D0F JUMP JUMPDEST SWAP2 POP PUSH2 0x1DAE DUP3 PUSH2 0x1D69 JUMP JUMPDEST SWAP2 POP PUSH2 0x1DBA DUP3 DUP5 PUSH2 0x1D0F JUMP JUMPDEST SWAP2 POP DUP2 SWAP1 POP SWAP4 SWAP3 POP POP POP JUMP JUMPDEST PUSH1 0x0 PUSH1 0x1F NOT PUSH1 0x1F DUP4 ADD AND SWAP1 POP SWAP2 SWAP1 POP JUMP JUMPDEST PUSH1 0x0 PUSH2 0x1DE2 DUP3 PUSH2 0x1CDA JUMP JUMPDEST PUSH2 0x1DEC DUP2 DUP6 PUSH2 0x18CB JUMP JUMPDEST SWAP4 POP PUSH2 0x1DFC DUP2 DUP6 PUSH1 0x20 DUP7 ADD PUSH2 0x1CE5 JUMP JUMPDEST PUSH2 0x1E05 DUP2 PUSH2 0x1DC6 JUMP JUMPDEST DUP5 ADD SWAP2 POP POP SWAP3 SWAP2 POP POP JUMP JUMPDEST PUSH1 0x0 PUSH1 0x20 DUP3 ADD SWAP1 POP DUP2 DUP2 SUB PUSH1 0x0 DUP4 ADD MSTORE PUSH2 0x1E2A DUP2 DUP5 PUSH2 0x1DD7 JUMP JUMPDEST SWAP1 POP SWAP3 SWAP2 POP POP JUMP JUMPDEST PUSH2 0x1E3B DUP2 PUSH2 0x1553 JUMP JUMPDEST DUP2 EQ PUSH2 0x1E46 JUMPI PUSH1 0x0 DUP1 REVERT JUMPDEST POP JUMP JUMPDEST PUSH1 0x0 DUP2 MLOAD SWAP1 POP PUSH2 0x1E58 DUP2 PUSH2 0x1E32 JUMP JUMPDEST SWAP3 SWAP2 POP POP JUMP JUMPDEST PUSH1 0x0 PUSH1 0x20 DUP3 DUP5 SUB SLT ISZERO PUSH2 0x1E74 JUMPI PUSH2 0x1E73 PUSH2 0x14C9 JUMP JUMPDEST JUMPDEST PUSH1 0x0 PUSH2 0x1E82 DUP5 DUP3 DUP6 ADD PUSH2 0x1E49 JUMP JUMPDEST SWAP2 POP POP SWAP3 SWAP2 POP POP JUMP JUMPDEST PUSH32 0x5361666545524332303A204552433230206F7065726174696F6E20646964206E PUSH1 0x0 DUP3 ADD MSTORE PUSH32 0x6F74207375636365656400000000000000000000000000000000000000000000 PUSH1 0x20 DUP3 ADD MSTORE POP JUMP JUMPDEST PUSH1 0x0 PUSH2 0x1EE7 PUSH1 0x2A DUP4 PUSH2 0x18CB JUMP JUMPDEST SWAP2 POP PUSH2 0x1EF2 DUP3 PUSH2 0x1E8B JUMP JUMPDEST PUSH1 0x40 DUP3 ADD SWAP1 POP SWAP2 SWAP1 POP JUMP JUMPDEST PUSH1 0x0 PUSH1 0x20 DUP3 ADD SWAP1 POP DUP2 DUP2 SUB PUSH1 0x0 DUP4 ADD MSTORE PUSH2 0x1F16 DUP2 PUSH2 0x1EDA JUMP JUMPDEST SWAP1 POP SWAP2 SWAP1 POP JUMP JUMPDEST PUSH1 0x0 PUSH2 0x1F28 DUP3 PUSH2 0x1616 JUMP JUMPDEST SWAP2 POP PUSH2 0x1F33 DUP4 PUSH2 0x1616 JUMP JUMPDEST SWAP3 POP DUP3 DUP3 MUL PUSH2 0x1F41 DUP2 PUSH2 0x1616 JUMP JUMPDEST SWAP2 POP DUP3 DUP3 DIV DUP5 EQ DUP4 ISZERO OR PUSH2 0x1F58 JUMPI PUSH2 0x1F57 PUSH2 0x19DA JUMP JUMPDEST JUMPDEST POP SWAP3 SWAP2 POP POP JUMP JUMPDEST PUSH32 0x4E487B7100000000000000000000000000000000000000000000000000000000 PUSH1 0x0 MSTORE PUSH1 0x41 PUSH1 0x4 MSTORE PUSH1 0x24 PUSH1 0x0 REVERT JUMPDEST PUSH32 0x4E487B7100000000000000000000000000000000000000000000000000000000 PUSH1 0x0 MSTORE PUSH1 0x32 PUSH1 0x4 MSTORE PUSH1 0x24 PUSH1 0x0 REVERT JUMPDEST PUSH1 0x0 PUSH2 0x1FC8 DUP3 PUSH2 0x1616 JUMP JUMPDEST SWAP2 POP PUSH1 0x0 DUP3 SUB PUSH2 0x1FDB JUMPI PUSH2 0x1FDA PUSH2 0x19DA JUMP JUMPDEST JUMPDEST PUSH1 0x1 DUP3 SUB SWAP1 POP SWAP2 SWAP1 POP JUMP JUMPDEST PUSH32 0x537472696E67733A20686578206C656E67746820696E73756666696369656E74 PUSH1 0x0 DUP3 ADD MSTORE POP JUMP JUMPDEST PUSH1 0x0 PUSH2 0x201C PUSH1 0x20 DUP4 PUSH2 0x18CB JUMP JUMPDEST SWAP2 POP PUSH2 0x2027 DUP3 PUSH2 0x1FE6 JUMP JUMPDEST PUSH1 0x20 DUP3 ADD SWAP1 POP SWAP2 SWAP1 POP JUMP JUMPDEST PUSH1 0x0 PUSH1 0x20 DUP3 ADD SWAP1 POP DUP2 DUP2 SUB PUSH1 0x0 DUP4 ADD MSTORE PUSH2 0x204B DUP2 PUSH2 0x200F JUMP JUMPDEST SWAP1 POP SWAP2 SWAP1 POP JUMP JUMPDEST PUSH32 0x416464726573733A20696E73756666696369656E742062616C616E636520666F PUSH1 0x0 DUP3 ADD MSTORE PUSH32 0x722063616C6C0000000000000000000000000000000000000000000000000000 PUSH1 0x20 DUP3 ADD MSTORE POP JUMP JUMPDEST PUSH1 0x0 PUSH2 0x20AE PUSH1 0x26 DUP4 PUSH2 0x18CB JUMP JUMPDEST SWAP2 POP PUSH2 0x20B9 DUP3 PUSH2 0x2052 JUMP JUMPDEST PUSH1 0x40 DUP3 ADD SWAP1 POP SWAP2 SWAP1 POP JUMP JUMPDEST PUSH1 0x0 PUSH1 0x20 DUP3 ADD SWAP1 POP DUP2 DUP2 SUB PUSH1 0x0 DUP4 ADD MSTORE PUSH2 0x20DD DUP2 PUSH2 0x20A1 JUMP JUMPDEST SWAP1 POP SWAP2 SWAP1 POP JUMP JUMPDEST PUSH1 0x0 DUP2 MLOAD SWAP1 POP SWAP2 SWAP1 POP JUMP JUMPDEST PUSH1 0x0 DUP2 SWAP1 POP SWAP3 SWAP2 POP POP JUMP JUMPDEST PUSH1 0x0 PUSH2 0x2105 DUP3 PUSH2 0x20E4 JUMP JUMPDEST PUSH2 0x210F DUP2 DUP6 PUSH2 0x20EF JUMP JUMPDEST SWAP4 POP PUSH2 0x211F DUP2 DUP6 PUSH1 0x20 DUP7 ADD PUSH2 0x1CE5 JUMP JUMPDEST DUP1 DUP5 ADD SWAP2 POP POP SWAP3 SWAP2 POP POP JUMP JUMPDEST PUSH1 0x0 PUSH2 0x2137 DUP3 DUP5 PUSH2 0x20FA JUMP JUMPDEST SWAP2 POP DUP2 SWAP1 POP SWAP3 SWAP2 POP POP JUMP JUMPDEST PUSH32 0x416464726573733A2063616C6C20746F206E6F6E2D636F6E7472616374000000 PUSH1 0x0 DUP3 ADD MSTORE POP JUMP JUMPDEST PUSH1 0x0 PUSH2 0x2178 PUSH1 0x1D DUP4 PUSH2 0x18CB JUMP JUMPDEST SWAP2 POP PUSH2 0x2183 DUP3 PUSH2 0x2142 JUMP JUMPDEST PUSH1 0x20 DUP3 ADD SWAP1 POP SWAP2 SWAP1 POP JUMP JUMPDEST PUSH1 0x0 PUSH1 0x20 DUP3 ADD SWAP1 POP DUP2 DUP2 SUB PUSH1 0x0 DUP4 ADD MSTORE PUSH2 0x21A7 DUP2 PUSH2 0x216B JUMP JUMPDEST SWAP1 POP SWAP2 SWAP1 POP JUMP INVALID LOG2 PUSH5 0x6970667358 0x22 SLT KECCAK256 BLOCKHASH RETURNDATASIZE JUMP 0xD9 0xCA DUP1 BLOCKHASH CODESIZE PUSH29 0x4F207A20CFACB7B01436D90A7ED81565714D3CE075097964736F6C6343 STOP ADDMOD GT STOP CALLER "
				},
				"gasEstimates": {
					"creation": {
						"codeDepositCost": "1735200",
						"executionCost": "infinite",
						"totalCost": "infinite"
					},
					"external": {
						"DEFAULT_ADMIN_ROLE()": "424",
						"MANAGER_ROLE()": "373",
						"_rsvVault(uint256)": "infinite",
						"addReserveVault(address)": "infinite",
						"currentReserveId()": "2496",
						"depositCollateral(uint256,uint256)": "infinite",
						"getRoleAdmin(bytes32)": "infinite",
						"grantRole(bytes32,address)": "infinite",
						"hasRole(bytes32,address)": "3207",
						"owner()": "2567",
						"renounceOwnership()": "30487",
						"renounceRole(bytes32,address)": "infinite",
						"revokeRole(bytes32,address)": "infinite",
						"supportsInterface(bytes4)": "751",
						"transferOwnership(address)": "30832",
						"withdrawCollateral(uint256,uint256)": "infinite"
					},
					"internal": {
						"checkReserveContract(contract IERC20)": "infinite"
					}
				},
				"methodIdentifiers": {
					"DEFAULT_ADMIN_ROLE()": "a217fddf",
					"MANAGER_ROLE()": "ec87621c",
					"_rsvVault(uint256)": "279ba28d",
					"addReserveVault(address)": "3b61f098",
					"currentReserveId()": "5306f102",
					"depositCollateral(uint256,uint256)": "ece13732",
					"getRoleAdmin(bytes32)": "248a9ca3",
					"grantRole(bytes32,address)": "2f2ff15d",
					"hasRole(bytes32,address)": "91d14854",
					"owner()": "8da5cb5b",
					"renounceOwnership()": "715018a6",
					"renounceRole(bytes32,address)": "36568abe",
					"revokeRole(bytes32,address)": "d547741f",
					"supportsInterface(bytes4)": "01ffc9a7",
					"transferOwnership(address)": "f2fde38b",
					"withdrawCollateral(uint256,uint256)": "767a7b05"
				}
			},
			"storageLayout": {
				"storage": [
					{
						"astId": 396,
						"contract": "tests/Reserves-collateral.sol:ESPEEReserves",
						"label": "_owner",
						"offset": 0,
						"slot": "0",
						"type": "t_address"
					},
					{
						"astId": 512,
						"contract": "tests/Reserves-collateral.sol:ESPEEReserves",
						"label": "_status",
						"offset": 0,
						"slot": "1",
						"type": "t_uint256"
					},
					{
						"astId": 24,
						"contract": "tests/Reserves-collateral.sol:ESPEEReserves",
						"label": "_roles",
						"offset": 0,
						"slot": "2",
						"type": "t_mapping(t_bytes32,t_struct(RoleData)19_storage)"
					},
					{
						"astId": 2979,
						"contract": "tests/Reserves-collateral.sol:ESPEEReserves",
						"label": "currentReserveId",
						"offset": 0,
						"slot": "3",
						"type": "t_uint256"
					},
					{
						"astId": 2990,
						"contract": "tests/Reserves-collateral.sol:ESPEEReserves",
						"label": "_rsvVault",
						"offset": 0,
						"slot": "4",
						"type": "t_mapping(t_uint256,t_struct(ReserveVault)2985_storage)"
					}
				],
				"types": {
					"t_address": {
						"encoding": "inplace",
						"label": "address",
						"numberOfBytes": "20"
					},
					"t_bool": {
						"encoding": "inplace",
						"label": "bool",
						"numberOfBytes": "1"
					},
					"t_bytes32": {
						"encoding": "inplace",
						"label": "bytes32",
						"numberOfBytes": "32"
					},
					"t_contract(IERC20)644": {
						"encoding": "inplace",
						"label": "contract IERC20",
						"numberOfBytes": "20"
					},
					"t_mapping(t_address,t_bool)": {
						"encoding": "mapping",
						"key": "t_address",
						"label": "mapping(address => bool)",
						"numberOfBytes": "32",
						"value": "t_bool"
					},
					"t_mapping(t_bytes32,t_struct(RoleData)19_storage)": {
						"encoding": "mapping",
						"key": "t_bytes32",
						"label": "mapping(bytes32 => struct AccessControl.RoleData)",
						"numberOfBytes": "32",
						"value": "t_struct(RoleData)19_storage"
					},
					"t_mapping(t_uint256,t_struct(ReserveVault)2985_storage)": {
						"encoding": "mapping",
						"key": "t_uint256",
						"label": "mapping(uint256 => struct ESPEEReserves.ReserveVault)",
						"numberOfBytes": "32",
						"value": "t_struct(ReserveVault)2985_storage"
					},
					"t_struct(ReserveVault)2985_storage": {
						"encoding": "inplace",
						"label": "struct ESPEEReserves.ReserveVault",
						"members": [
							{
								"astId": 2982,
								"contract": "tests/Reserves-collateral.sol:ESPEEReserves",
								"label": "collateral",
								"offset": 0,
								"slot": "0",
								"type": "t_contract(IERC20)644"
							},
							{
								"astId": 2984,
								"contract": "tests/Reserves-collateral.sol:ESPEEReserves",
								"label": "amount",
								"offset": 0,
								"slot": "1",
								"type": "t_uint256"
							}
						],
						"numberOfBytes": "64"
					},
					"t_struct(RoleData)19_storage": {
						"encoding": "inplace",
						"label": "struct AccessControl.RoleData",
						"members": [
							{
								"astId": 16,
								"contract": "tests/Reserves-collateral.sol:ESPEEReserves",
								"label": "members",
								"offset": 0,
								"slot": "0",
								"type": "t_mapping(t_address,t_bool)"
							},
							{
								"astId": 18,
								"contract": "tests/Reserves-collateral.sol:ESPEEReserves",
								"label": "adminRole",
								"offset": 0,
								"slot": "1",
								"type": "t_bytes32"
							}
						],
						"numberOfBytes": "64"
					},
					"t_uint256": {
						"encoding": "inplace",
						"label": "uint256",
						"numberOfBytes": "32"
					}
				}
			},
			"userdoc": {
				"kind": "user",
				"methods": {},
				"version": 1
			}
		}
	}
}